:10000000C2C20000EDC20000EBC20000E9C2000065
:10001000E7C20000E5C20000E3C20000E1C2000048
:10002000DFC20000DDC20000DBC20000D9C2000058
:10003000D7C20000D5C20000D3C20000D1C2000068
:10004000CFC200000C948351CBC20000C9C2000093
:10005000C7C20000C5C20000C3C200000C94F8690A
:10006000BFC200000C941F6C0C94476DB9C2000015
:10007000B7C20000B5C20000B3C20000B1C20000A8
:100080000C945651ADC20000ABC20000A9C20000E2
:100090000C94586C0C94866DA3C20000A1C20000A1
:1000A0009FC200009DC200000C94295199C200001B
:1000B00097C2000095C2000093C200000C94FC504F
:1000C0008FC200008DC200008BC200000C94916CA6
:1000D0000C94C56D85C200000C94CA6C0C94046E1F
:1000E0007FC2000005A84CCDB2D44EB93836A90263
:1000F0000C50B9918688083CA6AAAA2ABE00000026
:10010000803F000000006410B71DC8206E3BAC307B
:10011000D9269041DC76F4516B6B5861B24D3C713D
:1001200005502083B8ED44930FF0E8A3D6D68CB3E6
:1001300061CBB0C2649BD4D2D38678E20AA01CF211
:10014000BDBD50424D20696D616765206D7573744A
:10015000206265206174206C6561737420313020E9
:10016000706978656C7320776964652E002C206D4A
:1001700061782064656E736974793A20002C207070
:10018000656E2077696474683A200050656E7769FF
:10019000647468207465737420004368616E6769D5
:1001A0006E67206261636B20746F206C69766520D6
:1001B0006D6F64652E0046696C652072656D6F76A3
:1001C00065642E0046696C6520616C7265616479B6
:1001D000206578697374732E00457865637574695A
:1001E0006E6720636F6D6D616E643A0053746F7259
:1001F000696E6720636F6D6D616E643A006D6D00AE
:100200004368616E6765642050656E207769647429
:100210006820746F20004E657720616363656C65AC
:10022000726174696F6E3A20004E6577206D617857
:100230002073706565643A200055703A2000446F61
:10024000776E3A2000504753504545442C005047A4
:100250004C4946542C005047535445504D554C542E
:1002600049504C4945522C00504753544550535027
:1002700045525245562C0050474D4D50455252451F
:10028000562C00504753495A452C0050474E414D7B
:10029000452C002900526563616C632070616765BD
:1002A00048656967687420696E207374657073208F
:1002B00028002900526563616C632070616765578F
:1002C0006964746820696E207374657073202800F7
:1002D0002900292C2073746570735065724D4D2070
:1002E0002800526563616C63206D6D5065725374B4
:1002F00065702028004C6F61646564206D6F746FB9
:10030000722073746570206D756C7469706C6965AA
:10031000723A004C6F61646564206D616368696E58
:1003200065206E616D653A004C6F6164656420758F
:100330007020706F733A004C6F6164656420646F65
:10034000776E20706F733A004C6F61646564206D46
:100350006F746F7220737465707320706572207291
:1003600065763A004C6F61646564206D6D20706540
:1003700072207265763A004C6F61646564206D612D
:100380006368696E65206865696768743A004C6FD8
:1003900061646564206D616368696E652077696476
:1003A00074683A002069736E2774206120636F6D52
:1003B0006D616E642049207265636F676E69736555
:1003C0002E00536F7272792C200029206E6F7420DA
:1003D0007061727365642E00436F6D6D616E642091
:1003E0002800436865636B73756D206E6F74206DB4
:1003F000617463686564213A004920676F74200066
:100400007600504F4C41524752415048204F4E21A8
:10041000007C3C3E5E2B3D3F2F5B5D3B2C2A225CEB
:100420000000002100240027002A002D00300033A6
:100430000001010000040107010A0100002200255B
:100440000028002B002E00310034000201000005BE
:100450000108010B01000020002300260029002CC8
:10046000002F003200000100000301060109010510
:10047000050505070508080808020202020A0A081D
:100480000804040404010101010101010103030343
:100490000303030303040707070C0C0C0C0C0C0CE0
:1004A0000C0202020206060606060606060B0B0BE7
:1004B0000B0B0B0B0B010210202008081020401022
:1004C0002040800201020108040201010204081018
:1004D0002040808040201008040201800402018036
:1004E000402010080402010804020101020408105F
:1004F00020408001020408102040800000090A0208
:10050000080B0C0D070603040100000000000000AA
:1005100000000000000000000000000000000000DB
:100520000000000000000011100F0000000000009B
:1005300000000000000000000000000000000000BB
:1005400000494E46494E4954594E414ECDCCCC3DC2
:100550000AD7233C17B7D13877CC2B329595E624B0
:100560001FB14F0A000020410000C84200401C4655
:1005700020BCBE4CCA1B0E5AAEC59D74C80CC351DC
:100580005F556E6FC30C11241FBECFEFD1E2DEBFEB
:10059000CDBF00E00CBF1DE0A0E0B2E0EEEFF5EF54
:1005A00000E00BBF02C007900D92A838B107D9F741
:1005B0001BBE16E1A8E8BDE001C01D92AB30B1073B
:1005C000E1F715E0C4E8D5E004C02297FE010E94DF
:1005D000AD7ACC37D107C9F70E948C700C94F37AAE
:1005E0000FCDCF93DF93BC018230910510F462E010
:1005F00070E0A0910716B0910816ED01E0E0F0E080
:1006000040E050E021C0888199818617970769F4FE
:100610008A819B81309719F09383828304C09093E1
:10062000081680930716FE0134C06817790738F45E
:100630004115510519F08417950708F4AC01FE0126
:100640008A819B819C01E9012097E9F641155105BA
:10065000A9F1CA01861B970B049708F4BA01E0E0E0
:10066000F0E02AC08D919C91119784179507F9F4B9
:100670006417750781F412968D919C9113973097AA
:1006800019F09383828304C0909308168093071611
:10069000FD0132964CC0CA01861B970BFD01E80F85
:1006A000F91F6193719302978D939C9340C0FD0154
:1006B000828193819C01D9011097A1F68091051642
:1006C00090910616892B41F48091D60C9091D70C0D
:1006D00090930616809305164091D80C5091D90C32
:1006E0004115510541F44DB75EB78091D40C9091FE
:1006F000D50C481B590B2091051630910616CA01DE
:10070000821B930B8617970780F0AB014E5F5F4FFC
:100710008417950750F0420F531F509306164093CD
:100720000516F9016193719302C0E0E0F0E0CF019A
:10073000DF91CF910895CF93DF93009709F450C0D4
:10074000EC0122971B821A82A0910716B09108161D
:10075000109709F140E050E0AC17BD0708F1BB83EA
:10076000AA83FE0121913191E20FF31FAE17BF075B
:1007700079F48D919C911197280F391F2E5F3F4F6F
:100780003983288312968D919C9113979B838A833A
:100790004115510571F4D0930816C093071620C077
:1007A00012968D919C911397AD01009711F0DC0189
:1007B000D3CFFA01D383C28321913191E20FF31F8A
:1007C000CE17DF0769F488819981280F391F2E5FC2
:1007D0003F4FFA01318320838A819B8193838283F7
:1007E000DF91CF910895A0E0B0E0E9EFF3E00C9441
:1007F000C47AEC01A880B980CA80DB80A114B1045E
:10080000C104D10441F484E2A82E89EDB82E8BE511
:10081000C82E87E0D82EC601B5012DE133EF41E0A7
:1008200050E00E947C7A27EA31E440E050E00E94E8
:100830001C7A7B018C01C601B5012DE133EF41E04B
:1008400050E00E947C7ACA01B9012CEE34EF4FEFE0
:100850005FEF0E941C7A6E0D7F1D801F911F97FF16
:1008600004C06150704080409048688379838A83D7
:100870009B839B01AC015F77B901CA01CDB7DEB79D
:10088000EAE00C94E07AAFCF8AED9CE0ACCF6093C5
:10089000DA0C7093DB0C8093DC0C9093DD0C0895E4
:1008A000A0E0B0E0E6E5F4E00C94BE7A6C010097BD
:1008B00021F4CB0196DE6C01BDC08EEF882E8FEF48
:1008C000982E8C0C9D1C8601060F171F0815190504
:1008D00008F4AEC0F401A081B181A617B707B0F04B
:1008E000A530B10508F4A6C0CD0104978617970777
:1008F00008F4A0C01297A61BB70BF801A193B193FF
:10090000D4016D937C93CF0116DF94C07B01EA1A6A
:10091000FB0AEEEFFFEFEE0EFF1E36016A0E7B1EA6
:10092000C0910716D091081644245524AA24BB244C
:100930004AC0C615D705E1F5488159814E155F05B6
:10094000B8F1CA0104978E159F05B0F41296A40F52
:10095000B51FF401B183A0832A813B814114510466
:1009600031F0D20113963C932E93129763C03093CB
:100970000816209307165EC08A819B81F801938335
:100980008283425050404E195F0951834083411485
:10099000510431F0D20113961C930E93129704C0A8
:1009A0001093081600930716F4017183608342C008
:1009B00088819981A816B90608F45C012E018A8104
:1009C0009B819C01E901209709F0B3CF8091051626
:1009D0009091061686159705E9F4A616B706D0F489
:1009E0002091D80C3091D90C2115310541F42DB747
:1009F0003EB78091D40C9091D50C281B390B02176F
:100A00001307B0F41093061600930516D4016D93E6
:100A10007C9310C0CB01E5DDEC01009749F0F401B7
:100A200040815181B6015FD0C60185DE6E0102C0F2
:100A3000CC24DD24C601CDB7DEB7E0E10C94DA7A30
:100A400066277727C8C0FC0188279927E894219159
:100A50002032E9F3293010F02E30C8F32B3239F070
:100A60002D3231F4689403C0AED0820F911D2191D4
:100A700020532A30C8F31EF4909581959F4F089516
:100A80001F93FC0199278827BC01E894119110322B
:100A9000E9F3193010F01E30C8F31B3249F01D3253
:100AA00041F4689405C07AD0610F711D811D911DBC
:100AB000119110531A30B8F33EF4909580957095CB
:100AC00061957F4F8F4F9F4F1F910895FB01DC0170
:100AD00004C08D910190801921F441505040C8F715
:100AE000881B990B0895FB01DC0102C001900D9257
:100AF00041505040D8F70895FC018191861721F0AC
:100B00008823D9F7992708953197CF010895FB01DC
:100B1000DC018D91019080190110D9F3990B089592
:100B2000FB01DC0101900D920020E1F70895FB012B
:100B3000DC014150504030F08D910190801919F442
:100B40000020B9F7881B990B0895FB01DC01415087
:100B5000504048F001900D920020C9F701C01D924D
:100B600041505040E0F70895FB0151915523A9F001
:100B7000BF01DC014D9145174111E1F759F4CD0159
:100B80000190002049F04D9140154111C9F3FB013E
:100B90004111EFCF81E090E001970895592F482F40
:100BA000372F262F660F771F881F991F660F771F15
:100BB000881F991F620F731F841F951F660F771F71
:100BC000881F991F08957AE0979F902D879F802D09
:100BD000910D11240895A0E0B0E0E1EFF5E00C9450
:100BE000C27AEC015B016115710519F0FB0191837B
:100BF0008083F9908F2D90E00E94B17A892BC9F7FC
:100C0000FDE2FF1621F4F990EE24E39405C02BE2F7
:100C1000F21609F4F990EE248E0101501040C8013B
:100C200061E475E043E050E033D1892BF9F48E01A3
:100C30000E5F1F4FC80164E475E045E050E028D125
:100C4000892B19F48E01095F1F4FA114B10419F00B
:100C5000F50111830083E0FC04C070E090E080E8BF
:100C600013C070E090E080E86FEF07C1C80169E44D
:100C700075E043E050E00CD1892B69F4A114B10474
:100C800029F470E090E080EC6FE7F7C02296F50160
:100C9000D183C083F6CF8824992440E050E060E0FF
:100CA00070E0EF2DE053EA30A0F5F2E0EF2A8E2D50
:100CB00090E09C0128703070E2FE06C0232B79F58D
:100CC0000894811C911C2BC0232B19F008948108D7
:100CD0009108DB01CA0112E0880F991FAA1FBB1FF0
:100CE0001A95D1F7480F591F6A1F7B1F440F551FD4
:100CF000661F771F4E0F511D611D711D483929E96F
:100D0000520729E9620729E1720748F084E0E82ADE
:100D100006C0EE3F31F4E3FC39C098E0E92AF990CF
:100D2000C0CFE53311F0E53189F529912D3219F461
:100D3000E0E1EE2A05C02B3219F081E090E003C01B
:100D4000299182E090E0E22FE053EA3018F0C81BCE
:100D5000D90B1CC020E030E0FCE020383F075CF4F9
:100D6000C901880F991F880F991F280F391F220F5B
:100D7000331F2E0F311DE991E053EA3068F3E4FE92
:100D800003C0309521953F4F820E931ECE2CDD245B
:100D9000E1FE07C0A114B10421F02197F501D18330
:100DA000C083CB01BA010E9420787B018C01F3E063
:100DB000CF22DD2423E0C216D10421F417FB1095C5
:100DC00017F9109557016801C801B70120E030E01C
:100DD00040E050E00E948077882309F44AC097FEE3
:100DE0000DC020E6E22E25E0F22E90948194910829
:100DF0009394C0E2D0E000E010E012C098E7E92E42
:100E000095E0F92EF6CFF701259135914591549152
:100E1000C601B5010E9418795B016C018C1A9D0A0C
:100E20008C169D0684F7D595C7950F5F1F4F06302A
:100E3000110529F08CEF9FEFE80EF91EF1CFC501E7
:100E4000D6017C018D018C2D880F8D2D881F8F3F41
:100E500051F0C601B50120E030E040E050E00E94D2
:100E60008077882331F482E290E090930A16809391
:100E700009167E2D9F2D802F612F272F392F482F68
:100E8000562FB901CA01CDB7DEB7ECE00C94DE7A7B
:100E9000FB01DC014150504088F08D9181341CF001
:100EA0008B350CF4805E659161341CF06B350CF46D
:100EB000605E861B611171F3990B0895881BFCCF4E
:100EC000AF92BF92CF92DF92EF92FF920F931F9358
:100ED0006E157F058007910734F42E153F054007F6
:100EE000510764F42CC0E616F7060807190794F4B6
:100EF000A216B306C406D5063CF423C0A216B30658
:100F0000C406D506BCF41FC02A153B054C055D057B
:100F1000C4F41BC06E157F058007910791F42A1554
:100F20003B054C055D058CF0A216B306C406D5063C
:100F300044F409C02A153B054C055D0511F484E015
:100F400005C082E003C083E001C081E01F910F91E2
:100F5000FF90EF90DF90CF90BF90AF900895EF9209
:100F6000FF920F931F937B018C01662757FD6095BD
:100F7000762FCB01BA010E9422782091940D3091F6
:100F8000950D4091960D5091970D0E941879A801EA
:100F900097010E9487777B018C0120E030E040E0E0
:100FA00050E40E94147987FF03C061E070E004C040
:100FB000C801B7010E94EF77CB011F910F91FF90FD
:100FC000EF9008956F927F928F929F92AF92BF920F
:100FD000CF92DF92EF92FF920F931F93CF93DF9305
:100FE0007C015B01662757FD6095762FCB01BA0126
:100FF0000E9422783B014C010027F7FC0095102F3E
:10100000C801B7010E9422787B018C01CC24B7FC77
:10101000C094DC2CC601B5010E9422789B01AC0172
:10102000C801B7010E948777A40193010E94187933
:101030009B01AC01C401B3010E941B777B018C01B1
:101040000E94EF77EB01BE01882777FD8095982FEE
:101050000E9422789B01AC01C801B7010E941B7756
:1010600020E030E040E05FE30E94147918160CF4B1
:101070002196CE01DF91CF911F910F91FF90EF90BC
:10108000DF90CF90BF90AF909F908F907F906F90A8
:101090000895CF92DF92EF92FF920F931F93CF9319
:1010A000DF93EC016B01688179818A819B812091BA
:1010B000180D3091190D40911A0D50911B0D0E9481
:1010C0001879688379838A839B83F60160817181B3
:1010D0008281938120911C0D30911D0D40911E0D38
:1010E00050911F0D0E9418797B018C01F6016083DD
:1010F0007183828393832091691030916A10C901B2
:101100008E978A35910580F4288139814A815B81E7
:10111000D801C701B05888839983AA83BB832083F1
:1011200031834283538329C0C901885890408A354E
:10113000910580F488819981AA81BB81B058888308
:101140009983AA83BB83F60180819181A281B381B7
:10115000B0580FC0225E30402A35310570F48881C6
:101160009981AA81BB81E882F9820A831B83B058E6
:10117000F60180839183A283B383688179818A8118
:101180009B8120916B1030916C1040916D105091AB
:101190006E100E941C77688379838A839B83F60193
:1011A000608171818281938120916F1030917010E4
:1011B00040917110509172100E941C77F60160836B
:1011C000718382839383DF91CF911F910F91FF9061
:1011D000EF90DF90CF9008952F923F924F925F92C1
:1011E0006F927F928F929F92AF92BF92CF92DF9237
:1011F000EF92FF920F931F931B012C0139014A01BB
:10120000E0909C0DF0909D0D00919E0D10919F0D12
:10121000C801B701A80197010E941C7A0E94227898
:101220005B016C01C401B301A40193010E94187910
:101230009B01AC01C601B5010E941B775B016C01EB
:10124000C201B101A20191010E9418799B01AC0178
:10125000C601B5010E941C775B016C01EE0CFF1CFE
:10126000001F111FC801B7010E9422789B01AC0129
:10127000C601B5010E9487771F910F91FF90EF90F3
:10128000DF90CF90BF90AF909F908F907F906F90A6
:101290005F904F903F902F9008950F931F93CF939F
:1012A000DF93242F2627A22FB0E0AF70B070AA0FD3
:1012B000BB1FAA0FBB1FC2E0D1E0AC0FBD1FFD01D9
:1012C0000591159125913491E4E096958795779550
:1012D0006795EA95D1F706271727282739274295DA
:1012E0004F70402750E04F705070440F551F440F0F
:1012F000551F4C0F5D1FFA0185919591A591B491F1
:1013000044E036952795179507954A95D1F7082714
:1013100019272A273B27B801C901DF91CF911F91D7
:101320000F910895EF92FF920F931F9381309105D3
:1013300009F029C26F5F7F4F09F020C381EE9EE064
:1013400060E072E00E946A7689E89DE00E94984E13
:101350008DE89DE064E072E00E946A7688EE9EE08F
:1013600065E072E00E946A766091E40C7091E50C91
:10137000882777FD8095982F2091DE0C3091DF0C27
:10138000442737FD4095542F0E941C7A0E942278F2
:101390007B018C016091E00C7091E10C8091E20C7A
:1013A0009091E30CA80197010E9487776093940DB8
:1013B0007093950D8093960D9093970DC801B7018A
:1013C0002091E00C3091E10C4091E20C5091E30C43
:1013D0000E9487777B018C016093980D7093990D23
:1013E00080939A0D90939B0D6091140D7091150D43
:1013F000882777FD8095982F0E942278A801970171
:101400000E9418790E94EF7760939C0D70939D0D58
:1014100080939E0D90939F0D6091160D7091170D06
:10142000882777FD8095982F0E942278A801970140
:101430000E9418790E94EF776093A00D7093A10D20
:101440008093A20D9093A30D8FEE9EE06EE072E06C
:101450000E946A7686EF9EE060E172E00E946A7602
:101460008DEF9EE064E172E00E946A7684E09FE086
:101470006CE172E00E946A768BE09FE06FE472E0BC
:101480000E946A7682E19FE06FE472E00E946A76D1
:1014900089E19FE06FE472E00E946A7680E29FE05B
:1014A0006FE472E00E946A7687E29FE06EE572E088
:1014B0000E946A768EE29FE068E672E00E946A7699
:1014C00085E39FE06FE672E00E946A768CE39FE01E
:1014D00067E772E00E946A7683E49FE062E872E068
:1014E0000E946A768AE49FE067E27FE00E94FF76CE
:1014F00084EB9DE064E072E00E946A7681E59FE003
:1015000068E872E00E946A7688E59FE06AE872E027
:101510000E946A768FE59FE06FE872E00E946A762B
:1015200086E69FE063E972E00E946A768DE69FE0BE
:1015300067E972E00E946A7684E79FE06BE972E0F7
:101540000E946A768BE79FE06FE972E00E946A76FC
:1015500082E89FE063EA72E00E946A7689E89FE091
:1015600067EA72E00E946A7680E99FE06BEA72E0C7
:101570000E946A7687E99FE06FEA72E00E946A76CD
:101580008EE99FE063EB72E00E946A7685EA9FE055
:1015900067EB72E00E946A768CEA9FE06BEB72E088
:1015A0000E946A7683EB9FE06FEB72E00E946A769E
:1015B0008AEB9FE063EC72E00E946A7681EC9FE028
:1015C00067EC72E00E946A7688EC9FE06BEC72E058
:1015D0000E946A768FEC9FE06FEC72E00E946A7660
:1015E00086ED9FE063ED72E00E946A768DED9FE0EC
:1015F00067ED72E00E946A7684EE9FE06BED72E028
:101600000E946A768BEE9FE06FED72E00E946A7630
:1016100082EF9FE063EE72E00E946A7689EF9FE0BE
:1016200067EE72E00E946A7680E090E16BEE72E015
:101630000E946A7687E090E16FEE72E00E946A761F
:101640008EE090E163EF72E00E946A7685E190E1BE
:1016500067EF72E00E946A768CE190E16BEF72E0D6
:101660000E946A7683E290E16FEF72E00E946A76F0
:101670008AE290E163E073E00E946A7681E390E1A0
:1016800067E073E00E946A7688E390E16BE073E0C4
:101690000E946A768FE390E16FE073E00E946A76C1
:1016A00086E490E163E173E00E946A768DE490E164
:1016B00067E173E00E946A7684E590E16BE173E094
:1016C0000E946A768BE590E16FE173E00E946A7692
:1016D00082E690E163E273E00E946A768DEB9DE022
:1016E00064E072E00E946A7686EC9DE064E072E05D
:1016F0000E946A761092D20D1092D30D1092D60DE0
:101700001092D80D82E090E0A0E0B0E08093D90D77
:101710009093DA0DA093DB0DB093DC0D1092F00DD9
:101720001092FA0D1092F90D84E79DE09093F80D58
:101730008093F70D1092FC0D84E19EE00E94C95346
:101740006091DE0C7091DF0C81E49EE041E00E942C
:1017500060536091DE0C7091DF0C8DE49EE042E0FE
:101760000E94605389E59EE06BEA73E345EA53E328
:101770000E94E3498DE99EE06FE973E349E953E391
:101780000E94E349FBC0892B09F0F8C06F5F7F4FCF
:1017900009F0F4C084E19EE00E94DC5386EC9DE0F9
:1017A0000E9411778DEB9DE00E94117782E690E117
:1017B0000E9411778BE590E10E94117784E590E11A
:1017C0000E9411778DE490E10E94117786E490E108
:1017D0000E9411778FE390E10E94117788E390E1F6
:1017E0000E94117781E390E10E9411778AE290E1F3
:1017F0000E94117783E290E10E9411778CE190E1E1
:101800000E94117785E190E10E9411778EE090E1CE
:101810000E94117787E090E10E94117780E090E1CB
:101820000E94117789EF9FE00E94117782EF9FE07D
:101830000E9411778BEE9FE00E94117784EE9FE06B
:101840000E9411778DED9FE00E94117786ED9FE059
:101850000E9411778FEC9FE00E94117788EC9FE047
:101860000E94117781EC9FE00E9411778AEB9FE044
:101870000E94117783EB9FE00E9411778CEA9FE032
:101880000E94117785EA9FE00E9411778EE99FE020
:101890000E94117787E99FE00E94117780E99FE01D
:1018A0000E94117789E89FE00E94117782E89FE00B
:1018B0000E9411778BE79FE00E94117784E79FE0F9
:1018C0000E9411778DE69FE00E94117786E69FE0E7
:1018D0000E9411778FE59FE00E94117788E59FE0D5
:1018E0000E94117781E59FE00E94117784EB9DE0D3
:1018F0000E9411778AE49FE00E94117783E49FE0C1
:101900000E9411778CE39FE00E94117785E39FE0AE
:101910000E9411778EE29FE00E94117787E29FE09C
:101920000E94117780E29FE00E94117789E19FE099
:101930000E94117782E19FE00E9411778BE09FE087
:101940000E94117784E09FE00E9411778DEF9EE066
:101950000E94117786EF9EE00E9411778FEE9EE045
:101960000E94117788EE9EE00E9411778DE89DE03D
:101970000E94117781EE9EE00E9411771F910F91D6
:10198000FF90EF90089580E090E06FEF7FEFCACC7A
:1019900081E090E06FEF7FEFC5CCCF92DF92EF92C6
:1019A000FF920F931F93CF93DF936C01C0E0D0E0C1
:1019B000EE24EA94FE2C87010BC0C601BE010E94F2
:1019C000DE73482FC801B70168DC7B018C012196CA
:1019D000F60184819581C817D90778F3A80197018A
:1019E0002095309540955095B901CA01DF91CF916E
:1019F0001F910F91FF90EF90DF90CF9008950F937C
:101A00001F9384E090E00E94F1028C010E949B03EE
:101A10002DB73EB7201B310BC9011F910F910895BF
:101A2000EEDF9C018091A80D9091A90D2817390730
:101A3000D1F03093A90D2093A80D88E895E16DEFC2
:101A40007EE00E9415736091A80D7091A90D88E841
:101A500095E14AE050E00E94327288E895E168E53D
:101A60007FE00C944773089588E895E16EE27FE08B
:101A70000C94477388E895E167E27FE00C94477324
:101A8000AF92BF92CF92DF92EF92FF920F931F938C
:101A90007B018C01CA01B9010E9418795B016C01BC
:101AA000C801B701A80197010E9418799B01AC01F8
:101AB000C601B5010E941B770E9485791F910F9185
:101AC000FF90EF90DF90CF90BF90AF9008956F920E
:101AD0007F928F929F92AF92BF92CF92DF92EF92BE
:101AE000FF920F931F937B018C0176DB5B016C01EE
:101AF000A8019701C5DF3B014C01E090F80CF09084
:101B0000F90C0091FA0C1091FB0CC801B7010E946E
:101B100022789B01AC01C601B5010E94807787FD48
:101B20004AC08091000D9091010DA091020DB091DD
:101B3000030DE80EF91E0A1F1B1FC801B7010E9402
:101B400022789B01AC01C601B5010E9414791816D8
:101B500094F1E090FC0CF090FD0C0091FE0C1091C3
:101B6000FF0CC801B7010E9422789B01AC01C4019F
:101B7000B3010E94807787FD1EC0DD248091040D93
:101B80009091050DA091060DB091070DE80EF91E7C
:101B90000A1F1B1FC801B7010E9422789B01AC01DC
:101BA000C401B3010E941479181614F4DD24D394EF
:101BB00081E0D82601C0DD248D2D1F910F91FF906B
:101BC000EF90DF90CF90BF90AF909F908F907F90DD
:101BD0006F900895AF92BF92CF92DF92EF92FF92F3
:101BE0000F931F937B018C0159016A0160919C0D39
:101BF00070919D0D80919E0D90919F0D0E94227875
:101C0000A80197010E941B779B01AC010E941879E3
:101C10007B018C01C601B501A60195010E941879CE
:101C20009B01AC01C801B7010E941C770E94857915
:101C30001F910F91FF90EF90DF90CF90BF90AF90EA
:101C40000895AF92BF92CF92DF92EF92FF920F93DF
:101C50001F937B018C0159016A01A80197010E9421
:101C600018797B018C01C601B501A60195010E947E
:101C700018799B01AC01C801B7010E941C770E9432
:101C800085791F910F91FF90EF90DF90CF90BF90DB
:101C9000AF9008952F923F924F925F926F927F92F2
:101CA0008F929F92AF92BF92CF92DF92EF92FF926C
:101CB0000F931F93DF93CF9300D00F92CDB7DEB772
:101CC00069837A838B839C8359016A0117012801F8
:101CD000611571058105910559F40F2EF0E0EF2E85
:101CE000F0E0FF2EF0E00F2FF0E01F2FF02DA4C04A
:101CF000CA01B9010E9418797B018C01C601B501A6
:101D000020E030E040E050E00E948077882324F417
:101D100017FB109517F91095C201B101A2019101AD
:101D20000E941C773B014C01C801B701A40193013B
:101D30000E9487777B018C0169817A818B819C81EC
:101D40000E9422789B01AC01C801B7010E948077F4
:101D50008823B4F5C601B50120E030E040E050E052
:101D60000E948077882329F4C401B3010E948579F9
:101D70000DC0C201B101A60195010E9487779B01A8
:101D8000AC015F77C601B5010E941C777B018C0115
:101D9000D090E60CC090E70CB090E80CA090E90C55
:101DA0002D2D3C2D4B2D5A2D0E94147918160CF018
:101DB00043C08D2D9C2DAB2DBA2D7C018D013CC0D7
:101DC000C601B50120E030E040E050E00E9480779D
:101DD000882359F4C401B3010E9485797B018C01E9
:101DE00017FB109517F910950FC0C201B101A6019C
:101DF00095010E9487779B01AC015F77C601B50111
:101E00000E941B777B018C018091E60C9091E70C7E
:101E1000A091E80CB091E90C5C016D01D7FAD09467
:101E2000D7F8D094C801B701A60195010E94807728
:101E3000882314F486017501B701C8010F900F9033
:101E40000F900F90CF91DF911F910F91FF90EF9026
:101E5000DF90CF90BF90AF909F908F907F906F90CA
:101E60005F904F903F902F9008958091EF0C8823C2
:101E7000F1F188E895E163E47FE00E94157389E55C
:101E80009EE00E9440482091E40C3091E50C4427EC
:101E900037FD4095542F0E947C7A88E895E1BA017D
:101EA000A9012AE030E00E94E27188E895E161E54D
:101EB0007FE00E9415738DE99EE00E9440482091CA
:101EC000E40C3091E50C442737FD4095542F0E94D7
:101ED0007C7A88E895E1BA01A9012AE030E00E9405
:101EE000E27188E895E168E57FE00C944773089516
:101EF000EF92FF920F931F938091A40D9091A50DE7
:101F0000A091A60DB091A70D0097A105B10509F00C
:101F10003FC060919C0D70919D0D80919E0D9091A0
:101F20009F0D0E9422787B018C016091A00D709121
:101F3000A10D8091A20D9091A30D0E9422789B018A
:101F4000AC01C801B7017DDE20E030E040E05FE396
:101F50000E941C770E94EF776093A40D7093A50DEB
:101F60008093A60D9093A70D88E895E167E273E052
:101F70000E9461724091A40D5091A50D6091A60D33
:101F80007091A70D88E895E12AE030E00E94207268
:101F90006091A40D7091A50D8091A60D9091A70D53
:101FA0001F910F91FF90EF90089588E895E16EE3FF
:101FB00073E00C94047388E895E16AE971E00E948B
:101FC0000E711092C50D08958F929F92AF92BF929D
:101FD000CF92DF92EF92FF920F931F936C017B01E0
:101FE00088E895E165E573E00E94617288E895E113
:101FF000B6014AE050E00E94327288E895E16EE551
:1020000073E00E94617288E895E1B7014AE050E010
:102010000E94447288E895E163E673E00E94617271
:102020006091390E70913A0E88E895E14AE050E0EF
:102030000E94447288E895E163E773E00E94617250
:1020400040912F0E5091300E6091310E7091320EF2
:1020500088E895E12AE030E00E9420724601AA2437
:1020600097FCA094BA2C8091390E90913A0EAA2731
:1020700097FDA095BA2F880E991EAA1EBB1E002799
:10208000F7FC0095102F20912F0E3091300E4091CB
:10209000310E5091320EC801B7010E941C7A860E93
:1020A000971EA81EB91E88E895E16DE773E00E94AF
:1020B000617288E895E1B501A4012AE030E00E9450
:1020C000E27180913B0E90913C0EA0913D0EB0913B
:1020D0003E0E88159905AA05BB0514F41FEF18C01C
:1020E00084E19EE0B501A4010E94635484E19EE076
:1020F0000E947354182F88E895E166E873E00E9407
:10210000617288E895E1612F4AE050E00E94C67153
:10211000812F1F910F91FF90EF90DF90CF90BF9094
:10212000AF909F908F9008956F927F928F929F9221
:10213000AF92BF92CF92DF92EF92FF920F931F93D5
:10214000DF93CF93CDB7DEB7A3970FB6F894DEBF7A
:102150000FBECDBF6DB67EB684E19EE040E050E09C
:1021600060E070E00E9463547E010894E11CF11C61
:10217000C70165E973E00E946A7684E19EE00E94EF
:102180007354182FC70160E070E00E94EF73FC01E8
:10219000108384E19EE00E947354182FC70161E010
:1021A00070E00E94EF73FC011083C70168E973E0DF
:1021B0000E941775882399F488E895E16BE973E02C
:1021C0000E94617288E895E1B7010E94157388E862
:1021D00095E169EB73E00E94047310E083C188E825
:1021E00095E164ED73E00E94047384E19EE00E9437
:1021F00073548E01085F1F4FC80164E072E00E94B3
:102200006A7684E19EE00E947354E82E9FE0C92E16
:10221000D12CCC0EDD1EF02E012F21C083E2E8165A
:1022200041F484E19EE00E947354E82E9AE0E9169E
:10223000C1F7C6016F2D702F0E940877C6016E2D61
:102240000E943C76BC018F2D902F0E94EA76C60139
:102250000E94167784E19EE00E947354E82E8AE083
:10226000E81619F090E2E916C9F688E895E16AEFF8
:1022700073E00E94617288E0E82EF12CEC0EFD1EE6
:1022800088E895E1B7010E9447734C855D854F5FF3
:102290005F4F8DB79EB7841B950B0FB6F8949EBF0A
:1022A0000FBE8DBF0DB71EB70F5F1F4F902E812E33
:1022B000B02EA12EC701B80120E030E00E94C87402
:1022C000C8010E942305AA2797FDA095BA2F8093E5
:1022D0002F0E9093300EA093310EB093320E0A97CA
:1022E000A105B10544F488E895E162E471E00E943B
:1022F0000E7110E0F3C0C70164E072E00E948376C3
:1023000084E19EE00E947354182F06E1C02ED12C68
:10231000CC0EDD1EC701FE2C092F1FC0133239F46D
:1023200084E19EE00E947354182F8A30C9F7C601D9
:102330006F2D702F0E940877C601612F0E943C7696
:10234000BC018F2D902F0E94EA76C6010E9416775D
:1023500084E19EE00E947354182F1A30F9F688E841
:1023600095E165E074E00E94617218E0C12ED12C05
:10237000CC0EDD1E88E895E1B6010E9447734C85BE
:102380005D854F5F5F4FC6016B2D7A2D20E030E0F9
:102390000E94C874892D982D0E942305AA2797FDB5
:1023A000A095BA2F8093330E9093340EA093350EE0
:1023B000B093360EBC01CD010E9422787B018C01C6
:1023C00060912F0E7091300E8091310E9091320EEF
:1023D0000E9422789B01AC01C801B7010E94877757
:1023E0006093100D7093110D8093120D9093130D47
:1023F00088E895E161E174E00E9461724091100DFE
:102400005091110D6091120D7091130D88E895E1B6
:1024100022E030E00E94F372C60164E072E00E94A4
:10242000837684E19EE00E947354182F0D2DBDE148
:10243000EB2EF12CEC0EFD1E16C0C7016C2D702F7B
:102440000E940877C701612F0E943C76BC018C2D49
:10245000902F0E94EA76C7010E94167784E19EE0E1
:102460000E947354182F1A3041F788E895E163E20F
:1024700074E00E94617288E895E16C2D702F0E94D3
:1024800047734C855D854F5F5F4F8C2D902F6B2D73
:102490007A2D20E030E00E94C874892D982D0E948A
:1024A00023059093380E8093370E84E19EE00E94BE
:1024B0001E5470933A0E6093390E88E895E167E3F5
:1024C00074E00E9461726091390E70913A0E88E852
:1024D00095E14AE050E00E94447211E0CE01089676
:1024E0000E941177CE0101960E941177812F0FB6BD
:1024F000F8947EBE0FBE6DBEA3960FB6F894DEBFF5
:102500000FBECDBFCF91DF911F910F91FF90EF9044
:10251000DF90CF90BF90AF909F908F907F906F9003
:102520000895EF92FF920F931F93DF93CF93CDB750
:10253000DEB7FC01EDB6FEB6448155814F5F5F4FBB
:102540008DB79EB7841B950B0FB6F8949EBF0FBE38
:102550008DBF0DB71EB70F5F1F4FCF01B80120E031
:1025600030E00E94C874C8010E9423050FB6F89499
:10257000FEBE0FBEEDBECF91DF911F910F91FF9078
:10258000EF900895EF92FF920F931F93DF93CF93F5
:10259000CDB7DEB727970FB6F894DEBF0FBECDBF1D
:1025A0008E010F5F1F4FC8016BE07FE00E94FF7636
:1025B000C801B7DF7C01C8010E941177EF2819F428
:1025C0001092BC0D0EC08091C40D882321F081E0D3
:1025D0008093BC0D06C088E895E165E474E00E9434
:1025E000047327960FB6F894DEBF0FBECDBFCF9110
:1025F000DF911F910F91FF90EF9008950F931F931C
:10260000DF93CF93CDB7DEB72E970FB6F894DEBF2A
:102610000FBECDBF8E010F5F1F4FC8016BE07FE083
:102620000E94FF76C8017DDF9093230D8093220DD9
:10263000C8010E9411778E01085F1F4FC80162E137
:102640007FE00E94FF76C8016CDF9093210D80939C
:10265000200DC8010E9411772E960FB6F894DEBFA8
:102660000FBECDBFCF91DF911F910F910895EF92D3
:10267000FF920F931F93DF93CF93CDB7DEB76B9786
:102680000FB6F894DEBF0FBECDBFFC01EDB6FEB6AF
:10269000448155814F5F5F4F8DB79EB7841B950B6B
:1026A0000FB6F8949EBF0FBE8DBF0DB71EB70F5F5C
:1026B0001F4FCF01B80120E030E00E94C874CE0166
:1026C00001966DE071E1A80121E00E946C578B81B9
:1026D0009C819093170E8093160E8D819E81AF8101
:1026E000B8858093180E9093190EA0931A0EB0938C
:1026F0001B0E89859A85AB85BC8580931C0E9093B3
:102700001D0EA0931E0EB0931F0EA0E2BEE0FE01B0
:102710003D968DE001900D928150E1F78A8D9B8D61
:1027200090932E0E80932D0ECE0101960E94DC53C5
:1027300084E19EE00E944454882329F488E895E1CE
:1027400069E674E007C0F0DC882341F488E895E18D
:102750006AE774E00E94047380E00DC084E19EE0AB
:102760000E94315460933B0E70933C0E80933D0E5B
:1027700090933E0E81E00FB6F894FEBE0FBEEDBE04
:102780006B960FB6F894DEBF0FBECDBFCF91DF9131
:102790001F910F91FF90EF900895AF92BF92CF924B
:1027A000DF92EF92FF920F931F93DF93CF93CDB7FA
:1027B000DEB76B970FB6F894DEBF0FBECDBF6C01CE
:1027C000ADB6BEB64091CA0D5091CB0D4F5F5F4F75
:1027D0008DB79EB7841B950B0FB6F8949EBF0FBEA6
:1027E0008DBF0DB71EB70F5F1F4F86EC9DE0B80180
:1027F00020E030E00E94C8747E010894E11CF11CC6
:10280000C7016DE071E1A80123E10E946C57C70187
:102810000E9444548823D1F088E895E162E874E08E
:102820000E94617288E895E166EC7DE00E94477342
:10283000C701B6010E944773C7010E94515488E83E
:1028400095E163E974E00E9404730CC088E895E1A7
:1028500069E974E00E94617288E895E166EC7DE0C8
:102860000E944773CE0101960E94DC530FB6F89484
:10287000BEBE0FBEADBE6B960FB6F894DEBF0FBEE8
:10288000CDBFCF91DF911F910F91FF90EF90DF901F
:10289000CF90BF90AF900895EF92FF920F931F9348
:1028A00085E361E00E94396B8DE091E165E30E9470
:1028B0008C58882329F488E895E168EA74E06AC0B6
:1028C00088E895E164EC74E00E94047388E895E17F
:1028D00066ED74E00E9404738DEC9DE061E045E3D9
:1028E0000E94E25A8823B9F488E895E16EEE74E01C
:1028F0000E94047388E895E166E175E00E94047324
:1029000088E895E16FE275E00E94047388E895E13C
:1029100069E475E03FC088E895E16DE875E00E94E4
:10292000047388E895E166EB75E00E94617280911E
:10293000D80D823049F0833061F0813079F488E835
:1029400095E163EC75E00EC088E895E167EC75E011
:1029500009C088E895E16BEC75E004C088E895E172
:1029600060ED75E00E94047389ED9DE06DEC7DE003
:1029700041E00E94D865882381F489ED9DE06DECEB
:102980007DE040E00E94D865882339F488E895E12D
:1029900068ED75E00E94047374C088E895E162E216
:1029A00076E00E94617288E895E16091F00D4AE05E
:1029B00050E00E94C67188E895E10E94EE70209177
:1029C000DD0D30E040E050E06091E20D7091E30DEC
:1029D0008091E40D9091E50DE9E0660F771F881F67
:1029E000991FEA95D1F70E941C7A7B018C0188E837
:1029F00095E166E376E00E94617288E895E1B801AE
:102A0000A7012AE030E00E94A47188E895E16CE417
:102A100076E00E9461723AE016950795F794E79484
:102A20003A95D1F788E895E1B801A7012AE030E0AE
:102A30000E94A47188E895E163E676E00E946172E5
:102A40002AE016950795F794E7942A95D1F788E838
:102A500095E1B801A7012AE030E00E94A47188E85E
:102A600095E16AE776E00E94047387EF9DE069EDE7
:102A70007DE00E94ED5F87EF9DE067E040E00E940F
:102A8000E7601F910F91FF90EF900895AF92BF9272
:102A9000CF92DF92EF92FF920F931F9389E59EE012
:102AA0000E94614E8DE99EE00E94614E89E59EE0A4
:102AB0000E943048611571058105910509F047C0F4
:102AC0006091F80C7091F90C8091FA0C9091FB0CCC
:102AD0002091000D3091010D4091020D5091030D98
:102AE000260F371F481F591F0E94C1735B016C01DD
:102AF0006091FC0C7091FD0C8091FE0C9091FF0C8C
:102B00002091040D3091050D4091060D5091070D57
:102B1000260F371F481F591F0E94C1737B018C016C
:102B2000C601B5010E9422785B016C01C801B701A2
:102B30000E9422789B01AC01C601B50182D80E9497
:102B4000EF77AB01BC0189E59EE00E94C5498DE9A4
:102B50009EE00E943048611571058105910509F0DC
:102B600048C06091F80C7091F90C8091FA0C90912A
:102B7000FB0C2091000D3091010D4091020D509100
:102B8000030D260F371F481F591F0E94C1735B0199
:102B90006C016091FC0C7091FD0C8091FE0C909189
:102BA000FF0C2091040D3091050D4091060D5091C0
:102BB000070D260F371F481F591F0E94C1737B0145
:102BC0008C01C601B5010E9422785B016C01C8012D
:102BD000B7010E9422789B01AC01C601B5010E9499
:102BE000EA0D0E94EF77AB01BC018DE99EE00E94E7
:102BF000C5491F910F91FF90EF90DF90CF90BF904C
:102C0000AF900895EF92FF920F931F93CF93DF93AE
:102C1000C0E0D0E088E895E164EB76E00E94617264
:102C200088E895E1BE014AE050E00E94447289E5DF
:102C30009EE00E943048611571058105910509F4F7
:102C400068C08DE99EE00E943048611571058105DC
:102C5000910509F45EC089E59EE00E94614E8DE910
:102C60009EE00E94614EE3CF6EEF7FEF8FEF9FEF0C
:102C700023E030E040E050E00E94C1737B018C0112
:102C8000A701662757FD6095762F89E59EE00E9493
:102C9000D64988E895E16DEB76E00E94617288E89C
:102CA00095E1B7014AE050E00E9444728DE99EE050
:102CB0000E943048611571058105910511F56EEF8F
:102CC0007FEF8FEF9FEF23E030E040E050E00E9485
:102CD000C1737B018C01A701662757FD6095762F94
:102CE0008DE99EE00E94D64988E895E163ED76E0A3
:102CF0000E94617288E895E1B7014AE050E00E94C5
:102D00004472B3D8219683E0C83ED80709F082CF39
:102D10000AC089E59EE00E94304861157105810571
:102D2000910521F6A1CFDF91CF911F910F91FF90D7
:102D3000EF9008958AE892E09093320D8093310DE0
:102D40009093340D8093330D8FE590E090932E0D8A
:102D500080932D0D80E991E09093300D80932F0D9D
:102D600081E090E090932C0D80932B0D95DD64EF26
:102D700071E080E090E00C94746AAF92BF92CF92C1
:102D8000DF92EF92FF920F931F93CF93DF93EC01AB
:102D90005B016A0189E89DE069E070E00E943550BE
:102DA000CA15DB059CF476010027F7FC0095102F6F
:102DB00089E89DE0BE010E941E4FC801B7010E9434
:102DC000746A2196AC16BD069CF712C076010027E6
:102DD000F7FC0095102F89E89DE0BE010E941E4F70
:102DE000C801B7010E94746A2197CA15DB059CF7D8
:102DF00089E89DE00E94B24EDF91CF911F910F9123
:102E0000FF90EF90DF90CF90BF90AF900895EF923A
:102E1000FF920F931F93DF93CF93CDB7DEB7279722
:102E20000FB6F894DEBF0FBECDBF8091AA0D909172
:102E3000AB0D20918C0D029714F1222329F0E09024
:102E40007310F090741004C0E090290DF0902A0DDA
:102E50008E010F5F1F4FC8016BE07FE00E94FF767D
:102E6000C8015FDB90932A0D8093290DC8010E9451
:102E700011776091290D70912A0DC7010AC0213088
:102E800059F46091290D70912A0D809173109091E1
:102E9000741043E050E071DF10928C0D27960FB64E
:102EA000F894DEBF0FBECDBFCF91DF911F910F9180
:102EB000FF90EF900895EF92FF920F931F93DF938F
:102EC000CF93CDB7DEB727970FB6F894DEBF0FBE0E
:102ED000CDBF8091AA0D9091AB0D20918C0D0297E2
:102EE00014F1222329F0E0907310F090741004C0C4
:102EF000E090290DF0902A0D8E010F5F1F4FC80141
:102F00006BE07FE00E94FF76C8010BDB90937410AA
:102F100080937310C8010E941177609173107091B3
:102F20007410C7010AC0222359F460917310709184
:102F300074108091290D90912A0D43E050E01DDF1F
:102F400081E080938C0D27960FB6F894DEBF0FBEFC
:102F5000CDBFCF91DF911F910F91FF90EF9008951A
:102F600089E59EE00E94CA4C8DE99EE00E94CA4C11
:102F70001092400E88E895E169EE76E00C940473B7
:102F8000EF92FF920F931F930E94406A9B01AC0146
:102F9000E090AC0DF090AD0D0091AE0D1091AF0D25
:102FA0008091F70C8823E1F08091400E8823C1F0D6
:102FB0002E193F09400B510B8091F30C9091F40CAA
:102FC000A091F50CB091F60C82179307A407B507F2
:102FD0003CF488E895E169EF76E00E940473C0DF75
:102FE0008091BC0D882309F051DD1F910F91FF9056
:102FF000EF900895AC01662757FD6095762F8DE917
:103000009EE00E94D64909C0BBDF8091F00C882366
:1030100021F08DE99EE00E94614E8DE99EE00E94C4
:103020003048611571058105910571F70E94406A6C
:103030006093AC0D7093AD0D8093AE0D9093AF0D7A
:103040000895AC01662757FD6095762F89E59EE0CF
:103050000E94D64909C094DF8091F00C882321F0AA
:1030600089E59EE00E94614E89E59EE00E9430481D
:10307000611571058105910571F70E94406A6093A1
:10308000AC0D7093AD0D8093AE0D9093AF0D089580
:10309000CF93DF93FC01EB0121153105A9F4809159
:1030A000280D882339F0CF0162E070E00E94477A52
:1030B000CB012BC0CF0162E070E00E94477ACB01C8
:1030C000909581959F4F21C08091280D2417350739
:1030D000A1F4882339F0CF0162E070E00E94477AC2
:1030E000CB0109C0CF0162E070E00E94477ACB01BA
:1030F000909581959F4FA5DF15C0882311F0CF01D2
:1031000004C0882799278E1B9F0B9BDFCE0172DF9F
:103110008091280D882319F01092280D03C081E0BA
:103120008093280DDF91CF9108950F931F93CF9334
:10313000DF93EC018B0121153105D9F488E895E185
:103140006EE177E00E9404738091280D882339F0A6
:10315000CE0162E070E00E94477ACB012BC0CE0125
:1031600062E070E00E94477ACB01909581959F4F75
:1031700021C08091280D24173507A1F4882339F048
:10318000CE0162E070E00E94477ACB0109C0CE0117
:1031900062E070E00E94477ACB01909581959F4F45
:1031A00029DF15C0882311F0CE0104C08827992794
:1031B0008C1B9D0B1FDFC80144DF8091280D8823E5
:1031C00019F01092280D03C081E08093280DDF9143
:1031D000CF911F910F9108953F924F925F926F92FE
:1031E0007F928F929F92AF92BF92CF92DF92EF9297
:1031F000FF920F931F93DF93CF9300D00F92CDB721
:10320000DEB7FC014B016A01322E141615060CF0D4
:103210007FC0BA010E94477A5B01CF01B6010E94CC
:10322000477AAA2797FDA095BA2FBC01CD010E942D
:1032300022787B018C01B601882777FD8095982F35
:103240000E9422789B01AC01C801B7010E948777D8
:103250002B013C010F2EF0E0EF2EF0E0FF2EF0E00E
:103260000F2FF0E01F2FF02D1C821B82C50101964D
:103270009A838983C801B701A30192010E941C7738
:103280007B018C0120E030E040E85FE30E9414798C
:1032900087FF02C095010CC0C801B70120E030E0F3
:1032A00040E85FE30E941B777B018C0129813A8112
:1032B00092E0391619F4C401B9010EC0E3E03E16DC
:1032C00019F4C401B90115C0F4E03F1651F46627A2
:1032D0007727621B730BC401A6012B813C8125DF7C
:1032E0000CC081E0381649F466277727621B730B00
:1032F000C401A6012B813C81CBDE0E94350FEB81FE
:10330000FC813196FC83EB83CE16DF060CF0B2CF46
:103310000F900F900F900F90CF91DF911F910F9111
:10332000FF90EF90DF90CF90BF90AF909F908F90E5
:103330007F906F905F904F903F9008958F929F92F3
:10334000AF92BF92CF92DF92EF92FF920F931F93B3
:10335000DF93CF93CDB7DEB72E970FB6F894DEBFCD
:103360000FBECDBF6E010894C11CD11CC6016BE01D
:103370007FE00E94FF76C601D4D8AA2797FDA095CA
:10338000BA2F2091E40C3091E50C442737FD40958D
:10339000542FBC01CD010E941C7A7B018C015B0182
:1033A000C6010E941177A8E0CA2ED12CCC0EDD1EDA
:1033B000C60162E17FE00E94FF76C601B2D84C01EF
:1033C000C6010E941177C701B701A40122E004DF02
:1033D000AA0CBB1CC50135DEC701B701A40123E05F
:1033E000FBDEC50107DEC701B701A40124E0F4DE5E
:1033F000B094A194B108B394C50123DEC701B7010D
:10340000A40121E0E9DEC501F5DD2E960FB6F894A2
:10341000DEBF0FBECDBFCF91DF911F910F91FF9007
:10342000EF90DF90CF90BF90AF909F908F900895D6
:10343000AF92BF92CF92DF92EF92FF920F931F93C2
:10344000DF93CF93CDB7DEB728970FB6F894DEBFE2
:103450000FBECDBF69837A838B839C832D833E838C
:103460004F8358870E94406A6093AC0D7093AD0DF6
:103470008093AE0D9093AF0DCE010196BE016B5FB0
:103480007F4F0E94490889E59EE00E94244B5B0122
:103490006C018DE99EE00E94244B7B018C0189E543
:1034A0009EE040E050E060E070E00E949F4A8DE9BD
:1034B0009EE040E050E060E070E00E949F4A698139
:1034C0007A818B819C810E94EF77AB01BC0189E5F9
:1034D0009EE00E94C5496D817E818F8198850E9402
:1034E000EF77AB01BC018DE99EE00E94C549809158
:1034F000EE0C882309F042C089E59EE00E94244B2F
:1035000020E030E040E050E00E948077882324F4FF
:10351000D7FAD094D7F8D0948DE99EE00E94244B3E
:1035200020E030E040E050E00E948077882324F4DF
:1035300017FB109517F9109589E59EE0B601A501D6
:103540000E949F4A8DE99EE0B801A7010E949F4A10
:1035500015C08091EE0C882349F089E59EE00E9419
:10356000614E8DE99EE00E94614E08C089E59EE0B3
:103570000E943E4E8DE99EE00E943E4E89E59EE00F
:103580000E943048611571058105910549F48DE966
:103590009EE00E943048611571058105910531F06A
:1035A000EFDC8091F00C882349F3D3CF0E94350FD4
:1035B00028960FB6F894DEBF0FBECDBFCF91DF9136
:1035C0001F910F91FF90EF90DF90CF90BF90AF9041
:1035D0000895AF92BF92CF92DF92EF92FF920F9336
:1035E0001F9379018A010E9422785B016C01C80156
:1035F000B7010E9422789B01AC01C601B50118DF1A
:103600001F910F91FF90EF90DF90CF90BF90AF9000
:1036100008952F923F924F925F926F927F928F9276
:103620009F92AF92BF92CF92DF92EF92FF920F9351
:103630001F93DF93CF93CDB7DEB760970FB6F894A3
:10364000DEBF0FBECDBF88E895E16EE277E00E9455
:10365000047388E895E16EE477E00E9461726091FE
:10366000200D7091210D88E895E14AE050E00E941C
:1036700044728091200D9091210D029709F0A6C00F
:103680008DE99EE00E9440481B012C018091080DAD
:103690009091090DAA2797FDA095BA2F280E391EE3
:1036A0004A1E5B1E88E895E168E677E00E94617239
:1036B00088E895E1B201A1012AE030E00E94207281
:1036C000C201B101A20191010E941C7A3B014C018F
:1036D000A090FC0CB090FD0CC090FE0CD090FF0CA4
:1036E000E090040DF090050D0091060D1091070D6E
:1036F000EA0CFB1C0C1D1D1D20919C0D30919D0D95
:1037000040919E0D50919F0D2D873E874F87588B7E
:103710008091F80C9091F90CA091FA0CB091FB0CEF
:1037200089879A87AB87BC87281B390B4A0B5B0BB1
:10373000CA01B9010E941C7A6D837E838F839887AA
:10374000C801B701A80197010E941C7AED80FE8094
:103750000F8118856E0D7F1D801F911F66157705DF
:10376000880599056CF1C601B501A60195010E9475
:103770001C7A5B016C018091000D9091010DA0916C
:10378000020DB091030D2D853E854F855889E98442
:10379000FA840B851C852E193F09400B510B281B01
:1037A000390B4A0B5B0BCA01B9010E941C7A6A0DE6
:1037B0007B1D8C1D9D1D661677068806990644F4B0
:1037C00088E895E163E777E00E94047380E005C133
:1037D0008D819E81AF81B8858A0D9B1DAC1DBD1D5D
:1037E00086159705A805B9050CF499C088E895E1F8
:1037F00067E877E00E9404730091FC0C1091FD0CC7
:103800002091FE0C3091FF0C09831A832B833C839B
:10381000C901B801A90198010E941C7A9B01AC0161
:10382000C401B301621B730B840B950B0E942278B9
:103830000E9485797B018C0160919C0D70919D0D9A
:1038400080919E0D90919F0D0E942278A801970172
:103850000E941B770E94EF775B016C0188E895E17D
:1038600068E977E00E946172C201B1010E9422788A
:103870002091940D3091950D4091960D5091970D9A
:103880000E941879AB01BC0188E895E122E030E0A4
:103890000E94F17288E895E162EA77E00E94617225
:1038A0006091F80C7091F90C8091FA0C9091FB0CDE
:1038B0000E9422782091940D3091950D4091960DA3
:1038C0005091970D0E941879AB01BC0188E895E1F1
:1038D00022E030E00E94F17288E895E16BEA77E03F
:1038E0000E9461726091FC0C7091FD0C8091FE0C45
:1038F0009091FF0C0E9422782091940D3091950DAB
:103900004091960D5091970D0E941879AB01BC0122
:1039100088E895E122E030E00E94F37230C088E848
:1039200095E164EB77E00E940473A090F80CB090EE
:10393000F90CC090FA0CD090FB0C20919C0D3091AA
:103940009D0D40919E0D50919F0DC601B501621BCA
:10395000730B840B950B2A193B094C095D090E94D6
:103960001C7A660D771D881D991D0E9422780E9481
:1039700085790E94EF7769837A838B839C83C60164
:10398000B5010E9422783B014C0169817A818B81CB
:103990009C810E9422787B018C01C401B301A801A3
:1039A00097010E94210E5B016C01C401B301A801C3
:1039B00097010E94EA0D7B018C01C601B5010E94AE
:1039C000EF775B016C01C801B7010E94EF779B01A3
:1039D000AC01C601B501FDDD81E060960FB6F8943B
:1039E000DEBF0FBECDBFCF91DF911F910F91FF9032
:1039F000EF90DF90CF90BF90AF909F908F907F908F
:103A00006F905F904F903F902F9008952F923F922C
:103A10004F925F926F927F928F929F92AF92BF92DE
:103A2000CF92DF92EF92FF920F931F93DF93CF938A
:103A300000D00F92CDB7DEB73B014C0159016A01AE
:103A4000FA82E982C80162E070E00E94477A882722
:103A500077FD8095982F661A770A880A990AA61A20
:103A6000B70AC80AD90A1C821B821801442437FCF1
:103A70004094542C2DC060E070E080E090E0A20102
:103A800091010E94C1737B018C0160E070E080E0D5
:103A900090E0A20191010E94C1739B01AC0100273B
:103AA000F7FC0095102FE60CF71C081D191D442784
:103AB00037FD4095542F2A0D3B1D4C1D5D1DC8013F
:103AC000B70187DD2B813C812F5F3F4F3C832B83E8
:103AD0008B819C81E981FA81E817F90764F60F90E0
:103AE0000F900F900F90CF91DF911F910F91FF904A
:103AF000EF90DF90CF90BF90AF909F908F907F908E
:103B00006F905F904F903F902F9008952F923F922B
:103B10004F925F926F927F928F929F92AF92BF92DD
:103B2000CF92DF92EF92FF920F931F93DF93CF9389
:103B3000CDB7DEB7EA970FB6F894DEBF0FBECDBFA4
:103B40008091C40D882309F4BCC46E010894C11C83
:103B5000D11CC6016BE07FE00E94FF768E01085FFA
:103B60001F4FC80162E17FE00E94FF76C8010E94FA
:103B700091124C01A090E40CB090E50CC8010E9499
:103B800011778E01015F1F4FC80169E17FE00E943C
:103B9000FF76C8010E949112AA2797FDA095BA2F1F
:103BA0002091E40C3091E50C442737FD4095542FCB
:103BB000BC01CD010E941C7A7CA76BA7C8010E94A2
:103BC00011778E010A5E1F4FC801B6010E94FF7671
:103BD000C8010E943713F82EC8010E941177FF20F8
:103BE00069F488E895E166EC77E00E94617288E804
:103BF00095E1B6010E944773C6016AC4B4018827E3
:103C000077FD8095982F9501442737FD4095542FD7
:103C10000E941C7A1B012C017EA76DA788E895E104
:103C200061EE77E00E94617240912F0E5091300E4C
:103C30006091310E7091320E88E895E12AE030E013
:103C40000E94E27188E895E16DEE77E00E94617272
:103C50004091330E5091340E6091350E7091360EB6
:103C600088E895E12AE030E00E94207288E895E13A
:103C700060EF77E00E9461724091000D5091010D5C
:103C80006091020D7091030D88E895E12AE030E023
:103C90000E94E27188E895E16CEF77E00E9404737E
:103CA0006091000D7091010D8091020D9091030DB6
:103CB0000E9422787B018C0160912F0E7091300E52
:103CC0008091310E9091320E0E9422789B01AC01BE
:103CD000C801B7010E94877760930C0D70930D0D9A
:103CE00080930E0D90930F0D88E895E16EEF77E0CD
:103CF0000E94617240910C0D50910D0D60910E0D5E
:103D000070910F0D88E895E122E030E00E94F37297
:103D100088E895E16EE078E00E9461724091000DC4
:103D20005091010D6091020D7091030D88E895E1AD
:103D30002AE030E00E94207288E895E167E374E0B1
:103D40000E9461726091390E70913A0E88E895E197
:103D50004AE050E00E944472AED86091000D70912C
:103D6000010D8091020D9091030D0E942278209107
:103D7000100D3091110D4091120D5091130D0E94B4
:103D800018790E94EF775B016C016093040D7093CA
:103D9000050D8093060D9093070D2091000D309135
:103DA000010D4091020D5091030D8091F80C9091FE
:103DB000F90CA091FA0CB091FB0C280F391F4A1F87
:103DC0005B1F2FA338A749A75AA7E090FC0CF090DF
:103DD000FD0C0091FE0C1091FF0CAE0CBF1CC01E20
:103DE000D11ECA01B9010E9422783B014C01C801D1
:103DF000B7010E9422789B01AC01C401B3010E946B
:103E0000EA0D7B018C01C10162E070E00E94477AFB
:103E1000882777FD8095982F0E9422789B01AC011E
:103E2000C801B7010E941C776D8F7E8F8F8F98A37A
:103E30006091FC0C7091FD0C8091FE0C9091FF0C38
:103E40000E9422789B01AC01C401B3010E94210EA3
:103E50002D8D3E8D4F8D58A1EBDA0E94071789E515
:103E60009EE00E9440480E9422786BA37CA38DA311
:103E70009EA38DE99EE00E9440480E9422781B018B
:103E80002C01C601B501A60195010E941C7A6FA7FD
:103E900078AB89AB9AAB1AA219A28DA59EA5AA27C9
:103EA00097FDA095BA2F8BAB9CABADABBEAB2BA552
:103EB0003CA5442737FD4095542F2FAB38AF49AF71
:103EC0005AAF6BA17CA18DA19EA1A20191010E947C
:103ED000670D882309F0ADC188E895E16AE178E0D3
:103EE0000E9404730E945B176BA97CA98DA99EA9EF
:103EF0000E9422789B01AC016D8D7E8D8F8D98A1E3
:103F00000E941C776D8F7E8F8F8F98A39B01AC01D1
:103F10000E9418795B016C0160909C0D70909D0D62
:103F200080909E0D90909F0D8091F80C9091F90CCF
:103F3000A091FA0CB091FB0CA4019301281B390B42
:103F40004A0B5B0BCA01B9010E941C7A1B012C01B0
:103F50006FA578A989A99AA9620D731D841D951D65
:103F60000E9422789B01AC01C601B5010E94147920
:103F7000181654F12091FC0C3091FD0C4091FE0C70
:103F80005091FF0CCA01B9010E941C7A7B018C017F
:103F9000A40193018FA198A5A9A5BAA5281B390B47
:103FA0004A0B5B0BCA01B9010E941C7A6E0D7F1D82
:103FB000801F911F0E9422789B01AC01C601B501B0
:103FC0000E948077882364F488E895E16EE378E0C6
:103FD0000E9404732D8C3E8C4F8C58A011E01FC1A1
:103FE000C201B1016E0D7F1D801F911F0E942278BA
:103FF0009B01AC01C601B5010E94807718160CF434
:104000007FC088E895E167E877E00E9404736090DC
:10401000FC0C7090FD0C8090FE0C9090FF0CC40185
:10402000B301A40193010E941C7A0E9422789B0193
:10403000AC01C601B5010E941B770E9485797B0106
:104040008C0160919C0D70919D0D80919E0D9091C1
:104050009F0D0E942278A80197010E941B770E9461
:10406000EF777B018C0188E895E161E578E00E94BB
:1040700061726091F80C7091F90C8091FA0C90913A
:10408000FB0C0E9422782091940D3091950D409167
:10409000960D5091970D0E941879AB01BC0188E8EC
:1040A00095E122E030E00E94F17288E895E16BE64C
:1040B00078E00E9461726091FC0C7091FD0C80911F
:1040C000FE0C9091FF0C0E9422782091940D30916B
:1040D000950D4091960D5091970D0E941879AB0166
:1040E000BC0188E895E122E030E00E94F172C8014D
:1040F000B7010E9422785B016C01C401B30178C052
:1041000088E895E164EB77E00E940473E090F80C96
:10411000F090F90C0091FA0C1091FB0C20919C0D81
:1041200030919D0D40919E0D50919F0D2E193F098C
:10413000400B510BCA01B9010E941C7A0E942278DF
:104140009B01AC01C601B5010E941B770E948579D5
:104150003B014C0188E895E161E578E00E946172DD
:104160006091F80C7091F90C8091FA0C9091FB0C15
:104170000E9422782091940D3091950D4091960DDA
:104180005091970D0E941879AB01BC0188E895E128
:1041900022E030E00E94F17288E895E16BE678E079
:1041A0000E9461726091FC0C7091FD0C8091FE0C7C
:1041B0009091FF0C0E9422782091940D3091950DE2
:1041C0004091960D5091970D0E941879AB01BC015A
:1041D00088E895E122E030E00E94F172C801B70161
:1041E0000E9422785B016C01C401B3010E94EF7749
:1041F0000E9422787B018C01C601B501A8019701BC
:104200000E94210E6BA37CA38DA39EA3C601B501C2
:10421000A80197010E94EA0D1B012C0110E068EE35
:1042200073E080E090E00E94746A112309F03EC1BF
:1042300006C088E895E16FE678E00E9404736BA100
:104240007CA18DA19EA1A2019101F2D80E94071725
:10425000A9A1BAA11196BAA3A9A388E895E168E734
:1042600078E00E94617288E895E169A17AA14AE04C
:1042700050E00E9444726BA17CA18DA19EA1A2017D
:1042800091010E94EC087B018C012BA13CA14DA166
:104290005EA10E94400D5B016C016091F80C709171
:1042A000F90C8091FA0C9091FB0C0E9422789B01F2
:1042B000AC01C801B7010E941B773B014C01609122
:1042C000FC0C7091FD0C8091FE0C9091FF0C0E94F3
:1042D00022789B01AC01C601B5010E941B775B01EE
:1042E0006C0188E895E16FE778E00E94617288E8E8
:1042F00095E1B401A30122E030E00E94F17288E868
:1043000095E16EE573E00E94617288E895E1B6017F
:10431000A50122E030E00E94F372E0900C0DF090D5
:104320000D0D00910E0D10910F0DC401B301A801E8
:1043300097010E9487773B014C01C601B501A80196
:1043400097010E9487777B018C0188E895E16BE9F2
:1043500078E00E94617288E895E1B401A30122E04F
:1043600030E00E94F17288E895E16EE573E00E940A
:10437000617288E895E1B801A70122E030E00E946F
:10438000F372C801B7010E94EF775B016C019B01DA
:10439000442737FD4095542F8091330E9091340E71
:1043A000A091350EB091360E82179307A407B5077A
:1043B000C4F0C401B3010E94EF777B018C019B0123
:1043C000442737FD4095542F80912F0E9091300E49
:1043D000A091310EB091320E82179307A407B50752
:1043E0002CF488E895E16FEB78E064C0C701B50173
:1043F0000E94E40F6091370E7091380E90E04DA549
:104400005EA50E94E207E82E6FA978AD89AD9AAD4E
:104410000E9422783B014C01FF2400E010E0C8011B
:10442000B7010E94207820E030E040E05FE30E9486
:1044300018795B016C01C401B30120E030E040E079
:104440005FE30E9418799B01AC016BA17CA18DA157
:104450009EA10E941C777B018C01C201B101A601C3
:1044600095010E941B779B01AC01B701C8010E9416
:10447000181AC201B101A60195010E941C779B0187
:10448000AC01B701C8010E94181A6BA17CA18DA1D3
:104490009EA1A40193010E941C776BA37CA38DA312
:1044A0009EA3A20191010E94181A0BCD88E895E104
:1044B00069ED78E00E9404730E945B17CE010196BB
:1044C00007C088E895E164EE78E00E94047302C0BA
:1044D0000E941177EA960FB6F894DEBF0FBECDBFEB
:1044E000CF91DF911F910F91FF90EF90DF90CF90D0
:1044F000BF90AF909F908F907F906F905F904F9004
:104500003F902F9008952F923F924F925F926F921B
:104510007F928F929F92AF92BF92CF92DF92EF9253
:10452000FF920F931F93DF93CF93CDB7DEB76697BC
:104530000FB6F894DEBF0FBECDBF6F837887898733
:104540009A872B873C874D875E87EF86F88A098B91
:104550001A8BAB8ABC8ACD8ADE8A80E090E0A0E02C
:10456000B0E08B839C83AD83BE831A82198260E0A6
:1045700070E080E89FE32B813C814D815E810E9449
:104580001B775B016C01A60195010E9418797B01E4
:104590008C016B817C818D819E819B01AC010E948D
:1045A0001C77A60195010E9418791B012C016B81D3
:1045B0007C818D819E819B01AC010E9418795B01F9
:1045C0006C016F81788589859A850E9422789B018C
:1045D000AC01C801B7010E9418793B014C016CA5E0
:1045E0007DA58EA59FA50E9422789B01AC01C201EA
:1045F000B1010E9418799B01AC01C401B3010E9472
:104600001C773B014C016F85788989899A890E94C2
:1046100022789B01AC01C601B5010E9418799B016B
:10462000AC01C401B3010E941C773B014C016B85B6
:104630007C858D859E850E9422789B01AC01C801F6
:10464000B7010E9418797B018C0168A979A98AA910
:104650009BA90E9422789B01AC01C201B1010E947A
:1046600018799B01AC01C801B7010E941C777B013E
:104670008C016B897C898D899E890E9422789B019F
:10468000AC01C601B5010E9418799B01AC01C801BB
:10469000B7010E941C779B01AC01C401B3010E94C9
:1046A000181A6B817C818D819E812AE037ED43E26F
:1046B0005BE30E941C776B837C838D839E83A9813F
:1046C000BA811196BA83A983A159B14009F04FCF9D
:1046D00066960FB6F894DEBF0FBECDBFCF91DF91C7
:1046E0001F910F91FF90EF90DF90CF90BF90AF9010
:1046F0009F908F907F906F905F904F903F902F9002
:1047000008952F923F924F925F926F927F928F9275
:104710009F92AF92BF92CF92DF92EF92FF920F9350
:104720001F93DF93CF93CDB7DEB7C055D0400FB600
:10473000F894DEBF0FBECDBF6BAF7CAF8DAF9EAF29
:1047400023962CAF3DAF4EAF5FAF23972596FFAEBC
:10475000EEAE25972796DFAECEAE279788E895E197
:1047600061E179E00E94047388E895E16EE179E007
:104770000E94617288E895E1B8014AE050E00E9429
:10478000447288E895E16BE279E00E94617288E802
:1047900095E125966EAD7FAD25974AE050E00E94E9
:1047A000447288E895E166E379E00E94617288E8E6
:1047B00095E127966EAD7FAD27974AE050E00E94C5
:1047C000447225962EAD3FAD2597B901882777FD18
:1047D0008095982F0E94227869837A838B839C83AB
:1047E0006D8F7E8F8F8F98A384E190E09AA389A329
:1047F0001C8E1B8E44C22596AEADBFAD2597A0354D
:10480000B10574F46D8D7E8D8F8D98A120E030E020
:1048100040E85EE30E9418790E94EF777AA369A3CB
:1048200088E691E069A17AA10E94477A882777FDFE
:104830008095982F0E9422786F8B788F898F9A8F1E
:10484000E9A1FAA1BF01882777FD8095982F0E94E2
:1048500022789B01AC0169817A818B819C810E94C5
:1048600087776B8B7C8B8D8B9E8B8F89988DA98D99
:10487000BA8D8D879E87AF87B88B1A8A198A66246E
:104880006394EBC1A989BA89BD01882777FD80951A
:10489000982F0E9422785B016C016BAD7CAD8DADD1
:1048A0009EAD0E9422786FAB78AF89AF9AAFC601F8
:1048B000B50120E030E044E353E40E9487772BED1C
:1048C0003FE049E450E40E9418797B018C01C80163
:1048D0000E9484779B01AC016D8D7E8D8F8D98A198
:1048E0000E9418796BAB7CAB8DAB9EAB6FA978AD9A
:1048F00089AD9AAD2BA93CA94DA95EA90E941C7750
:1049000069877A878B879C8723966CAD7DAD8EAD4A
:104910009FAD23970E9422786FA778AB89AB9AABA3
:10492000B701C8010E947B799B01AC016D8D7E8D22
:104930008F8D98A10E9418796BA77CA78DA79EA741
:104940006FA578A989A99AA92BA53CA54DA55EA517
:104950000E941C776D837E838F8398876D857E850B
:104960008F8598890E94EF777A8B698BFB01BF0155
:10497000882777FD8095982F0E94227820E030E0EC
:1049800044E353E40E9487772BED3FE049E450E491
:104990000E9418797B018C01C8010E9484779B01D9
:1049A000AC016D8D7E8D8F8D98A10E9418796FA3BB
:1049B00078A789A79AA7B701C8010E947B799B01B4
:1049C000AC016D8D7E8D8F8D98A10E9418796BA39F
:1049D0007CA38DA39EA3662051F069857A858B8583
:1049E0009C852D813E814F8158850E94181A109216
:1049F000EE0C6D857E858F859889A60195010E94B4
:104A00001B7720E030E040E05FE30E9418799B01D3
:104A1000AC01C601B5010E941C770E94EF77882780
:104A200077FD8095982F0E94227820E030E044E3C3
:104A300053E40E9487772BED3FE049E450E40E9465
:104A400018797B018C01C8010E9484773B014C01DD
:104A5000B701C8010E947B791B012C012DB73EB71D
:104A6000285030400FB6F8943EBF0FBE2DBF8DB713
:104A70009EB7019661969FAF8EAF619769857A85E3
:104A80008B859C850E94EF772B966CAF7DAF8EAFA8
:104A90009FAF2B976D817E818F8198850E94EF77E4
:104AA0002F966CAF7DAF8EAF9FAF2F976FA978AD6C
:104AB00089AD9AAD2FA138A549A55AA50E941C77AA
:104AC0000E94EF777B018C016FA578A989A99AA92B
:104AD0002BA13CA14DA15EA10E941C770E94EF7703
:104AE0005B016C016D8D7E8D8F8D98A1A40193016A
:104AF0000E9418793B014C016BA97CA98DA99EA944
:104B000020E030E040E85EEB0E9418799B01AC01A8
:104B1000C401B3010E941C773B014C016FA178A531
:104B200089A59AA520E030E040E85EEB0E94187964
:104B30009B01AC01C401B3010E941C779B01AC0135
:104B40000E941C779B01AC016FA978AD89AD9AAD2D
:104B50000E941C770E94EF776196AEADBFAD619762
:104B60006D937D938D939C9313976D8D7E8D8F8D1B
:104B700098A1A20191010E9418793B014C016BA5FB
:104B80007CA58DA59EA520E030E040E85EEB0E946C
:104B900018799B01AC01C401B3010E941C773B0151
:104BA0004C016BA17CA18DA19EA120E030E040E8EA
:104BB0005EEB0E9418799B01AC01C401B3010E9415
:104BC0001C779B01AC010E941C779B01AC016FA577
:104BD00078A989A99AA90E941C770E94EF7761960B
:104BE000EEADFFAD619764837583868397832B96C3
:104BF0006CAD7DAD8EAD9FAD2B972F962CAD3DADA1
:104C00004EAD5FAD2F977FDCF1E0F093EE0C6D8D34
:104C10007E8D8F8D98A12B893C894D895E890E945C
:104C20001C776D8F7E8F8F8F98A36D857E858F8586
:104C300098892F89388D498D5A8D0E941C776D87F0
:104C40007E878F87988B66242DB73EB7285F3F4FAE
:104C50000FB6F8943EBF0FBE2DBF6D857E858F8544
:104C6000988920E030E044EB53E40E9480771816E6
:104C70000CF008CE8B8D9C8D01969C8F8B8FAB8D0D
:104C8000BC8D2796EEADFFAD2797AE17BF070CF48E
:104C9000B2CDC05BDF4F0FB6F894DEBF0FBECDBF05
:104CA000CF91DF911F910F91FF90EF90DF90CF9008
:104CB000BF90AF909F908F907F906F905F904F903C
:104CC0003F902F9008952F923F924F925F926F9254
:104CD0007F928F929F92AF92BF92CF92DF92EF928C
:104CE000FF920F931F93DF93CF93CDB7DEB7E89773
:104CF0000FB6F894DEBF0FBECDBF2B013C01EBA277
:104D0000FCA20DA31EA3AFA2B8A6C9A6DAA69CA6B4
:104D10008BA60E94EC086B8F7C8F8D8F9E8FA301DA
:104D200092010E94400D6F8B788F898F9A8F6BA1B3
:104D30007CA18DA19EA12FA138A549A55AA50E94AD
:104D4000EC087B018C012BA13CA14DA15EA10E942E
:104D5000400D5B016C01C801B70120E030E040EA82
:104D600051E40E94147918160CF012C260919C0D47
:104D700070919D0D80919E0D90919F0D645170409A
:104D8000804090400E9422786F8F78A389A39AA3D5
:104D9000C801B7012F8D38A149A15AA10E9480777F
:104DA00088230CF0F5C1C601B50120E030E040EAEF
:104DB00051E40E94147918160CF0EAC16091A00D1C
:104DC0007091A10D8091A20D9091A30D645170403E
:104DD000804090400E9422782B013C01C601B50121
:104DE000A30192010E94807788230CF0D1C16B8DC2
:104DF0007C8D8D8D9E8D20E030E040EA51E40E9454
:104E0000147918160CF0C4C16B8D7C8D8D8D9E8D20
:104E10002F8D38A149A15AA10E94807788230CF0D8
:104E2000B7C16F89788D898D9A8D20E030E040EA96
:104E300051E40E94147918160CF0AAC16F89788D7C
:104E4000898D9A8DA30192010E94807788230CF0AE
:104E50009FC11092EF0CC801B7012B8D3C8D4D8D79
:104E60005E8D0E941B771B012C01C601B5012F89A5
:104E7000388D498D5A8D0E941B773B014C01C20130
:104E8000B10120E030E040E050E00E9414791816B3
:104E90001CF48201710106C08201710117FB10959B
:104EA00017F91095C401B30120E030E040E050E074
:104EB0000E94147918161CF4A401930103C0A401E4
:104EC00093015058C801B7010E94147918169CF03C
:104ED00021E030E03E8B2D8BD401C301B0588DAB67
:104EE0009EABAFABB8AFABA5BCA55D01CC24B7FC06
:104EF000C094DC2C4EC021E030E03E8B2D8BD201E3
:104F0000C101B05889AB9AABABABBCABABA5BCA5F0
:104F10005D01CC24B7FCC094DC2C06C02D893E89F1
:104F20002F5F3F4F3E8B2D8BC201B10120E030E05F
:104F300040E050E00E94147918161CF482017101BF
:104F400004C0E9A8FAA80BA91CA9AD89BE89BD01B6
:104F5000882777FD8095982F0E9422789B01AC01CD
:104F6000C801B7010E9487777B018C01C601B5019A
:104F70000E9422789B01AC01C801B7010E941479FC
:104F8000181664F234C02D893E892F5F3F4F3E8B47
:104F90002D8BC401B30120E030E040E050E00E94DE
:104FA000147918161CF48401730104C0EDA8FEA83E
:104FB0000FA918ADAD89BE89BD01882777FD809501
:104FC000982F0E9422789B01AC01C801B7010E9472
:104FD00087777B018C01C601B5010E9422789B0175
:104FE000AC01C801B7010E941479181664F22D892A
:104FF0003E895901CC24B7FCC094DC2CC601B50114
:105000000E9422787B018C01C201B101A8019701A5
:105010000E9487776D837E838F839887C401B30155
:10502000A80197010E94877769837A838B839C8389
:105030001092EE0C198A1A8A1B8A1C8A19861A8603
:105040001B861C86ADA6BEA6CFA6D8AA6B8D7C8D6E
:105050008D8D9E8D2D813E814F8158850E941C77BC
:105060006B8F7C8F8D8F9E8F6F89788D898D9A8DB8
:1050700029813A814B815C810E941C776F8B788FEC
:10508000898F9A8F6B8D7C8D8D8D9E8D2F89388D1C
:10509000498D5A8D0E94210E6D877E878F87988B50
:1050A0006B8D7C8D8D8D9E8D2F89388D498D5A8D80
:1050B0000E94EA0D1B012C0169847A848B849C84F4
:1050C0008DA59EA5AFA5B8A9680E791E8A1E9B1E48
:1050D00069897A898B899C890E9422785B016C019D
:1050E0006091EA0C7091EB0C8091EC0C9091ED0CBE
:1050F00020E030E040E850E40E9418797B018C0108
:10510000C401B301A60195010E944A0E0E94EF77E7
:10511000698B7A8B8B8B9C8B0E9422787B018C0114
:1051200089E59EE0B801A7010E949F4A8DE99EE0B3
:10513000B801A7010E949F4A6D857E858F85988959
:10514000A20191010E94181A89859A85AB85BC85B8
:105150000197A109B10989879A87AB87BC878D8997
:105160009E89A985BA858A0F9B1F892B09F06ECF6E
:1051700011E01093EF0C6BA17CA18DA19EA12FA13A
:1051800038A549A55AA50E94181A1093EE0C06C01E
:1051900088E895E16FE379E00E9404730E94100DA6
:1051A000E8960FB6F894DEBF0FBECDBFCF91DF916A
:1051B0001F910F91FF90EF90DF90CF90BF90AF9035
:1051C0009F908F907F906F905F904F903F902F9027
:1051D00008952F923F924F925F926F927F928F929B
:1051E0009F92AF92BF92CF92DF92EF92FF920F9376
:1051F0001F93DF93CF93CDB7DEB7A6970FB6F89482
:10520000DEBF0FBECDBF8091C40D882309F401C35A
:10521000CE0101966BE07FE00E94FF768E01085F71
:105220001F4FC801BE016F5F7F4F0E94FF76C8010C
:105230000E943713F82EC8010E941177FF2071F4E5
:1052400088E895E166EC77E00E94617288E895E174
:10525000BE016F5F7F4F0E944773D6C288E895E119
:1052600061EE77E00E94617240912F0E5091300EF6
:105270006091310E7091320E88E895E12AE030E0BD
:105280000E94E27188E895E16DEE77E00E9461721C
:105290004091330E5091340E6091350E7091360E60
:1052A00088E895E12AE030E00E94207288E895E1E4
:1052B00060EF77E00E9461724091000D5091010D06
:1052C0006091020D7091030D88E895E12AE030E0CD
:1052D0000E94E27188E895E16CEF77E00E94047328
:1052E0006091000D7091010D8091020D9091030D60
:1052F00020912F0E3091300E4091310E5091320E90
:105300000E947C7ACA01B9010E94227860930C0D38
:1053100070930D0D80930E0D90930F0D88E895E11D
:105320006EEF77E00E94617240910C0D50910D0D6F
:1053300060910E0D70910F0D88E895E122E030E04C
:105340000E94F37288E895E16EE078E00E94617255
:105350004091000D5091010D6091020D7091030D6F
:1053600088E895E12AE030E00E94207288E895E123
:1053700067E374E00E9461726091390E70913A0E99
:1053800088E895E14AE050E00E944472E090000D08
:10539000F090010D0091020D1091030DC801B701AD
:1053A0000E9422782091100D3091110D4091120D24
:1053B0005091130D0E9418790E94EF776093040DAD
:1053C0007093050D8093060D9093070D2090F80CB7
:1053D0003090F90C4090FA0C5090FB0C2E0C3F1CB6
:1053E000401E511E2091FC0C3091FD0C4091FE0C92
:1053F0005091FF0C260F371F481F591F2F87388BDE
:10540000498B5A8B88E895E165E679E00E946172E4
:1054100088E895E1B201A1012AE030E00E94E27142
:1054200088E895E16DE679E00E94617288E895E18F
:105430004F85588969897A892AE030E00E94207274
:1054400089E59EE00E9440483B014C018DE99EE0C9
:105450000E9440486BA37CA38DA39EA36091F80C8F
:105460007091F90C8091FA0C9091FB0C0E942278BB
:105470007B018C016091FC0C7091FD0C8091FE0C05
:105480009091FF0C0E9422789B01AC01C801B701EA
:105490000E94210E7B018C016091F80C7091F90C37
:1054A0008091FA0C9091FB0C0E9422785B016C01B8
:1054B0006091FC0C7091FD0C8091FE0C9091FF0CA2
:1054C0000E9422789B01AC01C601B5010E94EA0D41
:1054D0005B016C01C401B3010E9422783B014C01C5
:1054E0006BA17CA18DA19EA10E9422789B01AC01A1
:1054F000C401B301E4E18E2E912CE5DB89E59EE049
:105500000E9440483B014C018DE99EE00E944048CA
:105510006F8F78A389A39AA3C201B1010E94227858
:105520006B8F7C8F8D8F9E8F6091FC0C7091FD0C2A
:105530008091FE0C9091FF0C0E9422789B01AC019F
:105540006B8D7C8D8D8D9E8D0E94210E7B018C013B
:105550006091FC0C7091FD0C8091FE0C9091FF0C01
:105560000E9422789B01AC016B8D7C8D8D8D9E8D70
:105570000E94EA0D5B016C01C401B3010E94227814
:105580003B014C016F8D78A189A19AA10E942278DC
:105590009B01AC01C401B301B4E18B2E912C93DBD0
:1055A00089E59EE00E9440483B014C018DE99EE068
:1055B0000E9440486F8B788F898F9A8F6F8578898A
:1055C00089899A890E9422781B012C016B8D7C8D20
:1055D0008D8D9E8DA20191010E94210E7B018C0177
:1055E0006B8D7C8D8D8D9E8DA20191010E94EA0DA7
:1055F0005B016C01C401B3010E9422783B014C01A4
:105600006F89788D898D9A8D0E9422789B01AC01DB
:10561000C401B301A4E18A2E912C55DB89E59EE0FB
:105620000E9440483B014C018DE99EE00E944048A9
:105630006B8B7C8B8D8B9E8B6091F80C7091F90C31
:105640008091FA0C9091FB0C0E942278A2019101AA
:105650000E94210E7B018C016091F80C7091F90C75
:105660008091FA0C9091FB0C0E942278A20191018A
:105670000E94EA0D5B016C01C401B3010E94227813
:105680003B014C016B897C898D899E890E9422781F
:105690009B01AC01C401B301F4E18F2E912C13DB0B
:1056A00089E59EE00E9440483B014C018DE99EE067
:1056B0000E9440481B012C016091F80C7091F90C7C
:1056C0008091FA0C9091FB0C0E9422787B018C0156
:1056D0006091FC0C7091FD0C8091FE0C9091FF0C80
:1056E0000E9422789B01AC01C801B7010E94210EE3
:1056F0007B018C016091F80C7091F90C8091FA0C8F
:105700009091FB0C0E9422785B016C016091FC0C73
:105710007091FD0C8091FE0C9091FF0C0E942278FC
:105720009B01AC01C601B5010E94EA0D5B016C0151
:10573000C401B3010E9422783B014C01C201B101B6
:105740000E9422789B01AC01C401B301E4E18E2EDA
:10575000912CB9DA89E59EE00E9440483B014C015A
:105760008DE99EE00E9440481B012C016091F80CDD
:105770007091F90C8091FA0C9091FB0C0E942278A8
:105780007B018C016091FC0C7091FD0C8091FE0CF2
:105790009091FF0C0E9422789B01AC01C801B701D7
:1057A0000E94210E7B018C016091F80C7091F90C24
:1057B0008091FA0C9091FB0C0E9422785B016C01A5
:1057C0006091FC0C7091FD0C8091FE0C9091FF0C8F
:1057D0000E9422789B01AC01C601B5010E94EA0D2E
:1057E0005B016C01C401B3010E9422783B014C01B2
:1057F000C201B1010E9422789B01AC01C401B30136
:10580000B4E18B2E912C5FDACE0101960E941177C4
:1058100006C088E895E164EE78E00E940473A696DD
:105820000FB6F894DEBF0FBECDBFCF91DF911F91B1
:105830000F91FF90EF90DF90CF90BF90AF909F902F
:105840008F907F906F905F904F903F902F90089532
:10585000EF92FF920F931F9309E51EE0C8010E948B
:10586000184DFDE9EF2EFEE0FF2EC7010E94184DF6
:1058700081E08093400EC8010E944048AB01BC010A
:10588000405E5F4F6F4F7F4FC8010E948F4EC70130
:105890000E944048AB01BC01405E5F4F6F4F7F4F9D
:1058A000C7010E948F4EC8010E944048AB01BC0155
:1058B0004052504060407040C8010E948F4EC70166
:1058C0000E944048AB01BC014052504060407040D3
:1058D000C7010E948F4E88E895E165E779E00E9454
:1058E00004731F910F91FF90EF900895EF92FF9234
:1058F0000F931F937C0108E815E1C80162EC73E087
:105900000E94C370C801B7010E941573C80164EA00
:1059100073E00E940E711F910F91FF90EF90089518
:10592000AF92BF92CF92DF92EF92FF920F931F93AD
:10593000DF93CF93CDB7DEB72E970FB6F894DEBFC7
:105940000FBECDBFADB6BEB67E010894E11CF11C02
:10595000C7016BE07FE00E94FF768E01085F1F4F5A
:10596000C80162E17FE00E94FF76C70164E072E057
:105970000E941775882309F057C088E895E165E80B
:1059800079E00E94617288E895E1B7010E9447734F
:1059900081E08093C50D86EC9DE0B7010E94EA7618
:1059A000C80162EA79E00E941775882309F442C0B1
:1059B000DDB6CEB64D815E814F5F5F4F8DB79EB72E
:1059C000841B950B0FB6F8949EBF0FBE8DBF0DB70D
:1059D0001EB70F5F1F4FC701B80120E030E00E94E3
:1059E000C8748DE091E1B8010E944756882399F070
:1059F00088E895E164EC71E00E940E718DE091E120
:105A0000B8010E943D56882331F088E895E166EBA5
:105A100071E00E940E718D2D9C2D9C010FB6F894A3
:105A20003EBF0FBE2DBF06C088E895E164EA79E06D
:105A30000E940473CE0108960E941177CE01019650
:105A40000E9411770FB6F894BEBE0FBEADBE2E9663
:105A50000FB6F894DEBF0FBECDBFCF91DF911F917F
:105A60000F91FF90EF90DF90CF90BF90AF9008958F
:105A70000F931F93AB01BC014093EA0C5093EB0CC6
:105A80006093EC0C7093ED0C89E59EE00E946F4DE5
:105A90004091EA0C5091EB0C6091EC0C7091ED0C84
:105AA0008DE99EE00E946F4D08E815E1C80166E1AE
:105AB00072E00E94C3704091EA0C5091EB0C60912F
:105AC000EC0C7091ED0CC80122E030E00E94F37202
:105AD0001F910F910895CF92DF92EF92FF920F9353
