:10000000BDC20000E8C20000E6C20000E4C2000079
:10001000E2C20000E0C20000DEC20000DCC200005C
:10002000DAC20000D8C20000D6C20000D4C200006C
:10003000D2C20000D0C20000CEC20000CCC200007C
:10004000CAC200000C942251C6C20000C4C2000003
:10005000C2C20000C0C20000BEC200000C9497697A
:10006000BAC200000C94BE6B0C94E66CB4C20000E3
:10007000B2C20000B0C20000AEC20000ACC20000BC
:100080000C94F550A8C20000A6C20000A4C2000053
:100090000C94F76B0C94256D9EC200009CC200006E
:1000A0009AC2000098C200000C94C85094C200008C
:1000B00092C2000090C200008EC200000C949B50BF
:1000C0008AC2000088C2000086C200000C94306C16
:1000D0000C94646D80C200000C94696C0C94A36D48
:1000E0007AC2000005A84CCDB2D44EB93836A90268
:1000F0000C50B9918688083CA6AAAA2ABE00000026
:10010000803F000000006410B71DC8206E3BAC307B
:10011000D9269041DC76F4516B6B5861B24D3C713D
:1001200005502083B8ED44930FF0E8A3D6D68CB3E6
:1001300061CBB0C2649BD4D2D38678E20AA01CF211
:10014000BDBD50424D20696D616765206D7573744A
:10015000206265206174206C6561737420313020E9
:10016000706978656C7320776964652E002C206D4A
:1001700061782064656E736974793A20002C207070
:10018000656E2077696474683A200050656E7769FF
:10019000647468207465737420004368616E6769D5
:1001A0006E67206261636B20746F206C69766520D6
:1001B0006D6F64652E0046696C652072656D6F76A3
:1001C00065642E0046696C6520616C7265616479B6
:1001D000206578697374732E00457865637574695A
:1001E0006E6720636F6D6D616E643A0053746F7259
:1001F000696E6720636F6D6D616E643A006D6D00AE
:100200004368616E6765642050656E207769647429
:100210006820746F20004E657720616363656C65AC
:10022000726174696F6E3A20004E6577206D617857
:100230002073706565643A200055703A2000446F61
:10024000776E3A2000504753504545442C005047A4
:100250004C4946542C005047535445504D554C542E
:1002600049504C4945522C00504753544550535027
:1002700045525245562C0050474D4D50455252451F
:10028000562C00504753495A452C0050474E414D7B
:10029000452C002900526563616C632070616765BD
:1002A00048656967687420696E207374657073208F
:1002B00028002900526563616C632070616765578F
:1002C0006964746820696E207374657073202800F7
:1002D0002900292C2073746570735065724D4D2070
:1002E0002800526563616C63206D6D5065725374B4
:1002F00065702028004C6F61646564206D6F746FB9
:10030000722073746570206D756C7469706C6965AA
:10031000723A004C6F61646564206D616368696E58
:1003200065206E616D653A004C6F6164656420758F
:100330007020706F733A004C6F6164656420646F65
:10034000776E20706F733A004C6F61646564206D46
:100350006F746F7220737465707320706572207291
:1003600065763A004C6F61646564206D6D20706540
:1003700072207265763A004C6F61646564206D612D
:100380006368696E65206865696768743A004C6FD8
:1003900061646564206D616368696E652077696476
:1003A00074683A002069736E2774206120636F6D52
:1003B0006D616E642049207265636F676E69736555
:1003C0002E00536F7272792C2000436F6D6D616E39
:1003D00064206E6F74207061727365642E004368D0
:1003E00065636B73756D206E6F74206D61746368E7
:1003F0006564213A007600504F4C415247524150BB
:1004000048204F4E21007C3C3E5E2B3D3F2F5B5DE4
:100410003B2C2A225C0000002100240027002A0037
:100420002D003000330001010000040107010A0122
:1004300000002200250028002B002E00310034008F
:1004400002010000050108010B010000200023004B
:10045000260029002C002F003200000100000301BB
:100460000601090105050505070508080808020237
:1004700002020A0A0808040404040101010101013E
:1004800001010303030303030303040707070C0C21
:100490000C0C0C0C0C0C02020202060606060606E8
:1004A00006060B0B0B0B0B0B0B0B0102102020088D
:1004B00008102040102040800201020108040201BF
:1004C000010204081020408080402010080402012E
:1004D0008004020180402010080402010804020187
:1004E000010204081020408001020408102040800E
:1004F0000000090A02080B0C0D07060304010000A6
:1005000000000000000000000000000000000000EB
:1005100000000000000000000000000011100F00AB
:1005200000000000000000000000000000000000CB
:10053000000000000000494E46494E4954594E41C2
:100540004ECDCCCC3D0AD7233C17B7D13877CC2B36
:10055000329595E6241FB14F0A000020410000C8E3
:100560004200401C4620BCBE4CCA1B0E5AAEC59D64
:100570007400C30C6251FE540D6FBE0C11241FBEDB
:10058000CFEFD1E2DEBFCDBF00E00CBF1DE0A0E0A9
:10059000B2E0ECE3F5EF00E00BBF02C007900D9274
:1005A000A838B107D9F71BBE16E1A8E8BDE001C025
:1005B0001D92AB30B107E1F715E0CAE7D5E004C002
:1005C0002297FE010E944C7AC237D107C9F70E94D8
:1005D0002B700C94927A14CDCF93DF93BC018230B0
:1005E000910510F462E070E0A0910716B091081632
:1005F000ED01E0E0F0E040E050E021C08881998129
:100600008617970769F48A819B81309719F0938345
:10061000828304C09093081680930716FE0134C0AD
:100620006817790738F44115510519F084179507B3
:1006300008F4AC01FE018A819B819C01E9012097AD
:10064000E9F641155105A9F1CA01861B970B0497DC
:1006500008F4BA01E0E0F0E02AC08D919C91119776
:1006600084179507F9F46417750781F412968D9134
:100670009C911397309719F09383828304C09093D1
:10068000081680930716FD0132964CC0CA01861BDE
:10069000970BFD01E80FF91F6193719302978D93FA
:1006A0009C9340C0FD01828193819C01D9011097E8
:1006B000A1F68091051690910616892B41F4809140
:1006C000D60C9091D70C9093061680930516409106
:1006D000D80C5091D90C4115510541F44DB75EB776
:1006E0008091D40C9091D50C481B590B2091051684
:1006F00030910616CA01821B930B8617970780F06C
:10070000AB014E5F5F4F8417950750F0420F531FA8
:100710005093061640930516F9016193719302C038
:10072000E0E0F0E0CF01DF91CF910895CF93DF9328
:10073000009709F450C0EC0122971B821A82A09105
:100740000716B0910816109709F140E050E0AC1779
:10075000BD0708F1BB83AA83FE0121913191E20F0D
:10076000F31FAE17BF0779F48D919C911197280F55
:10077000391F2E5F3F4F3983288312968D919C91AC
:1007800013979B838A834115510571F4D093081602
:10079000C093071620C012968D919C911397AD01BE
:1007A000009711F0DC01D3CFFA01D383C2832191EA
:1007B0003191E20FF31FCE17DF0769F48881998129
:1007C000280F391F2E5F3F4FFA01318320838A8122
:1007D0009B8193838283DF91CF910895A0E0B0E065
:1007E000E4EFF3E00C94637AEC01A880B980CA804E
:1007F000DB80A114B104C104D10441F484E2A82E29
:1008000089EDB82E8BE5C82E87E0D82EC601B5013C
:100810002DE133EF41E050E00E941B7A27EA31E4FA
:1008200040E050E00E94BB797B018C01C601B5011C
:100830002DE133EF41E050E00E941B7ACA01B9017B
:100840002CEE34EF4FEF5FEF0E94BB796E0D7F1DF2
:10085000801F911F97FF04C06150704080409048F6
:10086000688379838A839B839B01AC015F77B9019D
:10087000CA01CDB7DEB7EAE00C947F7AAFCF8AED3C
:100880009CE0ACCF6093DA0C7093DB0C8093DC0CB3
:100890009093DD0C0895A0E0B0E0E1E5F4E00C9465
:1008A0005D7A6C01009721F4CB0196DE6C01BDC02E
:1008B0008EEF882E8FEF982E8C0C9D1C8601060FD4
:1008C000171F0815190508F4AEC0F401A081B18105
:1008D000A617B707B0F0A530B10508F4A6C0CD0142
:1008E00004978617970708F4A0C01297A61BB70BAA
:1008F000F801A193B193D4016D937C93CF0116DFDE
:1009000094C07B01EA1AFB0AEEEFFFEFEE0EFF1E2A
:1009100036016A0E7B1EC0910716D091081644243A
:100920005524AA24BB244AC0C615D705E1F5488141
:1009300059814E155F05B8F1CA0104978E159F05C0
:10094000B0F41296A40FB51FF401B183A0832A81DD
:100950003B814114510431F0D20113963C932E9304
:10096000129763C030930816209307165EC08A81E1
:100970009B81F80193838283425050404E195F0956
:10098000518340834114510431F0D20113961C93DA
:100990000E93129704C01093081600930716F401E3
:1009A0007183608342C088819981A816B90608F4D2
:1009B0005C012E018A819B819C01E901209709F04D
:1009C000B3CF809105169091061686159705E9F428
:1009D000A616B706D0F42091D80C3091D90C211569
:1009E000310541F42DB73EB78091D40C9091D50CD0
:1009F000281B390B02171307B0F410930616009347
:100A00000516D4016D937C9310C0CB01E5DDEC019C
:100A1000009749F0F40140815181B6015FD0C601D1
:100A200085DE6E0102C0CC24DD24C601CDB7DEB761
:100A3000E0E10C94797A66277727C8C0FC01882703
:100A40009927E89421912032E9F3293010F02E30D3
:100A5000C8F32B3239F02D3231F4689403C0AED094
:100A6000820F911D219120532A30C8F31EF49095D6
:100A700081959F4F08951F93FC0199278827BC01FA
:100A8000E89411911032E9F3193010F01E30C8F3D8
:100A90001B3249F01D3241F4689405C07AD0610FD1
:100AA000711D811D911D119110531A30B8F33EF440
:100AB00090958095709561957F4F8F4F9F4F1F91B7
:100AC0000895FB01DC0104C08D910190801921F48F
:100AD00041505040C8F7881B990B0895FB01DC0179
:100AE00002C001900D9241505040D8F70895FC018A
:100AF0008191861721F08823D9F799270895319796
:100B0000CF010895FB01DC018D9101908019011046
:100B1000D9F3990B0895FB01DC0101900D9200209F
:100B2000E1F70895FB01DC014150504030F08D9118
:100B30000190801919F40020B9F7881B990B0895CA
:100B4000FB01DC014150504048F001900D92002023
:100B5000C9F701C01D9241505040E0F70895FB01D4
:100B600051915523A9F0BF01DC014D914517411169
:100B7000E1F759F4CD010190002049F04D91401565
:100B80004111C9F3FB014111EFCF81E090E00197E2
:100B90000895592F482F372F262F660F771F881F4C
:100BA000991F660F771F881F991F620F731F841F7D
:100BB000951F660F771F881F991F08957AE0979FEA
:100BC000902D879F802D910D11240895A0E0B0E015
:100BD000ECEEF5E00C94617AEC015B0161157105B6
:100BE00019F0FB0191838083F9908F2D90E00E9492
:100BF000507A892BC9F7FDE2FF1621F4F990EE2413
:100C0000E39405C02BE2F21609F4F990EE248E016C
:100C100001501040C80166E375E043E050E033D175
:100C2000892BF9F48E010E5F1F4FC80169E375E04F
:100C300045E050E028D1892B19F48E01095F1F4F40
:100C4000A114B10419F0F50111830083E0FC04C084
:100C500070E090E080E813C070E090E080E86FEF13
:100C600007C1C8016EE375E043E050E00CD1892B69
:100C700069F4A114B10429F470E090E080EC6FE70E
:100C8000F7C02296F501D183C083F6CF882499243A
:100C900040E050E060E070E0EF2DE053EA30A0F576
:100CA000F2E0EF2A8E2D90E09C0128703070E2FE79
:100CB00006C0232B79F50894811C911C2BC0232B93
:100CC00019F0089481089108DB01CA0112E0880F2D
:100CD000991FAA1FBB1F1A95D1F7480F591F6A1FEA
:100CE0007B1F440F551F661F771F4E0F511D611D3F
:100CF000711D483929E9520729E9620729E172077C
:100D000048F084E0E82A06C0EE3F31F4E3FC39C045
:100D100098E0E92AF990C0CFE53311F0E53189F583
:100D200029912D3219F4E0E1EE2A05C02B3219F099
:100D300081E090E003C0299182E090E0E22FE0534F
:100D4000EA3018F0C81BD90B1CC020E030E0FCE0F2
:100D500020383F075CF4C901880F991F880F991F3D
:100D6000280F391F220F331F2E0F311DE991E05339
:100D7000EA3068F3E4FE03C0309521953F4F820EC0
:100D8000931ECE2CDD24E1FE07C0A114B10421F096
:100D90002197F501D183C083CB01BA010E94BF77AF
:100DA0007B018C01F3E0CF22DD2423E0C216D104C5
:100DB00021F417FB109517F9109557016801C80128
:100DC000B70120E030E040E050E00E941F77882328
:100DD00009F44AC097FE0DC025E5E22E25E0F22E6B
:100DE0009094819491089394C0E2D0E000E010E0E8
:100DF00012C09DE6E92E95E0F92EF6CFF701259178
:100E0000359145915491C601B5010E94B7785B01B7
:100E10006C018C1A9D0A8C169D0684F7D595C79592
:100E20000F5F1F4F0630110529F08CEF9FEFE80E82
:100E3000F91EF1CFC501D6017C018D018C2D880FE3
:100E40008D2D881F8F3F51F0C601B50120E030E0A5
:100E500040E050E00E941F77882331F482E290E066
:100E600090930A16809309167E2D9F2D802F612F57
:100E7000272F392F482F562FB901CA01CDB7DEB71A
:100E8000ECE00C947D7AFB01DC014150504088F08D
:100E90008D9181341CF08B350CF4805E659161344A
:100EA0001CF06B350CF4605E861B611171F3990BBD
:100EB0000895881BFCCFAF92BF92CF92DF92EF9242
:100EC000FF920F931F936E157F058007910734F4EF
:100ED0002E153F054007510764F42CC0E616F706AF
:100EE0000807190794F4A216B306C406D5063CF405
:100EF00023C0A216B306C406D506BCF41FC02A152B
:100F00003B054C055D05C4F41BC06E157F058007CD
:100F1000910791F42A153B054C055D058CF0A2164E
:100F2000B306C406D50644F409C02A153B054C0592
:100F30005D0511F484E005C082E003C083E001C0D8
:100F400081E01F910F91FF90EF90DF90CF90BF90C5
:100F5000AF900895EF92FF920F931F937B018C0146
:100F6000662757FD6095762FCB01BA010E94C177A5
:100F70002091940D3091950D4091960D5091970DC3
:100F80000E94B778A80197010E9426777B018C0107
:100F900020E030E040E050E40E94B37887FF03C0D7
:100FA00061E070E004C0C801B7010E948E77CB01F8
:100FB0001F910F91FF90EF9008956F927F928F9203
:100FC0009F92AF92BF92CF92DF92EF92FF920F93D8
:100FD0001F93CF93DF937C015B01662757FD6095DC
:100FE000762FCB01BA010E94C1773B014C0100274B
:100FF000F7FC0095102FC801B7010E94C1777B0153
:101000008C01CC24B7FCC094DC2CC601B5010E9435
:10101000C1779B01AC01C801B7010E942677A401EA
:1010200093010E94B7789B01AC01C401B3010E94F7
:10103000BA767B018C010E948E77EB01BE01882776
:1010400077FD8095982F0E94C1779B01AC01C80164
:10105000B7010E94BA7620E030E040E05FE30E94F2
:10106000B37818160CF42196CE01DF91CF911F9121
:101070000F91FF90EF90DF90CF90BF90AF909F9037
:101080008F907F906F900895CF92DF92EF92FF92B2
:101090000F931F93CF93DF93EC016B0168817981EC
:1010A0008A819B812091180D3091190D40911A0D64
:1010B00050911B0D0E94B778688379838A839B8344
:1010C000F601608171818281938120911C0D3091A4
:1010D0001D0D40911E0D50911F0D0E94B7787B0190
:1010E0008C01F60160837183828393832091691060
:1010F00030916A10C9018E978A35910580F4288154
:1011000039814A815B81D801C701B05888839983AE
:10111000AA83BB83208331834283538329C0C901BF
:10112000885890408A35910580F488819981AA81F8
:10113000BB81B05888839983AA83BB83F6018081E1
:101140009181A281B381B0580FC0225E30402A3510
:10115000310570F488819981AA81BB81E882F98286
:101160000A831B83B058F60180839183A283B383E3
:10117000688179818A819B8120916B1030916C10FC
:1011800040916D1050916E100E94BB7668837983F8
:101190008A839B83F6016081718182819381209192
:1011A0006F103091701040917110509172100E9428
:1011B000BB76F6016083718382839383DF91CF9145
:1011C0001F910F91FF90EF90DF90CF9008952F9295
:1011D0003F924F925F926F927F928F929F92AF92C7
:1011E000BF92CF92DF92EF92FF920F931F931B015A
:1011F0002C0139014A01E0909C0DF0909D0D009169
:101200009E0D10919F0DC801B701A80197010E9482
:10121000BB790E94C1775B016C01C401B301A401D9
:1012200093010E94B7789B01AC01C601B5010E94F1
:10123000BA765B016C01C201B101A20191010E9469
:10124000B7789B01AC01C601B5010E94BB765B017A
:101250006C01EE0CFF1C001F111FC801B7010E949A
:10126000C1779B01AC01C601B5010E9426771F9191
:101270000F91FF90EF90DF90CF90BF90AF909F9035
:101280008F907F906F905F904F903F902F90089538
:101290000F931F93CF93DF93242F2627A22FB0E025
:1012A000AF70B070AA0FBB1FAA0FBB1FC2E0D1E086
:1012B000AC0FBD1FFD010591159125913491E4E01E
:1012C0009695879577956795EA95D1F7062717271D
:1012D0002827392742954F70402750E04F705070B3
:1012E000440F551F440F551F4C0F5D1FFA01859188
:1012F0009591A591B49144E036952795179507955A
:101300004A95D1F7082719272A273B27B801C90191
:10131000DF91CF911F910F910895EF92FF920F935C
:101320001F938130910509F029C26F5F7F4F09F04B
:1013300020C381EE9EE060E072E00E94097689E8B9
:101340009DE00E94374E8DE89DE064E072E00E94CF
:10135000097688EE9EE065E072E00E940976609171
:10136000E40C7091E50C882777FD8095982F2091EB
:10137000DE0C3091DF0C442737FD4095542F0E943E
:10138000BB790E94C1777B018C016091E00C709168
:10139000E10C8091E20C9091E30CA80197010E946E
:1013A00026776093940D7093950D8093960D90938E
:1013B000970DC801B7012091E00C3091E10C4091EC
:1013C000E20C5091E30C0E9426777B018C01609324
:1013D000980D7093990D80939A0D90939B0D609149
:1013E000140D7091150D882777FD8095982F0E9418
:1013F000C177A80197010E94B7780E948E77609309
:101400009C0D70939D0D80939E0D90939F0D609108
:10141000160D7091170D882777FD8095982F0E94E3
:10142000C177A80197010E94B7780E948E776093D8
:10143000A00D7093A10D8093A20D9093A30D8FEE3C
:101440009EE06EE072E00E94097686EF9EE060E129
:1014500072E00E9409768DEF9EE064E172E00E94E6
:10146000097684E09FE06CE172E00E9409768BE0EF
:101470009FE06FE472E00E94097682E19FE06FE4F2
:1014800072E00E94097689E19FE06FE472E00E94B9
:10149000097680E29FE06FE472E00E94097687E2BD
:1014A0009FE06EE572E00E9409768EE29FE068E6BA
:1014B00072E00E94097685E39FE06FE672E00E9489
:1014C00009768CE39FE067E772E00E94097683E487
:1014D0009FE062E872E00E9409768AE49FE067E29A
:1014E0007FE00E949E7684EB9DE064E072E00E94C3
:1014F000097681E59FE068E872E00E94097688E558
:101500009FE06AE872E00E9409768FE59FE06FE84D
:1015100072E00E94097686E69FE063E972E00E942D
:1015200009768DE69FE067E972E00E94097684E71C
:101530009FE06BE972E00E9409768BE79FE06FE91C
:1015400072E00E94097682E89FE063EA72E00E94FE
:10155000097689E89FE067EA72E00E94097680E9EF
:101560009FE06BEA72E00E94097687E99FE06FEAEC
:1015700072E00E9409768EE99FE063EB72E00E94C0
:10158000097685EA9FE067EB72E00E9409768CEAB3
:101590009FE06BEB72E00E94097683EB9FE06FEBBC
:1015A00072E00E9409768AEB9FE063EC72E00E9491
:1015B000097681EC9FE067EC72E00E94097688EC86
:1015C0009FE06BEC72E00E9409768FEC9FE06FEC7D
:1015D00072E00E94097686ED9FE063ED72E00E9462
:1015E00009768DED9FE067ED72E00E94097684EE4A
:1015F0009FE06BED72E00E9409768BEE9FE06FED4D
:1016000072E00E94097682EF9FE063EE72E00E9432
:10161000097689EF9FE067EE72E00E94097680E02C
:1016200090E16BEE72E00E94097687E090E16FEE48
:1016300072E00E9409768EE090E163EF72E00E9412
:10164000097685E190E167EF72E00E9409768CE10E
:1016500090E16BEF72E00E94097683E290E16FEF18
:1016600072E00E9409768AE290E163E073E00E94F2
:10167000097681E390E167E073E00E94097688E3F0
:1016800090E16BE073E00E9409768FE390E16FE0F8
:1016900073E00E94097686E490E163E173E00E94C2
:1016A00009768DE490E167E173E00E94097684E5B4
:1016B00090E16BE173E00E9409768BE590E16FE1C8
:1016C00073E00E94097682E690E163E273E00E9493
:1016D00009768DEB9DE064E072E00E94097686EC6D
:1016E0009DE064E072E00E9409761092D20D1092A3
:1016F000D30D1092D60D1092D80D82E090E0A0E0AC
:10170000B0E08093D90D9093DA0DA093DB0DB093E8
:10171000DC0D1092F00D1092FA0D1092F90D84E785
:101720009DE09093F80D8093F70D1092FC0D84E1ED
:101730009EE00E9468536091DE0C7091DF0C81E4A2
:101740009EE041E00E94FF526091DE0C7091DF0C40
:101750008DE49EE042E00E94FF5289E59EE062E651
:1017600073E34CE553E30E948A498DE99EE066E508
:1017700073E340E553E30E948A49FBC0892B09F0DB
:10178000F8C06F5F7F4F09F0F4C084E19EE00E94D3
:101790007B5386EC9DE00E94B0768DEB9DE00E942D
:1017A000B07682E690E10E94B0768BE590E10E94EF
:1017B000B07684E590E10E94B0768DE490E10E94DD
:1017C000B07686E490E10E94B0768FE390E10E94CB
:1017D000B07688E390E10E94B07681E390E10E94C8
:1017E000B0768AE290E10E94B07683E290E10E94B6
:1017F000B0768CE190E10E94B07685E190E10E94A4
:10180000B0768EE090E10E94B07687E090E10E9491
:10181000B07680E090E10E94B07689EF9FE00E9470
:10182000B07682EF9FE00E94B0768BEE9FE00E9440
:10183000B07684EE9FE00E94B0768DED9FE00E942E
:10184000B07686ED9FE00E94B0768FEC9FE00E941C
:10185000B07688EC9FE00E94B07681EC9FE00E9419
:10186000B0768AEB9FE00E94B07683EB9FE00E9407
:10187000B0768CEA9FE00E94B07685EA9FE00E94F5
:10188000B0768EE99FE00E94B07687E99FE00E94E3
:10189000B07680E99FE00E94B07689E89FE00E94E0
:1018A000B07682E89FE00E94B0768BE79FE00E94CE
:1018B000B07684E79FE00E94B0768DE69FE00E94BC
:1018C000B07686E69FE00E94B0768FE59FE00E94AA
:1018D000B07688E59FE00E94B07681E59FE00E94A7
:1018E000B07684EB9DE00E94B0768AE49FE00E948F
:1018F000B07683E49FE00E94B0768CE39FE00E9484
:10190000B07685E39FE00E94B0768EE29FE00E9471
:10191000B07687E29FE00E94B07680E29FE00E946E
:10192000B07689E19FE00E94B07682E19FE00E945C
:10193000B0768BE09FE00E94B07684E09FE00E944A
:10194000B0768DEF9EE00E94B07686EF9EE00E941A
:10195000B0768FEE9EE00E94B07688EE9EE00E9408
:10196000B0768DE89DE00E94B07681EE9EE00E9408
:10197000B0761F910F91FF90EF90089580E090E076
:101980006FEF7FEFCACC81E090E06FEF7FEFC5CCC7
:10199000CF92DF92EF92FF920F931F93CF93DF933B
:1019A0006C01EE24EA94FE2C8701C0E0D0E00BC06D
:1019B000C601BE010E947D73482FC801B70168DCD3
:1019C0007B018C012196F60184819581C817D90786
:1019D00078F3A80197012095309540955095B9016D
:1019E000CA01DF91CF911F910F91FF90EF90DF908F
:1019F000CF9008950F931F9384E090E00E94EC0233
:101A00008C010E9496032DB73EB7201B310BC901F4
:101A10001F910F910895EEDF9C018091A80D909188
:101A2000A90D28173907D1F03093A90D2093A80DDF
:101A300088E895E16DEF7EE00E94B4726091A80D98
:101A40007091A90D88E895E14AE050E00E94D171BB
:101A500088E895E168E57FE00C94E672089588E8EF
:101A600095E16EE27FE00C94E67288E895E167E22A
:101A70007FE00C94E672AF92BF92CF92DF92EF922A
:101A8000FF920F931F937B018C01CA01B9010E9441
:101A9000B7785B016C01C801B701A80197010E94EA
:101AA000B7789B01AC01C601B5010E94BA760E94CD
:101AB00024791F910F91FF90EF90DF90CF90BF900E
:101AC000AF9008956F927F928F929F92AF92BF9244
:101AD000CF92DF92EF92FF920F931F937B018C01C5
:101AE00076DB5B016C01A8019701C5DF3B014C016E
:101AF000E090F80CF090F90C0091FA0C1091FB0CAE
:101B0000C801B7010E94C1779B01AC01C601B501B4
:101B10000E941F7787FD4AC08091000D9091010DB2
:101B2000A091020DB091030DE80EF91E0A1F1B1FB4
:101B3000C801B7010E94C1779B01AC01C601B50184
:101B40000E94B378181694F1E090FC0CF090FD0C14
:101B50000091FE0C1091FF0CC801B7010E94C177E3
:101B60009B01AC01C401B3010E941F7787FD1EC019
:101B7000DD248091040D9091050DA091060DB0918A
:101B8000070DE80EF91E0A1F1B1FC801B7010E94AE
:101B9000C1779B01AC01C401B3010E94B378181650
:101BA00014F4DD24D39481E0D82601C0DD248D2DEA
:101BB0001F910F91FF90EF90DF90CF90BF90AF906B
:101BC0009F908F907F906F900895AF92BF92CF9229
:101BD000DF92EF92FF920F931F937B018C015901CB
:101BE0006A0160919C0D70919D0D80919E0D909168
:101BF0009F0D0E94C177A80197010E94BA769B01B0
:101C0000AC010E94B7787B018C01C601B501A60129
:101C100095010E94B7789B01AC01C801B7010E94F1
:101C2000BB760E9424791F910F91FF90EF90DF9077
:101C3000CF90BF90AF900895AF92BF92CF92DF92B6
:101C4000EF92FF920F931F937B018C0159016A0160
:101C5000A80197010E94B7787B018C01C601B501EC
:101C6000A60195010E94B7789B01AC01C801B7019C
:101C70000E94BB760E9424791F910F91FF90EF90F4
:101C8000DF90CF90BF90AF9008952F923F924F92E8
:101C90005F926F927F928F929F92AF92BF92CF92FC
:101CA000DF92EF92FF920F931F93DF93CF9300D0B9
:101CB0000F92CDB7DEB769837A838B839C835901FA
:101CC0006A0117012801611571058105910559F413
:101CD0000F2EF0E0EF2EF0E0FF2EF0E00F2FF0E0FF
:101CE0001F2FF02DA4C0CA01B9010E94B7787B0153
:101CF0008C01C601B50120E030E040E050E00E94D8
:101D00001F77882324F417FB109517F91095C2014B
:101D1000B101A20191010E94BB763B014C01C801B7
:101D2000B701A40193010E9426777B018C01698190
:101D30007A818B819C810E94C1779B01AC01C80193
:101D4000B7010E941F778823B4F5C601B50120E0D2
:101D500030E040E050E00E941F77882329F4C4015E
:101D6000B3010E9424790DC0C201B101A601950101
:101D70000E9426779B01AC015F77C601B5010E94E6
:101D8000BB767B018C01D090E60CC090E70CB09044
:101D9000E80CA090E90C2D2D3C2D4B2D5A2D0E94C6
:101DA000B37818160CF043C08D2D9C2DAB2DBA2D99
:101DB0007C018D013CC0C601B50120E030E040E06F
:101DC00050E00E941F77882359F4C401B3010E9498
:101DD00024797B018C0117FB109517F910950FC022
:101DE000C201B101A60195010E9426779B01AC01B9
:101DF0005F77C601B5010E94BA767B018C018091A4
:101E0000E60C9091E70CA091E80CB091E90C5C0114
:101E10006D01D7FAD094D7F8D094C801B701A601C4
:101E200095010E941F77882314F486017501B7017C
:101E3000C8010F900F900F900F90CF91DF911F91DD
:101E40000F91FF90EF90DF90CF90BF90AF909F9059
:101E50008F907F906F905F904F903F902F9008955C
:101E60008091EF0C882309F43FC088E895E163E492
:101E70007FE00E94B47289E59EE00E94E7472091CE
:101E8000E40C3091E50C442737FD4095542F0E9417
:101E90001B7A88E895E1BA01A9012AE030E00E94A6
:101EA000817188E895E161E57FE00E94B4728DE977
:101EB0009EE00E94E7472091E40C3091E50C442716
:101EC00037FD4095542F0E941B7A88E895E1BA01AE
:101ED000A9012AE030E00E94817188E895E168E577
:101EE0007FE00E94E67297CD0895EF92FF920F93E4
:101EF0001F938091A40D9091A50DA091A60DB09176
:101F0000A70D0097A105B10509F03FC060919C0D98
:101F100070919D0D80919E0D90919F0D0E94C177B3
:101F20007B018C016091A00D7091A10D8091A20D9B
:101F30009091A30D0E94C1779B01AC01C801B7012C
:101F40007BDE20E030E040E05FE30E94BB760E9451
:101F50008E776093A40D7093A50D8093A60D90933A
:101F6000A70D88E895E167E273E00E940072409156
:101F7000A40D5091A50D6091A60D7091A70D88E854
:101F800095E12AE030E00E94BF716091A40D70914C
:101F9000A50D8091A60D9091A70D1F910F91FF9017
:101FA000EF90089588E895E16EE373E00C94A372D6
:101FB00088E895E16AE971E00E94AD701092C50D64
:101FC00008958F929F92AF92BF92CF92DF92EF923D
:101FD000FF920F931F936C017B0188E895E165E503
:101FE00073E00E94007288E895E1B6014AE050E093
:101FF0000E94D17188E895E16EE573E00E9400725D
:1020000088E895E1B7014AE050E00E94E37188E872
:1020100095E163E673E00E9400726091390E709161
:102020003A0E88E895E14AE050E00E94E37188E8C2
:1020300095E163E773E00E94007240912F0E50918A
:10204000300E6091310E7091320E88E895E12AE0F1
:1020500030E00E94BF714601AA2497FCA094BA2CDC
:102060008091390E90913A0EAA2797FDA095BA2F2C
:10207000880E991EAA1EBB1E0027F7FC0095102F84
:1020800020912F0E3091300E4091310E5091320E32
:10209000C801B7010E94BB79860E971EA81EB91E03
:1020A00088E895E16DE773E00E94007288E895E1A9
:1020B000B501A4012AE030E00E94817180913B0EBD
:1020C00090913C0EA0913D0EB0913E0E8815990561
:1020D000AA05BB0514F41FEF18C084E19EE0B5010A
:1020E000A4010E94025484E19EE00E941254182F21
:1020F00088E895E166E873E00E94007288E895E15F
:10210000612F4AE050E00E946571812F1F910F916D
:10211000FF90EF90DF90CF90BF90AF909F908F9007
:1021200008956F927F928F929F92AF92BF92CF92BB
:10213000DF92EF92FF920F931F93DF93CF93CDB770
:10214000DEB7A3970FB6F894DEBF0FBECDBF6DB656
:102150007EB684E19EE040E050E060E070E00E94E6
:1021600002547E010894E11CF11CC70165E973E08B
:102170000E94097684E19EE00E941254182FC70144
:1021800060E070E00E948E73FC01108384E19EE0A9
:102190000E941254182FC70161E070E00E948E73F4
:1021A000FC011083C70168E973E00E94B6748823BC
:1021B00099F488E895E16BE973E00E94007288E881
:1021C00095E1B7010E94B47288E895E169EB73E08C
:1021D0000E94A37210E083C188E895E164ED73E08A
:1021E0000E94A37284E19EE00E9412548E01085F57
:1021F0001F4FC80164E072E00E94097684E19EE00E
:102200000E941254E82E9FE0C92ED12CCC0EDD1E68
:10221000F02E012F21C083E2E81641F484E19EE014
:102220000E941254E82E9AE0E916C1F7C6016F2DFC
:10223000702F0E94A776C6016E2D0E94DB75BC012F
:102240008F2D902F0E948976C6010E94B57684E179
:102250009EE00E941254E82E8AE0E81619F090E2FF
:10226000E916C9F688E895E16AEF73E00E9400720A
:1022700088E0E82EF12CEC0EFD1E88E895E1B70110
:102280000E94E6724C855D854F5F5F4F8DB79EB7AC
:10229000841B950B0FB6F8949EBF0FBE8DBF0DB774
:1022A0001EB70F5F1F4F902E812EB02EA12EC7019B
:1022B000B80120E030E00E946774C8010E941E054A
:1022C000AA2797FDA095BA2F80932F0E9093300EDA
:1022D000A093310EB093320E0A97A105B10544F4D4
:1022E00088E895E162E471E00E94AD7010E0F3C00F
:1022F000C70164E072E00E94227684E19EE00E94C1
:102300001254182F06E1C02ED12CCC0EDD1EC701B1
:10231000FE2C092F1FC0133239F484E19EE00E9485
:102320001254182F8A30C9F7C6016F2D702F0E94E2
:10233000A776C601612F0E94DB75BC018F2D902FFF
:102340000E948976C6010E94B57684E19EE00E94D3
:102350001254182F1A30F9F688E895E165E074E018
:102360000E94007218E0C12ED12CCC0EDD1E88E830
:1023700095E1B6010E94E6724C855D854F5F5F4F27
:10238000C6016B2D7A2D20E030E00E946774892D04
:10239000982D0E941E05AA2797FDA095BA2F80931D
:1023A000330E9093340EA093350EB093360EBC01CD
:1023B000CD010E94C1777B018C0160912F0E70913D
:1023C000300E8091310E9091320E0E94C1779B01A8
:1023D000AC01C801B7010E9426776093100D70937D
:1023E000110D8093120D9093130D88E895E161E132
:1023F00074E00E9400724091100D5091110D609197
:10240000120D7091130D88E895E122E030E00E94F2
:102410009272C60164E072E00E94227684E19EE03E
:102420000E941254182F0D2DBDE1EB2EF12CEC0E55
:10243000FD1E16C0C7016C2D702F0E94A776C70124
:10244000612F0E94DB75BC018C2D902F0E94897634
:10245000C7010E94B57684E19EE00E941254182FB5
:102460001A3041F788E895E163E274E00E94007257
:1024700088E895E16C2D702F0E94E6724C855D8591
:102480004F5F5F4F8C2D902F6B2D7A2D20E030E029
:102490000E946774892D982D0E941E059093380E16
:1024A0008093370E84E19EE00E94BD5370933A0EF4
:1024B0006093390E88E895E167E374E00E9400724A
:1024C0006091390E70913A0E88E895E14AE050E04B
:1024D0000E94E37111E0CE0108960E94B076CE0111
:1024E00001960E94B076812F0FB6F8947EBE0FBE83
:1024F0006DBEA3960FB6F894DEBF0FBECDBFCF91D1
:10250000DF911F910F91FF90EF90DF90CF90BF90E0
:10251000AF909F908F907F906F900895EF92FF9271
:102520000F931F93DF93CF93CDB7DEB7FC01EDB6CA
:10253000FEB6448155814F5F5F4F8DB79EB7841BB8
:10254000950B0FB6F8949EBF0FBE8DBF0DB71EB78B
:102550000F5F1F4FCF01B80120E030E00E94677489
:10256000C8010E941E050FB6F894FEBE0FBEEDBE58
:10257000CF91DF911F910F91FF90EF900895EF920F
:10258000FF920F931F93DF93CF93CDB7DEB72797BB
:102590000FB6F894DEBF0FBECDBF8E010F5F1F4F89
:1025A000C8016BE07FE00E949E76C801B7DF7C0126
:1025B000C8010E94B076EF2819F41092BC0D0EC02D
:1025C0008091C40D882321F081E08093BC0D06C06A
:1025D00088E895E165E474E00E94A37227960FB63F
:1025E000F894DEBF0FBECDBFCF91DF911F910F9149
:1025F000FF90EF9008950F931F93DF93CF93CDB784
:10260000DEB72E970FB6F894DEBF0FBECDBF8E019A
:102610000F5F1F4FC8016BE07FE00E949E76C801EC
:102620007DDF9093230D8093220DC8010E94B07628
:102630008E01085F1F4FC80162E17FE00E949E7615
:10264000C8016CDF9093210D8093200DC8010E947A
:10265000B0762E960FB6F894DEBF0FBECDBFCF91E9
:10266000DF911F910F910895EF92FF920F931F93A7
:10267000DF93CF93CDB7DEB76B970FB6F894DEBF7D
:102680000FBECDBFFC01EDB6FEB6448155814F5F54
:102690005F4F8DB79EB7841B950B0FB6F8949EBF06
:1026A0000FBE8DBF0DB71EB70F5F1F4FCF01B80113
:1026B00020E030E00E946774CE0101966DE071E188
:1026C000A80121E00E940B578B819C819093170EEB
:1026D0008093160E8D819E81AF81B8858093180EF0
:1026E0009093190EA0931A0EB0931B0E89859A85AC
:1026F000AB85BC8580931C0E90931D0EA0931E0E7F
:10270000B0931F0EA0E2BEE0FE013D968DE0019069
:102710000D928150E1F78A8D9B8D90932E0E8093C0
:102720002D0ECE0101960E947B5384E19EE00E9413
:10273000E353882329F488E895E169E674E007C04B
:10274000F0DC882341F488E895E16AE774E00E94B0
:10275000A37280E00DC084E19EE00E94D05360939C
:102760003B0E70933C0E80933D0E90933E0E81E0A5
:102770000FB6F894FEBE0FBEEDBE6B960FB6F89482
:10278000DEBF0FBECDBFCF91DF911F910F91FF90A4
:10279000EF900895AF92BF92CF92DF92EF92FF92A7
:1027A0000F931F93DF93CF93CDB7DEB76B970FB621
:1027B000F894DEBF0FBECDBF6C01ADB6BEB6409182
:1027C000CA0D5091CB0D4F5F5F4F8DB79EB7841BE5
:1027D000950B0FB6F8949EBF0FBE8DBF0DB71EB7F9
:1027E0000F5F1F4F86EC9DE0B80120E030E00E94B3
:1027F00067747E010894E11CF11CC7016DE071E172
:10280000A80123E10E940B57C7010E94E3538823CC
:10281000D1F088E895E162E874E00E94007288E8EF
:1028200095E166EC7DE00E94E672C701B6010E9468
:10283000E672C7010E94F05388E895E163E974E00D
:102840000E94A3720CC088E895E169E974E00E94D7
:10285000007288E895E166EC7DE00E94E672CE01A8
:1028600001960E947B530FB6F894BEBE0FBEADBE5C
:102870006B960FB6F894DEBF0FBECDBFCF91DF9140
:102880001F910F91FF90EF90DF90CF90BF90AF908E
:102890000895EF92FF920F931F9385E361E00E94EA
:1028A000D86A8DE091E165E30E942B58882329F4D2
:1028B00088E895E168EA74E06AC088E895E164EC2C
:1028C00074E00E94A37288E895E166ED74E00E94CE
:1028D000A3728DEC9DE061E045E30E94815A88235C
:1028E000B9F488E895E16EEE74E00E94A37288E87E
:1028F00095E166E175E00E94A37288E895E16FE2D8
:1029000075E00E94A37288E895E169E475E03FC034
:1029100088E895E16DE875E00E94A37288E895E18A
:1029200066EB75E00E9400728091D80D823049F00C
:10293000833061F0813079F488E895E163EC75E0EB
:102940000EC088E895E167EC75E009C088E895E17C
:102950006BEC75E004C088E895E160ED75E00E94DD
:10296000A37289ED9DE06DEC7DE041E00E9477650A
:10297000882381F489ED9DE06DEC7DE040E00E94CC
:102980007765882339F488E895E168ED75E00E9461
:10299000A37274C088E895E162E276E00E9400725A
:1029A00088E895E16091F00D4AE050E00E94657181
:1029B00088E895E10E948D702091DD0D30E040E0C7
:1029C00050E06091E20D7091E30D8091E40D9091E3
:1029D000E50DE9E0660F771F881F991FEA95D1F78B
:1029E0000E94BB797B018C0188E895E166E376E083
:1029F0000E94007288E895E1B801A7012AE030E062
:102A00000E94437188E895E16CE476E00E940072D0
:102A10003AE016950795F794E7943A95D1F788E848
:102A200095E1B801A7012AE030E00E94437188E8EF
:102A300095E163E676E00E9400722AE0169507951C
:102A4000F794E7942A95D1F788E895E1B801A701B2
:102A50002AE030E00E94437188E895E16AE776E079
:102A60000E94A37287EF9DE069ED7DE00E948C5F7C
:102A700087EF9DE067E040E00E9486601F910F9124
:102A8000FF90EF900895AF92BF92CF92DF92EF92B6
:102A9000FF920F931F9389E59EE00E94004E8DE9FF
:102AA0009EE00E94004E89E59EE00E94D747611596
:102AB00071058105910509F047C06091F80C70918E
:102AC000F90C8091FA0C9091FB0C2091000D309143
:102AD000010D4091020D5091030D260F371F481F25
:102AE000591F0E9460735B016C016091FC0C709136
:102AF000FD0C8091FE0C9091FF0C2091040D309103
:102B0000050D4091060D5091070D260F371F481FE8
:102B1000591F0E9460737B018C01C601B5010E94A0
:102B2000C1775B016C01C801B7010E94C1779B01AD
:102B3000AC01C601B50180D80E948E77AB01BC0103
:102B400089E59EE00E946C498DE99EE00E94D7478E
:102B5000611571058105910509F048C06091F80C77
:102B60007091F90C8091FA0C9091FB0C2091000D62
:102B70003091010D4091020D5091030D260F371F2A
:102B8000481F591F0E9460735B016C016091FC0C2F
:102B90007091FD0C8091FE0C9091FF0C2091040D22
:102BA0003091050D4091060D5091070D260F371FEE
:102BB000481F591F0E9460737B018C01C601B5013B
:102BC0000E94C1775B016C01C801B7010E94C17707
:102BD0009B01AC01C601B5010E94E50D0E948E77F4
:102BE000AB01BC018DE99EE00E946C491F910F91E1
:102BF000FF90EF90DF90CF90BF90AF900895EF924D
:102C0000FF920F931F93CF93DF93C0E0D0E088E84B
:102C100095E164EB76E00E94007288E895E1BE01E0
:102C20004AE050E00E94E37189E59EE00E94D747A8
:102C3000611571058105910509F468C08DE99EE073
:102C40000E94D747611571058105910509F45EC0A1
:102C500089E59EE00E94004E8DE99EE00E94004EB4
:102C6000E3CF6EEF7FEF8FEF9FEF23E030E040E0A8
:102C700050E00E9460737B018C01A701662757FD1D
:102C80006095762F89E59EE00E947D4988E895E170
:102C90006DEB76E00E94007288E895E1B7014AE0AA
:102CA00050E00E94E3718DE99EE00E94D7476115D4
:102CB00071058105910511F56EEF7FEF8FEF9FEFA5
:102CC00023E030E040E050E00E9460737B018C0123
:102CD000A701662757FD6095762F8DE99EE00E943B
:102CE0007D4988E895E163ED76E00E94007288E80E
:102CF00095E1B7014AE050E00E94E371B1D8219616
:102D000083E0C83ED80709F082CF0AC089E59EE07B
:102D10000E94D747611571058105910521F6A1CF64
:102D2000DF91CF911F910F91FF90EF9008958AE866
:102D300092E09093320D8093310D9093340D8093F7
:102D4000330D8FE590E090932E0D80932D0D80E94B
:102D500091E09093300D80932F0D81E090E090935F
:102D60002C0D80932B0D95DD64EF71E080E090E0F9
:102D70000C94136AAF92BF92CF92DF92EF92FF92C0
:102D80000F931F93CF93DF93EC015B016A0189E8F6
:102D90009DE069E070E00E94D44FCA15DB05D4F4D1
:102DA00076010027F7FC0095102F89E89DE0BE0111
:102DB0000E94BD4EC801B7010E94136A88E895E1E0
:102DC000BE014AE050E00E94E3712196AC16BD06B8
:102DD00064F719C076010027F7FC0095102F89E8E9
:102DE0009DE0BE010E94BD4EC801B7010E94136A5A
:102DF00088E895E1BE014AE050E00E94E371219726
:102E0000CA15DB0564F789E89DE00E94514EDF9109
:102E1000CF911F910F91FF90EF90DF90CF90BF90D7
:102E2000AF900895EF92FF920F931F93DF93CF938C
:102E3000CDB7DEB727970FB6F894DEBF0FBECDBF74
:102E40008091AA0D9091AB0D20918C0D029714F1F9
:102E5000222329F0E0907310F090741004C0E090E9
:102E6000290DF0902A0D8E010F5F1F4FC8016BE0F6
:102E70007FE00E949E76C80151DB90932A0D8093DB
:102E8000290DC8010E94B0766091290D70912A0D1C
:102E9000C7010AC0213059F46091290D70912A0DA3
:102EA000809173109091741043E050E063DF1092B2
:102EB0008C0D27960FB6F894DEBF0FBECDBFCF9115
:102EC000DF911F910F91FF90EF900895EF92FF9285
:102ED0000F931F93DF93CF93CDB7DEB727970FB62E
:102EE000F894DEBF0FBECDBF8091AA0D9091AB0DBF
:102EF00020918C0D029714F1222329F0E090731099
:102F0000F090741004C0E090290DF0902A0D8E010D
:102F10000F5F1F4FC8016BE07FE00E949E76C801E3
:102F2000FDDA9093741080937310C8010E94B076FC
:102F30006091731070917410C7010AC0222359F474
:102F400060917310709174108091290D90912A0DE9
:102F500043E050E00FDF81E080938C0D27960FB6A1
:102F6000F894DEBF0FBECDBFCF91DF911F910F91BF
:102F7000FF90EF90089589E59EE00E94694C8DE9ED
:102F80009EE00E94694C1092400E88E895E169EE3F
:102F900076E00C94A372EF92FF920F931F930E941E
:102FA000DF699B01AC01E090AC0DF090AD0D00919C
:102FB000AE0D1091AF0D8091F70C8823E1F0809158
:102FC000400E8823C1F02E193F09400B510B809110
:102FD000F30C9091F40CA091F50CB091F60C8217C3
:102FE0009307A407B5073CF488E895E169EF76E01C
:102FF0000E94A372C0DF8091BC0D882309F043DDDD
:103000001F910F91FF90EF900895AC01662757FD37
:103010006095762F8DE99EE00E947D4909C0BBDF57
:103020008091F00C882321F08DE99EE00E94004EF3
:103030008DE99EE00E94D7476115710581059105D4
:1030400071F70E94DF696093AC0D7093AD0D8093B2
:10305000AE0D9093AF0D0895AC01662757FD6095B6
:10306000762F89E59EE00E947D4909C094DF80911A
:10307000F00C882321F089E59EE00E94004E89E54E
:103080009EE00E94D747611571058105910571F792
:103090000E94DF696093AC0D7093AD0D8093AE0D0F
:1030A0009093AF0D0895CF93DF93FC01EB012115B1
:1030B0003105A9F48091280D882339F0CF0162E011
:1030C00070E00E94E679CB012BC0CF0162E070E096
:1030D0000E94E679CB01909581959F4F21C0809108
:1030E000280D24173507A1F4882339F0CF0162E0B9
:1030F00070E00E94E679CB0109C0CF0162E070E088
:103100000E94E679CB01909581959F4FA5DF15C070
:10311000882311F0CF0104C0882799278E1B9F0BAD
:103120009BDFCE0172DF8091280D882319F0109269
:10313000280D03C081E08093280DDF91CF91089581
:103140000F931F93CF93DF93EC018B012115310572
:10315000D9F488E895E16EE177E00E94A37280914E
:10316000280D882339F0CE0162E070E00E94E679F4
:10317000CB012BC0CE0162E070E00E94E679CB016A
:10318000909581959F4F21C08091280D2417350778
:10319000A1F4882339F0CE0162E070E00E94E67964
:1031A000CB0109C0CE0162E070E00E94E679CB015C
:1031B000909581959F4F29DF15C0882311F0CE018E
:1031C00004C0882799278C1B9D0B1FDFC80144DF93
:1031D0008091280D882319F01092280D03C081E0FA
:1031E0008093280DDF91CF911F910F9108953F9209
:1031F0004F925F926F927F928F929F92AF92BF9207
:10320000CF92DF92EF92FF920F931F93DF93CF93B2
:1032100000D00F92CDB7DEB7FC014B016A01322E10
:10322000141615060CF07FC0BA010E94E6795B0106
:10323000CF01B6010E94E679AA2797FDA095BA2F83
:10324000BC01CD010E94C1777B018C01B6018827AA
:1032500077FD8095982F0E94C1779B01AC01C80132
:10326000B7010E9426772B013C010F2EF0E0EF2ED4
:10327000F0E0FF2EF0E00F2FF0E01F2FF02D1C826A
:103280001B82C50101969A838983C801B701A301F6
:1032900092010E94BB767B018C0120E030E040E887
:1032A0005FE30E94B37887FF02C095010CC0C8019C
:1032B000B70120E030E040E85FE30E94BA767B018E
:1032C0008C0129813A8192E0391619F4C401B901BF
:1032D0000EC0E3E03E1619F4C401B90115C0F4E0D4
:1032E0003F1651F466277727621B730BC401A601B2
:1032F0002B813C8125DF0CC081E0381649F466271C
:103300007727621B730BC401A6012B813C81CBDEA6
:103310000E94300FEB81FC813196FC83EB83CE164B
:10332000DF060CF0B2CF0F900F900F900F90CF915F
:10333000DF911F910F91FF90EF90DF90CF90BF90A2
:10334000AF909F908F907F906F905F904F903F9045
:1033500008958F929F92AF92BF92CF92DF92EF9299
:10336000FF920F931F93DF93CF93CDB7DEB72E97C6
:103370000FB6F894DEBF0FBECDBF6E010894C11C1E
:10338000D11CC6016BE07FE00E949E76C601C6D8C4
:10339000AA2797FDA095BA2F2091E40C3091E50C57
:1033A000442737FD4095542FBC01CD010E94BB79C5
:1033B0007B018C015B01C6010E94B076A8E0CA2E99
:1033C000D12CCC0EDD1EC60162E17FE00E949E760C
:1033D000C601A4D84C01C6010E94B076C701B7014E
:1033E000A40122E004DFAA0CBB1CC50135DEC70125
:1033F000B701A40123E0FBDEC50107DEC701B70169
:10340000A40124E0F4DEB094A194B108B394C50102
:1034100023DEC701B701A40121E0E9DEC501F5DD26
:103420002E960FB6F894DEBF0FBECDBFCF91DF91C1
:103430001F910F91FF90EF90DF90CF90BF90AF90D2
:103440009F908F900895DF93CF93CDB7DEB72897E5
:103450000FB6F894DEBF0FBECDBF69837A838B832E
:103460009C832D833E834F8358870E94DF6960933E
:10347000AC0D7093AD0D8093AE0D9093AF0DCE015A
:103480000196BE016B5F7F4F0E94440869817A817B
:103490008B819C810E948E77AB01BC0189E59EE007
:1034A0000E946C496D817E818F8198850E948E7704
:1034B000AB01BC018DE99EE00E946C4915C0809172
:1034C000EE0C882349F089E59EE00E94004E8DE9CC
:1034D0009EE00E94004E08C089E59EE00E94DD4DFE
:1034E0008DE99EE00E94DD4D89E59EE00E94D74770
:1034F000611571058105910549F48DE99EE00E94F1
:10350000D747611571058105910531F044DD809142
:10351000F00C882349F3D3CF0E94300F28960FB6C2
:10352000F894DEBF0FBECDBFCF91DF910895AF926B
:10353000BF92CF92DF92EF92FF920F931F93790188
:103540008A010E94C1775B016C01C801B7010E942A
:10355000C1779B01AC01C601B50175DF1F910F91C9
:10356000FF90EF90DF90CF90BF90AF9008952F9293
:103570003F924F925F926F927F928F929F92AF9203
:10358000BF92CF92DF92EF92FF920F931F93DF9340
:10359000CF93CDB7DEB760970FB6F894DEBF0FBEFE
:1035A000CDBF88E895E16EE277E00E94A37288E8DB
:1035B00095E16EE477E00E9400726091200D7091B9
:1035C000210D88E895E14AE050E00E94E371809186
:1035D000200D9091210D029709F0A6C08DE99EE083
:1035E0000E94E7471B012C018091080D9091090D65
:1035F000AA2797FDA095BA2F280E391E4A1E5B1EDA
:1036000088E895E168E677E00E94007288E895E135
:10361000B201A1012AE030E00E94BF71C201B101F4
:10362000A20191010E94BB793B014C01A090FC0CCE
:10363000B090FD0CC090FE0CD090FF0CE090040DFB
:10364000F090050D0091060D1091070DEA0CFB1C82
:103650000C1D1D1D20919C0D30919D0D40919E0DC6
:1036600050919F0D2D873E874F87588B8091F80C86
:103670009091F90CA091FA0CB091FB0C89879A8774
:10368000AB87BC87281B390B4A0B5B0BCA01B901FE
:103690000E94BB796D837E838F839887C801B701B1
:1036A000A80197010E94BB79ED80FE800F811885EB
:1036B0006E0D7F1D801F911F661577058805990582
:1036C0006CF1C601B501A60195010E94BB795B01B1
:1036D0006C018091000D9091010DA091020DB091AF
:1036E000030D2D853E854F855889E984FA840B8525
:1036F0001C852E193F09400B510B281B390B4A0B17
:103700005B0BCA01B9010E94BB796A0D7B1D8C1D40
:103710009D1D661677068806990644F488E895E1AB
:1037200063E777E00E94A37280E005C18D819E81EE
:10373000AF81B8858A0D9B1DAC1DBD1D86159705F3
:10374000A805B9050CF499C088E895E167E877E029
:103750000E94A3720091FC0C1091FD0C2091FE0CB4
:103760003091FF0C09831A832B833C83C901B80174
:10377000A90198010E94BB799B01AC01C401B3016E
:10378000621B730B840B950B0E94C1770E942479F6
:103790007B018C0160919C0D70919D0D80919E0D1F
:1037A00090919F0D0E94C177A80197010E94BA765F
:1037B0000E948E775B016C0188E895E168E977E00B
:1037C0000E940072C201B1010E94C1772091940D44
:1037D0003091950D4091960D5091970D0E94B778BC
:1037E000AB01BC0188E895E122E030E00E949072D4
:1037F00088E895E162EA77E00E9400726091F80C37
:103800007091F90C8091FA0C9091FB0C0E94C17799
:103810002091940D3091950D4091960D5091970DFA
:103820000E94B778AB01BC0188E895E122E030E066
:103830000E94907288E895E16BEA77E00E9400723E
:103840006091FC0C7091FD0C8091FE0C9091FF0C2E
:103850000E94C1772091940D3091950D4091960D65
:103860005091970D0E94B778AB01BC0188E895E1B3
:1038700022E030E00E94927230C088E895E164EB6B
:1038800077E00E94A372A090F80CB090F90CC09061
:10389000FA0CD090FB0C20919C0D30919D0D409125
:1038A0009E0D50919F0DC601B501621B730B840BD9
:1038B000950B2A193B094C095D090E94BB79660DDD
:1038C000771D881D991D0E94C1770E9424790E944E
:1038D0008E7769837A838B839C83C601B5010E94AE
:1038E000C1773B014C0169817A818B819C810E9467
:1038F000C1777B018C01C401B301A80197010E942B
:103900001C0E5B016C01C401B301A80197010E9468
:10391000E50D7B018C01C601B5010E948E775B012C
:103920006C01C801B7010E948E779B01AC01C601F2
:10393000B501FDDD81E060960FB6F894DEBF0FBEE5
:10394000CDBFCF91DF911F910F91FF90EF90DF904E
:10395000CF90BF90AF909F908F907F906F905F902F
:103960004F903F902F9008952F923F924F925F92E9
:103970006F927F928F929F92AF92BF92CF92DF927F
:10398000EF92FF920F931F93DF93CF9300D00F928C
:10399000CDB7DEB73B014C0159016A01FA82E982D9
:1039A000C80162E070E00E94E679882777FD809583
:1039B000982F661A770A880A990AA61AB70AC80AB7
:1039C000D90A1C821B821801442437FC4094542CD1
:1039D0002DC060E070E080E090E0A20191010E94C3
:1039E00060737B018C0160E070E080E090E0A201F8
:1039F00091010E9460739B01AC010027F7FC0095C8
:103A0000102FE60CF71C081D191D442737FD4095A3
:103A1000542F2A0D3B1D4C1D5D1DC801B70187DDCC
:103A20002B813C812F5F3F4F3C832B838B819C817B
:103A3000E981FA81E817F90764F60F900F900F906B
:103A40000F90CF91DF911F910F91FF90EF90DF903A
:103A5000CF90BF90AF909F908F907F906F905F902E
:103A60004F903F902F9008952F923F924F925F92E8
:103A70006F927F928F929F92AF92BF92CF92DF927E
:103A8000EF92FF920F931F93DF93CF93CDB7DEB7E3
:103A9000EA970FB6F894DEBF0FBECDBF8091C40D7C
:103AA000882309F4B7C46E010894C11CD11CC60157
:103AB0006BE07FE00E949E768E01085F1F4FC80179
:103AC00062E17FE00E949E76C8010E948E124C0146
:103AD000A090E40CB090E50CC8010E94B0768E0175
:103AE000015F1F4FC80169E17FE00E949E76C80117
:103AF0000E948E12AA2797FDA095BA2F2091E40C60
:103B00003091E50C442737FD4095542FBC01CD0181
:103B10000E94BB797CA76BA7C8010E94B0768E017A
:103B20000A5E1F4FC801B6010E949E76C8010E941E
:103B30003413F82EC8010E94B076FF2069F488E89B
:103B400095E166EC77E00E94007288E895E1B601A5
:103B50000E94E672C60165C4B401882777FD80958E
:103B6000982F9501442737FD4095542F0E94BB792B
:103B70001B012C017EA76DA788E895E161EE77E037
:103B80000E94007240912F0E5091300E6091310EC4
:103B90007091320E88E895E12AE030E00E94817150
:103BA00088E895E16DEE77E00E9400724091330E57
:103BB0005091340E6091350E7091360E88E895E183
:103BC0002AE030E00E94BF7188E895E160EF77E07D
:103BD0000E9400724091000D5091010D6091020D04
:103BE0007091030D88E895E12AE030E00E94817130
:103BF00088E895E16CEF77E00E94A3726091000D78
:103C00007091010D8091020D9091030D0E94C1777A
:103C10007B018C0160912F0E7091300E8091310EDE
:103C20009091320E0E94C1779B01AC01C801B7018F
:103C30000E94267760930C0D70930D0D80930E0DEE
:103C400090930F0D88E895E16EEF77E00E94007287
:103C500040910C0D50910D0D60910E0D70910F0D56
:103C600088E895E122E030E00E94927288E895E1D0
:103C70006EE078E00E9400724091000D5091010DBD
:103C80006091020D7091030D88E895E12AE030E023
:103C90000E94BF7188E895E167E374E00E940072BA
:103CA0006091390E70913A0E88E895E14AE050E053
:103CB0000E94E3710BD96091000D7091010D80910C
:103CC000020D9091030D0E94C1772091100D30914B
:103CD000110D4091120D5091130D0E94B7780E9462
:103CE0008E775B016C016093040D7093050D8093DA
:103CF000060D9093070D2091000D3091010D40911C
:103D0000020D5091030D8091F80C9091F90CA09147
:103D1000FA0CB091FB0C280F391F4A1F5B1F2FA311
:103D200038A749A75AA7E090FC0CF090FD0C009131
:103D3000FE0C1091FF0CAE0CBF1CC01ED11ECA01A0
:103D4000B9010E94C1773B014C01C801B7010E9433
:103D5000C1779B01AC01C401B3010E94E50D7B0159
:103D60008C01C10162E070E00E94E679882777FD4E
:103D70008095982F0E94C1779B01AC01C801B701C3
:103D80000E94BB766D8F7E8F8F8F98A36091FC0C05
:103D90007091FD0C8091FE0C9091FF0C0E94C177F8
:103DA0009B01AC01C401B3010E941C0E2D8D3E8D00
:103DB0004F8D58A148DB36D889E59EE00E94E74741
:103DC0000E94C1776BA37CA38DA39EA38DE99EE087
:103DD0000E94E7470E94C1771B012C01C601B50173
:103DE000A60195010E94BB796FA778AB89AB9AAB0E
:103DF0001AA219A28DA59EA5AA2797FDA095BA2F54
:103E00008BAB9CABADABBEAB2BA53CA5442737FD24
:103E10004095542F2FAB38AF49AF5AAF6BA17CA15F
:103E20008DA19EA1A20191010E94620D882309F03B
:103E3000ACC188E895E16AE178E00E94A37246D8B7
:103E40006BA97CA98DA99EA90E94C1779B01AC0199
:103E50006D8D7E8D8F8D98A10E94BB766D8F7E8F2C
:103E60008F8F98A39B01AC010E94B7785B016C0116
:103E700060909C0D70909D0D80909E0D90909F0D78
:103E80008091F80C9091F90CA091FA0CB091FB0C78
:103E9000A4019301281B390B4A0B5B0BCA01B90122
:103EA0000E94BB791B012C016FA578A989A99AA949
:103EB000620D731D841D951D0E94C1779B01AC018D
:103EC000C601B5010E94B378181654F12091FC0C7C
:103ED0003091FD0C4091FE0C5091FF0CCA01B901CC
:103EE0000E94BB797B018C01A40193018FA198A54D
:103EF000A9A5BAA5281B390B4A0B5B0BCA01B9014E
:103F00000E94BB796E0D7F1D801F911F0E94C1779B
:103F10009B01AC01C601B5010E941F77882364F4A0
:103F200088E895E16EE378E00E94A3722D8C3E8CC8
:103F30004F8C58A011E01FC1C201B1016E0D7F1D51
:103F4000801F911F0E94C1779B01AC01C601B50182
:103F50000E941F7718160CF47FC088E895E167E887
:103F600077E00E94A3726090FC0C7090FD0C809032
:103F7000FE0C9090FF0CC401B301A40193010E94B8
:103F8000BB790E94C1779B01AC01C601B5010E94BB
:103F9000BA760E9424797B018C0160919C0D70910E
:103FA0009D0D80919E0D90919F0D0E94C177A8015B
:103FB00097010E94BA760E948E777B018C0188E877
:103FC00095E161E578E00E9400726091F80C7091D3
:103FD000F90C8091FA0C9091FB0C0E94C177209112
:103FE000940D3091950D4091960D5091970D0E9432
:103FF000B778AB01BC0188E895E122E030E00E948F
:10400000907288E895E16BE678E00E94007260911A
:10401000FC0C7091FD0C8091FE0C9091FF0C0E94A5
:10402000C1772091940D3091950D4091960D50914E
:10403000970D0E94B778AB01BC0188E895E122E0BA
:1040400030E00E949072C801B7010E94C1775B0105
:104050006C01C401B30178C088E895E164EB77E0B6
:104060000E94A372E090F80CF090F90C0091FA0C09
:104070001091FB0C20919C0D30919D0D40919E0D57
:1040800050919F0D2E193F09400B510BCA01B901E8
:104090000E94BB790E94C1779B01AC01C601B501AA
:1040A0000E94BA760E9424793B014C0188E895E190
:1040B00061E578E00E9400726091F80C7091F90C53
:1040C0008091FA0C9091FB0C0E94C1772091940D85
:1040D0003091950D4091960D5091970D0E94B778B3
:1040E000AB01BC0188E895E122E030E00E949072CB
:1040F00088E895E16BE678E00E9400726091FC0C24
:104100007091FD0C8091FE0C9091FF0C0E94C17784
:104110002091940D3091950D4091960D5091970DF1
:104120000E94B778AB01BC0188E895E122E030E05D
:104130000E949072C801B7010E94C1775B016C01B7
:10414000C401B3010E948E770E94C1777B018C016C
:10415000C601B501A80197010E941C0E6BA37CA3A8
:104160008DA39EA3C601B501A80197010E94E50D8C
:104170001B012C0110E068EE73E080E090E00E94EB
:10418000136A112309F03BC106C088E895E16FE688
:1041900078E00E94A3726BA17CA18DA19EA1A201D7
:1041A000910151D90E941217A9A1BAA11196BAA3DF
:1041B000A9A388E895E168E778E00E94007288E8A2
:1041C00095E169A17AA14AE050E00E94E3716BA1F8
:1041D0007CA18DA19EA1A20191010E94E7087B0113
:1041E0008C012BA13CA14DA15EA10E943B0D5B0166
:1041F0006C016091F80C7091F90C8091FA0C90911F
:10420000FB0C0E94C1779B01AC01C801B7010E9461
:10421000BA763B014C016091FC0C7091FD0C8091D1
:10422000FE0C9091FF0C0E94C1779B01AC01C6016E
:10423000B5010E94BA765B016C0188E895E16FE7F1
:1042400078E00E94007288E895E1B401A30122E0C1
:1042500030E00E94907288E895E16EE573E00E947C
:10426000007288E895E1B601A50122E030E00E94E5
:104270009272E0900C0DF0900D0D00910E0D1091CA
:104280000F0DC401B301A80197010E9426773B01DD
:104290004C01C601B501A80197010E9426777B0158
:1042A0008C0188E895E16BE978E00E94007288E86B
:1042B00095E1B401A30122E030E00E94907288E809
:1042C00095E16EE573E00E94007288E895E1B8011F
:1042D000A70122E030E00E949272C801B7010E945B
:1042E0008E775B016C019B01442737FD4095542F6D
:1042F0008091330E9091340EA091350EB091360E10
:1043000082179307A407B507C4F0C401B3010E9444
:104310008E777B018C019B01442737FD4095542FFC
:1043200080912F0E9091300EA091310EB091320EEF
:1043300082179307A407B5072CF488E895E16FEB83
:1043400078E061C0C701B5010E94E10F6091370EAE
:104350007091380E90E04DA55EA50E94DD07E82E15
:104360006FA978AD89AD9AAD0E94C1773B014C0130
:10437000FF2400E010E0C801B7010E94BF7720E0F1
:1043800030E040E05FE30E94B7785B016C01C4015C
:10439000B30120E030E040E05FE30E94B7789B018A
:1043A000AC016BA17CA18DA19EA10E94BB767B017B
:1043B0008C01C201B101A60195010E94BA769B0150
:1043C000AC01B701C8013FD8C201B101A6019501F6
:1043D0000E94BB769B01AC01B701C80134D86BA128
:1043E0007CA18DA19EA1A40193010E94BB766BA329
:1043F0007CA38DA39EA3A201910125D80FCD88E8AF
:1044000095E169ED78E00E94A3720E946617CE01E3
:10441000019607C088E895E164EE78E00E94A372F7
:1044200002C00E94B076EA960FB6F894DEBF0FBEC7
:10443000CDBFCF91DF911F910F91FF90EF90DF9053
:10444000CF90BF90AF909F908F907F906F905F9034
:104450004F903F902F9008952F923F924F925F92EE
:104460006F927F928F929F92AF92BF92CF92DF9284
:10447000EF92FF920F931F93DF93CF93CDB7DEB7E9
:1044800066970FB6F894DEBF0FBECDBF6F837887F7
:1044900089879A872B873C874D875E87EF86F88AC6
:1044A000098B1A8BAB8ABC8ACD8ADE8A80E090E0C9
:1044B000A0E0B0E08B839C83AD83BE831A82198217
:1044C00060E070E080E89FE32B813C814D815E815C
:1044D0000E94BA765B016C01A60195010E94B77833
:1044E0007B018C016B817C818D819E819B01AC0164
:1044F0000E94BB76A60195010E94B7781B012C0192
:104500006B817C818D819E819B01AC010E94B7787B
:104510005B016C016F81788589859A850E94C177DE
:104520009B01AC01C801B7010E94B7783B014C0167
:104530006CA57DA58EA59FA50E94C1779B01AC01AE
:10454000C201B1010E94B7789B01AC01C401B30163
:104550000E94BB763B014C016F85788989899A89D5
:104560000E94C1779B01AC01C601B5010E94B778DA
:104570009B01AC01C401B3010E94BB763B014C011D
:104580006B857C858D859E850E94C1779B01AC01E2
:10459000C801B7010E94B7787B018C0168A979A98D
:1045A0008AA99BA90E94C1779B01AC01C201B101FC
:1045B0000E94B7789B01AC01C801B7010E94BB768D
:1045C0007B018C016B897C898D899E890E94C177D2
:1045D0009B01AC01C601B5010E94B7789B01AC01FB
:1045E000C801B7010E94BB769B01AC01C401B301B5
:1045F0000E94231A6B817C818D819E812AE037ED98
:1046000043E25BE30E94BB766B837C838D839E8356
:10461000A981BA811196BA83A983A159B14009F041
:104620004FCF66960FB6F894DEBF0FBECDBFCF91C9
:10463000DF911F910F91FF90EF90DF90CF90BF908F
:10464000AF909F908F907F906F905F904F903F9032
:104650002F9008952F923F924F925F926F927F9288
:104660008F929F92AF92BF92CF92DF92EF92FF9282
:104670000F931F93DF93CF93CDB7DEB7C055D040D4
:104680000FB6F894DEBF0FBECDBF6BAF7CAF8DAF62
:104690009EAF23962CAF3DAF4EAF5FAF23972596CD
:1046A000FFAEEEAE25972796DFAECEAE279788E811
:1046B00095E161E179E00E94A37288E895E16EE1FD
:1046C00079E00E94007288E895E1B8014AE050E084
:1046D0000E94E37188E895E16BE279E00E94007244
:1046E00088E895E125966EAD7FAD25974AE050E0CC
:1046F0000E94E37188E895E166E379E00E94007228
:1047000088E895E127966EAD7FAD27974AE050E0A7
:104710000E94E37125962EAD3FAD2597B9018827FC
:1047200077FD8095982F0E94C17769837A838B8368
:104730009C836D8F7E8F8F8F98A384E190E09AA3E6
:1047400089A31C8E1B8E44C22596AEADBFAD2597A6
:10475000A035B10574F46D8D7E8D8F8D98A120E00C
:1047600030E040E85EE30E94B7780E948E777AA33B
:1047700069A388E691E069A17AA10E94E679882779
:1047800077FD8095982F0E94C1776F8B788F898FE6
:104790009A8FE9A1FAA1BF01882777FD8095982F0C
:1047A0000E94C1779B01AC0169817A818B819C81D8
:1047B0000E9426776B8B7C8B8D8B9E8B8F89988D3F
:1047C000A98DBA8D8D879E87AF87B88B1A8A198A73
:1047D00066246394EBC1A989BA89BD01882777FD56
:1047E0008095982F0E94C1775B016C016BAD7CAD09
:1047F0008DAD9EAD0E94C1776FAB78AF89AF9AAF98
:10480000C601B50120E030E044E353E40E9426777E
:104810002BED3FE049E450E40E94B7787B018C0126
:10482000C8010E9423779B01AC016D8D7E8D8F8D19
:1048300098A10E94B7786BAB7CAB8DAB9EAB6FA998
:1048400078AD89AD9AAD2BA93CA94DA95EA90E946E
:10485000BB7669877A878B879C8723966CAD7DAD05
:104860008EAD9FAD23970E94C1776FA778AB89ABC0
:104870009AABB701C8010E941A799B01AC016D8DFA
:104880007E8D8F8D98A10E94B7786BA77CA78DA78E
:104890009EA76FA578A989A99AA92BA53CA54DA586
:1048A0005EA50E94BB766D837E838F8398876D851E
:1048B0007E858F8598890E948E777A8B698BFB0124
:1048C000BF01882777FD8095982F0E94C17720E04F
:1048D00030E044E353E40E9426772BED3FE049E4C7
:1048E00050E40E94B7787B018C01C8010E942377B5
:1048F0009B01AC016D8D7E8D8F8D98A10E94B77844
:104900006FA378A789A79AA7B701C8010E941A794F
:104910009B01AC016D8D7E8D8F8D98A10E94B77823
:104920006BA37CA38DA39EA3662051F069857A8535
:104930008B859C852D813E814F8158850E94231A4D
:104940001092EE0C6D857E858F859889A601950164
:104950000E94BA7620E030E040E05FE30E94B77842
:104960009B01AC01C601B5010E94BB760E948E7707
:10497000882777FD8095982F0E94C17720E030E04E
:1049800044E353E40E9426772BED3FE049E450E4F2
:104990000E94B7787B018C01C8010E9423773B01FC
:1049A0004C01B701C8010E941A791B012C012DB7D7
:1049B0003EB7285030400FB6F8943EBF0FBE2DBF13
:1049C0008DB79EB7019661969FAF8EAF619769854F
:1049D0007A858B859C850E948E772B966CAF7DAFF8
:1049E0008EAF9FAF2B976D817E818F8198850E94BE
:1049F0008E772F966CAF7DAF8EAF9FAF2F976FA93D
:104A000078AD89AD9AAD2FA138A549A55AA50E94C8
:104A1000BB760E948E777B018C016FA578A989A94E
:104A20009AA92BA13CA14DA15EA10E94BB760E9438
:104A30008E775B016C016D8D7E8D8F8D98A1A401A9
:104A400093010E94B7783B014C016BA97CA98DA909
:104A50009EA920E030E040E85EEB0E94B7789B0121
:104A6000AC01C401B3010E94BB763B014C016FA1B4
:104A700078A589A59AA520E030E040E85EEB0E9489
:104A8000B7789B01AC01C401B3010E94BB769B01C6
:104A9000AC010E94BB769B01AC016FA978AD89ADDA
:104AA0009AAD0E94BB760E948E776196AEADBFAD87
:104AB00061976D937D938D939C9313976D8D7E8DF0
:104AC0008F8D98A1A20191010E94B7783B014C0102
:104AD0006BA57CA58DA59EA520E030E040E85EEBAF
:104AE0000E94B7789B01AC01C401B3010E94BB7660
:104AF0003B014C016BA17CA18DA19EA120E030E087
:104B000040E85EEB0E94B7789B01AC01C401B301A1
:104B10000E94BB769B01AC010E94BB769B01AC015D
:104B20006FA578A989A99AA90E94BB760E948E7761
:104B30006196EEADFFAD619764837583868397833D
:104B40002B966CAD7DAD8EAD9FAD2B972F962CAD7A
:104B50003DAD4EAD5FAD2F977FDCF1E0F093EE0CF5
:104B60006D8D7E8D8F8D98A12B893C894D895E89B5
:104B70000E94BB766D8F7E8F8F8F98A36D857E850B
:104B80008F8598892F89388D498D5A8D0E94BB76E3
:104B90006D877E878F87988B66242DB73EB7285FF9
:104BA0003F4F0FB6F8943EBF0FBE2DBF6D857E857B
:104BB0008F85988920E030E044EB53E40E941F7712
:104BC00018160CF008CE8B8D9C8D01969C8F8B8FC8
:104BD000AB8DBC8D2796EEADFFAD2797AE17BF0707
:104BE0000CF4B2CDC05BDF4F0FB6F894DEBF0FBE42
:104BF000CDBFCF91DF911F910F91FF90EF90DF908C
:104C0000CF90BF90AF909F908F907F906F905F906C
:104C10004F903F902F900895EF92FF920F931F9324
:104C200009E51EE0C8010E94B74CBDE9EB2EBEE0CD
:104C3000FB2EC7010E94B74C81E08093400EC80153
:104C40000E94E747AB01BC01405E5F4F6F4F7F4F53
:104C5000C8010E942E4EC7010E94E747AB01BC016C
:104C6000405E5F4F6F4F7F4FC7010E942E4EC801BD
:104C70000E94E747AB01BC01405250406040704089
:104C8000C8010E942E4EC7010E94E747AB01BC013C
:104C90004052504060407040C7010E942E4E88E84C
:104CA00095E16FE379E00E94A3721F910F91FF904D
:104CB000EF900895EF92FF920F931F937C0108E805
:104CC00015E1C80162EC73E00E946270C801B7018F
:104CD0000E94B472C80164EA73E00E94AD701F9133
:104CE0000F91FF90EF900895AF92BF92CF92DF9215
:104CF000EF92FF920F931F93DF93CF93CDB7DEB761
:104D00002E970FB6F894DEBF0FBECDBFADB6BEB6C0
:104D10007E010894E11CF11CC7016BE07FE00E945A
:104D20009E768E01085F1F4FC80162E17FE00E94FE
:104D30009E76C70164E072E00E94B674882309F091
:104D400057C088E895E16FE479E00E94007288E836
:104D500095E1B7010E94E67281E08093C50D86EC73
:104D60009DE0B7010E948976C8016CE679E00E9457
:104D7000B674882309F442C0DDB6CEB64D815E819B
:104D80004F5F5F4F8DB79EB7841B950B0FB6F8949E
:104D90009EBF0FBE8DBF0DB71EB70F5F1F4FC70160
:104DA000B80120E030E00E9467748DE091E1B80125
:104DB0000E94E655882399F088E895E164EC71E05B
:104DC0000E94AD708DE091E1B8010E94DC5588230E
:104DD00031F088E895E166EB71E00E94AD708D2DB1
:104DE0009C2D9C010FB6F8943EBF0FBE2DBF06C090
:104DF00088E895E16EE679E00E94A372CE010896FC
:104E00000E94B076CE0101960E94B0760FB6F8945B
:104E1000BEBE0FBEADBE2E960FB6F894DEBF0FBE5F
:104E2000CDBFCF91DF911F910F91FF90EF90DF9059
:104E3000CF90BF90AF9008952F923F924F925F9284
:104E40006F927F928F929F92AF92BF92CF92DF929A
:104E5000EF92FF920F931F93DF93CF93CDB7DEB7FF
:104E6000E8970FB6F894DEBF0FBECDBF2B013C0113
:104E7000EBA2FCA20DA31EA3AFA2B8A6C9A6DAA6F8
:104E80009CA68BA60E94E7086B8F7C8F8D8F9E8FD0
:104E9000A30192010E943B0D6F8B788F898F9A8FAF
:104EA0006BA17CA18DA19EA12FA138A549A55AA5D2
:104EB0000E94E7087B018C012BA13CA14DA15EA1C2
:104EC0000E943B0D5B016C01C801B70120E030E09E
:104ED00040EA51E40E94B37818160CF022C26091A7
:104EE0009C0D70919D0D80919E0D90919F0D645130
:104EF0007040804090400E94C1776F8F78A389A353
:104F00009AA3C801B7012F8D38A149A15AA10E94C7
:104F10001F7788230CF005C2C601B50120E030E000
:104F200040EA51E40E94B37818160CF0FAC160917F
:104F3000A00D7091A10D8091A20D9091A30D6451CF
:104F40007040804090400E94C1772B013C01C60117
:104F5000B501A30192010E941F7788230CF0E1C1E3
:104F60006B8D7C8D8D8D9E8D20E030E040EA51E48C
:104F70000E94B37818160CF0D4C16B8D7C8D8D8D8A
:104F80009E8D2F8D38A149A15AA10E941F77882399
:104F90000CF0C7C16F89788D898D9A8D20E030E043
:104FA00040EA51E40E94B37818160CF0BAC16F8938
:104FB000788D898D9A8DA30192010E941F77882395
:104FC0000CF0AFC11092EF0CC801B7012B8D3C8DD6
:104FD0004D8D5E8D0E94BA761B012C01C601B50174
:104FE0002F89388D498D5A8D0E94BA763B014C012C
:104FF000C201B10120E030E040E050E00E94B3780F
:1050000018161CF48201710106C08201710117FBA0
:10501000109517F91095C401B30120E030E040E08D
:1050200050E00E94B37818161CF4A401930103C049
:10503000A40193015058C801B7010E94B378181613
:105040009CF021E030E03E8B2D8BD401C301B058A1
:105050008DAB9EABAFABB8AFABA5BCA55D01CC240F
:10506000B7FCC094DC2C4EC021E030E03E8B2D8B91
:10507000D201C101B05889AB9AABABABBCABABA50D
:10508000BCA55D01CC24B7FCC094DC2C06C02D89E6
:105090003E892F5F3F4F3E8B2D8BC201B10120E037
:1050A00030E040E050E00E94B37818161CF4820112
:1050B000710104C0E9A8FAA80BA91CA9AD89BE8991
:1050C000BD01882777FD8095982F0E94C1779B01AD
:1050D000AC01C801B7010E9426777B018C01C60193
:1050E000B5010E94C1779B01AC01C801B7010E94C4
:1050F000B378181664F234C02D893E892F5F3F4F74
:105100003E8B2D8BC401B30120E030E040E050E045
:105110000E94B37818161CF48401730104C0EDA832
:10512000FEA80FA918ADAD89BE89BD01882777FDFE
:105130008095982F0E94C1779B01AC01C801B701EF
:105140000E9426777B018C01C601B5010E94C177C0
:105150009B01AC01C801B7010E94B378181664F234
:105160002D893E895901CC24B7FCC094DC2CC601A2
:10517000B5010E94C1777B018C01C201B101A80178
:1051800097010E9426776D837E838F839887C40161
:10519000B301A80197010E94267769837A838B83E4
:1051A0009C831092EE0C198A1A8A1B8A1C8A198613
:1051B0001A861B861C86ADA6BEA6CFA6D8AA6B8D66
:1051C0007C8D8D8D9E8D2D813E814F8158850E94D5
:1051D000BB766B8F7C8F8D8F9E8F6F89788D898D3D
:1051E0009A8D29813A814B815C810E94BB766F8BBD
:1051F000788F898F9A8F6B8D7C8D8D8D9E8D2F8969
:10520000388D498D5A8D0E941C0E6D877E878F8741
:10521000988B6B8D7C8D8D8D9E8D2F89388D498DD2
:105220005A8D0E94E50D1B012C0169847A848B84C0
:105230009C848DA59EA5AFA5B8A9680E791E8A1E6F
:105240009B1E69897A898B899C890E94C1775B0141
:105250006C016091EA0C7091EB0C8091EC0C9091D8
:10526000ED0C20E030E040E850E40E94B7787B018C
:105270008C01C401B301A60195010E94450E0E9454
:105280008E77698B7A8B8B8B9C8B0E94C1777B018D
:105290008C0189E59EE0B801A7010E94464A8DE98C
:1052A0009EE0B801A7010E94464A6D857E858F85E4
:1052B0009889A20191010E94231A89859A85AB855C
:1052C000BC850197A109B10989879A87AB87BC87FB
:1052D0008D899E89A985BA858A0F9B1F892B09F024
:1052E0006ECF89E59EE040E050E060E070E00E9413
:1052F000464A8DE99EE040E050E060E070E00E94A8
:10530000464A11E01093EF0C6BA17CA18DA19EA1E8
:105310002FA138A549A55AA50E94231A1093EE0C77
:1053200006C088E895E160E979E00E94A3720E94D6
:105330000B0DE8960FB6F894DEBF0FBECDBFCF9130
:10534000DF911F910F91FF90EF90DF90CF90BF9072
:10535000AF909F908F907F906F905F904F903F9015
:105360002F9008952F923F924F925F926F927F926B
:105370008F929F92AF92BF92CF92DF92EF92FF9265
:105380000F931F93DF93CF93CDB7DEB7A6970FB6DA
:10539000F894DEBF0FBECDBF8091C40D882309F401
:1053A00001C3CE0101966BE07FE00E949E768E01E4
:1053B000085F1F4FC801BE016F5F7F4F0E949E763E
:1053C000C8010E943413F82EC8010E94B076FF2055
:1053D00071F488E895E166EC77E00E94007288E855
:1053E00095E1BE016F5F7F4F0E94E672D6C288E8EA
:1053F00095E161EE77E00E94007240912F0E50918E
:10540000300E6091310E7091320E88E895E12AE0FD
:1054100030E00E94817188E895E16DEE77E00E94AE
:1054200000724091330E5091340E6091350E7091A0
:10543000360E88E895E12AE030E00E94BF7188E8E6
:1054400095E160EF77E00E9400724091000D50916D
:10545000010D6091020D7091030D88E895E12AE03D
:1054600030E00E94817188E895E16CEF77E00E945E
:10547000A3726091000D7091010D8091020D9091C9
:10548000030D20912F0E3091300E4091310E50912E
:10549000320E0E941B7ACA01B9010E94C177609343
:1054A0000C0D70930D0D80930E0D90930F0D88E8E9
:1054B00095E16EEF77E00E94007240910C0D5091E3
:1054C0000D0D60910E0D70910F0D88E895E122E0B1
:1054D00030E00E94927288E895E16EE078E00E94E8
:1054E00000724091000D5091010D6091020D70917C
:1054F000030D88E895E12AE030E00E94BF7188E85A
:1055000095E167E374E00E9400726091390E70913A
:105510003A0E88E895E14AE050E00E94E371E0909D
:10552000000DF090010D0091020D1091030DC801C6
:10553000B7010E94C1772091100D3091110D40915B
:10554000120D5091130D0E94B7780E948E776093D0
:10555000040D7093050D8093060D9093070D209018
:10556000F80C3090F90C4090FA0C5090FB0C2E0C7B
:105570003F1C401E511E2091FC0C3091FD0C4091AF
:10558000FE0C5091FF0C260F371F481F591F2F8705
:10559000388B498B5A8B88E895E166EB79E00E945D
:1055A000007288E895E1B201A1012AE030E00E9492
:1055B000817188E895E16EEB79E00E94007288E8DD
:1055C00095E14F85588969897A892AE030E00E94FF
:1055D000BF7189E59EE00E94E7473B014C018DE9E0
:1055E0009EE00E94E7476BA37CA38DA39EA36091DE
:1055F000F80C7091F90C8091FA0C9091FB0C0E94C0
:10560000C1777B018C016091FC0C7091FD0C809145
:10561000FE0C9091FF0C0E94C1779B01AC01C80168
:10562000B7010E941C0E7B018C016091F80C7091F7
:10563000F90C8091FA0C9091FB0C0E94C1775B01F0
:105640006C016091FC0C7091FD0C8091FE0C9091AE
:10565000FF0C0E94C1779B01AC01C601B5010E94FD
:10566000E50D5B016C01C401B3010E94C1773B01F0
:105670004C016BA17CA18DA19EA10E94C1779B01D1
:10568000AC01C401B301F4E18F2E912CD5DB89E587
:105690009EE00E94E7473B014C018DE99EE00E949D
:1056A000E7476F8F78A389A39AA3C201B1010E9433
:1056B000C1776B8F7C8F8D8F9E8F6091FC0C70916A
:1056C000FD0C8091FE0C9091FF0C0E94C1779B0114
:1056D000AC016B8D7C8D8D8D9E8D0E941C0E7B018F
:1056E0008C016091FC0C7091FD0C8091FE0C9091EE
:1056F000FF0C0E94C1779B01AC016B8D7C8D8D8D61
:105700009E8D0E94E50D5B016C01C401B3010E94F6
:10571000C1773B014C016F8D78A189A19AA10E94AC
:10572000C1779B01AC01C401B301E4E18E2E912C41
:1057300083DB89E59EE00E94E7473B014C018DE950
:105740009EE00E94E7476F8B788F898F9A8F6F85D5
:10575000788989899A890E94C1771B012C016B8DF8
:105760007C8D8D8D9E8DA20191010E941C0E7B016E
:105770008C016B8D7C8D8D8D9E8DA20191010E947F
:10578000E50D5B016C01C401B3010E94C1773B01CF
:105790004C016F89788D898D9A8D0E94C1779B010C
:1057A000AC01C401B301B4E18B2E912C45DB89E53A
:1057B0009EE00E94E7473B014C018DE99EE00E947C
:1057C000E7476B8B7C8B8D8B9E8B6091F80C709177
:1057D000F90C8091FA0C9091FB0C0E94C177A20108
:1057E00091010E941C0E7B018C016091F80C70915C
:1057F000F90C8091FA0C9091FB0C0E94C177A201E8
:1058000091010E94E50D5B016C01C401B3010E948E
:10581000C1773B014C016B897C898D899E890E94EF
:10582000C1779B01AC01C401B301A4E18A2E912C84
:1058300003DB89E59EE00E94E7473B014C018DE9CF
:105840009EE00E94E7471B012C016091F80C7091CB
:10585000F90C8091FA0C9091FB0C0E94C1777B01AE
:105860008C016091FC0C7091FD0C8091FE0C90916C
:10587000FF0C0E94C1779B01AC01C801B7010E94D7
:105880001C0E7B018C016091F80C7091F90C8091D9
:10589000FA0C9091FB0C0E94C1775B016C01609146
:1058A000FC0C7091FD0C8091FE0C9091FF0C0E94FD
:1058B000C1779B01AC01C601B5010E94E50D5B01FA
:1058C0006C01C401B3010E94C1773B014C01C201CC
:1058D000B1010E94C1779B01AC01C401B301F4E1A5
:1058E0008F2E912CA9DA89E59EE00E94E7473B01C3
:1058F0004C018DE99EE00E94E7471B012C0160915D
:10590000F80C7091F90C8091FA0C9091FB0C0E94AC
:10591000C1777B018C016091FC0C7091FD0C809132
:10592000FE0C9091FF0C0E94C1779B01AC01C80155
:10593000B7010E941C0E7B018C016091F80C7091E4
:10594000F90C8091FA0C9091FB0C0E94C1775B01DD
:105950006C016091FC0C7091FD0C8091FE0C90919B
:10596000FF0C0E94C1779B01AC01C601B5010E94EA
:10597000E50D5B016C01C401B3010E94C1773B01DD
:105980004C01C201B1010E94C1779B01AC01C4016D
:10599000B301E4E18E2E912C4FDACE0101960E94E4
:1059A000B07606C088E895E164EE78E00E94A372C4
:1059B000A6960FB6F894DEBF0FBECDBFCF91DF9194
:1059C0001F910F91FF90EF90DF90CF90BF90AF901D
:1059D0009F908F907F906F905F904F903F902F900F
:1059E00008950F931F93AB01BC014093EA0C5093B1
:1059F000EB0C6093EC0C7093ED0C89E59EE00E943B
:105A00000E4D4091EA0C5091EB0C6091EC0C7091B2
:105A1000ED0C8DE99EE00E940E4D08E815E1C801ED
:105A200066E172E00E9462704091EA0C5091EB0CCA
:105A30006091EC0C7091ED0CC80122E030E00E9406
:105A400092721F910F910895CF92DF92EF92FF9281
:105A50000F931F937C018B01AAE0CA2EA1E1DA2EDD
:105A6000C601B701F80140810E9456510894E11C1B
:105A7000F11CC601B701F80141810E94565182E034
:105A800090E01F910F91FF90EF90DF90CF900895DD
:105A90000F931F93AB01BC014093E60C5093E70CAE
:105AA0006093E80C7093E90C89E59EE00E94F1494F
:105AB0004091E60C5091E70C6091E80C7091E90C74
:105AC0008DE99EE00E94F14908E815E1C80169E20C
:105AD00072E00E9462704091E60C5091E70C609178
