:10000000C2C20000EDC20000EBC20000E9C2000065
:10001000E7C20000E5C20000E3C20000E1C2000048
:10002000DFC20000DDC20000DBC20000D9C2000058
:10003000D7C20000D5C20000D3C20000D1C2000068
:10004000CFC200000C944752CBC20000C9C20000CE
:10005000C7C20000C5C20000C3C200000C94BC6A45
:10006000BFC200000C94E36C0C940B6EB9C200008C
:10007000B7C20000B5C20000B3C20000B1C20000A8
:100080000C941A52ADC20000ABC20000A9C200001D
:100090000C941C6D0C944A6EA3C20000A1C2000017
:1000A0009FC200009DC200000C94ED5199C2000057
:1000B00097C2000095C2000093C200000C94C0518A
:1000C0008FC200008DC200008BC200000C94556DE1
:1000D0000C94896E85C200000C948E6D0C94C86ED1
:1000E0007FC2000005A84CCDB2D44EB93836A90263
:1000F0000C50B9918688083CA6AAAA2ABE00000026
:10010000803F000000006410B71DC8206E3BAC307B
:10011000D9269041DC76F4516B6B5861B24D3C713D
:1001200005502083B8ED44930FF0E8A3D6D68CB3E6
:1001300061CBB0C2649BD4D2D38678E20AA01CF211
:10014000BDBD50424D20696D616765206D7573744A
:10015000206265206174206C6561737420313020E9
:10016000706978656C7320776964652E002C206D4A
:1001700061782064656E736974793A20002C207070
:10018000656E2077696474683A200050656E7769FF
:10019000647468207465737420004368616E6769D5
:1001A0006E67206261636B20746F206C69766520D6
:1001B0006D6F64652E0046696C652072656D6F76A3
:1001C00065642E0046696C6520616C7265616479B6
:1001D000206578697374732E00457865637574695A
:1001E0006E6720636F6D6D616E643A0053746F7259
:1001F000696E6720636F6D6D616E643A006D6D00AE
:100200004368616E6765642050656E207769647429
:100210006820746F20004E657720616363656C65AC
:10022000726174696F6E3A20004E6577206D617857
:100230002073706565643A200055703A2000446F61
:10024000776E3A2000504753504545442C005047A4
:100250004C4946542C005047535445504D554C542E
:1002600049504C4945522C00504753544550535027
:1002700045525245562C0050474D4D50455252451F
:10028000562C00504753495A452C0050474E414D7B
:10029000452C002900526563616C632070616765BD
:1002A00048656967687420696E207374657073208F
:1002B00028002900526563616C632070616765578F
:1002C0006964746820696E207374657073202800F7
:1002D0002900292C2073746570735065724D4D2070
:1002E0002800526563616C63206D6D5065725374B4
:1002F00065702028004C6F61646564206D6F746FB9
:10030000722073746570206D756C7469706C6965AA
:10031000723A004C6F61646564206D616368696E58
:1003200065206E616D653A004C6F6164656420758F
:100330007020706F733A004C6F6164656420646F65
:10034000776E20706F733A004C6F61646564206D46
:100350006F746F7220737465707320706572207291
:1003600065763A004C6F61646564206D6D20706540
:1003700072207265763A004C6F61646564206D612D
:100380006368696E65206865696768743A004C6FD8
:1003900061646564206D616368696E652077696476
:1003A00074683A002069736E2774206120636F6D52
:1003B0006D616E642049207265636F676E69736555
:1003C0002E00536F7272792C200029206E6F7420DA
:1003D0007061727365642E00436F6D6D616E642091
:1003E0002800436865636B73756D206E6F74206DB4
:1003F000617463686564213A004920676F74200066
:100400007600504F4C41524752415048204F4E21A8
:10041000007C3C3E5E2B3D3F2F5B5D3B2C2A225CEB
:100420000000002100240027002A002D00300033A6
:100430000001010000040107010A0100002200255B
:100440000028002B002E00310034000201000005BE
:100450000108010B01000020002300260029002CC8
:10046000002F003200000100000301060109010510
:10047000050505070508080808020202020A0A081D
:100480000804040404010101010101010103030343
:100490000303030303040707070C0C0C0C0C0C0CE0
:1004A0000C0202020206060606060606060B0B0BE7
:1004B0000B0B0B0B0B010210202008081020401022
:1004C0002040800201020108040201010204081018
:1004D0002040808040201008040201800402018036
:1004E000402010080402010804020101020408105F
:1004F00020408001020408102040800000090A0208
:10050000080B0C0D070603040100000000000000AA
:1005100000000000000000000000000000000000DB
:100520000000000000000011100F0000000000009B
:1005300000000000000000000000000000000000BB
:1005400000494E46494E4954594E414ECDCCCC3DC2
:100550000AD7233C17B7D13877CC2B329595E624B0
:100560001FB14F0A000020410000C84200401C4655
:1005700020BCBE4CCA1B0E5AAEC59D74C80C875217
:1005800023563270C30C11241FBECFEFD1E2DEBF61
:10059000CDBF00E00CBF1DE0A0E0B2E0E6E8F7EF61
:1005A00000E00BBF02C007900D92A63CB107D9F73F
:1005B0001BBE16E1A6ECBDE001C01D92A934B10737
:1005C000E1F715E0C4E8D5E004C02297FE010E94DF
:1005D000717BCC37D107C9F70E9450710C94B77B5F
:1005E0000FCDCF93DF93BC018230910510F462E010
:1005F00070E0A0914516B0914616ED01E0E0F0E004
:1006000040E050E021C0888199818617970769F4FE
:100610008A819B81309719F09383828304C09093E1
:10062000461680934516FE0134C06817790738F4E2
:100630004115510519F08417950708F4AC01FE0126
:100640008A819B819C01E9012097E9F641155105BA
:10065000A9F1CA01861B970B049708F4BA01E0E0E0
:10066000F0E02AC08D919C91119784179507F9F4B9
:100670006417750781F412968D919C9113973097AA
:1006800019F09383828304C0909346168093451695
:10069000FD0132964CC0CA01861B970BFD01E80F85
:1006A000F91F6193719302978D939C9340C0FD0154
:1006B000828193819C01D9011097A1F68091431604
:1006C00090914416892B41F48091130D9091140D53
:1006D00090934416809343164091150D5091160D3A
:1006E0004115510541F44DB75EB78091110D9091C0
:1006F000120D481B590B2091431630914416CA0124
:10070000821B930B8617970780F0AB014E5F5F4FFC
:100710008417950750F0420F531F5093441640938F
:100720004316F9016193719302C0E0E0F0E0CF015C
:10073000DF91CF910895CF93DF93009709F450C0D4
:10074000EC0122971B821A82A0914516B0914616A1
:10075000109709F140E050E0AC17BD0708F1BB83EA
:10076000AA83FE0121913191E20FF31FAE17BF075B
:1007700079F48D919C911197280F391F2E5F3F4F6F
:100780003983288312968D919C9113979B838A833A
:100790004115510571F4D0934616C093451620C0FB
:1007A00012968D919C911397AD01009711F0DC0189
:1007B000D3CFFA01D383C28321913191E20FF31F8A
:1007C000CE17DF0769F488819981280F391F2E5FC2
:1007D0003F4FFA01318320838A819B8193838283F7
:1007E000DF91CF910895A0E0B0E0E9EFF3E00C9441
:1007F000887BEC01A880B980CA80DB80A114B10499
:10080000C104D10441F484E2A82E89EDB82E8BE511
:10081000C82E87E0D82EC601B5012DE133EF41E0A7
:1008200050E00E94407B27EA31E440E050E00E9423
:10083000E07A7B018C01C601B5012DE133EF41E087
:1008400050E00E94407BCA01B9012CEE34EF4FEF1B
:100850005FEF0E94E07A6E0D7F1D801F911F97FF52
:1008600004C06150704080409048688379838A83D7
:100870009B839B01AC015F77B901CA01CDB7DEB79D
:10088000EAE00C94A47BAFCF87E19DE0ACCF60930E
:10089000170D7093180D8093190D90931A0D0895EC
:1008A000A0E0B0E0E6E5F4E00C94827B6C010097F8
:1008B00021F4CB0196DE6C01BDC08EEF882E8FEF48
:1008C000982E8C0C9D1C8601060F171F0815190504
:1008D00008F4AEC0F401A081B181A617B707B0F04B
:1008E000A530B10508F4A6C0CD0104978617970777
:1008F00008F4A0C01297A61BB70BF801A193B193FF
:10090000D4016D937C93CF0116DF94C07B01EA1A6A
:10091000FB0AEEEFFFEFEE0EFF1E36016A0E7B1EA6
:10092000C0914516D091461644245524AA24BB24D0
:100930004AC0C615D705E1F5488159814E155F05B6
:10094000B8F1CA0104978E159F05B0F41296A40F52
:10095000B51FF401B183A0832A813B814114510466
:1009600031F0D20113963C932E93129763C03093CB
:100970004616209345165EC08A819B81F8019383B9
:100980008283425050404E195F0951834083411485
:10099000510431F0D20113961C930E93129704C0A8
:1009A0001093461600934516F4017183608342C08C
:1009B00088819981A816B90608F45C012E018A8104
:1009C0009B819C01E901209709F0B3CF80914316E8
:1009D0009091441686159705E9F4A616B706D0F44B
:1009E0002091150D3091160D2115310541F42DB7CB
:1009F0003EB78091110D9091120D281B390B0217F3
:100A00001307B0F41093441600934316D4016D936A
:100A10007C9310C0CB01E5DDEC01009749F0F401B7
:100A200040815181B6015FD0C60185DE6E0102C0F2
:100A3000CC24DD24C601CDB7DEB7E0E10C949E7B6B
:100A400066277727C8C0FC0188279927E894219159
:100A50002032E9F3293010F02E30C8F32B3239F070
:100A60002D3231F4689403C0AED0820F911D2191D4
:100A700020532A30C8F31EF4909581959F4F089516
:100A80001F93FC0199278827BC01E894119110322B
:100A9000E9F3193010F01E30C8F31B3249F01D3253
:100AA00041F4689405C07AD0610F711D811D911DBC
:100AB000119110531A30B8F33EF4909580957095CB
:100AC00061957F4F8F4F9F4F1F910895FB01DC0170
:100AD00004C08D910190801921F441505040C8F715
:100AE000881B990B0895FB01DC0102C001900D9257
:100AF00041505040D8F70895FC018191861721F0AC
:100B00008823D9F7992708953197CF010895FB01DC
:100B1000DC018D91019080190110D9F3990B089592
:100B2000FB01DC0101900D920020E1F70895FB012B
:100B3000DC014150504030F08D910190801919F442
:100B40000020B9F7881B990B0895FB01DC01415087
:100B5000504048F001900D920020C9F701C01D924D
:100B600041505040E0F70895FB0151915523A9F001
:100B7000BF01DC014D9145174111E1F759F4CD0159
:100B80000190002049F04D9140154111C9F3FB013E
:100B90004111EFCF81E090E001970895592F482F40
:100BA000372F262F660F771F881F991F660F771F15
:100BB000881F991F620F731F841F951F660F771F71
:100BC000881F991F08957AE0979F902D879F802D09
:100BD000910D11240895A0E0B0E0E1EFF5E00C9450
:100BE000867BEC015B016115710519F0FB019183B6
:100BF0008083F9908F2D90E00E94757B892BC9F737
:100C0000FDE2FF1621F4F990EE24E39405C02BE2F7
:100C1000F21609F4F990EE248E0101501040C8013B
:100C200061E475E043E050E033D1892BF9F48E01A3
:100C30000E5F1F4FC80164E475E045E050E028D125
:100C4000892B19F48E01095F1F4FA114B10419F00B
:100C5000F50111830083E0FC04C070E090E080E8BF
:100C600013C070E090E080E86FEF07C1C80169E44D
:100C700075E043E050E00CD1892B69F4A114B10474
:100C800029F470E090E080EC6FE7F7C02296F50160
:100C9000D183C083F6CF8824992440E050E060E0FF
:100CA00070E0EF2DE053EA30A0F5F2E0EF2A8E2D50
:100CB00090E09C0128703070E2FE06C0232B79F58D
:100CC0000894811C911C2BC0232B19F008948108D7
:100CD0009108DB01CA0112E0880F991FAA1FBB1FF0
:100CE0001A95D1F7480F591F6A1F7B1F440F551FD4
:100CF000661F771F4E0F511D611D711D483929E96F
:100D0000520729E9620729E1720748F084E0E82ADE
:100D100006C0EE3F31F4E3FC39C098E0E92AF990CF
:100D2000C0CFE53311F0E53189F529912D3219F461
:100D3000E0E1EE2A05C02B3219F081E090E003C01B
:100D4000299182E090E0E22FE053EA3018F0C81BCE
:100D5000D90B1CC020E030E0FCE020383F075CF4F9
:100D6000C901880F991F880F991F280F391F220F5B
:100D7000331F2E0F311DE991E053EA3068F3E4FE92
:100D800003C0309521953F4F820E931ECE2CDD245B
:100D9000E1FE07C0A114B10421F02197F501D18330
:100DA000C083CB01BA010E94E4787B018C01F3E09F
:100DB000CF22DD2423E0C216D10421F417FB1095C5
:100DC00017F9109557016801C801B70120E030E01C
:100DD00040E050E00E944478882309F44AC097FE1E
:100DE0000DC020E6E22E25E0F22E90948194910829
:100DF0009394C0E2D0E000E010E012C098E7E92E42
:100E000095E0F92EF6CFF701259135914591549152
:100E1000C601B5010E94DC795B016C018C1A9D0A48
:100E20008C169D0684F7D595C7950F5F1F4F06302A
:100E3000110529F08CEF9FEFE80EF91EF1CFC501E7
:100E4000D6017C018D018C2D880F8D2D881F8F3F41
:100E500051F0C601B50120E030E040E050E00E94D2
:100E60004478882331F482E290E09093481680938E
:100E700047167E2D9F2D802F612F272F392F482F2A
:100E8000562FB901CA01CDB7DEB7ECE00C94A27BB6
:100E9000FB01DC014150504088F08D9181341CF001
:100EA0008B350CF4805E659161341CF06B350CF46D
:100EB000605E861B611171F3990B0895881BFCCF4E
:100EC000AF92BF92CF92DF92EF92FF920F931F9358
:100ED0006E157F058007910734F42E153F054007F6
:100EE000510764F42CC0E616F7060807190794F4B6
:100EF000A216B306C406D5063CF423C0A216B30658
:100F0000C406D506BCF41FC02A153B054C055D057B
:100F1000C4F41BC06E157F058007910791F42A1554
:100F20003B054C055D058CF0A216B306C406D5063C
:100F300044F409C02A153B054C055D0511F484E015
:100F400005C082E003C083E001C081E01F910F91E2
:100F5000FF90EF90DF90CF90BF90AF900895EF9209
:100F6000FF920F931F937B018C01662757FD6095BD
:100F7000762FCB01BA010E94E6782091D20D3091F4
:100F8000D30D4091D40D5091D50D0E94DC79A8016C
:100F900097010E944B787B018C0120E030E040E01B
:100FA00050E40E94D87987FF03C061E070E004C07C
:100FB000C801B7010E94B378CB011F910F91FF9038
:100FC000EF9008956F927F928F929F92AF92BF920F
:100FD000CF92DF92EF92FF920F931F93CF93DF9305
:100FE0007C015B01662757FD6095762FCB01BA0126
:100FF0000E94E6783B014C010027F7FC0095102F7A
:10100000C801B7010E94E6787B018C01CC24B7FCB3
:10101000C094DC2CC601B5010E94E6789B01AC01AE
:10102000C801B7010E944B78A40193010E94DC79AA
:101030009B01AC01C401B3010E94DF777B018C01ED
:101040000E94B378EB01BE01882777FD8095982F29
:101050000E94E6789B01AC01C801B7010E94DF77CE
:1010600020E030E040E05FE30E94D87918160CF4ED
:101070002196CE01DF91CF911F910F91FF90EF90BC
:10108000DF90CF90BF90AF909F908F907F906F90A8
:101090000895CF92DF92EF92FF920F931F93CF9319
:1010A000DF93EC016B01688179818A819B812091BA
:1010B000550D3091560D4091570D5091580D0E948D
:1010C000DC79688379838A839B83F60160817181EF
:1010D000828193812091590D30915A0D40915B0D81
:1010E00050915C0D0E94DC797B018C01F6016083DC
:1010F0007183828393832091A7103091A810C90136
:101100008E978A35910580F4288139814A815B81E7
:10111000D801C701B05888839983AA83BB832083F1
:1011200031834283538329C0C901885890408A354E
:10113000910580F488819981AA81BB81B058888308
:101140009983AA83BB83F60180819181A281B381B7
:10115000B0580FC0225E30402A35310570F48881C6
:101160009981AA81BB81E882F9820A831B83B058E6
:10117000F60180839183A283B383688179818A8118
:101180009B812091A9103091AA104091AB105091F1
:10119000AC100E94E077688379838A839B83F60191
:1011A00060817181828193812091AD103091AE1068
:1011B0004091AF105091B0100E94E077F60160832B
:1011C000718382839383DF91CF911F910F91FF9061
:1011D000EF90DF90CF9008952F923F924F925F92C1
:1011E0006F927F928F929F92AF92BF92CF92DF9237
:1011F000EF92FF920F931F931B012C0139014A01BB
:10120000E090DA0DF090DB0D0091DC0D1091DD0D1A
:10121000C801B701A80197010E94E07A0E94E67810
:101220005B016C01C401B301A40193010E94DC794C
:101230009B01AC01C601B5010E94DF775B016C0127
:10124000C201B101A20191010E94DC799B01AC01B4
:10125000C601B5010E94E0775B016C01EE0CFF1C3A
:10126000001F111FC801B7010E94E6789B01AC0165
:10127000C601B5010E944B781F910F91FF90EF902E
:10128000DF90CF90BF90AF909F908F907F906F90A6
:101290005F904F903F902F9008950F931F93CF939F
:1012A000DF93242F2627A22FB0E0AF70B070AA0FD3
:1012B000BB1FAA0FBB1FC2E0D1E0AC0FBD1FFD01D9
:1012C0000591159125913491E4E096958795779550
:1012D0006795EA95D1F706271727282739274295DA
:1012E0004F70402750E04F705070440F551F440F0F
:1012F000551F4C0F5D1FFA0185919591A591B491F1
:1013000044E036952795179507954A95D1F7082714
:1013100019272A273B27B801C901DF91CF911F91D7
:101320000F910895EF92FF920F931F9381309105D3
:1013300009F029C26F5F7F4F09F020C38FE19FE062
:1013400060E072E00E942E7787EC9DE00E945C4F87
:101350008BEC9DE064E072E00E942E7786E29FE0D5
:1013600065E072E00E942E776091210D7091220D50
:10137000882777FD8095982F20911B0D30911C0DAB
:10138000442737FD4095542F0E94E07A0E94E6786A
:101390007B018C0160911D0D70911E0D80911F0DC0
:1013A0009091200DA80197010E944B786093D20D77
:1013B0007093D30D8093D40D9093D50DC801B701D0
:1013C00020911D0D30911E0D40911F0D5091200D4B
:1013D0000E944B787B018C016093D60D7093D70DE2
:1013E0008093D80D9093D90D6091510D7091520D4D
:1013F000882777FD8095982F0E94E678A8019701AD
:101400000E94DC790E94B3786093DA0D7093DB0D53
:101410008093DC0D9093DD0D6091530D7091540D10
:10142000882777FD8095982F0E94E678A80197017C
:101430000E94DC790E94B3786093DE0D7093DF0D1B
:101440008093E00D9093E10D8DE29FE06EE072E0FD
:101450000E942E7784E39FE060E172E00E942E7785
:101460008BE39FE064E172E00E942E7782E49FE0CC
:101470006CE172E00E942E7789E49FE06FE472E0F5
:101480000E942E7780E59FE06FE472E00E942E7745
:1014900087E59FE06FE472E00E942E778EE59FE083
:1014A0006FE472E00E942E7785E69FE06EE572E0C1
:1014B0000E942E778CE69FE068E672E00E942E770D
:1014C00083E79FE06FE672E00E942E778AE79FE055
:1014D00067E772E00E942E7781E89FE062E872E0A1
:1014E0000E942E7788E89FE065E67FE00E94C37740
:1014F00082EF9DE064E072E00E942E778FE89FE02B
:1015000068E872E00E942E7786E99FE06AE872E060
:101510000E942E778DE99FE06FE872E00E942E779F
:1015200084EA9FE063E972E00E942E778BEA9FE0F5
:1015300067E972E00E942E7782EB9FE06BE972E030
:101540000E942E7789EB9FE06FE972E00E942E7770
:1015500080EC9FE063EA72E00E942E7787EC9FE0C8
:1015600067EA72E00E942E778EEC9FE06BEA72E0F1
:101570000E942E7785ED9FE06FEA72E00E942E7741
:101580008CED9FE063EB72E00E942E7783EE9FE08C
:1015900067EB72E00E942E778AEE9FE06BEB72E0C1
:1015A0000E942E7781EF9FE06FEB72E00E942E7712
:1015B00088EF9FE063EC72E00E942E778FEF9FE050
:1015C00067EC72E00E942E7786E090E16BEC72E0AF
:1015D0000E942E778DE090E16FEC72E00E942E77F2
:1015E00084E190E163ED72E00E942E778BE190E15F
:1015F00067ED72E00E942E7782E290E16BED72E07F
:101600000E942E7789E290E16FED72E00E942E77C2
:1016100080E390E163EE72E00E942E7787E390E131
:1016200067EE72E00E942E778EE390E16BEE72E03F
:101630000E942E7785E490E16FEE72E00E942E7793
:101640008CE490E163EF72E00E942E7783E590E1F5
:1016500067EF72E00E942E778AE590E16BEF72E00F
:101660000E942E7781E690E16FEF72E00E942E7764
:1016700088E690E163E073E00E942E778FE690E1C8
:1016800067E073E00E942E7786E790E16BE073E0FD
:101690000E942E778DE790E16FE073E00E942E7735
:1016A00084E890E163E173E00E942E778BE890E19B
:1016B00067E173E00E942E7782E990E16BE173E0CD
:1016C0000E942E7789E990E16FE173E00E942E7706
:1016D00080EA90E163E273E00E942E778BEF9DE059
:1016E00064E072E00E942E7784E09EE064E072E0A5
:1016F0000E942E771092100E1092110E1092140E5E
:101700001092160E82E090E0A0E0B0E08093170EF9
:101710009093180EA093190EB0931A0E10922E0EDD
:101720001092380E1092370E81EB9DE09093360E9A
:101730008093350E10923A0E82E59EE00E948D5401
:1017400060911B0D70911C0D8FE79EE041E00E949F
:10175000245460911B0D70911C0D8BE89EE042E0BB
:101760000E94245487E99EE061E374E34BE254E372
:101770000E94A74A8BED9EE065E274E34FE154E3DB
:101780000E94A74AFBC0892B09F0F8C06F5F7F4F0A
:1017900009F0F4C082E59EE00E94A05484E09EE03F
:1017A0000E94D5778BEF9DE00E94D57780EA90E18B
:1017B0000E94D57789E990E10E94D57782E990E18E
:1017C0000E94D5778BE890E10E94D57784E890E17C
:1017D0000E94D5778DE790E10E94D57786E790E16A
:1017E0000E94D5778FE690E10E94D57788E690E158
:1017F0000E94D57781E690E10E94D5778AE590E155
:101800000E94D57783E590E10E94D5778CE490E142
:101810000E94D57785E490E10E94D5778EE390E130
:101820000E94D57787E390E10E94D57780E390E12D
:101830000E94D57789E290E10E94D57782E290E11B
:101840000E94D5778BE190E10E94D57784E190E109
:101850000E94D5778DE090E10E94D57786E090E1F7
:101860000E94D5778FEF9FE00E94D57788EF9FE0A9
:101870000E94D57781EF9FE00E94D5778AEE9FE0A6
:101880000E94D57783EE9FE00E94D5778CED9FE094
:101890000E94D57785ED9FE00E94D5778EEC9FE082
:1018A0000E94D57787EC9FE00E94D57780EC9FE07F
:1018B0000E94D57789EB9FE00E94D57782EB9FE06D
:1018C0000E94D5778BEA9FE00E94D57784EA9FE05B
:1018D0000E94D5778DE99FE00E94D57786E99FE049
:1018E0000E94D5778FE89FE00E94D57782EF9DE038
:1018F0000E94D57788E89FE00E94D57781E89FE035
:101900000E94D5778AE79FE00E94D57783E79FE022
:101910000E94D5778CE69FE00E94D57785E69FE010
:101920000E94D5778EE59FE00E94D57787E59FE0FE
:101930000E94D57780E59FE00E94D57789E49FE0FB
:101940000E94D57782E49FE00E94D5778BE39FE0E9
:101950000E94D57784E39FE00E94D5778DE29FE0D7
:101960000E94D57786E29FE00E94D5778BEC9DE0C0
:101970000E94D5778FE19FE00E94D5771F910F914C
:10198000FF90EF90089580E090E06FEF7FEFCACC7A
:1019900081E090E06FEF7FEFC5CCCF92DF92EF92C6
:1019A000FF920F931F93CF93DF936C01EE24EA9481
:1019B000FE2C8701C0E0D0E00BC0C601BE010E9432
:1019C000A274482FC801B70168DC7B018C01219605
:1019D000F60184819581C817D90778F3A80197018A
:1019E0002095309540955095B901CA01DF91CF916E
:1019F0001F910F91FF90EF90DF90CF9008950F937C
:101A00001F9384E090E00E94F1028C010E949B03EE
:101A10002DB73EB7201B310BC9011F910F910895BF
:101A2000EEDF9C018091E60D9091E70D28173907B4
:101A3000D1F03093E70D2093E60D86EC95E16BE352
:101A40007FE00E94D9736091E60D7091E70D86ECFE
:101A500095E14AE050E00E94F67286EC95E166E975
:101A60007FE00C940B74089586EC95E16CE67FE0C2
:101A70000C940B7486EC95E165E67FE00C940B7496
:101A8000AF92BF92CF92DF92EF92FF920F931F938C
:101A90007B018C01CA01B9010E94DC795B016C01F8
:101AA000C801B701A80197010E94DC799B01AC0134
:101AB000C601B5010E94DF770E94497A1F910F91FC
:101AC000FF90EF90DF90CF90BF90AF9008956F920E
:101AD0007F928F929F92AF92BF92CF92DF92EF92BE
:101AE000FF920F931F937B018C0176DB5B016C01EE
:101AF000A8019701C5DF3B014C01E090350DF09046
:101B0000360D0091370D1091380DC801B7010E94B4
:101B1000E6789B01AC01C601B5010E94447887FDBF
:101B20004AC080913D0D90913E0DA0913F0DB09126
:101B3000400DE80EF91E0A1F1B1FC801B7010E94C5
:101B4000E6789B01AC01C601B5010E94D879181650
:101B500094F1E090390DF0903A0D00913B0D109109
:101B60003C0DC801B7010E94E6789B01AC01C4019D
:101B7000B3010E94447887FD1EC0DD248091410D91
:101B80009091420DA091430DB091440DE80EF91EC5
:101B90000A1F1B1FC801B7010E94E6789B01AC0118
:101BA000C401B3010E94D879181614F4DD24D3942B
:101BB00081E0D82601C0DD248D2D1F910F91FF906B
:101BC000EF90DF90CF90BF90AF909F908F907F90DD
:101BD0006F900895AF92BF92CF92DF92EF92FF92F3
:101BE0000F931F937B018C0159016A016091DA0DFB
:101BF0007091DB0D8091DC0D9091DD0D0E94E678F7
:101C0000A80197010E94DF779B01AC010E94DC795B
:101C10007B018C01C601B501A60195010E94DC790A
:101C20009B01AC01C801B7010E94E0770E94497A8C
:101C30001F910F91FF90EF90DF90CF90BF90AF90EA
:101C40000895AF92BF92CF92DF92EF92FF920F93DF
:101C50001F937B018C0159016A01A80197010E9421
:101C6000DC797B018C01C601B501A60195010E94BA
:101C7000DC799B01AC01C801B7010E94E0770E94AA
:101C8000497A1F910F91FF90EF90DF90CF90BF9016
:101C9000AF9008952F923F924F925F926F927F92F2
:101CA0008F929F92AF92BF92CF92DF92EF92FF926C
:101CB0000F931F93DF93CF9300D00F92CDB7DEB772
:101CC00069837A838B839C8359016A0117012801F8
:101CD000611571058105910559F40F2EF0E0EF2E85
:101CE000F0E0FF2EF0E00F2FF0E01F2FF02DA4C04A
:101CF000CA01B9010E94DC797B018C01C601B501E2
:101D000020E030E040E050E00E944478882324F452
:101D100017FB109517F91095C201B101A2019101AD
:101D20000E94E0773B014C01C801B701A401930177
:101D30000E944B787B018C0169817A818B819C8127
:101D40000E94E6789B01AC01C801B7010E9444786B
:101D50008823B4F5C601B50120E030E040E050E052
:101D60000E944478882329F4C401B3010E94497A6F
:101D70000DC0C201B101A60195010E944B789B01E3
:101D8000AC015F77C601B5010E94E0777B018C0151
:101D9000D090230DC090240DB090250DA090260D5D
:101DA0002D2D3C2D4B2D5A2D0E94D87918160CF054
:101DB00043C08D2D9C2DAB2DBA2D7C018D013CC0D7
:101DC000C601B50120E030E040E050E00E944478D8
:101DD000882359F4C401B3010E94497A7B018C0124
:101DE00017FB109517F910950FC0C201B101A6019C
:101DF00095010E944B789B01AC015F77C601B5014C
:101E00000E94DF777B018C018091230D9091240D3E
:101E1000A091250DB091260D5C016D01D7FAD094EB
:101E2000D7F8D094C801B701A60195010E94447863
:101E3000882314F486017501B701C8010F900F9033
:101E40000F900F90CF91DF911F910F91FF90EF9026
:101E5000DF90CF90BF90AF909F908F907F906F90CA
:101E60005F904F903F902F90089580912C0D882384
:101E7000F1F186EC95E161E87FE00E94D97387E992
:101E80009EE00E9404492091210D3091220D4427AB
:101E900037FD4095542F0E94407B86EC95E1BA01B6
:101EA000A9012AE030E00E94A67286EC95E16FE875
:101EB0007FE00E94D9738BED9EE00E94044920913F
:101EC000210D3091220D442737FD4095542F0E945B
:101ED000407B86EC95E1BA01A9012AE030E00E943E
:101EE000A67286EC95E166E97FE00C940B74089588
:101EF000EF92FF920F931F938091E20D9091E30D6B
:101F0000A091E40DB091E50D0097A105B10509F090
:101F10003FC06091DA0D7091DB0D8091DC0D9091E6
:101F2000DD0D0E94E6787B018C016091DE0D7091E1
:101F3000DF0D8091E00D9091E10D0E94E6789B010C
:101F4000AC01C801B7017DDE20E030E040E05FE396
:101F50000E94E0770E94B3786093E20D7093E30DE6
:101F60008093E40D9093E50D86EC95E167E273E0D4
:101F70000E9425734091E20D5091E30D6091E40DB4
:101F80007091E50D86EC95E12AE030E00E94E47264
:101F90006091E20D7091E30D8091E40D9091E50D5B
:101FA0001F910F91FF90EF90089586EC95E16EE3FD
:101FB00073E00C94C87386EC95E16AE971E00E94C5
:101FC000D2711092030E08958F929F92AF92BF929A
:101FD000CF92DF92EF92FF920F931F936C017B01E0
:101FE00086EC95E165E573E00E94257386EC95E14A
:101FF000B6014AE050E00E94F67286EC95E16EE58B
:1020000073E00E94257386EC95E1B7014AE050E049
:102010000E94087386EC95E163E673E00E942573E5
:102020006091770E7091780E86EC95E14AE050E071
:102030000E94087386EC95E163E773E00E942573C4
:1020400040916D0E50916E0E60916F0E7091700EFA
:1020500086EC95E12AE030E00E94E4724601AA2471
:1020600097FCA094BA2C8091770E9091780EAA27B5
:1020700097FDA095BA2F880E991EAA1EBB1E002799
:10208000F7FC0095102F20916D0E30916E0E40914F
:102090006F0E5091700EC801B7010E94E07A860E53
:1020A000971EA81EB91E86EC95E16DE773E00E94AD
:1020B000257386EC95E1B501A4012AE030E00E9489
:1020C000A6728091790E90917A0EA0917B0EB091BC
:1020D0007C0E88159905AA05BB0514F41FEF18C0DE
:1020E00082E59EE0B501A4010E94275582E59EE0AD
:1020F0000E943755182F86EC95E166E873E00E9440
:10210000257386EC95E1612F4AE050E00E948A72C7
:10211000812F1F910F91FF90EF90DF90CF90BF9094
:10212000AF909F908F9008956F927F928F929F9221
:10213000AF92BF92CF92DF92EF92FF920F931F93D5
:10214000DF93CF93CDB7DEB7A3970FB6F894DEBF7A
:102150000FBECDBF6DB67EB682E59EE040E050E09A
:1021600060E070E00E9427557E010894E11CF11C9C
:10217000C70165E973E00E942E7782E59EE00E9428
:102180003755182FC70160E070E00E94B374FC015E
:10219000108382E59EE00E943755182FC70161E049
:1021A00070E00E94B374FC011083C70168E973E01A
:1021B0000E94DB75882399F486EC95E16BE973E066
:1021C0000E94257386EC95E1B7010E94D97386ECD5
:1021D00095E169EB73E00E94C87310E083C186EC5F
:1021E00095E164ED73E00E94C87382E59EE00E9471
:1021F00037558E01085F1F4FC80164E072E00E94EE
:102200002E7782E59EE00E943755E82E9FE0C92E8A
:10221000D12CCC0EDD1EF02E012F21C083E2E8165A
:1022200041F482E59EE00E943755E82E9AE0E916D7
:10223000C1F7C6016F2D702F0E94CC77C6016E2D9D
:102240000E940077BC018F2D902F0E94AE77C601AF
:102250000E94DA7782E59EE00E943755E82E8AE0F8
:10226000E81619F090E2E916C9F686EC95E16AEFF6
:1022700073E00E94257388E0E82EF12CEC0EFD1E21
:1022800086EC95E1B7010E940B744C855D854F5F2C
:102290005F4F8DB79EB7841B950B0FB6F8949EBF0A
:1022A0000FBE8DBF0DB71EB70F5F1F4F902E812E33
:1022B000B02EA12EC701B80120E030E00E948C753D
:1022C000C8010E942305AA2797FDA095BA2F8093E5
:1022D0006D0E90936E0EA0936F0EB093700E0A97D2
:1022E000A105B10544F486EC95E162E471E00E9439
:1022F000D27110E0F3C0C70164E072E00E9447773A
:1023000082E59EE00E943755182F06E1C02ED12CA1
:10231000CC0EDD1EC701FE2C092F1FC0133239F46D
:1023200082E59EE00E943755182F8A30C9F7C60112
:102330006F2D702F0E94CC77C601612F0E9400770D
:10234000BC018F2D902F0E94AE77C6010E94DA77D4
:1023500082E59EE00E943755182F1A30F9F686EC78
:1023600095E165E074E00E94257318E0C12ED12C40
:10237000CC0EDD1E86EC95E1B6010E940B744C85F7
:102380005D854F5F5F4FC6016B2D7A2D20E030E0F9
:102390000E948C75892D982D0E942305AA2797FDF0
:1023A000A095BA2F8093710E9093720EA093730E26
:1023B000B093740EBC01CD010E94E6787B018C01C4
:1023C00060916D0E70916E0E80916F0E9091700EF7
:1023D0000E94E6789B01AC01C801B7010E944B78CE
:1023E00060934D0D70934E0D80934F0D9093500D53
:1023F00086EC95E161E174E00E94257340914D0DFA
:1024000050914E0D60914F0D7091500D86EC95E1FD
:1024100022E030E00E94B773C60164E072E00E94DF
:10242000477782E59EE00E943755182F0D2DBDE1BC
:10243000EB2EF12CEC0EFD1E16C0C7016C2D702F7B
:102440000E94CC77C701612F0E940077BC018C2DC0
:10245000902F0E94AE77C7010E94DA7782E59EE056
:102460000E943755182F1A3041F786EC95E163E248
:1024700074E00E94257386EC95E16C2D702F0E940C
:102480000B744C855D854F5F5F4F8C2D902F6B2DAE
:102490007A2D20E030E00E948C75892D982D0E94C5
:1024A00023059093760E8093750E82E59EE00E9440
:1024B000E2547093780E6093770E86EC95E167E3B3
:1024C00074E00E9425736091770E7091780E86EC0F
:1024D00095E14AE050E00E94087311E0CE010896B1
:1024E0000E94D577CE0101960E94D577812F0FB635
:1024F000F8947EBE0FBE6DBEA3960FB6F894DEBFF5
:102500000FBECDBFCF91DF911F910F91FF90EF9044
:10251000DF90CF90BF90AF909F908F907F906F9003
:102520000895EF92FF920F931F93DF93CF93CDB750
:10253000DEB7FC01EDB6FEB6448155814F5F5F4FBB
:102540008DB79EB7841B950B0FB6F8949EBF0FBE38
:102550008DBF0DB71EB70F5F1F4FCF01B80120E031
:1025600030E00E948C75C8010E9423050FB6F894D4
:10257000FEBE0FBEEDBECF91DF911F910F91FF9078
:10258000EF900895EF92FF920F931F93DF93CF93F5
:10259000CDB7DEB727970FB6F894DEBF0FBECDBF1D
:1025A0008E010F5F1F4FC80169E47FE00E94C3776F
:1025B000C801B7DF7C01C8010E94D577EF2819F464
:1025C0001092FA0D0EC08091020E882321F081E056
:1025D0008093FA0D06C086EC95E165E474E00E94F4
:1025E000C87327960FB6F894DEBF0FBECDBFCF914C
:1025F000DF911F910F91FF90EF9008950F931F931C
:10260000DF93CF93CDB7DEB72E970FB6F894DEBF2A
:102610000FBECDBF8E010F5F1F4FC80169E47FE081
:102620000E94C377C8017DDF9093600D80935F0D9A
:10263000C8010E94D5778E01085F1F4FC80160E571
:102640007FE00E94C377C8016CDF90935E0D80939A
:102650005D0DC8010E94D5772E960FB6F894DEBFA7
:102660000FBECDBFCF91DF911F910F910895EF92D3
:10267000FF920F931F93DF93CF93CDB7DEB76B9786
:102680000FB6F894DEBF0FBECDBFFC01EDB6FEB6AF
:10269000448155814F5F5F4F8DB79EB7841B950B6B
:1026A0000FB6F8949EBF0FBE8DBF0DB71EB70F5F5C
:1026B0001F4FCF01B80120E030E00E948C75CE01A1
:1026C00001966BE471E1A80121E00E9430588B81F2
:1026D0009C819093550E8093540E8D819E81AF8185
:1026E000B8858093560E9093570EA093580EB093D2
:1026F000590E89859A85AB85BC8580935A0E909337
:102700005B0EA0935C0EB0935D0EAEE5BEE0FE01E5
:102710003D968DE001900D928150E1F78A8D9B8D61
:1027200090936C0E80936B0ECE0101960E94A05484
:1027300082E59EE00E940855882329F486EC95E105
:1027400069E674E007C0F0DC882341F486EC95E18B
:102750006AE774E00E94C87380E00DC082E59EE0E5
:102760000E94F5546093790E70937A0E80937B0EDD
:1027700090937C0E81E00FB6F894FEBE0FBEEDBEC6
:102780006B960FB6F894DEBF0FBECDBFCF91DF9131
:102790001F910F91FF90EF900895AF92BF92CF924B
:1027A000DF92EF92FF920F931F93DF93CF93CDB7FA
:1027B000DEB76B970FB6F894DEBF0FBECDBF6C01CE
:1027C000ADB6BEB64091080E5091090E4F5F5F4FF7
:1027D0008DB79EB7841B950B0FB6F8949EBF0FBEA6
:1027E0008DBF0DB71EB70F5F1F4F84E09EE0B8018D
:1027F00020E030E00E948C757E010894E11CF11C01
:10280000C7016BE471E1A80123E10E943058C701C0
:102810000E9408558823D1F086EC95E162E874E0C7
:102820000E94257386EC95E164E07EE00E940B74C3
:10283000C701B6010E940B74C7010E94155586ECB2
:1028400095E163E974E00E94C8730CC086EC95E1E1
:1028500069E974E00E94257386EC95E164E07EE00E
:102860000E940B74CE0101960E94A0540FB6F894FA
:10287000BEBE0FBEADBE6B960FB6F894DEBF0FBEE8
:10288000CDBFCF91DF911F910F91FF90EF90DF901F
:10289000CF90BF90AF900895EF92FF920F931F9348
:1028A00085E361E00E94FD6B8BE491E165E30E94AA
:1028B0005059882329F486EC95E168EA74E06AC0EF
:1028C00086EC95E164EC74E00E94C87386EC95E1B7
:1028D00066ED74E00E94C8738BE09EE061E045E322
:1028E0000E94A65B8823B9F486EC95E16EEE74E055
:1028F0000E94C87386EC95E166E175E00E94C8739A
:1029000086EC95E16FE275E00E94C87386EC95E174
:1029100069E475E03FC086EC95E16DE875E00E94E2
:10292000C87386EC95E166EB75E00E942573809193
:10293000160E823049F0833061F0813079F486ECF4
:1029400095E163EC75E00EC086EC95E167EC75E00F
:1029500009C086EC95E16BEC75E004C086EC95E16E
:1029600060ED75E00E94C87387E19EE06BE07EE059
:1029700041E00E949C66882381F487E19EE06BE041
:102980007EE040E00E949C66882339F486EC95E165
:1029900068ED75E00E94C87374C086EC95E162E250
:1029A00076E00E94257386EC95E160912E0E4AE058
:1029B00050E00E948A7286EC95E10E94B2712091EB
:1029C0001B0E30E040E050E06091200E7091210E2F
:1029D0008091220E9091230EE9E0660F771F881FE9
:1029E000991FEA95D1F70E94E07A7B018C0186EC71
:1029F00095E166E376E00E94257386EC95E1B801E7
:102A0000A7012AE030E00E94687286EC95E16CE450
:102A100076E00E9425733AE016950795F794E794BF
:102A20003A95D1F786EC95E1B801A7012AE030E0AC
:102A30000E94687286EC95E163E676E00E94257359
:102A40002AE016950795F794E7942A95D1F786EC36
:102A500095E1B801A7012AE030E00E94687286EC97
:102A600095E16AE776E00E94C87385E39EE067E13E
:102A70007EE00E94B16085E39EE067E040E00E9456
:102A8000AB611F910F91FF90EF900895AF92BF92AD
:102A9000CF92DF92EF92FF920F931F9387E99EE010
:102AA0000E94254F8BED9EE00E94254F87E99EE016
:102AB0000E94F448611571058105910509F047C030
:102AC0006091350D7091360D8091370D9091380DD4
:102AD00020913D0D30913E0D40913F0D5091400DA4
:102AE000260F371F481F591F0E9485745B016C0118
:102AF0006091390D70913A0D80913B0D90913C0D94
:102B00002091410D3091420D4091430D5091440D63
:102B1000260F371F481F591F0E9485747B018C01A7
:102B2000C601B5010E94E6785B016C01C801B701DE
:102B30000E94E6789B01AC01C601B50182D80E94D3
:102B4000B378AB01BC0187E99EE00E94894A8BED16
:102B50009EE00E94F448611571058105910509F018
:102B600048C06091350D7091360D8091370D909170
:102B7000380D20913D0D30913E0D40913F0D50910B
:102B8000400D260F371F481F591F0E9485745B0197
:102B90006C016091390D70913A0D80913B0D9091CF
:102BA0003C0D2091410D3091420D4091430D5091CB
:102BB000440D260F371F481F591F0E9485747B0143
:102BC0008C01C601B5010E94E6785B016C01C80169
:102BD000B7010E94E6789B01AC01C601B5010E94D5
:102BE000EA0D0E94B378AB01BC018BED9EE00E9420
:102BF000894A1F910F91FF90EF90DF90CF90BF9087
:102C0000AF900895EF92FF920F931F93CF93DF93AE
:102C1000C0E0D0E086EC95E164EB76E00E9425739D
:102C200086EC95E1BE014AE050E00E94087387E916
:102C30009EE00E94F448611571058105910509F433
:102C400068C08BED9EE00E94F44861157105810516
:102C5000910509F45EC087E99EE00E94254F8BED47
:102C60009EE00E94254FE3CF6EEF7FEF8FEF9FEF47
:102C700023E030E040E050E00E9485747B018C014D
:102C8000A701662757FD6095762F87E99EE00E9491
:102C90009A4A86EC95E16DEB76E00E94257386EC0E
:102CA00095E1B7014AE050E00E9408738BED9EE089
:102CB0000E94F448611571058105910511F56EEFCB
:102CC0007FEF8FEF9FEF23E030E040E050E00E9485
:102CD00085747B018C01A701662757FD6095762FCF
:102CE0008BED9EE00E949A4A86EC95E163ED76E0DA
:102CF0000E94257386EC95E1B7014AE050E00E94FE
:102D00000873B3D8219683E0C83ED80709F082CF74
:102D10000AC087E99EE00E94F448611571058105AB
:102D2000910521F6A1CFDF91CF911F910F91FF90D7
:102D3000EF9008958AE892E090936F0D80936E0D66
:102D40009093710D8093700D8FE590E090936B0DD3
:102D500080936A0D80E991E090936D0D80936C0DE6
:102D600081E090E09093690D8093680D95DD64EFAC
:102D700071E080E090E00C94386BAF92BF92CF92FC
:102D8000DF92EF92FF920F931F93CF93DF93EC01AB
:102D90005B016A0187EC9DE069E070E00E94F950F8
:102DA000CA15DB059CF476010027F7FC0095102F6F
:102DB00087EC9DE0BE010E94E24FC801B7010E946E
:102DC000386B2196AC16BD069CF712C07601002721
:102DD000F7FC0095102F87EC9DE0BE010E94E24FAA
:102DE000C801B7010E94386B2197CA15DB059CF713
:102DF00087EC9DE00E94764FDF91CF911F910F915C
:102E0000FF90EF90DF90CF90BF90AF900895EF923A
:102E1000FF920F931F93DF93CF93CDB7DEB7279722
:102E20000FB6F894DEBF0FBECDBF8091E80D909134
:102E3000E90D2091CA0D029714F1222329F0E090A8
:102E4000B110F090B21004C0E090660DF090670DE4
:102E50008E010F5F1F4FC80169E47FE00E94C377B6
:102E6000C8015FDB9093670D8093660DC8010E94D7
:102E7000D5776091660D7091670DC7010AC021304A
:102E800059F46091660D7091670D8091B110909129
:102E9000B21043E050E071DF1092CA0D27960FB6D2
:102EA000F894DEBF0FBECDBFCF91DF911F910F9180
:102EB000FF90EF900895EF92FF920F931F93DF938F
:102EC000CF93CDB7DEB727970FB6F894DEBF0FBE0E
:102ED000CDBF8091E80D9091E90D2091CA0D029728
:102EE00014F1222329F0E090B110F090B21004C048
:102EF000E090660DF090670D8E010F5F1F4FC801C7
:102F000069E47FE00E94C377C8010BDB9093B210A5
:102F10008093B110C8010E94D5776091B110709173
:102F2000B210C7010AC0222359F46091B110709108
:102F3000B2108091660D9091670D43E050E01DDF67
:102F400081E08093CA0D27960FB6F894DEBF0FBEBE
:102F5000CDBFCF91DF911F910F91FF90EF9008951A
:102F600087E99EE00E948E4D8BED9EE00E948E4D83
:102F700010927E0E86EC95E169EE76E00C94C873B3
:102F8000EF92FF920F931F930E94046B9B01AC0181
:102F9000E090EA0DF090EB0D0091EC0D1091ED0D2D
:102FA0008091340D8823E1F080917E0E8823C1F05A
:102FB0002E193F09400B510B8091300D9091310D2E
:102FC000A091320DB091330D82179307A407B50776
:102FD0003CF486EC95E169EF76E00E94C873C0DFAF
:102FE0008091FA0D882309F051DD1F910F91FF9018
:102FF000EF900895AC01662757FD6095762F8BED15
:103000009EE00E949A4A09C0BBDF80912D0D882363
:1030100021F08BED9EE00E94254F8BED9EE00E94FB
:10302000F448611571058105910571F70E94046BE3
:103030006093EA0D7093EB0D8093EC0D9093ED0D82
:103040000895AC01662757FD6095762F87E99EE0CD
:103050000E949A4A09C094DF80912D0D882321F0A7
:1030600087E99EE00E94254F87E99EE00E94F44890
:10307000611571058105910571F70E94046B6093DC
:10308000EA0D7093EB0D8093EC0D9093ED0D089588
:10309000CF93DF93FC01EB0121153105A9F4809159
:1030A000650D882339F0CF0162E070E00E940B7B50
:1030B000CB012BC0CF0162E070E00E940B7BCB0103
:1030C000909581959F4F21C08091650D24173507FC
:1030D000A1F4882339F0CF0162E070E00E940B7BFD
:1030E000CB0109C0CF0162E070E00E940B7BCB01F5
:1030F000909581959F4FA5DF15C0882311F0CF01D2
:1031000004C0882799278E1B9F0B9BDFCE0172DF9F
:103110008091650D882319F01092650D03C081E040
:103120008093650DDF91CF9108950F931F93CF93F7
:10313000DF93EC018B0121153105D9F486EC95E183
:103140006EE177E00E94C8738091650D882339F0A5
:10315000CE0162E070E00E940B7BCB012BC0CE0160
:1031600062E070E00E940B7BCB01909581959F4FB0
:1031700021C08091650D24173507A1F4882339F00B
:10318000CE0162E070E00E940B7BCB0109C0CE0152
:1031900062E070E00E940B7BCB01909581959F4F80
:1031A00029DF15C0882311F0CE0104C08827992794
:1031B0008C1B9D0B1FDFC80144DF8091650D8823A8
:1031C00019F01092650D03C081E08093650DDF91C9
:1031D000CF911F910F9108953F924F925F926F92FE
:1031E0007F928F929F92AF92BF92CF92DF92EF9297
:1031F000FF920F931F93DF93CF9300D00F92CDB721
:10320000DEB7FC014B016A01322E141615060CF0D4
:103210007FC0BA010E940B7B5B01CF01B6010E9407
:103220000B7BAA2797FDA095BA2FBC01CD010E9468
:10323000E6787B018C01B601882777FD8095982F71
:103240000E94E6789B01AC01C801B7010E944B784F
:103250002B013C011C821B820F2EF0E0EF2EF0E0D0
:10326000FF2EF0E00F2FF0E01F2FF02DC50101968B
:103270009A838983C801B701A30192010E94E07774
:103280007B018C0120E030E040E85FE30E94D879C8
:1032900087FF02C095010CC0C801B70120E030E0F3
:1032A00040E85FE30E94DF777B018C0129813A814E
:1032B00092E0391619F4C401B9010EC0E3E03E16DC
:1032C00019F4C401B90115C0F4E03F1651F46627A2
:1032D0007727621B730BC401A6012B813C8125DF7C
:1032E0000CC081E0381649F466277727621B730B00
:1032F000C401A6012B813C81CBDE0E94350FEB81FE
:10330000FC813196FC83EB83CE16DF060CF0B2CF46
:103310000F900F900F900F90CF91DF911F910F9111
:10332000FF90EF90DF90CF90BF90AF909F908F90E5
:103330007F906F905F904F903F9008958F929F92F3
:10334000AF92BF92CF92DF92EF92FF920F931F93B3
:10335000DF93CF93CDB7DEB72E970FB6F894DEBFCD
:103360000FBECDBF6E010894C11CD11CC60169E41B
:103370007FE00E94C377C601D4D8AA2797FDA09505
:10338000BA2F2091210D3091220D442737FD409511
:10339000542FBC01CD010E94E07A7B018C015B01BE
:1033A000C6010E94D577A8E0CA2ED12CCC0EDD1E16
:1033B000C60160E57FE00E94C377C601B2D84C0128
:1033C000C6010E94D577C701B701A40122E004DF3E
:1033D000AA0CBB1CC50135DEC701B701A40123E05F
:1033E000FBDEC50107DEC701B701A40124E0F4DE5E
:1033F000B094A194B108B394C50123DEC701B7010D
:10340000A40121E0E9DEC501F5DD2E960FB6F894A2
:10341000DEBF0FBECDBFCF91DF911F910F91FF9007
:10342000EF90DF90CF90BF90AF909F908F900895D6
:10343000AF92BF92CF92DF92EF92FF920F931F93C2
:10344000DF93CF93CDB7DEB728970FB6F894DEBFE2
:103450000FBECDBF69837A838B839C832D833E838C
:103460004F8358870E94046B6093EA0D7093EB0DB5
:103470008093EC0D9093ED0DCE010196BE016B5F34
:103480007F4F0E94490887E99EE00E94E84B5B015C
:103490006C018BED9EE00E94E84B7B018C0187E97B
:1034A0009EE040E050E060E070E00E94634B8BEDF6
:1034B0009EE040E050E060E070E00E94634B698174
:1034C0007A818B819C810E94B378AB01BC0187E932
:1034D0009EE00E94894A6D817E818F8198850E943D
:1034E000B378AB01BC018BED9EE00E94894A8091CC
:1034F0002B0D882309F042C087E99EE00E94E84B2B
:1035000020E030E040E050E00E944478882324F43A
:10351000D7FAD094D7F8D0948BED9EE00E94E84B78
:1035200020E030E040E050E00E944478882324F41A
:1035300017FB109517F9109587E99EE0B601A501D4
:103540000E94634B8BED9EE0B801A7010E94634B84
:1035500015C080912B0D882349F087E99EE00E94D9
:10356000254F8BED9EE00E94254F08C087E99EE025
:103570000E94024F8BED9EE00E94024F87E99EE081
:103580000E94F448611571058105910549F48BEDA0
:103590009EE00E94F448611571058105910531F0A6
:1035A000EFDC80912D0D882349F3D3CF0E94350F96
:1035B00028960FB6F894DEBF0FBECDBFCF91DF9136
:1035C0001F910F91FF90EF90DF90CF90BF90AF9041
:1035D0000895AF92BF92CF92DF92EF92FF920F9336
:1035E0001F9379018A010E94E6785B016C01C80192
:1035F000B7010E94E6789B01AC01C601B50118DF56
:103600001F910F91FF90EF90DF90CF90BF90AF9000
:1036100008952F923F924F925F926F927F928F9276
:103620009F92AF92BF92CF92DF92EF92FF920F9351
:103630001F93DF93CF93CDB7DEB760970FB6F894A3
:10364000DEBF0FBECDBF86EC95E16EE277E00E9453
:10365000C87386EC95E16EE477E00E942573609173
:103660005D0D70915E0D86EC95E14AE050E00E94A0
:10367000087380915D0D90915E0D029709F0A6C0D0
:103680008BED9EE00E9404491B012C018091450DA9
:103690009091460DAA2797FDA095BA2F280E391EA6
:1036A0004A1E5B1E86EC95E168E677E00E94257372
:1036B00086EC95E1B201A1012AE030E00E94E472BB
:1036C000C201B101A20191010E94E07A3B014C01CB
:1036D000A090390DB0903A0DC0903B0DD0903C0DAC
:1036E000E090410DF090420D0091430D1091440D7A
:1036F000EA0CFB1C0C1D1D1D2091DA0D3091DB0D19
:103700004091DC0D5091DD0D2D873E874F87588B02
:103710008091350D9091360DA091370DB091380DF7
:1037200089879A87AB87BC87281B390B4A0B5B0BB1
:10373000CA01B9010E94E07A6D837E838F839887E6
:10374000C801B701A80197010E94E07AED80FE80D0
:103750000F8118856E0D7F1D801F911F66157705DF
:10376000880599056CF1C601B501A60195010E9475
:10377000E07A5B016C0180913D0D90913E0DA0912E
:103780003F0DB091400D2D853E854F855889E984C8
:10379000FA840B851C852E193F09400B510B281B01
:1037A000390B4A0B5B0BCA01B9010E94E07A6A0D22
:1037B0007B1D8C1D9D1D661677068806990644F4B0
:1037C00086EC95E163E777E00E94C87380E005C16D
:1037D0008D819E81AF81B8858A0D9B1DAC1DBD1D5D
:1037E00086159705A805B9050CF499C086EC95E1F6
:1037F00067E877E00E94C8730091390D10913A0D87
:1038000020913B0D30913C0D09831A832B833C831F
:10381000C901B801A90198010E94E07A9B01AC019D
:10382000C401B301621B730B840B950B0E94E678F5
:103830000E94497A7B018C016091DA0D7091DB0D59
:103840008091DC0D9091DD0D0E94E678A801970132
:103850000E94DF770E94B3785B016C0186EC95E1F2
:1038600068E977E00E942573C201B1010E94E67801
:103870002091D20D3091D30D4091D40D5091D50DA2
:103880000E94DC79AB01BC0186EC95E122E030E0DE
:103890000E94B57386EC95E162EA77E00E94257399
:1038A0006091350D7091360D8091370D9091380DE6
:1038B0000E94E6782091D20D3091D30D4091D40D25
:1038C0005091D50D0E94DC79AB01BC0186EC95E1ED
:1038D00022E030E00E94B57386EC95E16BEA77E078
:1038E0000E9425736091390D70913A0D80913B0DC6
:1038F00090913C0D0E94E6782091D20D3091D30D2D
:103900004091D40D5091D50D0E94DC79AB01BC01E2
:1039100086EC95E122E030E00E94B77330C086EC7F
:1039200095E164EB77E00E94C873A090350DB090EC
:10393000360DC090370DD090380D2091DA0D3091B2
:10394000DB0D4091DC0D5091DD0DC601B501621B10
:10395000730B840B950B2A193B094C095D090E94D6
:10396000E07A660D771D881D991D0E94E6780E94F9
:10397000497A0E94B37869837A838B839C83C601DA
:10398000B5010E94E6783B014C0169817A818B8107
:103990009C810E94E6787B018C01C401B301A801DF
:1039A00097010E94210E5B016C01C401B301A801C3
:1039B00097010E94EA0D7B018C01C601B5010E94AE
:1039C000B3785B016C01C801B7010E94B3789B0119
:1039D000AC01C601B501FDDD81E060960FB6F8943B
:1039E000DEBF0FBECDBFCF91DF911F910F91FF9032
:1039F000EF90DF90CF90BF90AF909F908F907F908F
:103A00006F905F904F903F902F9008952F923F922C
:103A10004F925F926F927F928F929F92AF92BF92DE
:103A2000CF92DF92EF92FF920F931F93DF93CF938A
:103A300000D00F92CDB7DEB73B014C0159016A01AE
:103A4000FA82E982C80162E070E00E940B7B88275D
:103A500077FD8095982F661A770A880A990AA61A20
:103A6000B70AC80AD90A1C821B821801442437FCF1
:103A70004094542C2DC060E070E080E090E0A20102
:103A800091010E9485747B018C0160E070E080E010
:103A900090E0A20191010E9485749B01AC01002776
:103AA000F7FC0095102FE60CF71C081D191D442784
:103AB00037FD4095542F2A0D3B1D4C1D5D1DC8013F
:103AC000B70187DD2B813C812F5F3F4F3C832B83E8
:103AD0008B819C81E981FA81E817F90764F60F90E0
:103AE0000F900F900F90CF91DF911F910F91FF904A
:103AF000EF90DF90CF90BF90AF909F908F907F908E
:103B00006F905F904F903F902F9008952F923F922B
:103B10004F925F926F927F928F929F92AF92BF92DD
:103B2000CF92DF92EF92FF920F931F93DF93CF9389
:103B3000CDB7DEB7EA970FB6F894DEBF0FBECDBFA4
:103B40008091020E882309F4BCC46E010894C11C44
:103B5000D11CC60169E47FE00E94C3778E01085F33
:103B60001F4FC80160E57FE00E94C377C8010E9433
:103B700091124C01A090210DB090220DC8010E941D
:103B8000D5778E01015F1F4FC80167E57FE00E9476
:103B9000C377C8010E949112AA2797FDA095BA2F5A
:103BA0002091210D3091220D442737FD4095542F4F
:103BB000BC01CD010E94E07A7CA76BA7C8010E94DE
:103BC000D5778E010A5E1F4FC801B6010E94C377E8
:103BD000C8010E943713F82EC8010E94D577FF2034
:103BE00069F486EC95E166EC77E00E94257386EC3B
:103BF00095E1B6010E940B74C6016AC4B40188271E
:103C000077FD8095982F9501442737FD4095542FD7
:103C10000E94E07A1B012C017EA76DA786EC95E13E
:103C200061EE77E00E94257340916D0E50916E0E0B
:103C300060916F0E7091700E86EC95E12AE030E095
:103C40000E94A67286EC95E16DEE77E00E942573E6
:103C50004091710E5091720E6091730E7091740EBE
:103C600086EC95E12AE030E00E94E47286EC95E172
:103C700060EF77E00E94257340913D0D50913E0D1D
:103C800060913F0D7091400D86EC95E12AE030E0A7
:103C90000E94A67286EC95E16CEF77E00E94C873F3
:103CA00060913D0D70913E0D80913F0D9091400DC2
:103CB0000E94E6787B018C0160916D0E70916E0E12
:103CC00080916F0E9091700E0E94E6789B01AC017E
:103CD000C801B7010E944B786093490D70934A0D5B
:103CE00080934B0D90934C0D86EC95E16EEF77E051
:103CF0000E9425734091490D50914A0D60914B0DE2
:103D000070914C0D86EC95E122E030E00E94B77393
:103D100086EC95E16EE078E00E94257340913D0DC0
:103D200050913E0D60913F0D7091400D86EC95E1F4
:103D30002AE030E00E94E47286EC95E167E374E0EB
:103D40000E9425736091770E7091780E86EC95E154
:103D50004AE050E00E940873AED860913D0D70912A
:103D60003E0D80913F0D9091400D0E94E67820918C
:103D70004D0D30914E0D40914F0D5091500D0E94C0
:103D8000DC790E94B3785B016C016093410D709304
:103D9000420D8093430D9093440D20913D0D309141
:103DA0003E0D40913F0D5091400D8091350D909109
:103DB000360DA091370DB091380D280F391F4A1FCD
:103DC0005B1F2FA338A749A75AA7E090390DF090A1
:103DD0003A0D00913B0D10913C0DAE0CBF1CC01E66
:103DE000D11ECA01B9010E94E6783B014C01C8010D
:103DF000B7010E94E6789B01AC01C401B3010E94A7
:103E0000EA0D7B018C01C10162E070E00E940B7B36
:103E1000882777FD8095982F0E94E6789B01AC015A
:103E2000C801B7010E94E0776D8F7E8F8F8F98A3B6
:103E30006091390D70913A0D80913B0D90913C0D40
:103E40000E94E6789B01AC01C401B3010E94210EDF
:103E50002D8D3E8D4F8D58A1EBDA0E94071787E913
:103E60009EE00E9404490E94E6786BA37CA38DA388
:103E70009EA38BED9EE00E9404490E94E6781B0100
:103E80002C01C601B501A60195010E94E07A6FA739
:103E900078AB89AB9AAB1AA219A28DA59EA5AA27C9
:103EA00097FDA095BA2F8BAB9CABADABBEAB2BA552
:103EB0003CA5442737FD4095542F2FAB38AF49AF71
:103EC0005AAF6BA17CA18DA19EA1A20191010E947C
:103ED000670D882309F0ADC186EC95E16AE178E0D1
:103EE0000E94C8730E945B176BA97CA98DA99EA92B
:103EF0000E94E6789B01AC016D8D7E8D8F8D98A11F
:103F00000E94E0776D8F7E8F8F8F98A39B01AC010D
:103F10000E94DC795B016C016090DA0D7090DB0D22
:103F20008090DC0D9090DD0D8091350D9091360DD7
:103F3000A091370DB091380DA4019301281B390BC6
:103F40004A0B5B0BCA01B9010E94E07A1B012C01EC
:103F50006FA578A989A99AA9620D731D841D951D65
:103F60000E94E6789B01AC01C601B5010E94D87998
:103F7000181654F12091390D30913A0D40913B0DB6
:103F800050913C0DCA01B9010E94E07A7B018C017D
:103F9000A40193018FA198A5A9A5BAA5281B390B47
:103FA0004A0B5B0BCA01B9010E94E07A6E0D7F1DBE
:103FB000801F911F0E94E6789B01AC01C601B501EC
:103FC0000E944478882364F486EC95E16EE378E0FF
:103FD0000E94C8732D8C3E8C4F8C58A011E01FC1DD
:103FE000C201B1016E0D7F1D801F911F0E94E678F6
:103FF0009B01AC01C601B5010E94447818160CF46F
:104000007FC086EC95E167E877E00E94C873609016
:10401000390D70903A0D80903B0D90903C0DC4018D
:10402000B301A40193010E94E07A0E94E6789B010B
:10403000AC01C601B5010E94DF770E94497A7B017D
:104040008C016091DA0D7091DB0D8091DC0D909107
:10405000DD0D0E94E678A80197010E94DF770E949B
:10406000B3787B018C0186EC95E161E578E00E94F4
:1040700025736091350D7091360D8091370D9091BB
:10408000380D0E94E6782091D20D3091D30D4091E9
:10409000D40D5091D50D0E94DC79AB01BC0186ECAA
:1040A00095E122E030E00E94B57386EC95E16BE685
:1040B00078E00E9425736091390D70913A0D8091DE
:1040C0003B0D90913C0D0E94E6782091D20D3091ED
:1040D000D30D4091D40D5091D50D0E94DC79AB01E8
:1040E000BC0186EC95E122E030E00E94B573C80186
:1040F000B7010E94E6785B016C01C401B30178C08E
:1041000086EC95E164EB77E00E94C873E090350D92
:10411000F090360D0091370D1091380D2091DA0D89
:104120003091DB0D4091DC0D5091DD0D2E193F09D2
:10413000400B510BCA01B9010E94E07A0E94E67857
:104140009B01AC01C601B5010E94DF770E94497A4C
:104150003B014C0186EC95E161E578E00E94257316
:104160006091350D7091360D8091370D9091380D1D
:104170000E94E6782091D20D3091D30D4091D40D5C
:104180005091D50D0E94DC79AB01BC0186EC95E124
:1041900022E030E00E94B57386EC95E16BE678E0B2
:1041A0000E9425736091390D70913A0D80913B0DFD
:1041B00090913C0D0E94E6782091D20D3091D30D64
:1041C0004091D40D5091D50D0E94DC79AB01BC011A
:1041D00086EC95E122E030E00E94B573C801B7019A
:1041E0000E94E6785B016C01C401B3010E94B378C0
:1041F0000E94E6787B018C01C601B501A8019701F8
:104200000E94210E6BA37CA38DA39EA3C601B501C2
:10421000A80197010E94EA0D1B012C0110E068EE35
:1042200073E080E090E00E94386B112309F03EC1FA
:1042300006C086EC95E16FE678E00E94C8736BA13A
:104240007CA18DA19EA1A2019101F2D80E94071725
:10425000A9A1BAA11196BAA3A9A386EC95E168E732
:1042600078E00E94257386EC95E169A17AA14AE085
:1042700050E00E9408736BA17CA18DA19EA1A201B8
:1042800091010E94EC087B018C012BA13CA14DA166
:104290005EA10E94400D5B016C016091350D709133
:1042A000360D8091370D9091380D0E94E6789B0174
:1042B000AC01C801B7010E94DF773B014C0160915E
:1042C000390D70913A0D80913B0D90913C0D0E94FB
:1042D000E6789B01AC01C601B5010E94DF775B0166
:1042E0006C0186EC95E16FE778E00E94257386EC1F
:1042F00095E1B401A30122E030E00E94B57386ECA1
:1043000095E16EE573E00E94257386EC95E1B601B8
:10431000A50122E030E00E94B773E090490DF090D3
:104320004A0D00914B0D10914C0DC401B301A80131
:1043300097010E944B783B014C01C601B501A801D1
:1043400097010E944B787B018C0186EC95E16BE92B
:1043500078E00E94257386EC95E1B401A30122E088
:1043600030E00E94B57386EC95E16EE573E00E9443
:10437000257386EC95E1B801A70122E030E00E94A8
:10438000B773C801B7010E94B3785B016C019B0150
:10439000442737FD4095542F8091710E9091720EF5
:1043A000A091730EB091740E82179307A407B507FE
:1043B000C4F0C401B3010E94B3787B018C019B015E
:1043C000442737FD4095542F80916D0E90916E0ECD
:1043D000A0916F0EB091700E82179307A407B507D6
:1043E0002CF486EC95E16FEB78E064C0C701B50171
:1043F0000E94E40F6091750E7091760E90E04DA5CD
:104400005EA50E94E207E82E6FA978AD89AD9AAD4E
:104410000E94E6783B014C01FF2400E010E0C80157
:10442000B7010E94E47820E030E040E05FE30E94C2
:10443000DC795B016C01C401B30120E030E040E0B5
:104440005FE30E94DC799B01AC016BA17CA18DA193
:104450009EA10E94E0777B018C01C201B101A601FF
:1044600095010E94DF779B01AC01B701C8010E9452
:10447000181AC201B101A60195010E94E0779B01C3
:10448000AC01B701C8010E94181A6BA17CA18DA1D3
:104490009EA1A40193010E94E0776BA37CA38DA34E
:1044A0009EA3A20191010E94181A0BCD86EC95E102
:1044B00069ED78E00E94C8730E945B17CE010196F7
:1044C00007C086EC95E164EE78E00E94C87302C0F4
:1044D0000E94D577EA960FB6F894DEBF0FBECDBF27
:1044E000CF91DF911F910F91FF90EF90DF90CF90D0
:1044F000BF90AF909F908F907F906F905F904F9004
:104500003F902F9008952F923F924F925F926F921B
:104510007F928F929F92AF92BF92CF92DF92EF9253
:10452000FF920F931F93DF93CF93CDB7DEB7E8973A
:104530000FB6F894DEBF0FBECDBF2B013C01EBA23E
:10454000FCA20DA31EA3AFA2B8A6C9A6DAA69CA67C
:104550008BA60E94EC086B8F7C8F8D8F9E8FA301A2
:1045600092010E94400D6F8B788F898F9A8F6BA17B
:104570007CA18DA19EA12FA138A549A55AA50E9475
:10458000EC087B018C012BA13CA14DA15EA10E94F6
:10459000400D5B016C01C801B70120E030E040EA4A
:1045A00051E40E94D87918160CF012C26091DA0D0D
:1045B0007091DB0D8091DC0D9091DD0D64517040A8
:1045C000804090400E94E6786F8F78A389A39AA3D9
:1045D000C801B7012F8D38A149A15AA10E94447882
:1045E00088230CF0F5C1C601B50120E030E040EAB7
:1045F00051E40E94D87918160CF0EAC16091DE0DE2
:104600007091DF0D8091E00D9091E10D645170404B
:10461000804090400E94E6782B013C01C601B50124
:10462000A30192010E94447888230CF0D1C16B8DC4
:104630007C8D8D8D9E8D20E030E040EA51E40E941B
:10464000D87918160CF0C4C16B8D7C8D8D8D9E8D24
:104650002F8D38A149A15AA10E94447888230CF0DB
:10466000B7C16F89788D898D9A8D20E030E040EA5E
:1046700051E40E94D87918160CF0AAC16F89788D80
:10468000898D9A8DA30192010E94447888230CF0B1
:104690009FC110922C0DC801B7012B8D3C8D4D8D03
:1046A0005E8D0E94DF771B012C01C601B5012F89A9
:1046B000388D498D5A8D0E94DF773B014C01C20134
:1046C000B10120E030E040E050E00E94D8791816B7
:1046D0001CF48201710106C08201710117FB109563
:1046E00017F91095C401B30120E030E040E050E03C
:1046F0000E94D87918161CF4A401930103C0A401E8
:1047000093015058C801B7010E94D87918169CF03F
:1047100021E030E03E8B2D8BD401C301B0588DAB2E
:104720009EABAFABB8AFABA5BCA55D01CC24B7FCCD
:10473000C094DC2C4EC021E030E03E8B2D8BD201AA
:10474000C101B05889AB9AABABABBCABABA5BCA5B8
:104750005D01CC24B7FCC094DC2C06C02D893E89B9
:104760002F5F3F4F3E8B2D8BC201B10120E030E027
:1047700040E050E00E94D87918161CF482017101C3
:1047800004C0E9A8FAA80BA91CA9AD89BE89BD017E
:10479000882777FD8095982F0E94E6789B01AC01D1
:1047A000C801B7010E944B787B018C01C601B5019D
:1047B0000E94E6789B01AC01C801B7010E94D8793C
:1047C000181664F234C02D893E892F5F3F4F3E8B0F
:1047D0002D8BC401B30120E030E040E050E00E94A6
:1047E000D87918161CF48401730104C0EDA8FEA842
:1047F0000FA918ADAD89BE89BD01882777FD8095C9
:10480000982F0E94E6789B01AC01C801B7010E9475
:104810004B787B018C01C601B5010E94E6789B01B3
:10482000AC01C801B7010E94D879181664F22D892D
:104830003E895901CC24B7FCC094DC2CC601B501DB
:104840000E94E6787B018C01C201B101A8019701A9
:104850000E944B786D837E838F839887C401B30158
:10486000A80197010E944B7869837A838B839C838C
:1048700010922B0D198A1A8A1B8A1C8A19861A868D
:104880001B861C86ADA6BEA6CFA6D8AA6B8D7C8D36
:104890008D8D9E8D2D813E814F8158850E94E077C0
:1048A0006B8F7C8F8D8F9E8F6F89788D898D9A8D80
:1048B00029813A814B815C810E94E0776F8B788FF0
:1048C000898F9A8F6B8D7C8D8D8D9E8D2F89388DE4
:1048D000498D5A8D0E94210E6D877E878F87988B18
:1048E0006B8D7C8D8D8D9E8D2F89388D498D5A8D48
:1048F0000E94EA0D1B012C0169847A848B849C84BC
:104900008DA59EA5AFA5B8A9680E791E8A1E9B1E0F
:1049100069897A898B899C890E94E6785B016C01A0
:104920006091270D7091280D8091290D90912A0D8D
:1049300020E030E040E850E40E94DC797B018C010B
:10494000C401B301A60195010E944A0E0E94B378EA
:10495000698B7A8B8B8B9C8B0E94E6787B018C0118
:1049600087E99EE0B801A7010E94634B8BED9EE0B2
:10497000B801A7010E94634B6D857E858F8598895C
:10498000A20191010E94181A89859A85AB85BC8580
:104990000197A109B10989879A87AB87BC878D895F
:1049A0009E89A985BA858A0F9B1F892B09F06ECF36
:1049B00011E010932C0D6BA17CA18DA19EA12FA1C4
:1049C00038A549A55AA50E94181A10932B0D06C0A8
:1049D00086EC95E161E179E00E94C8730E94100DB8
:1049E000E8960FB6F894DEBF0FBECDBFCF91DF9132
:1049F0001F910F91FF90EF90DF90CF90BF90AF90FD
:104A00009F908F907F906F905F904F903F902F90EE
:104A100008952F923F924F925F926F927F928F9262
:104A20009F92AF92BF92CF92DF92EF92FF920F933D
:104A30001F93DF93CF93CDB7DEB7A6970FB6F89449
:104A4000DEBF0FBECDBF8091020E882309F401C3E3
:104A5000CE01019669E47FE00E94C3778E01085F72
:104A60001F4FC801BE016F5F7F4F0E94C377C8010F
:104A70000E943713F82EC8010E94D577FF2071F4E9
:104A800086EC95E166EC77E00E94257386EC95E173
:104A9000BE016F5F7F4F0E940B74D6C286EC95E11A
:104AA00061EE77E00E94257340916D0E50916E0E7D
:104AB00060916F0E7091700E86EC95E12AE030E007
:104AC0000E94A67286EC95E16DEE77E00E94257358
:104AD0004091710E5091720E6091730E7091740E30
:104AE00086EC95E12AE030E00E94E47286EC95E1E4
:104AF00060EF77E00E94257340913D0D50913E0D8F
:104B000060913F0D7091400D86EC95E12AE030E018
:104B10000E94A67286EC95E16CEF77E00E94C87364
:104B200060913D0D70913E0D80913F0D9091400D33
:104B300020916D0E30916E0E40916F0E5091700E5F
:104B40000E94407BCA01B9010E94E6786093490D3A
:104B500070934A0D80934B0D90934C0D86EC95E12C
:104B60006EEF77E00E9425734091490D50914A0DF8
:104B700060914B0D70914C0D86EC95E122E030E098
:104B80000E94B77386EC95E16EE078E00E94257391
:104B900040913D0D50913E0D60913F0D7091400D43
:104BA00086EC95E12AE030E00E94E47286EC95E123
:104BB00067E374E00E9425736091770E7091780E20
:104BC00086EC95E14AE050E00E940873E0903D0DCC
:104BD000F0903E0D00913F0D1091400DC801B701BE
:104BE0000E94E67820914D0D30914E0D40914F0D71
:104BF0005091500D0E94DC790E94B3786093410D72
:104C00007093420D8093430D9093440D2090350D89
:104C10003090360D4090370D5090380D2E0C3F1CC3
:104C2000401E511E2091390D30913A0D40913B0D9F
:104C300050913C0D260F371F481F591F2F87388B67
:104C4000498B5A8B86EC95E167E379E00E942573E6
:104C500086EC95E1B201A1012AE030E00E94A67243
:104C600086EC95E16FE379E00E94257386EC95E18F
:104C70004F85588969897A892AE030E00E94E47278
:104C800087E99EE00E9404493B014C018BED9EE0C8
:104C90000E9404496BA37CA38DA39EA36091350D54
:104CA0007091360D8091370D9091380D0E94E67805
:104CB0007B018C016091390D70913A0D80913B0D13
:104CC00090913C0D0E94E6789B01AC01C801B701B0
:104CD0000E94210E7B018C016091350D7091360D83
:104CE0008091370D9091380D0E94E6785B016C0140
:104CF0006091390D70913A0D80913B0D90913C0D72
:104D00000E94E6789B01AC01C601B5010E94EA0D44
:104D10005B016C01C401B3010E94E6783B014C01C8
:104D20006BA17CA18DA19EA10E94E6789B01AC01A4
:104D3000C401B301E4E18E2E912CE5DB87E99EE00E
:104D40000E9404493B014C018BED9EE00E94044906
:104D50006F8F78A389A39AA3C201B1010E94E6785C
:104D60006B8F7C8F8D8F9E8F6091390D70913A0D76
:104D700080913B0D90913C0D0E94E6789B01AC0127
:104D80006B8D7C8D8D8D9E8D0E94210E7B018C0103
:104D90006091390D70913A0D80913B0D90913C0DD1
:104DA0000E94E6789B01AC016B8D7C8D8D8D9E8D74
:104DB0000E94EA0D5B016C01C401B3010E94E67818
:104DC0003B014C016F8D78A189A19AA10E94E678E0
:104DD0009B01AC01C401B301B4E18B2E912C93DB98
:104DE00087E99EE00E9404493B014C018BED9EE067
:104DF0000E9404496F8B788F898F9A8F6F8578898D
:104E000089899A890E94E6781B012C016B8D7C8D23
:104E10008D8D9E8DA20191010E94210E7B018C013E
:104E20006B8D7C8D8D8D9E8DA20191010E94EA0D6E
:104E30005B016C01C401B3010E94E6783B014C01A7
:104E40006F89788D898D9A8D0E94E6789B01AC01DF
:104E5000C401B301A4E18A2E912C55DB87E99EE0C1
:104E60000E9404493B014C018BED9EE00E940449E5
:104E70006B8B7C8B8D8B9E8B6091350D7091360D7D
:104E80008091370D9091380D0E94E678A201910132
:104E90000E94210E7B018C016091350D7091360DC1
:104EA0008091370D9091380D0E94E678A201910112
:104EB0000E94EA0D5B016C01C401B3010E94E67817
:104EC0003B014C016B897C898D899E890E94E67823
:104ED0009B01AC01C401B301F4E18F2E912C13DBD3
:104EE00087E99EE00E9404493B014C018BED9EE066
:104EF0000E9404491B012C016091350D7091360D03
:104F00008091370D9091380D0E94E6787B018C01DD
:104F10006091390D70913A0D80913B0D90913C0D4F
:104F20000E94E6789B01AC01C801B7010E94210EE6
:104F30007B018C016091350D7091360D8091370D9C
:104F40009091380D0E94E6785B016C016091390DFB
:104F500070913A0D80913B0D90913C0D0E94E67846
:104F60009B01AC01C601B5010E94EA0D5B016C0119
:104F7000C401B3010E94E6783B014C01C201B101BA
:104F80000E94E6789B01AC01C401B301E4E18E2EDE
:104F9000912CB9DA87E99EE00E9404493B014C015B
:104FA0008BED9EE00E9404491B012C016091350DA0
:104FB0007091360D8091370D9091380D0E94E678F2
:104FC0007B018C016091390D70913A0D80913B0D00
:104FD00090913C0D0E94E6789B01AC01C801B7019D
:104FE0000E94210E7B018C016091350D7091360D70
:104FF0008091370D9091380D0E94E6785B016C012D
:105000006091390D70913A0D80913B0D90913C0D5E
:105010000E94E6789B01AC01C601B5010E94EA0D31
:105020005B016C01C401B3010E94E6783B014C01B5
:10503000C201B1010E94E6789B01AC01C401B30139
:10504000B4E18B2E912C5FDACE0101960E94D577C8
:1050500006C086EC95E164EE78E00E94C873A696DF
:105060000FB6F894DEBF0FBECDBFCF91DF911F9179
:105070000F91FF90EF90DF90CF90BF90AF909F90F7
:105080008F907F906F905F904F903F902F900895FA
:105090002F923F924F925F926F927F928F929F9248
:1050A000AF92BF92CF92DF92EF92FF920F931F9336
:1050B000DF93CF93CDB7DEB76E970FB6F894DEBF10
:1050C0000FBECDBF6B877C878D879E872F87388BE0
:1050D000498B5A8BEB8AFC8A0D8B1E8BAF8AB88E5C
:1050E000C98EDA8E0F2EF0E06F2EF0E07F2EF0E00A
:1050F0008F2EF0E09F2EF02D1A8219828CAD9DAD7F
:10510000AA2797FDA095BA2F8B8F9C8FAD8FBE8F4E
:1051100060E070E080E89FE3A40193010E94DF77E4
:105120007B018C01A80197010E94DC79AC01CB01C5
:10513000DA018F839887A987BA87C401B301A401D4
:1051400093010E94E077A80197010E94DC796B83AC
:105150007C838D839E83C401B301A40193010E94CB
:10516000DC79AC01CB01DA011C012D01ACADBDAD88
:10517000AB2BB1F06B8D7C8D8D8D9E8D0E94E67872
:105180007B018C0187E99EE0B801A7010E94634B77
:105190008BED9EE0B801A7010E94634B10922B0D8E
:1051A00010922C0D6B857C858D859E850E94E678FE
:1051B0009B01AC016F81788589859A850E94DC7995
:1051C0007B018C016CA97DA98EA99FA90E94E6781C
:1051D0009B01AC016B817C818D819E810E94DC7979
:1051E0009B01AC01C801B7010E94E0777B018C01F3
:1051F0006B897C898D899E890E94E6789B01AC0130
:10520000C201B1010E94DC799B01AC01C801B70168
:105210000E94E0775B016C016F85788989899A89A2
:105220000E94E6789B01AC016F81788589859A851B
:105230000E94DC797B018C0168AD79AD8AAD9BADB4
:105240000E94E6789B01AC016B817C818D819E81FF
:105250000E94DC799B01AC01C801B7010E94E07794
:105260007B018C016F89788D898D9A8D0E94E678FB
:105270009B01AC01C201B1010E94DC799B01AC0130
:10528000C801B7010E94E0779B01AC01C601B501DE
:105290000E94181AB1E0B0932C0DB0932B0DC401ED
:1052A000B3012AE037ED43E25CE30E94E0773B0183
:1052B0004C0189819A8101969A838983853691056B
:1052C00009F026CF6E960FB6F894DEBF0FBECDBFA5
:1052D000CF91DF911F910F91FF90EF90DF90CF90D2
:1052E000BF90AF909F908F907F906F905F904F9006
:1052F0003F902F900895EF92FF920F931F9307E92D
:105300001EE0C8010E94DC4DFBEDEF2EFEE0FF2EFB
:10531000C7010E94DC4D81E080937E0EC8010E948F
:105320000449AB01BC01405E5F4F6F4F7F4FC80126
:105330000E94534FC7010E940449AB01BC01405E6B
:105340005F4F6F4F7F4FC7010E94534FC8010E94AC
:105350000449AB01BC014052504060407040C8015C
:105360000E94534FC7010E940449AB01BC01405247
:10537000504060407040C7010E94534F86EC95E159
:1053800067E479E00E94C8731F910F91FF90EF903E
:105390000895EF92FF920F931F937C0106EC15E1A5
:1053A000C80162EC73E00E948771C801B7010E94D6
:1053B000D973C80164EA73E00E94D2711F910F9102
:1053C000FF90EF900895AF92BF92CF92DF92EF924D
:1053D000FF920F931F93DF93CF93CDB7DEB72E9736
:1053E0000FB6F894DEBF0FBECDBFADB6BEB67E0120
:1053F0000894E11CF11CC70169E47FE00E94C377B7
:105400008E01085F1F4FC80160E57FE00E94C377EF
:10541000C70164E072E00E94DB75882309F057C081
:1054200086EC95E167E579E00E94257386EC95E1CD
:10543000B7010E940B7481E08093030E84E09EE02C
:10544000B7010E94AE77C80164E779E00E94DB757E
:10545000882309F442C0DDB6CEB64D815E814F5F30
:105460005F4F8DB79EB7841B950B0FB6F8949EBF08
:105470000FBE8DBF0DB71EB70F5F1F4FC701B8011D
:1054800020E030E00E948C758BE491E1B8010E942D
:105490000B57882399F086EC95E164EC71E00E944B
:1054A000D2718BE491E1B8010E940157882331F059
:1054B00086EC95E166EB71E00E94D2718D2D9C2DFA
:1054C0009C010FB6F8943EBF0FBE2DBF06C086EC00
:1054D00095E166E779E00E94C873CE0108960E94C4
:1054E000D577CE0101960E94D5770FB6F894BEBE4F
:1054F0000FBEADBE2E960FB6F894DEBF0FBECDBF69
:10550000CF91DF911F910F91FF90EF90DF90CF909F
:10551000BF90AF9008950F931F93AB01BC014093D0
:10552000270D5093280D6093290D70932A0D87E95C
:105530009EE00E94334E4091270D5091280D6091BE
:10554000290D70912A0D8BED9EE00E94334E06ECE2
:1055500015E1C80166E172E00E9487714091270D54
:105560005091280D6091290D70912A0DC80122E0FB
:1055700030E00E94B7731F910F910895CF92DF9290
:10558000EF92FF920F931F937C018B01A8E4CA2E28
:10559000A1E1DA2EC601B701F80140810E947B52D9
:1055A0000894E11CF11CC601B701F80141810E9479
:1055B0007B5282E090E01F910F91FF90EF90DF907F
:1055C000CF9008950F931F93AB01BC014093230D1F
:1055D0005093240D6093250D7093260D87E99EE06E
:1055E0000E940E4B4091230D5091240D6091250D8A
:1055F0007091260D8BED9EE00E940E4B06EC15E19E
:10560000C80169E272E00E9487714091230D5091B8
:10561000240D6091250D7091260DC80122E030E027
:105620000E94B7731F910F910895CF92DF92EF926E
:10563000FF920F931F937C018B01B8E4CB2EB1E155
:10564000DB2EC601B7010E947452F80180830894D2
:10565000E11CF11CC601B7010E947452F80181835C
:1056600082E090E01F910F91FF90EF90DF90CF903C
:10567000089582E190E061E27DE0D7DF8091210D25
:105680009091220D1816190644F08091680D9091A2
:10569000690D9093220D8093210D86EC95E165EFC5
:1056A00072E00E9487716091210D7091220D86EC4D
:1056B00095E14AE050E00C94087382E290E066E6DF
:1056C0007DE0B3DF8091660D9091670D97FF06C076
:1056D0008AE590E09093670D8093660D86EC95E1E6
:1056E00067E373E00E9487716091660D7091670DAA
:1056F00086EC95E14AE050E00E94087384E290E075
:1057000061EB70E192DF8091B1109091B21097FF40
:1057100004C01092B2101092B11086EC95E168E2CC
:1057200073E00E9487716091B1107091B21086ECA5
:1057300095E14AE050E00C9408730F931F93DF93B8
:10574000CF93CDB7DEB762970FB6F894DEBF0FBE2A
:10575000CDBF8E010B5F1F4FC80169E47FE00E943F
:10576000C377C8010E9491129A838983C8010E945D
:10577000D5778E01045F1F4FC80160E57FE00E946E
:10578000C377C8010E9491129C838B83C8010E9439
:10579000D57786EC95E16EE372E00E9487716981AE
:1057A0007A8186EC95E14AE050E00E94087386EC2D
:1057B00095E169E372E00E9487716B817C8186ECE0
:1057C00095E14AE050E00E9408738091E80D9091C5
:1057D000E90D8430910571F482E290E0BE016F5FC3
:1057E0007F4FCCDE84E290E0BE016D5F7F4FC6DE6E
:1057F00064DF3AC00397C1F56B817C8189819A810E
:1058000043E050E00E94BD1668EC70E080E090E05C
:105810000E94386B69817A818B819C8143E050E0E2
:105820000E94BD1668EC70E080E090E00E94386B4A
:105830006B817C8189819A8143E050E00E94BD1692
:1058400068EC70E080E090E00E94386B69817A81BA
:105850008B819C8143E050E00E94BD1668EC70E0B3
:1058600080E090E00E94386B62960FB6F894DEBF3D
:105870000FBECDBFCF91DF911F910F91089580E0B2
:1058800090E061E57DE0D1DE8091510D9091520D67
:105890001816190644F080916E0D90916F0D90933B
:1058A000520D8093510D86EC95E16EE873E00E94F5
:1058B00087716091510D7091520D86EC95E14AE02F
:1058C00050E00E94087382E090E063E57DE0ADDE89
:1058D0008091530D9091540D1816190644F0809143
:1058E000700D9091710D9093540D8093530D86EC33
:1058F00095E167E773E00E9487716091530D7091A5
:10590000540D86EC95E14AE050E00C9408730F9337
:105910001F93DF93CF93CDB7DEB764970FB6F8949C
:10592000DEBF0FBECDBF8E01095F1F4FC80169E406
:105930007FE00E94C377C8010E9491129A838983F5
:10594000C8010E94D5778E01025F1F4FC80160E534
:105950007FE00E94C377C8010E9491129C838B83D1
:10596000C8010E94D57789819A819E838D8380E0CA
:1059700090E0BE016B5F7F4F58DE29813A818D81B7
:105980009E818217930749F02B30310534F080E077
:1059900090E0BE016F5F7F4FF1DD82E090E0BE01DD
:1059A0006B5F7F4F42DE2B813C818D819E81821710
:1059B000930749F02B30310534F082E090E0BE01CE
:1059C0006D5F7F4FDBDD5BDF64960FB6F894DEBF63
:1059D0000FBECDBFCF91DF911F910F910895EF9230
:1059E000FF920F931F93CF93DF93AC01EB0114E071
:1059F000E12EF12CE60EF71E8A010F5F1F4F88E49F
:105A000091E1BA010E9474528993A801CE15DF0575
:105A100099F784E090E0DF91CF911F910F91FF9073
:105A2000EF90089584E190E063E27DE0D8DF60913B
:105A3000230D7091240D8091250D9091260D0E94CB
:105A4000B3781616170664F080E090E0A8E4B4E49A
:105A50008093230D9093240DA093250DB093260DD4
:105A600086E190E067E27DE0BADF6091270D7091FA
:105A7000280D8091290D90912A0D0E94B378161659
:105A8000170664F080E090E0A8E4B4E48093270D6A
:105A90009093280DA093290DB0932A0D08958EE0C0
:105AA00090E06DE17DE09BDF60911D0D70911E0D1A
:105AB00080911F0D9091200D20E030E040E85FE3E1
:105AC0000E944478882394F460916A0D70916B0D64
:105AD000882777FD8095982F0E94E67860931D0DAA
