:10000000C2C20000EDC20000EBC20000E9C2000065
:10001000E7C20000E5C20000E3C20000E1C2000048
:10002000DFC20000DDC20000DBC20000D9C2000058
:10003000D7C20000D5C20000D3C20000D1C2000068
:10004000CFC200000C944455CBC20000C9C20000CE
:10005000C7C20000C5C20000C3C200000C94B96D45
:10006000BFC200000C94E06F0C940871B9C200008C
:10007000B7C20000B5C20000B3C20000B1C20000A8
:100080000C941755ADC20000ABC20000A9C200001D
:100090000C9419700C944771A3C20000A1C2000017
:1000A0009FC200009DC200000C94EA5499C2000057
:1000B00097C2000095C2000093C200000C94BD548A
:1000C0008FC200008DC200008BC200000C945270E1
:1000D0000C94867185C200000C948B700C94C571D1
:1000E0007FC2000005A84CCDB2D44EB93836A90263
:1000F0000C50B9918688083CA6AAAA2ABE00000026
:10010000803F000000006410B71DC8206E3BAC307B
:10011000D9269041DC76F4516B6B5861B24D3C713D
:1001200005502083B8ED44930FF0E8A3D6D68CB3E6
:1001300061CBB0C2649BD4D2D38678E20AA01CF211
:10014000BDBD50424D20696D616765206D7573744A
:10015000206265206174206C6561737420313020E9
:10016000706978656C7320776964652E002C206D4A
:1001700061782064656E736974793A20002C207070
:10018000656E2077696474683A200050656E7769FF
:10019000647468207465737420004368616E6769D5
:1001A0006E67206261636B20746F206C69766520D6
:1001B0006D6F64652E0046696C652072656D6F76A3
:1001C00065642E0046696C6520616C7265616479B6
:1001D000206578697374732E00457865637574695A
:1001E0006E6720636F6D6D616E643A0053746F7259
:1001F000696E6720636F6D6D616E643A006D6D00AE
:100200004368616E6765642050656E207769647429
:100210006820746F20004E657720616363656C65AC
:10022000726174696F6E3A20004E6577206D617857
:100230002073706565643A200055703A2000446F61
:10024000776E3A2000504753504545442C005047A4
:100250004C4946542C005047535445504D554C542E
:1002600049504C4945522C00504753544550535027
:1002700045525245562C0050474D4D50455252451F
:10028000562C00504753495A452C0050474E414D7B
:10029000452C002900526563616C632070616765BD
:1002A00048656967687420696E207374657073208F
:1002B00028002900526563616C632070616765578F
:1002C0006964746820696E207374657073202800F7
:1002D0002900292C2073746570735065724D4D2070
:1002E0002800526563616C63206D6D5065725374B4
:1002F00065702028004C6F61646564206D6F746FB9
:10030000722073746570206D756C7469706C6965AA
:10031000723A004C6F61646564206D616368696E58
:1003200065206E616D653A004C6F6164656420758F
:100330007020706F733A004C6F6164656420646F65
:10034000776E20706F733A004C6F61646564206D46
:100350006F746F7220737465707320706572207291
:1003600065763A004C6F61646564206D6D20706540
:1003700072207265763A004C6F61646564206D612D
:100380006368696E65206865696768743A004C6FD8
:1003900061646564206D616368696E652077696476
:1003A00074683A002069736E2774206120636F6D52
:1003B0006D616E642049207265636F676E69736555
:1003C0002E00536F7272792C200029206E6F7420DA
:1003D0007061727365642E00436F6D6D616E642091
:1003E0002800436865636B73756D206E6F74206DB4
:1003F000617463686564213A004920676F74200066
:100400007600504F4C41524752415048204F4E21A8
:10041000007C3C3E5E2B3D3F2F5B5D3B2C2A225CEB
:100420000000002100240027002A002D00300033A6
:100430000001010000040107010A0100002200255B
:100440000028002B002E00310034000201000005BE
:100450000108010B01000020002300260029002CC8
:10046000002F003200000100000301060109010510
:10047000050505070508080808020202020A0A081D
:100480000804040404010101010101010103030343
:100490000303030303040707070C0C0C0C0C0C0CE0
:1004A0000C0202020206060606060606060B0B0BE7
:1004B0000B0B0B0B0B010210202008081020401022
:1004C0002040800201020108040201010204081018
:1004D0002040808040201008040201800402018036
:1004E000402010080402010804020101020408105F
:1004F00020408001020408102040800000090A0208
:10050000080B0C0D070603040100000000000000AA
:1005100000000000000000000000000000000000DB
:100520000000000000000011100F0000000000009B
:1005300000000000000000000000000000000000BB
:1005400000494E46494E4954594E414ECDCCCC3DC2
:100550000AD7233C17B7D13877CC2B329595E624B0
:100560001FB14F0A000020410000C84200401C4655
:1005700020BCBE4CCA1B0E5AAEC59D74E60C8455F9
:1005800020592F73E10C11241FBECFEFD1E2DEBF43
:10059000CDBF00E00CBF1EE0A0E0B2E0E0E8FDEF60
:1005A00000E00BBF02C007900D92AC35B107D9F740
:1005B0001BBE16E1ACE5BEE001C01D92AB3FB1072A
:1005C000E1F715E0C4E8D5E004C02297FE010E94DF
:1005D0006E7ECC37D107C9F70E944D740C94B47E5F
:1005E0000FCDCF93DF93BC018230910510F462E010
:1005F00070E0A091F716B091F816ED01E0E0F0E0A0
:1006000040E050E021C0888199818617970769F4FE
:100610008A819B81309719F09383828304C09093E1
:10062000F8168093F716FE0134C06817790738F47E
:100630004115510519F08417950708F4AC01FE0126
:100640008A819B819C01E9012097E9F641155105BA
:10065000A9F1CA01861B970B049708F4BA01E0E0E0
:10066000F0E02AC08D919C91119784179507F9F4B9
:100670006417750781F412968D919C9113973097AA
:1006800019F09383828304C09093F8168093F71631
:10069000FD0132964CC0CA01861B970BFD01E80F85
:1006A000F91F6193719302978D939C9340C0FD0154
:1006B000828193819C01D9011097A1F68091F51652
:1006C0009091F616892B41F48091A60D9091A70D7B
:1006D0009093F6168093F5164091A80D5091A90DB0
:1006E0004115510541F44DB75EB78091A40D90912D
:1006F000A50D481B590B2091F5163091F616CA012D
:10070000821B930B8617970780F0AB014E5F5F4FFC
:100710008417950750F0420F531F5093F6164093DD
:10072000F516F9016193719302C0E0E0F0E0CF01AA
:10073000DF91CF910895CF93DF93009709F450C0D4
:10074000EC0122971B821A82A091F716B091F8163D
:10075000109709F140E050E0AC17BD0708F1BB83EA
:10076000AA83FE0121913191E20FF31FAE17BF075B
:1007700079F48D919C911197280F391F2E5F3F4F6F
:100780003983288312968D919C9113979B838A833A
:100790004115510571F4D093F816C093F71620C097
:1007A00012968D919C911397AD01009711F0DC0189
:1007B000D3CFFA01D383C28321913191E20FF31F8A
:1007C000CE17DF0769F488819981280F391F2E5FC2
:1007D0003F4FFA01318320838A819B8193838283F7
:1007E000DF91CF910895A0E0B0E0E9EFF3E00C9441
:1007F000857EEC01A880B980CA80DB80A114B10499
:10080000C104D10441F484E2A82E89EDB82E8BE511
:10081000C82E87E0D82EC601B5012DE133EF41E0A7
:1008200050E00E943D7E27EA31E440E050E00E9423
:10083000DD7D7B018C01C601B5012DE133EF41E087
:1008400050E00E943D7ECA01B9012CEE34EF4FEF1B
:100850005FEF0E94DD7D6E0D7F1D801F911F97FF52
:1008600004C06150704080409048688379838A83D7
:100870009B839B01AC015F77B901CA01CDB7DEB79D
:10088000EAE00C94A17EAFCF8AEA9DE0ACCF609302
:10089000AA0D7093AB0D8093AC0D9093AD0D0895A0
:1008A000A0E0B0E0E6E5F4E00C947F7E6C010097F8
:1008B00021F4CB0196DE6C01BDC08EEF882E8FEF48
:1008C000982E8C0C9D1C8601060F171F0815190504
:1008D00008F4AEC0F401A081B181A617B707B0F04B
:1008E000A530B10508F4A6C0CD0104978617970777
:1008F00008F4A0C01297A61BB70BF801A193B193FF
:10090000D4016D937C93CF0116DF94C07B01EA1A6A
:10091000FB0AEEEFFFEFEE0EFF1E36016A0E7B1EA6
:10092000C091F716D091F81644245524AA24BB246C
:100930004AC0C615D705E1F5488159814E155F05B6
:10094000B8F1CA0104978E159F05B0F41296A40F52
:10095000B51FF401B183A0832A813B814114510466
:1009600031F0D20113963C932E93129763C03093CB
:10097000F8162093F7165EC08A819B81F801938355
:100980008283425050404E195F0951834083411485
:10099000510431F0D20113961C930E93129704C0A8
:1009A0001093F8160093F716F4017183608342C028
:1009B00088819981A816B90608F45C012E018A8104
:1009C0009B819C01E901209709F0B3CF8091F51636
:1009D0009091F61686159705E9F4A616B706D0F499
:1009E0002091A80D3091A90D2115310541F42DB7A5
:1009F0003EB78091A40D9091A50D281B390B0217CD
:100A00001307B0F41093F6160093F516D4016D9306
:100A10007C9310C0CB01E5DDEC01009749F0F401B7
:100A200040815181B6015FD0C60185DE6E0102C0F2
:100A3000CC24DD24C601CDB7DEB7E0E10C949B7E6B
:100A400066277727C8C0FC0188279927E894219159
:100A50002032E9F3293010F02E30C8F32B3239F070
:100A60002D3231F4689403C0AED0820F911D2191D4
:100A700020532A30C8F31EF4909581959F4F089516
:100A80001F93FC0199278827BC01E894119110322B
:100A9000E9F3193010F01E30C8F31B3249F01D3253
:100AA00041F4689405C07AD0610F711D811D911DBC
:100AB000119110531A30B8F33EF4909580957095CB
:100AC00061957F4F8F4F9F4F1F910895FB01DC0170
:100AD00004C08D910190801921F441505040C8F715
:100AE000881B990B0895FB01DC0102C001900D9257
:100AF00041505040D8F70895FC018191861721F0AC
:100B00008823D9F7992708953197CF010895FB01DC
:100B1000DC018D91019080190110D9F3990B089592
:100B2000FB01DC0101900D920020E1F70895FB012B
:100B3000DC014150504030F08D910190801919F442
:100B40000020B9F7881B990B0895FB01DC01415087
:100B5000504048F001900D920020C9F701C01D924D
:100B600041505040E0F70895FB0151915523A9F001
:100B7000BF01DC014D9145174111E1F759F4CD0159
:100B80000190002049F04D9140154111C9F3FB013E
:100B90004111EFCF81E090E001970895592F482F40
:100BA000372F262F660F771F881F991F660F771F15
:100BB000881F991F620F731F841F951F660F771F71
:100BC000881F991F08957AE0979F902D879F802D09
:100BD000910D11240895A0E0B0E0E1EFF5E00C9450
:100BE000837EEC015B016115710519F0FB019183B6
:100BF0008083F9908F2D90E00E94727E892BC9F737
:100C0000FDE2FF1621F4F990EE24E39405C02BE2F7
:100C1000F21609F4F990EE248E0101501040C8013B
:100C200061E475E043E050E033D1892BF9F48E01A3
:100C30000E5F1F4FC80164E475E045E050E028D125
:100C4000892B19F48E01095F1F4FA114B10419F00B
:100C5000F50111830083E0FC04C070E090E080E8BF
:100C600013C070E090E080E86FEF07C1C80169E44D
:100C700075E043E050E00CD1892B69F4A114B10474
:100C800029F470E090E080EC6FE7F7C02296F50160
:100C9000D183C083F6CF8824992440E050E060E0FF
:100CA00070E0EF2DE053EA30A0F5F2E0EF2A8E2D50
:100CB00090E09C0128703070E2FE06C0232B79F58D
:100CC0000894811C911C2BC0232B19F008948108D7
:100CD0009108DB01CA0112E0880F991FAA1FBB1FF0
:100CE0001A95D1F7480F591F6A1F7B1F440F551FD4
:100CF000661F771F4E0F511D611D711D483929E96F
:100D0000520729E9620729E1720748F084E0E82ADE
:100D100006C0EE3F31F4E3FC39C098E0E92AF990CF
:100D2000C0CFE53311F0E53189F529912D3219F461
:100D3000E0E1EE2A05C02B3219F081E090E003C01B
:100D4000299182E090E0E22FE053EA3018F0C81BCE
:100D5000D90B1CC020E030E0FCE020383F075CF4F9
:100D6000C901880F991F880F991F280F391F220F5B
:100D7000331F2E0F311DE991E053EA3068F3E4FE92
:100D800003C0309521953F4F820E931ECE2CDD245B
:100D9000E1FE07C0A114B10421F02197F501D18330
:100DA000C083CB01BA010E94E17B7B018C01F3E09F
:100DB000CF22DD2423E0C216D10421F417FB1095C5
:100DC00017F9109557016801C801B70120E030E01C
:100DD00040E050E00E94417B882309F44AC097FE1E
:100DE0000DC020E6E22E25E0F22E90948194910829
:100DF0009394C0E2D0E000E010E012C098E7E92E42
:100E000095E0F92EF6CFF701259135914591549152
:100E1000C601B5010E94D97C5B016C018C1A9D0A48
:100E20008C169D0684F7D595C7950F5F1F4F06302A
:100E3000110529F08CEF9FEFE80EF91EF1CFC501E7
:100E4000D6017C018D018C2D880F8D2D881F8F3F41
:100E500051F0C601B50120E030E040E050E00E94D2
:100E6000417B882331F482E290E09093FA168093DC
:100E7000F9167E2D9F2D802F612F272F392F482F78
:100E8000562FB901CA01CDB7DEB7ECE00C949F7EB6
:100E9000FB01DC014150504088F08D9181341CF001
:100EA0008B350CF4805E659161341CF06B350CF46D
:100EB000605E861B611171F3990B0895881BFCCF4E
:100EC000AF92BF92CF92DF92EF92FF920F931F9358
:100ED0006E157F058007910734F42E153F054007F6
:100EE000510764F42CC0E616F7060807190794F4B6
:100EF000A216B306C406D5063CF423C0A216B30658
:100F0000C406D506BCF41FC02A153B054C055D057B
:100F1000C4F41BC06E157F058007910791F42A1554
:100F20003B054C055D058CF0A216B306C406D5063C
:100F300044F409C02A153B054C055D0511F484E015
:100F400005C082E003C083E001C081E01F910F91E2
:100F5000FF90EF90DF90CF90BF90AF900895EF9209
:100F6000FF920F931F937B018C01662757FD6095BD
:100F7000762FCB01BA010E94E37B2091680E30915D
:100F8000690E40916A0E50916B0E0E94D97CA801A7
:100F900097010E94487B7B018C0120E030E040E01B
:100FA00050E40E94D57C87FF03C061E070E004C07C
:100FB000C801B7010E94B07BCB011F910F91FF9038
:100FC000EF9008956F927F928F929F92AF92BF920F
:100FD000CF92DF92EF92FF920F931F93CF93DF9305
:100FE0007C015B01662757FD6095762FCB01BA0126
:100FF0000E94E37B3B014C010027F7FC0095102F7A
:10100000C801B7010E94E37B7B018C01CC24B7FCB3
:10101000C094DC2CC601B5010E94E37B9B01AC01AE
:10102000C801B7010E94487BA40193010E94D97CAA
:101030009B01AC01C401B3010E94DC7A7B018C01ED
:101040000E94B07BEB01BE01882777FD8095982F29
:101050000E94E37B9B01AC01C801B7010E94DC7ACE
:1010600020E030E040E05FE30E94D57C18160CF4ED
:101070002196CE01DF91CF911F910F91FF90EF90BC
:10108000DF90CF90BF90AF909F908F907F906F90A8
:101090000895CF92DF92EF92FF920F931F93CF9319
:1010A000DF93EC016B01688179818A819B812091BA
:1010B000EC0D3091ED0D4091EE0D5091EF0D0E9431
:1010C000D97C688379838A839B83F60160817181EF
:1010D000828193812091F00D3091F10D4091F20DBC
:1010E0005091F30D0E94D97C7B018C01F601608345
:1010F0007183828393832091591130915A11C901D0
:101100008E978A35910580F4288139814A815B81E7
:10111000D801C701B05888839983AA83BB832083F1
:1011200031834283538329C0C901885890408A354E
:10113000910580F488819981AA81BB81B058888308
:101140009983AA83BB83F60180819181A281B381B7
:10115000B0580FC0225E30402A35310570F48881C6
:101160009981AA81BB81E882F9820A831B83B058E6
:10117000F60180839183A283B383688179818A8118
:101180009B8120915B1130915C1140915D115091D8
:101190005E110E94DD7A688379838A839B83F601DE
:1011A000608171818281938120915F113091601102
:1011B00040916111509162110E94DD7AF6016083C5
:1011C000718382839383DF91CF911F910F91FF9061
:1011D000EF90DF90CF9008952F923F924F925F92C1
:1011E0006F927F928F929F92AF92BF92CF92DF9237
:1011F000EF92FF920F931F931B012C0139014A01BB
:10120000E090700EF090710E0091720E1091730EBE
:10121000C801B701A80197010E94DD7D0E94E37B10
:101220005B016C01C401B301A40193010E94D97C4C
:101230009B01AC01C601B5010E94DC7A5B016C0127
:10124000C201B101A20191010E94D97C9B01AC01B4
:10125000C601B5010E94DD7A5B016C01EE0CFF1C3A
:10126000001F111FC801B7010E94E37B9B01AC0165
:10127000C601B5010E94487B1F910F91FF90EF902E
:10128000DF90CF90BF90AF909F908F907F906F90A6
:101290005F904F903F902F9008950F931F93CF939F
:1012A000DF93242F2627A22FB0E0AF70B070AA0FD3
:1012B000BB1FAA0FBB1FC2E0D1E0AC0FBD1FFD01D9
:1012C0000591159125913491E4E096958795779550
:1012D0006795EA95D1F706271727282739274295DA
:1012E0004F70402750E04F705070440F551F440F0F
:1012F000551F4C0F5D1FFA0185919591A591B491F1
:1013000044E036952795179507954A95D1F7082714
:1013100019272A273B27B801C901DF91CF911F91D7
:101320000F910895EF92FF920F931F9381309105D3
:1013300009F03BC26F5F7F4F09F03EC383EC9FE033
:1013400060E072E00E942B7A8DE59EE00E94595287
:1013500081E69EE065E072E00E942B7A8AEC9FE0D5
:1013600066E072E00E942B7A6091B40D7091B50D29
:10137000882777FD8095982F2091AE0D3091AF0D85
:10138000442737FD4095542F0E94DD7D0E94E37B6A
:101390007B018C016091B00D7091B10D8091B20D07
:1013A0009091B30DA80197010E94487B6093680E4D
:1013B0007093690E80936A0E90936B0EC801B7010B
:1013C0002091B00D3091B10D4091B20D5091B30DFF
:1013D0000E94487B7B018C0160936C0E70936D0EB4
:1013E00080936E0E90936F0E6091E80D7091E90DF1
:1013F000882777FD8095982F0E94E37BA8019701AD
:101400000E94D97C0E94B07B6093700E7093710E25
:101410008093720E9093730E6091EA0D7091EB0DB4
:10142000882777FD8095982F0E94E37BA80197017C
:101430000E94D97C0E94B07B6093740E7093750EED
:101440008093760E9093770E81ED9FE06FE072E0CF
:101450000E942B7A88ED9FE061E172E00E942B7A76
:101460008FED9FE065E172E00E942B7A86EE9FE0AF
:101470006DE172E00E942B7A8DEE9FE060E572E0F4
:101480000E942B7A84EF9FE060E572E00E942B7A45
:101490008BEF9FE060E572E00E942B7A82E090E1A2
:1014A00060E572E00E942B7A89E090E16FE572E0DE
:1014B0000E942B7A80E190E169E672E00E942B7A2B
:1014C00087E190E160E772E00E942B7A8EE190E183
:1014D00068E772E00E942B7A85E290E163E872E0AF
:1014E0000E942B7A8CE290E169E070E10E94C07A60
:1014F00088E89EE065E072E00E942B7A83E390E149
:1015000069E872E00E942B7A8AE390E16BE872E06E
:101510000E942B7A81E490E160E972E00E942B7ACC
:1015200088E490E164E972E00E942B7A8FE490E114
:1015300068E972E00E942B7A86E590E16CE972E03E
:101540000E942B7A8DE590E160EA72E00E942B7A8E
:1015500084E690E164EA72E00E942B7A8BE690E1E7
:1015600068EA72E00E942B7A82E790E16CEA72E00E
:101570000E942B7A89E790E160EB72E00E942B7A5F
:1015800080E890E164EB72E00E942B7A87E890E1BA
:1015900068EB72E00E942B7A8EE890E16CEB72E0CF
:1015A0000E942B7A85E990E160EC72E00E942B7A30
:1015B0008CE990E164EC72E00E942B7A83EA90E17E
:1015C00068EC72E00E942B7A8AEA90E16CEC72E09F
:1015D0000E942B7A81EB90E160ED72E00E942B7A01
:1015E00088EB90E164ED72E00E942B7A8FEB90E142
:1015F00068ED72E00E942B7A86EC90E16CED72E06F
:101600000E942B7A8DEC90E160EE72E00E942B7AC2
:1016100084ED90E164EE72E00E942B7A8BED90E114
:1016200068EE72E00E942B7A82EE90E16CEE72E03E
:101630000E942B7A89EE90E160EF72E00E942B7A93
:1016400080EF90E164EF72E00E942B7A87EF90E1E7
:1016500068EF72E00E942B7A8EEF90E16CEF72E0FF
:101660000E942B7A85E091E160E073E00E942B7A82
:101670008CE091E164E073E00E942B7A83E191E1D8
:1016800068E073E00E942B7A8AE191E16CE073E0FC
:101690000E942B7A81E291E160E173E00E942B7A53
:1016A00088E291E164E173E00E942B7A8FE291E19C
:1016B00068E173E00E942B7A86E391E16CE173E0CC
:1016C0000E942B7A8DE391E160E273E00E942B7A15
:1016D00084E491E164E273E00E942B7A8BE491E16F
:1016E00068E273E00E942B7A82E591E16CE273E09C
:1016F0000E942B7A81E99EE065E072E00E942B7ADD
:101700008AE99EE065E072E00E942B7A1092A60EB4
:101710001092A70E1092AA0E1092AC0E82E090E0EA
:10172000A0E0B0E08093AD0E9093AE0EA093AF0E0C
:10173000B093B00E1092C40E1092CE0E1092CD0E39
:1017400088E49EE09093CC0E8093CB0E1092D00E46
:1017500088EE9EE00E948A5783E09FE065E072E099
:101760000E942B7A6091AE0D7091AF0D83E29FE0E5
:1017700041E00E9421576091AE0D7091AF0D8FE254
:101780009FE042E00E9421578BE39FE06AE177E30C
:1017900044E157E30E94A44D8FE79FE06EE077E3BA
:1017A00048E057E30E94A44D07C1892B09F004C10A
:1017B0006F5F7F4F09F000C183E09FE00E94D27A03
:1017C00088EE9EE00E949D578AE99EE00E94D27AB0
:1017D00081E99EE00E94D27A82E591E10E94D27A6C
:1017E0008BE491E10E94D27A84E491E10E94D27A62
:1017F0008DE391E10E94D27A86E391E10E94D27A50
:101800008FE291E10E94D27A88E291E10E94D27A3D
:1018100081E291E10E94D27A8AE191E10E94D27A3A
:1018200083E191E10E94D27A8CE091E10E94D27A28
:1018300085E091E10E94D27A8EEF90E10E94D27A07
:1018400087EF90E10E94D27A80EF90E10E94D27AF5
:1018500089EE90E10E94D27A82EE90E10E94D27AE3
:101860008BED90E10E94D27A84ED90E10E94D27AD1
:101870008DEC90E10E94D27A86EC90E10E94D27ABF
:101880008FEB90E10E94D27A88EB90E10E94D27AAD
:1018900081EB90E10E94D27A8AEA90E10E94D27AAA
:1018A00083EA90E10E94D27A8CE990E10E94D27A98
:1018B00085E990E10E94D27A8EE890E10E94D27A86
:1018C00087E890E10E94D27A80E890E10E94D27A83
:1018D00089E790E10E94D27A82E790E10E94D27A71
:1018E0008BE690E10E94D27A84E690E10E94D27A5F
:1018F0008DE590E10E94D27A86E590E10E94D27A4D
:101900008FE490E10E94D27A88E490E10E94D27A3A
:1019100081E490E10E94D27A8AE390E10E94D27A37
:1019200083E390E10E94D27A88E89EE00E94D27A16
:101930008CE290E10E94D27A85E290E10E94D27A14
:101940008EE190E10E94D27A87E190E10E94D27A02
:1019500080E190E10E94D27A89E090E10E94D27AFF
:1019600082E090E10E94D27A8BEF9FE00E94D27ACF
:1019700084EF9FE00E94D27A8DEE9FE00E94D27A9F
:1019800086EE9FE00E94D27A8FED9FE00E94D27A8D
:1019900088ED9FE00E94D27A81ED9FE00E94D27A8A
:1019A0008AEC9FE00E94D27A81E69EE00E94D27A81
:1019B00083EC9FE00E94D27A1F910F91FF90EF90ED
:1019C000089580E090E06FEF7FEFACCC81E090E095
:1019D0006FEF7FEFA7CCCF92DF92EF92FF920F9342
:1019E0001F93CF93DF936C01EE24EA94FE2C8701C2
:1019F000C0E0D0E00BC0C601BE010E949F77482F17
:101A0000C801B7014ADC7B018C012196F601848173
:101A10009581C817D90778F3A801970120953095CB
:101A200040955095B901CA01DF91CF911F910F9157
:101A3000FF90EF90DF90CF9008950F931F9384E075
:101A400090E00E94F1028C010E949B032DB73EB7EB
:101A5000201B310BC9011F910F910895EEDF9C01EE
:101A600080917C0E90917D0E28173907D1F030932C
:101A70007D0E20937C0E88E796E16FED7FE00E945B
:101A8000D67660917C0E70917D0E88E796E14AE0F3
:101A900050E00E94F37588E796E16AE370E10C94E8
:101AA0000877089588E796E160E170E10C94087783
:101AB00088E796E169E070E10C940877AF92BF92F5
:101AC000CF92DF92EF92FF920F931F937B018C01D5
:101AD000CA01B9010E94D97C5B016C01C801B70140
:101AE000A80197010E94D97C9B01AC01C601B501F8
:101AF0000E94DC7A0E94467D1F910F91FF90EF902B
:101B0000DF90CF90BF90AF9008956F927F928F92A9
:101B10009F92AF92BF92CF92DF92EF92FF920F937C
:101B20001F937B018C0158DB5B016C01A8019701BD
:101B3000C5DF3B014C01E090C80DF090C90D00914C
:101B4000CA0D1091CB0DC801B7010E94E37B9B0128
:101B5000AC01C601B5010E94417B87FD4AC080915E
:101B6000D00D9091D10DA091D20DB091D30DE80E72
:101B7000F91E0A1F1B1FC801B7010E94E37B9B01CE
:101B8000AC01C601B5010E94D57C181694F1E09015
:101B9000CC0DF090CD0D0091CE0D1091CF0DC80160
:101BA000B7010E94E37B9B01AC01C401B3010E9419
:101BB000417B87FD1EC0DD248091D40D9091D50D11
:101BC000A091D60DB091D70DE80EF91E0A1F1B1F6C
:101BD000C801B7010E94E37B9B01AC01C401B301C2
:101BE0000E94D57C181614F4DD24D39481E0D82605
:101BF00001C0DD248D2D1F910F91FF90EF90DF909C
:101C0000CF90BF90AF909F908F907F906F900895EE
:101C1000AF92BF92CF92DF92EF92FF920F931F93FA
:101C20007B018C0159016A016091700E7091710EF7
:101C30008091720E9091730E0E94E37BA801970130
:101C40000E94DC7A9B01AC010E94D97C7B018C0153
:101C5000C601B501A60195010E94D97C9B01AC018A
:101C6000C801B7010E94DD7A0E94467D1F910F9145
:101C7000FF90EF90DF90CF90BF90AF900895AF921C
:101C8000BF92CF92DF92EF92FF920F931F937B014F
:101C90008C0159016A01A80197010E94D97C7B013E
:101CA0008C01C601B501A60195010E94D97C9B015A
:101CB000AC01C801B7010E94DD7A0E94467D1F91E8
:101CC0000F91FF90EF90DF90CF90BF90AF9008956D
:101CD0002F923F924F925F926F927F928F929F923C
:101CE000AF92BF92CF92DF92EF92FF920F931F932A
:101CF000DF93CF9300D00F92CDB7DEB769837A839D
:101D00008B839C8359016A011701280161157105B4
:101D10008105910559F40F2EF0E0EF2EF0E0FF2E33
:101D2000F0E00F2FF0E01F2FF02DA4C0CA01B90181
:101D30000E94D97C7B018C01C601B50120E030E016
:101D400040E050E00E94417B882324F417FB10956B
:101D500017F91095C201B101A20191010E94DD7A2B
:101D60003B014C01C801B701A40193010E94487BCB
:101D70007B018C0169817A818B819C810E94E37B4C
:101D80009B01AC01C801B7010E94417B8823B4F5D7
:101D9000C601B50120E030E040E050E00E94417B08
:101DA000882329F4C401B3010E94467D0DC0C201FD
:101DB000B101A60195010E94487B9B01AC015F77B0
:101DC000C601B5010E94DD7A7B018C01D090B60D71
:101DD000C090B70DB090B80DA090B90D2D2D3C2D31
:101DE0004B2D5A2D0E94D57C18160CF043C08D2D1A
:101DF0009C2DAB2DBA2D7C018D013CC0C601B501D7
:101E000020E030E040E050E00E94417B882359F41C
:101E1000C401B3010E94467D7B018C0117FB109524
:101E200017F910950FC0C201B101A60195010E94DA
:101E3000487B9B01AC015F77C601B5010E94DC7A4B
:101E40007B018C018091B60D9091B70DA091B80DDA
:101E5000B091B90D5C016D01D7FAD094D7F8D09448
:101E6000C801B701A60195010E94417B882314F4A3
:101E700086017501B701C8010F900F900F900F9068
:101E8000CF91DF911F910F91FF90EF90DF90CF9056
:101E9000BF90AF909F908F907F906F905F904F908A
:101EA0003F902F9008958091BF0D8823F1F188E72E
:101EB00096E165E270E10E94D6768BE39FE00E9496
:101EC000014C2091B40D3091B50D442737FD40955C
:101ED000542F0E943D7E88E796E1BA01A9012AE0CD
:101EE00030E00E94A37588E796E163E370E10E9409
:101EF000D6768FE79FE00E94014C2091B40D30917F
:101F0000B50D442737FD4095542F0E943D7E88E74C
:101F100096E1BA01A9012AE030E00E94A37588E7A2
:101F200096E16AE370E10C9408770895EF92FF92CE
:101F30000F931F938091780E9091790EA0917A0E55
:101F4000B0917B0E0097A105B10509F03FC06091EB
:101F5000700E7091710E8091720E9091730E0E94AE
:101F6000E37B7B018C016091740E7091750E809102
:101F7000760E9091770E0E94E37B9B01AC01C80125
:101F8000B7017DDE20E030E040E05FE30E94DD7AD3
:101F90000E94B07B6093780E7093790E80937A0ED6
:101FA00090937B0E88E796E160E373E00E942276CF
:101FB0004091780E5091790E60917A0E70917B0E5F
:101FC00088E796E12AE030E00E94E1756091780EA2
:101FD0007091790E80917A0E90917B0E1F910F91E6
:101FE000FF90EF90089588E796E167E473E00C9422
:101FF000C57688E796E16AE971E00E94CF74109295
:10200000990E08958F929F92AF92BF92CF92DF92D6
:10201000EF92FF920F931F936C017B0188E796E18B
:102020006EE573E00E94227688E796E1B6014AE009
:1020300050E00E94F37588E796E167E673E00E943E
:10204000227688E796E1B7014AE050E00E940576E3
:1020500088E796E16CE673E00E9422766091140FA7
:102060007091150F88E796E14AE050E00E940576EE
:1020700088E796E16CE773E00E94227640910A0FB0
:1020800050910B0F60910C0F70910D0F88E796E146
:102090002AE030E00E94E1754601AA2497FCA09452
:1020A000BA2C8091140F9091150FAA2797FDA09537
:1020B000BA2F880E991EAA1EBB1E0027F7FC00959A
:1020C000102F20910A0F30910B0F40910C0F50915F
:1020D0000D0FC801B7010E94DD7D860E971EA81E58
:1020E000B91E88E796E166E873E00E94227688E7E9
:1020F00096E1B501A4012AE030E00E94A375809129
:10210000160F9091170FA091180FB091190F881505
:102110009905AA05BB0514F41FEF18C088EE9EE0D0
:10212000B501A4010E94245888EE9EE00E94345814
:10213000182F88E796E16FE873E00E94227688E71F
:1021400096E1612F4AE050E00E948775812F1F9130
:102150000F91FF90EF90DF90CF90BF90AF909F9046
:102160008F9008956F927F928F929F92AF92BF92BD
:10217000CF92DF92EF92FF920F931F93DF93CF9353
:10218000CDB7DEB7A3970FB6F894DEBF0FBECDBFB5
:102190006DB67EB688EE9EE040E050E060E070E014
:1021A0000E9424587E010894E11CF11CC7016EE9CD
:1021B00073E00E942B7A88EE9EE00E943458182F1C
:1021C000C70160E070E00E94B077FC01108388EEE8
:1021D0009EE00E943458182FC70161E070E00E9411
:1021E000B077FC011083C70161EA73E00E94D878E0
:1021F000882399F488E796E164EA73E00E942276E6
:1022000088E796E1B7010E94D67688E796E162EC0E
:1022100073E00E94C57610E083C188E796E16DED1A
:1022200073E00E94C57688EE9EE00E9434588E01CD
:10223000085F1F4FC80165E072E00E942B7A88EEAC
:102240009EE00E943458E82E9FE0C92ED12CCC0E7F
:10225000DD1EF02E012F21C083E2E81641F488EE46
:102260009EE00E943458E82E9AE0E916C1F7C601B4
:102270006F2D702F0E94C97AC6016E2D0E94FD79C4
:10228000BC018F2D902F0E94AB7AC6010E94D77A95
:1022900088EE9EE00E943458E82E8AE0E81619F095
:1022A00090E2E916C9F688E796E163E074E00E94DF
:1022B000227688E0E82EF12CEC0EFD1E88E796E1F0
:1022C000B7010E9408774C855D854F5F5F4F8DB7E2
:1022D0009EB7841B950B0FB6F8949EBF0FBE8DBFA3
:1022E0000DB71EB70F5F1F4F902E812EB02EA12E5F
:1022F000C701B80120E030E00E948978C8010E943F
:102300002305AA2797FDA095BA2F80930A0F9093D3
:102310000B0FA0930C0FB0930D0F0A97A105B105F9
:1023200044F488E796E162E471E00E94CF7410E023
:10233000F3C0C70165E072E00E94447A88EE9EE037
:102340000E943458182F06E1C02ED12CCC0EDD1E71
:10235000C701FE2C092F1FC0133239F488EE9EE00E
:102360000E943458182F8A30C9F7C6016F2D702F7C
:102370000E94C97AC601612F0E94FD79BC018F2D90
:10238000902F0E94AB7AC6010E94D77A88EE9EE019
:102390000E943458182F1A30F9F688E796E16EE05B
:1023A00074E00E94227618E0C12ED12CCC0EDD1EE6
:1023B00088E796E1B6010E9408774C855D854F5FFE
:1023C0005F4FC6016B2D7A2D20E030E00E948978A6
:1023D000892D982D0E942305AA2797FDA095BA2F35
:1023E00080930E0F90930F0FA093100FB093110FC7
:1023F000BC01CD010E94E37B7B018C0160910A0F3F
:1024000070910B0F80910C0F90910D0F0E94E37B48
:102410009B01AC01C801B7010E94487B6093E00DAD
:102420007093E10D8093E20D9093E30D88E796E1C0
:102430006AE174E00E9422764091E00D5091E10D36
:102440006091E20D7091E30D88E796E122E030E0C3
:102450000E94B476C60165E072E00E94447A88EE7C
:102460009EE00E943458182F0D2DBDE1EB2EF12C6B
:10247000EC0EFD1E16C0C7016C2D702F0E94C97A8C
:10248000C701612F0E94FD79BC018C2D902F0E9405
:10249000AB7AC7010E94D77A88EE9EE00E9434583A
:1024A000182F1A3041F788E796E16CE274E00E9439
:1024B000227688E796E16C2D702F0E9408774C8574
:1024C0005D854F5F5F4F8C2D902F6B2D7A2D20E017
:1024D00030E00E948978892D982D0E9423059093E1
:1024E000130F8093120F88EE9EE00E94DF577093C7
:1024F000150F6093140F88E796E160E474E00E9482
:1025000022766091140F7091150F88E796E14AE0EA
:1025100050E00E94057611E0CE0108960E94D27A22
:10252000CE0101960E94D27A812F0FB6F8947EBE1A
:102530000FBE6DBEA3960FB6F894DEBF0FBECDBF23
:10254000CF91DF911F910F91FF90EF90DF90CF908F
:10255000BF90AF909F908F907F906F900895EF9273
:10256000FF920F931F93DF93CF93CDB7DEB7FC019C
:10257000EDB6FEB6448155814F5F5F4F8DB79EB774
:10258000841B950B0FB6F8949EBF0FBE8DBF0DB781
:102590001EB70F5F1F4FCF01B80120E030E00E944F
:1025A0008978C8010E9423050FB6F894FEBE0FBEBD
:1025B000EDBECF91DF911F910F91FF90EF900895A5
:1025C000EF92FF920F931F93DF93CF93CDB7DEB7B8
:1025D0002E970FB6F894DEBF0FBECDBF8E010F5FF2
:1025E0001F4FC8016DEE7FE00E94C07AC801B7DFBF
:1025F0007C01C8010E94D27AE114F10419F410920E
:102600001C0F2EC081E0E816F10451F581E08093A3
:102610001C0F80917E0E90917F0E03970CF18E011E
:10262000085F1F4FC80164EF7FE00E94C07AC801B5
:1026300096DF7C01C8010E94D27A81E0E816F1049D
:1026400029F4F0921B0FE0921A0F0AC088E796E176
:102650006EE474E00E94C57610921B0F10921A0F60
:102660002E960FB6F894DEBF0FBECDBFCF91DF918F
:102670001F910F91FF90EF900895EF92FF920F93AB
:102680001F93DF93CF93CDB7DEB727970FB6F8949C
:10269000DEBF0FBECDBF8E010F5F1F4FC8016DEEB5
:1026A0007FE00E94C07AC8015ADF7C01C8010E9405
:1026B000D27AEF2819F41092900E0EC08091980EE5
:1026C000882321F081E08093900E06C088E796E190
:1026D0006EE474E00E94C57627960FB6F894DEBFCC
:1026E0000FBECDBFCF91DF911F910F91FF90EF9063
:1026F00008950F931F93DF93CF93CDB7DEB72E9737
:102700000FB6F894DEBF0FBECDBF8E010F5F1F4F17
:10271000C8016DEE7FE00E94C07AC80120DF90936F
:10272000F70D8093F60DC8010E94D27A8E01085FE2
:102730001F4FC80164EF7FE00E94C07AC8010FDF1D
:102740009093F50D8093F40DC8010E94D27A2E96D5
:102750000FB6F894DEBF0FBECDBFCF91DF911F91B2
:102760000F910895EF92FF920F931F93DF93CF93F2
:10277000CDB7DEB76B970FB6F894DEBF0FBECDBFF7
:10278000FC01EDB6FEB6448155814F5F5F4F8DB7BA
:102790009EB7841B950B0FB6F8949EBF0FBE8DBFDE
:1027A0000DB71EB70F5F1F4FCF01B80120E030E01B
:1027B0000E948978CE0101966DEF71E1A80121E0B8
:1027C0000E942D5B8B819C819093EB0E8093EA0E8F
:1027D0008D819E81AF81B8858093EC0E9093ED0E34
:1027E000A093EE0EB093EF0E89859A85AB85BC85DC
:1027F0008093F00E9093F10EA093F20EB093F30E2F
:10280000A4EFBEE0FE013D968DE001900D92815057
:10281000E1F78A8D9B8D9093020F8093010FCE017B
:1028200001960E949D5788EE9EE00E9405588823DD
:1028300029F488E796E162E774E007C093DC882317
:1028400041F488E796E163E874E00E94C57680E091
:102850000DC088EE9EE00E94F2576093160F7093B1
:10286000170F8093180F9093190F81E00FB6F8940B
:10287000FEBE0FBEEDBE6B960FB6F894DEBF0FBE68
:10288000CDBFCF91DF911F910F91FF90EF900895F1
:10289000EF92FF920F931F93DF93CF93CDB7DEB7E5
:1028A00027970FB6F894DEBF0FBECDBF80917E0E86
:1028B00090917F0E029709F0C2C083E09FE06DEE19
:1028C0007FE00E94AB7A8E010F5F1F4FC80163E06B
:1028D0007FE00E94C07AC80145DFF82EC8010E943F
:1028E000D27AFF2069F488E796E16BE874E00E94F1
:1028F000227688E796E163E07FE00E940877A5C032
:1029000088E796E166EA74E00E94227640910A0F19
:1029100050910B0F60910C0F70910D0F88E796E1AD
:102920002AE030E00E94A37588E796E162EB74E04C
:102930000E94227640910E0F50910F0F6091100F60
:102940007091110F88E796E12AE030E00E94E1756E
:1029500088E796E165EB74E00E9422764091D00D05
:102960005091D10D6091D20D7091D30D88E796E111
:102970002AE030E00E94A37588E796E161EC74E0FC
:102980000E94C5766091D00D7091D10D8091D20DCD
:102990009091D30D0E94E37B7B018C0160910A0F23
:1029A00070910B0F80910C0F90910D0F0E94E37BA3
:1029B0009B01AC01C801B7010E94487B6093DC0D0C
:1029C0007093DD0D8093DE0D9093DF0D88E796E127
:1029D00063EC74E00E9422764091DC0D5091DD0D95
:1029E0006091DE0D7091DF0D88E796E122E030E026
:1029F0000E94B47688E796E163ED74E00E94227647
:102A00004091D00D5091D10D6091D20D7091D30DA8
:102A100088E796E12AE030E00E94E17588E796E1D8
:102A200060E474E00E9422766091140F7091150F9B
:102A300088E796E14AE050E00E94057606C088E704
:102A400096E16FED74E00E94C57627960FB6F89474
:102A5000DEBF0FBECDBFCF91DF911F910F91FF90D1
:102A6000EF900895AF92BF92CF92DF92EF92FF92D4
:102A70000F931F93DF93CF93CDB7DEB76B970FB64E
:102A8000F894DEBF0FBECDBF6C01ADB6BEB64091AF
:102A90009E0E50919F0E4F5F5F4F8DB79EB7841B68
:102AA000950B0FB6F8949EBF0FBE8DBF0DB71EB726
:102AB0000F5F1F4F8AE99EE0B80120E030E00E94DE
:102AC00089787E010894E11CF11CC7016DEF71E16A
:102AD000A80123E10E942D5BC7010E9405588823AD
:102AE000D1F088E796E166EF74E00E94227688E7ED
:102AF00096E16AE97EE00E940877C701B6010E946C
:102B00000877C7010E94125888E796E167E075E0F0
:102B10000E94C5760CC088E796E16DE075E00E94E2
:102B2000227688E796E16AE97EE00E940877CE0186
:102B300001960E949D570FB6F894BEBE0FBEADBE63
:102B40006B960FB6F894DEBF0FBECDBFCF91DF916D
:102B50001F910F91FF90EF90DF90CF90BF90AF90BB
:102B60000895EF92FF920F931F9385E361E00E9417
:102B7000FA6E8DEF91E165E30E944D5C882329F4A4
:102B800088E796E16CE175E06AC088E796E168E362
:102B900075E00E94C57688E796E16AE475E00E94D8
:102BA000C57681EA9EE061E045E30E94A35E88234A
:102BB000B9F488E796E162E675E00E94C57688E799
:102BC00096E16AE875E00E94C57688E796E163EAD7
:102BD00075E00E94C57688E796E16DEB75E03FC031
:102BE00088E796E161E076E00E94C57688E796E1A5
:102BF0006AE276E00E9422768091AC0E823049F043
:102C0000833061F0813079F488E796E167E376E01C
:102C10000EC088E796E16BE376E009C088E796E1AD
:102C20006FE376E004C088E796E164E476E00E9412
:102C3000C5768DEA9EE061EA7EE041E00E949969F6
:102C4000882381F48DEA9EE061EA7EE040E00E9404
:102C50009969882339F488E796E16CE476E00E946C
:102C6000C57674C088E796E166E976E00E94227630
:102C700088E796E16091C40E4AE050E00E948775B3
:102C800088E796E10E94AF742091B10E30E040E0F9
:102C900050E06091B60E7091B70E8091B80E909191
:102CA000B90EE9E0660F771F881F991FEA95D1F7E3
:102CB0000E94DD7D7B018C0188E796E16AEA76E07F
:102CC0000E94227688E796E1B801A7012AE030E069
:102CD0000E94657588E796E160EC76E00E942276B6
:102CE0003AE016950795F794E7943A95D1F788E777
:102CF00096E1B801A7012AE030E00E94657588E7F7
:102D000096E167ED76E00E9422762AE01695079517
:102D1000F794E7942A95D1F788E796E1B801A701DF
:102D20002AE030E00E94657588E796E16EEE76E075
:102D30000E94C5768BEC9EE06DEA7EE00E94AE6359
:102D40008BEC9EE067E040E00E94A8641F910F9129
:102D5000FF90EF900895AF92BF92CF92DF92EF92E3
:102D6000FF920F931F938BE39FE00E9422528FE705
:102D70009FE00E9422528BE39FE00E94F14B61157D
:102D800071058105910509F048C06091C80D7091E9
:102D9000C90D8091CA0D9091CB0D2091D00D30912D
:102DA000D10D4091D20D5091D30D260F371F481FE2
:102DB000591F0E9482775B016C016091CC0D70916C
:102DC000CD0D8091CE0D9091CF0D2091D40D3091ED
:102DD000D50D4091D60D5091D70D260F371F481FA6
:102DE000591F0E9482777B018C01C601B5010E94A8
:102DF000E37B5B016C01C801B7010E94E37B9B018F
:102E0000AC01C601B5010E943F0E0E94B07BAB0130
:102E1000BC018BE39FE00E94864D8FE79FE00E94FC
:102E2000F14B611571058105910509F048C060916C
:102E3000C80D7091C90D8091CA0D9091CB0D209154
:102E4000D00D3091D10D4091D20D5091D30D260F60
:102E5000371F481F591F0E9482775B016C016091E8
:102E6000CC0D7091CD0D8091CE0D9091CF0D209114
:102E7000D40D3091D50D4091D60D5091D70D260F20
:102E8000371F481F591F0E9482777B018C01C601A2
:102E9000B5010E94E37B5B016C01C801B7010E9490
:102EA000E37B9B01AC01C601B5010E94080E0E94A4
:102EB000B07BAB01BC018FE79FE00E94864D1F9164
:102EC0000F91FF90EF90DF90CF90BF90AF9008955B
:102ED000EF92FF920F931F93CF93DF93C0E0D0E068
:102EE00088E796E168E277E00E94227688E796E13B
:102EF000BE014AE050E00E9405768BE39FE00E940D
:102F0000F14B611571058105910509F469C08FE7E1
:102F10009FE00E94F14B611571058105910509F44F
:102F20005FC08BE39FE00E9422528FE79FE00E94E8
:102F30002252E3CF6EEF7FEF8FEF9FEF23E030E081
:102F400040E050E00E9482777B018C01A701662758
:102F500057FD6095762F8BE39FE00E94974D88E7A1
:102F600096E161E377E00E94227688E796E1B70177
:102F70004AE050E00E9405768FE79FE00E94F14B07
:102F8000611571058105910511F56EEF7FEF8FEFEA
:102F90009FEF23E030E040E050E00E9482777B0129
:102FA0008C01A701662757FD6095762F8FE79FE07C
:102FB0000E94974D88E796E167E477E00E942276C9
:102FC00088E796E1B7014AE050E00E9405760E944A
:102FD000530F219683E0C83ED80709F081CF0AC07D
:102FE0008BE39FE00E94F14B61157105810591050E
:102FF00019F6A0CFDF91CF911F910F91FF90EF9025
:1030000008958AE892E09093060E8093050E9093BF
:10301000080E8093070E8FE590E09093020E809348
:10302000010E80E991E09093040E8093030E81E0FD
:1030300090E09093000E8093FF0D93DD64EF71E0BC
:1030400080E090E00C94356EAF92BF92CF92DF9209
:10305000EF92FF920F931F93CF93DF93EC015B01ED
:103060006A018DE59EE069E070E00E94F653CA15A2
:10307000DB059CF476010027F7FC0095102F8DE509
:103080009EE0BE010E94DF52C801B7010E94356E6A
:103090002196AC16BD069CF712C076010027F7FCFE
:1030A0000095102F8DE59EE0BE010E94DF52C80101
:1030B000B7010E94356E2197CA15DB059CF78DE597
:1030C0009EE00E947352DF91CF911F910F91FF906C
:1030D000EF90DF90CF90BF90AF900895EF92FF9266
:1030E0000F931F93DF93CF93CDB7DEB727970FB61C
:1030F000F894DEBF0FBECDBF80917E0E90917F0E03
:103100002091600E029714F1222329F0E0906311C0
:10311000F090641104C0E090FD0DF090FE0D8E0162
:103120000F5F1F4FC8016DEE7FE00E94C07AC8019B
:1031300016DA9093FE0D8093FD0DC8010E94D27A9D
:103140006091FD0D7091FE0DC7010AC0213059F448
:103150006091FD0D7091FE0D80916311909164114D
:1031600043E050E071DF1092600E27960FB6F8949E
:10317000DEBF0FBECDBFCF91DF911F910F91FF90AA
:10318000EF900895EF92FF920F931F93DF93CF93E9
:10319000CDB7DEB727970FB6F894DEBF0FBECDBF11
:1031A00080917E0E90917F0E2091600E029714F117
:1031B000222329F0E0906311F090641104C0E090A4
:1031C000FD0DF090FE0D8E010F5F1F4FC8016DEEDB
:1031D0007FE00E94C07AC801C2D9909364118093A5
:1031E0006311C8010E94D27A6091631170916411D9
:1031F000C7010AC0222359F46091631170916411D0
:103200008091FD0D9091FE0D43E050E01DDF81E0C7
:103210008093600E27960FB6F894DEBF0FBECDBF29
:10322000CF91DF911F910F91FF90EF9008952F9212
:103230003F924F925F926F927F928F929F92AF9246
:10324000BF92CF92DF92EF92FF920F931F938091E4
:10325000980E882309F424C18091900E882309F4E4
:103260001FC180911C0F882309F41AC188EE9EE0CB
:103270000E940558882309F413C10E94016E209111
:103280001D0F30911E0F40911F0F5091200F621B98
:10329000730B840B950B2091E40D3091E50D40915B
:1032A000E60D5091E70D26173707480759070CF030
:1032B000FDC06091D00D7091D10D8091D20D909193
:1032C000D30D0E94E37B2091E00D3091E10D409100
:1032D000E20D5091E30D0E94D97C0E94B07B609377
:1032E000D40D7093D50D8093D60D9093D70D8BE3AD
:1032F0009FE00E94014C0E94E37B7B018C018FE7E1
:103300009FE00E94014C0E94E37B5B016C01B701CE
:10331000C8019501A6010E94850D882309F4B4C057
:10332000B701C8019501A6010E94EC081B012C0100
:103330009701A8010E945E0D7B018C016090C80D71
:103340007090C90D8090CA0D9090CB0D6091CC0DFE
:103350007091CD0D8091CE0D9091CF0D0E94E37BA9
:103360009B01AC01C801B7010E94DC7AE090DC0D42
:10337000F090DD0D0091DE0D1091DF0DA801970199
:103380000E94487B0E94B07B5B016C019B0144273B
:1033900037FD4095542F80910E0F90910F0FA09103
:1033A000100FB091110F82179307A407B50724F1EE
:1033B000C401B3010E94E37B9B01AC01C201B101D6
:1033C0000E94DC7AA80197010E94487B0E94B07B92
:1033D0007B018C019B01442737FD4095542F809140
:1033E0000A0F90910B0FA0910C0FB0910D0F821747
:1033F0009307A407B5075CF488E796E16DE577E0ED
:103400000E94C57610921C0F1092900E3DC0C7010D
:10341000B5010E940210082F88E796E167E777E080
:103420000E94227688E796E1602F4AE050E00E94F1
:10343000877560E070E080E090E02FEF30E040E0E2
:1034400050E00E9482776B017C0188E796E164E896
:1034500077E00E94227688E796E1B6014AE050E0E4
:103460000E94057610E0C016D10644F488E796E184
:103470006DE877E00E94C57631DE07C088E796E107
:103480006CE977E00E94C5767DDE0E94016E609354
:103490001D0F70931E0F80931F0F9093200F06C077
:1034A00088E796E16CEA77E00E94C5761F910F915C
:1034B000FF90EF90DF90CF90BF90AF909F908F9054
:1034C0007F906F905F904F903F902F9008958091E4
:1034D0001C0F882339F080911A0F90911B0F0197D0
:1034E00009F4A5CE08958BE39FE00E948B508FE7EF
:1034F0009FE00E948B501092220F88E796E16FEDBB
:1035000077E00C94C576EF92FF920F931F930E9481
:10351000016E9B01AC01E090800EF090810E009155
:10352000820E1091830E8091C70D8823E1F0809167
:10353000220F8823C1F02E193F09400B510B8091B7
:10354000C30D9091C40DA091C50DB091C60D821709
:103550009307A407B5073CF488E796E16FEE77E0A0
:103560000E94C576C0DF8091900E882331F0F3DB96
:1035700080911C0F882309F0AADF1F910F91FF9003
:10358000EF900895AC01662757FD6095762F8FE781
:103590009FE00E94974D09C0B6DF8091C00D88233F
:1035A00021F08FE79FE00E9422528FE79FE00E9468
:1035B000F14B611571058105910571F70E94016E4E
:1035C0006093800E7093810E8093820E9093830E91
:1035D0000895AC01662757FD6095762F8BE39FE039
:1035E0000E94974D09C08FDF8091C00D882321F084
:1035F0008BE39FE00E9422528BE39FE00E94F14BFD
:10360000611571058105910571F70E94016E609346
:10361000800E7093810E8093820E9093830E089596
:10362000CF93DF93FC01EB0121153105A9F48091C3
:10363000FC0D882339F0CF0162E070E00E94087E23
:10364000CB012BC0CF0162E070E00E94087ECB016D
:10365000909581959F4F21C08091FC0D24173507CF
:10366000A1F4882339F0CF0162E070E00E94087E67
:10367000CB0109C0CF0162E070E00E94087ECB015F
:10368000909581959F4FA5DF15C0882311F0CF013C
:1036900004C0882799278E1B9F0B9BDFCE0172DF0A
:1036A0008091FC0D882319F01092FC0D03C081E07D
:1036B0008093FC0DDF91CF9108950F931F93CF93CB
:1036C000DF93EC018B0121153105D9F488E796E1F0
:1036D00064E178E00E94C5768091FC0D882339F082
:1036E000CE0162E070E00E94087ECB012BC0CE01CB
:1036F00062E070E00E94087ECB01909581959F4F1B
:1037000021C08091FC0D24173507A1F4882339F0DE
:10371000CE0162E070E00E94087ECB0109C0CE01BC
:1037200062E070E00E94087ECB01909581959F4FEA
:1037300029DF15C0882311F0CE0104C088279927FE
:103740008C1B9D0B1FDFC80144DF8091FC0D88237B
:1037500019F01092FC0D03C081E08093FC0DDF9105
:10376000CF911F910F9108953F924F925F926F9268
:103770007F928F929F92AF92BF92CF92DF92EF9201
:10378000FF920F931F93DF93CF9300D00F92CDB78B
:10379000DEB7FC014B016A01322E141615060CF03F
:1037A0007FC0BA010E94087E5B01CF01B6010E9472
:1037B000087EAA2797FDA095BA2FBC01CD010E94D3
:1037C000E37B7B018C01B601882777FD8095982FDC
:1037D0000E94E37B9B01AC01C801B7010E94487BBA
:1037E0002B013C010F2EF0E0EF2EF0E0FF2EF0E079
:1037F0000F2FF0E01F2FF02D1C821B82C5010196B8
:103800009A838983C801B701A30192010E94DD7ADE
:103810007B018C0120E030E040E85FE30E94D57C32
:1038200087FF02C095010CC0C801B70120E030E05D
:1038300040E85FE30E94DC7A7B018C0129813A81B8
:1038400092E0391619F4C401B9010EC0E3E03E1646
:1038500019F4C401B90115C0F4E03F1651F466270C
:103860007727621B730BC401A6012B813C8125DFE6
:103870000CC081E0381649F466277727621B730B6A
:10388000C401A6012B813C81CBDE0E94530FEB814A
:10389000FC813196FC83EB83CE16DF060CF0B2CFB1
:1038A0000F900F900F900F90CF91DF911F910F917C
:1038B000FF90EF90DF90CF90BF90AF909F908F9050
:1038C0007F906F905F904F903F9008958F929F925E
:1038D000AF92BF92CF92DF92EF92FF920F931F931E
:1038E000DF93CF93CDB7DEB72E970FB6F894DEBF38
:1038F0000FBECDBF6E010894C11CD11CC6016DEE78
:103900007FE00E94C07AC6010E94AF12AA2797FDED
:10391000A095BA2F2091B40D3091B50D442737FDF5
:103920004095542FBC01CD010E94DD7D7B018C01AF
:103930005B01C6010E94D27AA8E0CA2ED12CCC0E1F
:10394000DD1EC60164EF7FE00E94C07AC6010E94BE
:10395000AF124C01C6010E94D27AC701B701A4017F
:1039600022E002DFAA0CBB1CC50133DEC701B70190
:10397000A40123E0F9DEC50105DEC701B701A401FA
:1039800024E0F2DEB094A194B108B394C50121DE25
:10399000C701B701A40121E0E7DEC501F3DD2E96E2
:1039A0000FB6F894DEBF0FBECDBFCF91DF911F9150
:1039B0000F91FF90EF90DF90CF90BF90AF909F90CE
:1039C0008F900895AF92BF92CF92DF92EF92FF92C5
:1039D0000F931F93DF93CF93CDB7DEB728970FB622
:1039E000F894DEBF0FBECDBF69837A838B839C833F
:1039F0002D833E834F8358870E94016E6093800E13
:103A00007093810E8093820E9093830ECE01019667
:103A1000BE016B5F7F4F0E9449088BE39FE00E94CD
:103A2000E54E5B016C018FE79FE00E94E54E7B0154
:103A30008C018BE39FE040E050E060E070E00E948A
:103A4000604E8FE79FE040E050E060E070E00E9451
:103A5000604E69817A818B819C810E94B07BAB0131
:103A6000BC018BE39FE00E94864D6D817E818F813A
:103A700098850E94B07BAB01BC018FE79FE00E945C
:103A8000864D8091BE0D882309F042C08BE39FE0F4
:103A90000E94E54E20E030E040E050E00E94417B93
:103AA000882324F4D7FAD094D7F8D0948FE79FE0F6
:103AB0000E94E54E20E030E040E050E00E94417B73
:103AC000882324F417FB109517F910958BE39FE0DA
:103AD000B601A5010E94604E8FE79FE0B801A701E3
:103AE0000E94604E15C08091BE0D882349F08BE383
:103AF0009FE00E9422528FE79FE00E94225208C05E
:103B00008BE39FE00E94FF518FE79FE00E94FF51EF
:103B10008BE39FE00E94F14B6115710581059105D2
:103B200049F48FE79FE00E94F14B61157105810513
:103B3000910531F0E8DC8091C00D882349F3D3CFA3
:103B40000E94530F28960FB6F894DEBF0FBECDBF6C
:103B5000CF91DF911F910F91FF90EF90DF90CF9069
:103B6000BF90AF900895AF92BF92CF92DF92EF9245
:103B7000FF920F931F9379018A010E94E37B5B01FF
:103B80006C01C801B7010E94E37B9B01AC01C60137
:103B9000B50118DF1F910F91FF90EF90DF90CF904C
:103BA000BF90AF9008952F923F924F925F926F9285
:103BB0007F928F929F92AF92BF92CF92DF92EF92BD
:103BC000FF920F931F93DF93CF93CDB7DEB760972C
:103BD0000FB6F894DEBF0FBECDBF88E796E164E272
:103BE00078E00E94C57688E796E164E478E00E9478
:103BF00022766091F40D7091F50D88E796E14AE028
:103C000050E00E9405768091F40D9091F50D029799
:103C100009F0A6C08FE79FE00E94014C1B012C0118
:103C20008091D80D9091D90DAA2797FDA095BA2F14
:103C3000280E391E4A1E5B1E88E796E16EE578E085
:103C40000E94227688E796E1B201A1012AE030E0E5
:103C50000E94E175C201B101A20191010E94DD7DC6
:103C60003B014C01A090CC0DB090CD0DC090CE0D7D
:103C7000D090CF0DE090D40DF090D50D0091D60DE1
:103C80001091D70DEA0CFB1C0C1D1D1D2091700E10
:103C90003091710E4091720E5091730E2D873E87B8
:103CA0004F87588B8091C80D9091C90DA091CA0D76
:103CB000B091CB0D89879A87AB87BC87281B390BBE
:103CC0004A0B5B0BCA01B9010E94DD7D6D837E83C7
:103CD0008F839887C801B701A80197010E94DD7DF5
:103CE000ED80FE800F8118856E0D7F1D801F911F56
:103CF00066157705880599056CF1C601B501A60121
:103D000095010E94DD7D5B016C018091D00D909149
:103D1000D10DA091D20DB091D30D2D853E854F854B
:103D20005889E984FA840B851C852E193F09400BBC
:103D3000510B281B390B4A0B5B0BCA01B9010E94BE
:103D4000DD7D6A0D7B1D8C1D9D1D66167706880620
:103D5000990644F488E796E169E678E00E94C57622
:103D600080E005C18D819E81AF81B8858A0D9B1D44
:103D7000AC1DBD1D86159705A805B9050CF499C0A5
:103D800088E796E16DE778E00E94C5760091CC0D5A
:103D90001091CD0D2091CE0D3091CF0D09831A8356
:103DA0002B833C83C901B801A90198010E94DD7DE4
:103DB0009B01AC01C401B301621B730B840B950B17
:103DC0000E94E37B0E94467D7B018C016091700E16
:103DD0007091710E8091720E9091730E0E94E37B30
:103DE000A80197010E94DC7A0E94B07B5B016C0104
:103DF00088E796E16EE878E00E942276C201B10180
:103E00000E94E37B2091680E3091690E40916A0E0A
:103E100050916B0E0E94D97CAB01BC0188E796E102
:103E200022E030E00E94B27688E796E168E978E027
:103E30000E9422766091C80D7091C90D8091CA0DC3
:103E40009091CB0D0E94E37B2091680E3091690E1A
:103E500040916A0E50916B0E0E94D97CAB01BC015F
:103E600088E796E122E030E00E94B27688E796E1AA
:103E700061EA78E00E9422766091CC0D7091CD0DC0
:103E80008091CE0D9091CF0D0E94E37B2091680E22
:103E90003091690E40916A0E50916B0E0E94D97C50
:103EA000AB01BC0188E796E122E030E00E94B476E5
:103EB00030C088E796E16AEA78E00E94C576A09073
:103EC000C80DB090C90DC090CA0DD090CB0D2091F7
:103ED000700E3091710E4091720E5091730EC601AA
:103EE000B501621B730B840B950B2A193B094C0916
:103EF0005D090E94DD7D660D771D881D991D0E945C
:103F0000E37B0E94467D0E94B07B69837A838B832A
:103F10009C83C601B5010E94E37B3B014C01698192
:103F20007A818B819C810E94E37B7B018C01C4019F
:103F3000B301A80197010E943F0E5B016C01C4010F
:103F4000B301A80197010E94080E7B018C01C601F4
:103F5000B5010E94B07B5B016C01C801B7010E94F2
:103F6000B07B9B01AC01C601B501FDDD81E060962F
:103F70000FB6F894DEBF0FBECDBFCF91DF911F917A
:103F80000F91FF90EF90DF90CF90BF90AF909F90F8
:103F90008F907F906F905F904F903F902F900895FB
:103FA0002F923F924F925F926F927F928F929F9249
:103FB000AF92BF92CF92DF92EF92FF920F931F9337
:103FC000DF93CF9300D00F92CDB7DEB73B014C010A
:103FD00059016A01FA82E982C80162E070E00E9438
:103FE000087E882777FD8095982F661A770A880AB9
:103FF000990AA61AB70AC80AD90A1C821B82180194
:10400000442437FC4094542C2DC060E070E080E0E4
:1040100090E0A20191010E9482777B018C0160E017
:1040200070E080E090E0A20191010E9482779B0104
:10403000AC010027F7FC0095102FE60CF71C081DBB
:10404000191D442737FD4095542F2A0D3B1D4C1D4B
:104050005D1DC801B70187DD2B813C812F5F3F4F7C
:104060003C832B838B819C81E981FA81E817F907D6
:1040700064F60F900F900F900F90CF91DF911F91EA
:104080000F91FF90EF90DF90CF90BF90AF909F90F7
:104090008F907F906F905F904F903F902F900895FA
:1040A0002F923F924F925F926F927F928F929F9248
:1040B000AF92BF92CF92DF92EF92FF920F931F9336
:1040C000DF93CF93CDB7DEB7EA970FB6F894DEBF94
:1040D0000FBECDBF8091980E882309F4BDC46E0138
:1040E0000894C11CD11CC6016DEE7FE00E94C07A0D
:1040F0008E01085F1F4FC80164EF7FE00E94C07A05
:10410000C8010E94AF124C01A090B40DB090B50D43
:10411000C8010E94D27A8E01015F1F4FC8016BEF68
:104120007FE00E94C07AC8010E94AF12AA2797FDC3
:10413000A095BA2F2091B40D3091B50D442737FDCD
:104140004095542FBC01CD010E94DD7D7CA76BA75B
:10415000C8010E94D27A8E010A5E1F4FC801B601C3
:104160000E94C07AC8010E94B213F82EC8010E94B2
:10417000D27AFF2069F488E796E16BE874E00E9448
:10418000227688E796E1B6010E940877C6016BC4E3
:10419000B401882777FD8095982F9501442737FD36
:1041A0004095542F0E94DD7D1B012C017EA76DA739
:1041B00088E796E166EA74E00E94227640910A0F51
:1041C00050910B0F60910C0F70910D0F88E796E1E5
:1041D0002AE030E00E94A37588E796E162EB74E084
:1041E0000E94227640910E0F50910F0F6091100F98
:1041F0007091110F88E796E12AE030E00E94E175A6
:1042000088E796E165EB74E00E9422764091D00D3C
:104210005091D10D6091D20D7091D30D88E796E148
:104220002AE030E00E94A37588E796E161EC74E033
:104230000E94C5766091D00D7091D10D8091D20D04
:104240009091D30D0E94E37B7B018C0160910A0F5A
:1042500070910B0F80910C0F90910D0F0E94E37BDA
:104260009B01AC01C801B7010E94487B6093DC0D43
:104270007093DD0D8093DE0D9093DF0D88E796E15E
:1042800063EC74E00E9422764091DC0D5091DD0DCC
:104290006091DE0D7091DF0D88E796E122E030E05D
:1042A0000E94B47688E796E163ED74E00E9422767E
:1042B0004091D00D5091D10D6091D20D7091D30DE0
:1042C00088E796E12AE030E00E94E17588E796E110
:1042D00060E474E00E9422766091140F7091150FD3
:1042E00088E796E14AE050E00E9405760E94C218F5
:1042F0006091D00D7091D10D8091D20D9091D30D20
:104300000E94E37B2091E00D3091E10D4091E20DA0
:104310005091E30D0E94D97C0E94B07B5B016C013F
:104320006093D40D7093D50D8093D60D9093D70DD7
:104330002091D00D3091D10D4091D20D5091D30DDF
:104340008091C80D9091C90DA091CA0DB091CB0D6F
:10435000280F391F4A1F5B1F2FA338A749A75AA749
:10436000E090CC0DF090CD0D0091CE0D1091CF0DC1
:10437000AE0CBF1CC01ED11ECA01B9010E94E37B56
:104380003B014C01C801B7010E94E37B9B01AC01DA
:10439000C401B3010E94080E7B018C01C10162E0DF
:1043A00070E00E94087E882777FD8095982F0E94F4
:1043B000E37B9B01AC01C801B7010E94DD7A6D8FE0
:1043C0007E8F8F8F98A36091CC0D7091CD0D8091D1
:1043D000CE0D9091CF0D0E94E37B9B01AC01C401F7
:1043E000B3010E943F0E2D8D3E8D4F8D58A1EADA0C
:1043F0000E946E188BE39FE00E94014C0E94E37BB9
:104400006BA37CA38DA39EA38FE79FE00E94014C2A
:104410000E94E37B1B012C01C601B501A601950199
:104420000E94DD7D6FA778AB89AB9AAB1AA219A267
:104430008DA59EA5AA2797FDA095BA2F8BAB9CAB07
:10444000ADABBEAB2BA53CA5442737FD4095542F03
:104450002FAB38AF49AF5AAF6BA17CA18DA19EA104
:10446000A20191010E94850D882309F0ADC188E762
:1044700096E16CEB78E00E94C5760E94C2186BA9A9
:104480007CA98DA99EA90E94E37B9B01AC016D8D47
:104490007E8D8F8D98A10E94DD7A6D8F7E8F8F8F9C
:1044A00098A39B01AC010E94D97C5B016C016090D8
:1044B000700E7090710E8090720E9090730E8091BD
:1044C000C80D9091C90DA091CA0DB091CB0DA4015A
:1044D0009301281B390B4A0B5B0BCA01B9010E94DF
:1044E000DD7D1B012C016FA578A989A99AA9620D10
:1044F000731D841D951D0E94E37B9B01AC01C601C9
:10450000B5010E94D57C181654F12091CC0D309144
:10451000CD0D4091CE0D5091CF0DCA01B9010E9431
:10452000DD7D7B018C01A40193018FA198A5A9A534
:10453000BAA5281B390B4A0B5B0BCA01B9010E94B3
:10454000DD7D6E0D7F1D801F911F0E94E37B9B010F
:10455000AC01C601B5010E94417B882364F488E761
:1045600096E160EE78E00E94C5762D8C3E8C4F8CF3
:1045700058A011E01FC1C201B1016E0D7F1D801F47
:10458000911F0E94E37B9B01AC01C601B5010E9413
:10459000417B18160CF47FC088E796E16DE778E060
:1045A0000E94C5766090CC0D7090CD0D8090CE0DA0
:1045B0009090CF0DC401B301A40193010E94DD7D51
:1045C0000E94E37B9B01AC01C601B5010E94DC7A2D
:1045D0000E94467D7B018C016091700E7091710E7E
:1045E0008091720E9091730E0E94E37BA801970157
:1045F0000E94DC7A0E94B07B7B018C0188E796E107
:1046000063EF78E00E9422766091C80D7091C90D29
:104610008091CA0D9091CB0D0E94E37B2091680E92
:104620003091690E40916A0E50916B0E0E94D97CB8
:10463000AB01BC0188E796E122E030E00E94B2764F
:1046400088E796E16DE079E00E9422766091CC0DDA
:104650007091CD0D8091CE0D9091CF0D0E94E37B96
:104660002091680E3091690E40916A0E50916B0E48
:104670000E94D97CAB01BC0188E796E122E030E0E2
:104680000E94B276C801B7010E94E37B5B016C0116
:10469000C401B30178C088E796E16AEA78E00E9435
:1046A000C576E090C80DF090C90D0091CA0D10912B
:1046B000CB0D2091700E3091710E4091720E509181
:1046C000730E2E193F09400B510BCA01B9010E940C
:1046D000DD7D0E94E37B9B01AC01C601B5010E9418
:1046E000DC7A0E94467D3B014C0188E796E163EF4E
:1046F00078E00E9422766091C80D7091C90D80917A
:10470000CA0D9091CB0D0E94E37B2091680E3091F1
:10471000690E40916A0E50916B0E0E94D97CAB01DC
:10472000BC0188E796E122E030E00E94B27688E79B
:1047300096E16DE079E00E9422766091CC0D709157
:10474000CD0D8091CE0D9091CF0D0E94E37B2091F5
:10475000680E3091690E40916A0E50916B0E0E9466
:10476000D97CAB01BC0188E796E122E030E00E94F1
:10477000B276C801B7010E94E37B5B016C01C40102
:10478000B3010E94B07B0E94E37B7B018C01C601D8
:10479000B501A80197010E943F0E6BA37CA38DA3D6
:1047A0009EA3C601B501A80197010E94080E1B0136
:1047B0002C0110E068EE73E080E090E00E94356E1E
:1047C000112309F03EC106C088E796E161E179E076
:1047D0000E94C5766BA17CA18DA19EA1A201910131
:1047E000F1D80E946E18A9A1BAA11196BAA3A9A3E3
:1047F00088E796E16AE179E00E94227688E796E10F
:1048000069A17AA14AE050E00E9405766BA17CA1E3
:104810008DA19EA1A20191010E94EC087B018C0157
:104820002BA13CA14DA15EA10E945E0D5B016C011C
:104830006091C80D7091C90D8091CA0D9091CB0DFA
:104840000E94E37B9B01AC01C801B7010E94DC7AA6
:104850003B014C016091CC0D7091CD0D8091CE0D3E
:104860009091CF0D0E94E37B9B01AC01C601B50185
:104870000E94DC7A5B016C0188E796E161E279E0F5
:104880000E94227688E796E1B401A30122E030E09D
:104890000E94B27688E796E167E673E00E9422768E
:1048A00088E796E1B601A50122E030E00E94B476E7
:1048B000E090DC0DF090DD0D0091DE0D1091DF0D2C
:1048C000C401B301A80197010E94487B3B014C0140
:1048D000C601B501A80197010E94487B7B018C01AC
:1048E00088E796E16DE379E00E94227688E796E119
:1048F000B401A30122E030E00E94B27688E796E19D
:1049000067E673E00E94227688E796E1B801A70186
:1049100022E030E00E94B476C801B7010E94B07B6B
:104920005B016C019B01442737FD4095542F80911A
:104930000E0F90910F0FA091100FB091110F8217D1
:104940009307A407B507C4F0C401B3010E94B07B6C
:104950007B018C019B01442737FD4095542F8091AA
:104960000A0F90910B0FA0910C0FB0910D0F8217B1
:104970009307A407B5072CF488E796E16DE577E087
:1049800064C0C701B5010E9402106091120F7091BE
:10499000130F90E04DA55EA50E94E207E82E6FA9D7
:1049A00078AD89AD9AAD0E94E37B3B014C01FF24B9
:1049B00000E010E0C801B7010E94E17B20E030E098
:1049C00040E05FE30E94D97C5B016C01C401B3014C
:1049D00020E030E040E05FE30E94D97C9B01AC0125
:1049E0006BA17CA18DA19EA10E94DD7A7B018C012F
:1049F000C201B101A60195010E94DC7A9B01AC01C4
:104A0000B701C8010E94E21CC201B101A6019501D3
:104A10000E94DD7A9B01AC01B701C8010E94E21C33
:104A20006BA17CA18DA19EA1A40193010E94DD7ABE
:104A30006BA37CA38DA39EA3A20191010E94E21C03
:104A40000BCD88E796E161E679E00E94C5760E9489
:104A5000C218CE01019607C088E796E16CE679E0BE
:104A60000E94C57602C00E94D27AEA960FB6F894E8
:104A7000DEBF0FBECDBFCF91DF911F910F91FF9091
:104A8000EF90DF90CF90BF90AF909F908F907F90EE
:104A90006F905F904F903F902F9008952F923F928C
:104AA0004F925F926F927F928F929F92AF92BF923E
:104AB000CF92DF92EF92FF920F931F93DF93CF93EA
:104AC000CDB7DEB7AC970FB6F894DEBF0FBECDBF43
:104AD0002B013C0198A28F8E0E94EC086B8F7C8F7B
:104AE0008D8F9E8FA30192010E945E0D6F8B788F38
:104AF000898F9A8FC801B701A60195010E94EC0821
:104B00005B016C01A80197010E945E0D3B014C0105
:104B1000C601B50120E030E040EA51E40E94D57CB6
:104B200018160CF03EC26091700E7091710E80915B
:104B3000720E9091730E64517040804090400E94BC
:104B4000E37B1B012C01C601B501A20191010E946A
:104B5000417B88230CF025C2C401B30120E030E082
:104B600040EA51E40E94D57C18160CF01AC26091FC
:104B7000740E7091750E8091760E9091770E64513F
:104B80007040804090400E94E37B7B018C01C40117
:104B9000B301A80197010E94417B88230CF001C258
:104BA0006B8D7C8D8D8D9E8D20E030E040EA51E450
:104BB0000E94D57C18160CF0F4C16B8D7C8D8D8D08
:104BC0009E8DA20191010E94417B88230CF0E9C1D6
:104BD0006F89788D898D9A8D20E030E040EA51E42C
:104BE0000E94D57C18160CF0DCC16F89788D898DF8
:104BF0009A8DA80197010E94417B88230CF0D1C1B6
:104C000088E796E169E979E00E94227688E796E1F3
:104C10004B8D5C8D6D8D7E8D22E030E00E94B276F2
:104C200088E796E169E872E00E94227688E796E1DB
:104C30004F89588D698D7A8D22E030E00E94B276DE
:104C400088E796E16FE979E00E94227688E796E1AD
:104C5000B601A50122E030E00E94B27688E796E135
:104C600069E872E00E94227688E796E1B401A30128
:104C700022E030E00E94B4761092BF0DC601B5016B
:104C80002B8D3C8D4D8D5E8D0E94DC7A1B012C019D
:104C9000C401B3012F89388D498D5A8D0E94DC7A69
:104CA0003B014C01C201B10120E030E040E050E0A6
:104CB0000E94D57C18161CF48201710106C0820185
:104CC000710117FB109517F91095C401B30120E08D
:104CD00030E040E050E00E94D57C18161CF4A4019E
:104CE000930103C0A40193015058C801B7010E9469
:104CF000D57C18169CF021E030E03E8B2D8BD40142
:104D0000C301B05889A79AA7ABA7BCA7AF8DB8A11C
:104D10005D01CC24B7FCC094DC2C4EC021E030E017
:104D20003E8B2D8BD201C101B0588DA39EA3AFA3A2
:104D3000B8A7AF8DB8A15D01CC24B7FCC094DC2C22
:104D400006C02D893E892F5F3F4F3E8B2D8BC201C0
:104D5000B10120E030E040E050E00E94D57C181620
:104D60001CF48201710104C0EDA0FEA00FA118A5E2
:104D7000AD89BE89BD01882777FD8095982F0E9457
:104D8000E37B9B01AC01C801B7010E94487B7B011A
:104D90008C01C601B5010E94E37B9B01AC01C801F7
:104DA000B7010E94D57C181664F234C02D893E8963
:104DB0002F5F3F4F3E8B2D8BC401B30120E030E0CD
:104DC00040E050E00E94D57C18161CF48401730169
:104DD00004C0E9A4FAA40BA51CA5AD89BE89BD0138
:104DE000882777FD8095982F0E94E37B9B01AC017B
:104DF000C801B7010E94487B7B018C01C601B50147
:104E00000E94E37B9B01AC01C801B7010E94D57CE5
:104E1000181664F22D893E895901CC24B7FCC09440
:104E2000DC2CC601B5010E94E37B7B018C01C20131
:104E3000B101A80197010E94487B6D837E838F8317
:104E40009887C401B301A80197010E94487B698338
:104E50007A838B839C831092BE0D198A1A8A1B8ACF
:104E60001C8A19861A861B861C86A9A2BAA2CBA206
:104E7000DCA26B8D7C8D8D8D9E8D2D813E814F8131
:104E800058850E94DD7A6B8F7C8F8D8F9E8F6F8906
:104E9000788D898D9A8D29813A814B815C810E9420
:104EA000DD7A6F8B788F898F9A8F6B8D7C8D8D8D4E
:104EB0009E8D2F89388D498D5A8D0E943F0E6D87AA
:104EC0007E878F87988B6B8D7C8D8D8D9E8D2F89A6
:104ED000388D498D5A8D0E94080E1B012C01698462
:104EE0007A848B849C8489A19AA1ABA1BCA1680E11
:104EF000791E8A1E9B1E69897A898B899C890E94EA
:104F0000E37B5B016C016091BA0D7091BB0D8091E8
:104F1000BC0D9091BD0D20E030E040E850E40E94CF
:104F2000D97C7B018C01C401B301A60195010E94CB
:104F3000680E0E94B07B698B7A8B8B8B9C8B0E9456
:104F4000E37B7B018C018BE39FE0B801A7010E940A
:104F5000604E8FE79FE0B801A7010E94604E6D850B
:104F60007E858F859889A20191010E94E21C898526
:104F70009A85AB85BC850197A109B10989879A8774
:104F8000AB87BC878D899E89A985BA858A0F9B1FAF
:104F9000892B09F06ECF81E08093BF0D8093BE0D09
:104FA00006C088E796E164EA79E00E94C5760E942F
:104FB0002E0DAC960FB6F894DEBF0FBECDBFCF91CD
:104FC000DF911F910F91FF90EF90DF90CF90BF90F6
:104FD000AF909F908F907F906F905F904F903F9099
:104FE0002F9008952F923F924F925F926F927F92EF
:104FF0008F929F92AF92BF92CF92DF92EF92FF92E9
:105000000F931F93DF93CF93CDB7DEB7A6970FB65D
:10501000F894DEBF0FBECDBF8091980E882309F4AF
:1050200001C3CE0101966DEE7FE00E94C07A8E0131
:10503000085F1F4FC801BE016F5F7F4F0E94C07A9B
:10504000C8010E94B213F82EC8010E94D27AFF2034
:1050500071F488E796E16BE874E00E94227688E7B5
:1050600096E1BE016F5F7F4F0E940877D6C288E746
:1050700096E166EA74E00E94227640910A0F509110
:105080000B0F60910C0F70910D0F88E796E12AE0ED
:1050900030E00E94A37588E796E162EB74E00E941D
:1050A000227640910E0F50910F0F6091100F70916A
:1050B000110F88E796E12AE030E00E94E17588E769
:1050C00096E165EB74E00E9422764091D00D5091FC
:1050D000D10D6091D20D7091D30D88E796E12AE051
:1050E00030E00E94A37588E796E161EC74E00E94CD
:1050F000C5766091D00D7091D10D8091D20D9091B7
:10510000D30D20910A0F30910B0F40910C0F50914D
:105110000D0F0E943D7ECA01B9010E94E37B60939E
:10512000DC0D7093DD0D8093DE0D9093DF0D88E72D
:1051300096E163EC74E00E9422764091DC0D509180
:10514000DD0D6091DE0D7091DF0D88E796E122E0C4
:1051500030E00E94B47688E796E163ED74E00E9447
:1051600022764091D00D5091D10D6091D20D709169
:10517000D30D88E796E12AE030E00E94E17588E7E8
:1051800096E160E474E00E9422766091140F7091C1
:10519000150F88E796E14AE050E00E940576E0901E
:1051A000D00DF090D10D0091D20D1091D30DC8010A
:1051B000B7010E94E37B2091E00D3091E10D409119
:1051C000E20D5091E30D0E94D97C0E94B07B609368
:1051D000D40D7093D50D8093D60D9093D70D20905C
:1051E000C80D3090C90D4090CA0D5090CB0D2E0CBB
:1051F0003F1C401E511E2091CC0D3091CD0D409191
:10520000CE0D5091CF0D260F371F481F591F2F87E6
:10521000388B498B5A8B88E796E16AEC79E00E94DB
:10522000227688E796E1B201A1012AE030E00E94EF
:10523000A37588E796E162ED79E00E94227688E71F
:1052400096E14F85588969897A892AE030E00E9481
:10525000E1758BE39FE00E94014C3B014C018FE71D
:105260009FE00E94014C6BA37CA38DA39EA3609141
:10527000C80D7091C90D8091CA0D9091CB0D0E94FF
:10528000E37B7B018C016091CC0D7091CD0D809101
:10529000CE0D9091CF0D0E94E37B9B01AC01C80124
:1052A000B7010E943F0E7B018C016091C80D709187
:1052B000C90D8091CA0D9091CB0D0E94E37B5B01DB
:1052C0006C016091CC0D7091CD0D8091CE0D9091BF
:1052D000CF0D0E94E37B9B01AC01C601B5010E948A
:1052E000080E5B016C01C401B3010E94E37B3B012A
:1052F0004C016BA17CA18DA19EA10E94E37B9B012F
:10530000AC01C401B301E4E18E2E912CC7DB8BE329
:105310009FE00E94014C3B014C018FE79FE00E94FF
:10532000014C6F8F78A389A39AA3C201B1010E9497
:10533000E37B6B8F7C8F8D8F9E8F6091CC0D7091F6
:10534000CD0D8091CE0D9091CF0D0E94E37B9B01FE
:10535000AC016B8D7C8D8D8D9E8D0E943F0E7B01EF
:105360008C016091CC0D7091CD0D8091CE0D9091FE
:10537000CF0D0E94E37B9B01AC016B8D7C8D8D8DED
:105380009E8D0E94080E5B016C01C401B3010E9456
:10539000E37B3B014C016F8D78A189A19AA10E940A
:1053A000E37B9B01AC01C401B301B4E18B2E912CD2
:1053B00075DB8BE39FE00E94014C3B014C018FE7C2
:1053C0009FE00E94014C6F8B788F898F9A8F6F8539
:1053D000788989899A890E94E37B1B012C016B8D56
:1053E0007C8D8D8D9E8DA20191010E943F0E7B01CF
:1053F0008C016B8D7C8D8D8D9E8DA20191010E9403
:10540000080E5B016C01C401B3010E94E37B3B0108
:105410004C016F89788D898D9A8D0E94E37B9B0169
:10542000AC01C401B301A4E18A2E912C37DB8BE3DC
:105430009FE00E94014C3B014C018FE79FE00E94DE
:10544000014C6B8B7C8B8D8B9E8B6091C80D70910A
:10545000C90D8091CA0D9091CB0D0E94E37BA201F2
:1054600091010E943F0E7B018C016091C80D7091EB
:10547000C90D8091CA0D9091CB0D0E94E37BA201D2
:1054800091010E94080E5B016C01C401B3010E94EE
:10549000E37B3B014C016B897C898D899E890E944D
:1054A000E37B9B01AC01C401B301F4E18F2E912C8D
:1054B000F5DA8BE39FE00E94014C3B014C018FE742
:1054C0009FE00E94014C1B012C016091C80D70915E
:1054D000C90D8091CA0D9091CB0D0E94E37B7B0199
:1054E0008C016091CC0D7091CD0D8091CE0D90917D
:1054F000CF0D0E94E37B9B01AC01C801B7010E9464
:105500003F0E7B018C016091C80D7091C90D809197
:10551000CA0D9091CB0D0E94E37B5B016C01609101
:10552000CC0D7091CD0D8091CE0D9091CF0D0E943C
:10553000E37B9B01AC01C601B5010E94080E5B0133
:105540006C01C401B3010E94E37B3B014C01C20129
:10555000B1010E94E37B9B01AC01C401B301E4E112
:105560008E2E912C9BDA8BE39FE00E94014C3B0135
:105570004C018FE79FE00E94014C1B012C016091C0
:10558000C80D7091C90D8091CA0D9091CB0D0E94EC
:10559000E37B7B018C016091CC0D7091CD0D8091EE
:1055A000CE0D9091CF0D0E94E37B9B01AC01C80111
:1055B000B7010E943F0E7B018C016091C80D709174
:1055C000C90D8091CA0D9091CB0D0E94E37B5B01C8
:1055D0006C016091CC0D7091CD0D8091CE0D9091AC
:1055E000CF0D0E94E37B9B01AC01C601B5010E9477
:1055F000080E5B016C01C401B3010E94E37B3B0117
:105600004C01C201B1010E94E37B9B01AC01C401CA
:10561000B301B4E18B2E912C41DACE0101960E94A8
:10562000D27A06C088E796E16CE679E00E94C576FA
:10563000A6960FB6F894DEBF0FBECDBFCF91DF9117
:105640001F910F91FF90EF90DF90CF90BF90AF90A0
:105650009F908F907F906F905F904F903F902F9092
:1056600008952F923F924F925F926F927F928F9206
:105670009F92AF92BF92CF92DF92EF92FF920F93E1
:105680001F93DF93CF93CDB7DEB76E970FB6F89425
:10569000DEBF0FBECDBF6B877C878D879E872F8730
:1056A000388B498B5A8BEB8AFC8A0D8B1E8BAF8A09
:1056B000B88EC98EDA8E0F2EF0E06F2EF0E07F2EBE
:1056C000F0E08F2EF0E09F2EF02D1A8219828CAD23
:1056D0009DADAA2797FDA095BA2F8B8F9C8FAD8F7C
:1056E000BE8F60E070E080E89FE3A40193010E9418
:1056F000DC7A7B018C01A80197010E94D97CAC0166
:10570000CB01DA018F839887A987BA87C401B301D7
:10571000A40193010E94DD7AA80197010E94D97C1F
:105720006B837C838D839E83C401B301A4019301A9
:105730000E94D97CAC01CB01DA011C012D01ACAD7A
:10574000BDADAB2BB1F06B8D7C8D8D8D9E8D0E9490
:10575000E37B7B018C018BE39FE0B801A7010E94F2
:10576000604E8FE79FE0B801A7010E94604E109243
:10577000BE0D1092BF0D6B857C858D859E850E9428
:10578000E37B9B01AC016F81788589859A850E94B6
:10579000D97C7B018C016CA97DA98EA99FA90E944F
:1057A000E37B9B01AC016B817C818D819E810E949A
:1057B000D97C9B01AC01C801B7010E94DD7A7B0155
:1057C0008C016B897C898D899E890E94E37B9B017A
:1057D000AC01C201B1010E94D97C9B01AC01C8019E
:1057E000B7010E94DD7A5B016C016F857889898938
:1057F0009A890E94E37B9B01AC016F817885898542
:105800009A850E94D97C7B018C0168AD79AD8AAD07
:105810009BAD0E94E37B9B01AC016B817C818D8100
:105820009E810E94D97C9B01AC01C801B7010E94F6
:10583000DD7A7B018C016F89788D898D9A8D0E942C
:10584000E37B9B01AC01C201B1010E94D97C9B01A9
:10585000AC01C801B7010E94DD7A9B01AC01C60111
:10586000B5010E94E21CB1E0B093BF0DB093BE0D34
:10587000C401B3012AE037ED43E25CE30E94DD7A24
:105880003B014C0189819A8101969A8389838536EF
:10589000910509F026CF6E960FB6F894DEBF0FBEC5
:1058A000CDBFCF91DF911F910F91FF90EF90DF90CF
:1058B000CF90BF90AF909F908F907F906F905F90B0
:1058C0004F903F902F900895EF92FF920F931F9368
:1058D0000BE31FE0C8010E94D950FFE7EF2EFFE065
:1058E000FF2EC7010E94D95081E08093220FC8018A
:1058F0000E94014CAB01BC01405E5F4F6F4F7F4F78
:10590000C8010E945052C7010E94014CAB01BC016A
:10591000405E5F4F6F4F7F4FC7010E945052C801DA
:105920000E94014CAB01BC014052504060407040AD
:10593000C8010E945052C7010E94014CAB01BC013A
:105940004052504060407040C7010E94505288E76A
:1059500096E16AED79E00E94C5761F910F91FF9064
:10596000EF900895EF92FF920F931F937C0108E749
:1059700016E1C80162EC73E00E948474C801B701AB
:105980000E94D676C80164EA73E00E94CF741F912A
:105990000F91FF90EF900895AF92BF92CF92DF9258
:1059A000EF92FF920F931F93DF93CF93CDB7DEB7A4
:1059B0002E970FB6F894DEBF0FBECDBFADB6BEB604
:1059C0007E010894E11CF11CC7016DEE7FE00E948E
:1059D000C07A8E01085F1F4FC80164EF7FE00E940C
:1059E000C07AC70165E072E00E94D878882309F088
:1059F00057C088E796E16AEE79E00E94227688E750
:105A000096E1B7010E94087781E08093990E8AE9B8
:105A10009EE0B7010E94AB7AC80167E07AE00E947D
:105A2000D878882309F442C0DDB6CEB64D815E81B8
:105A30004F5F5F4F8DB79EB7841B950B0FB6F894E1
:105A40009EBF0FBE8DBF0DB71EB70F5F1F4FC701A3
:105A5000B80120E030E00E9489788DEF91E1B80133
:105A60000E94085A882399F088E796E164EC71E077
:105A70000E94CF748DEF91E1B8010E94FE598823F6
:105A800031F088E796E166EB71E00E94CF748D2DCE
:105A90009C2D9C010FB6F8943EBF0FBE2DBF06C0D3
:105AA00088E796E169E07AE00E94C576CE01089623
:105AB0000E94D27ACE0101960E94D27A0FB6F89453
:105AC000BEBE0FBEADBE2E960FB6F894DEBF0FBEA3
:105AD000CDBFCF91DF911F910F91FF90EF90DF909D
