:10000000C2C20000EDC20000EBC20000E9C2000065
:10001000E7C20000E5C20000E3C20000E1C2000048
:10002000DFC20000DDC20000DBC20000D9C2000058
:10003000D7C20000D5C20000D3C20000D1C2000068
:10004000CFC200000C946753CBC20000C9C20000AD
:10005000C7C20000C5C20000C3C200000C94D36D2B
:10006000BFC200000C94FA6F0C943E71B9C200003C
:10007000B7C20000B5C20000B3C20000B1C20000A8
:100080000C943A53ADC20000ABC20000A9C20000FC
:100090000C943A700C947D71A3C20000A1C20000C0
:1000A0009FC200009DC200000C940D5399C2000035
:1000B00097C2000095C2000093C200000C94E05269
:1000C0008FC200008DC200008BC200000C947A70B9
:1000D0000C94BC7185C200000C94BA700C94FB7136
:1000E0007FC2000005A84CCDB2D44EB93836A90263
:1000F0000C50B9918688083CA6AAAA2ABE00000026
:10010000803F000000006410B71DC8206E3BAC307B
:10011000D9269041DC76F4516B6B5861B24D3C713D
:1001200005502083B8ED44930FF0E8A3D6D68CB3E6
:1001300061CBB0C2649BD4D2D38678E20AA01CF211
:10014000BDBD50424D20696D616765206D7573744A
:10015000206265206174206C6561737420313020E9
:10016000706978656C7320776964652E002C206D4A
:1001700061782064656E736974793A20002C207070
:10018000656E2077696474683A200050656E7769FF
:10019000647468207465737420004368616E6769D5
:1001A0006E67206261636B20746F206C69766520D6
:1001B0006D6F64652E0046696C652072656D6F76A3
:1001C00065642E0046696C6520616C7265616479B6
:1001D000206578697374732E00457865637574695A
:1001E0006E6720636F6D6D616E643A0053746F7259
:1001F000696E6720636F6D6D616E643A006D6D00AE
:100200004368616E6765642050656E207769647429
:100210006820746F20004E657720616363656C65AC
:10022000726174696F6E3A20004E6577206D617857
:100230002073706565643A200055703A2000446F61
:10024000776E3A2000504753504545442C005047A4
:100250004C4946542C005047535445504D554C542E
:1002600049504C4945522C00504753544550535027
:1002700045525245562C0050474D4D50455252451F
:10028000562C00504753495A452C0050474E414D7B
:10029000452C002900526563616C632070616765BD
:1002A00048656967687420696E207374657073208F
:1002B00028002900526563616C632070616765578F
:1002C0006964746820696E207374657073202800F7
:1002D0002900292C2073746570735065724D4D2070
:1002E0002800526563616C63206D6D5065725374B4
:1002F00065702028004C6F61646564206D6F746FB9
:10030000722073746570206D756C7469706C6965AA
:10031000723A004C6F61646564206D616368696E58
:1003200065206E616D653A004C6F6164656420758F
:100330007020706F733A004C6F6164656420646F65
:10034000776E20706F733A004C6F61646564206D46
:100350006F746F7220737465707320706572207291
:1003600065763A004C6F61646564206D6D20706540
:1003700072207265763A004C6F61646564206D612D
:100380006368696E65206865696768743A004C6FD8
:1003900061646564206D616368696E652077696476
:1003A00074683A002069736E2774206120636F6D52
:1003B0006D616E642049207265636F676E69736555
:1003C0002E00536F7272792C200029206E6F7420DA
:1003D0007061727365642E00436F6D6D616E642091
:1003E0002800436865636B73756D206E6F74206DB4
:1003F000617463686564213A004920676F74200066
:100400007600504F4C41524752415048204F4E21A8
:10041000007C3C3E5E2B3D3F2F5B5D3B2C2A225CEB
:100420000000002100240027002A002D00300033A6
:100430000001010000040107010A0100002200255B
:100440000028002B002E00310034000201000005BE
:100450000108010B01000020002300260029002CC8
:10046000002F003200000100000301060109010510
:10047000050505070508080808020202020A0A081D
:100480000804040404010101010101010103030343
:100490000303030303040707070C0C0C0C0C0C0CE0
:1004A0000C0202020206060606060606060B0B0BE7
:1004B0000B0B0B0B0B010210202008081020401022
:1004C0002040800201020108040201010204081018
:1004D0002040808040201008040201800402018036
:1004E000402010080402010804020101020408105F
:1004F00020408001020408102040800000090A0208
:10050000080B0C0D070603040100000000000000AA
:1005100000000000000000000000000000000000DB
:100520000000000000000011100F0000000000009B
:1005300000000000000000000000000000000000BB
:1005400000494E46494E4954594E414ECDCCCC3DC2
:100550000AD7233C17B7D13877CC2B329595E624B0
:100560001FB14F0A000020410000C84200401C4655
:1005700020BCBE4CCA1B0E5AAEC59D74120BA753AD
:1005800045576B730D0B11241FBECFEFD1E2DEBFB9
:10059000CDBF00E00CBF1EE0A0E0B2E0E6ECFEEF55
:1005A00000E00BBF02C007900D92AE35B107D9F73E
:1005B0001BBE17E1AEE5BEE001C01D92A530B1073C
:1005C000E1F715E0C4E8D5E004C02297FE010E94DF
:1005D000117FCC37D107C9F70E94A1740C94577FC3
:1005E0000FCDA0E0B0E0E7EFF2E00C94287FEC0143
:1005F000A880B980CA80DB80A114B104C104D104F1
:1006000041F484E2A82E89EDB82E8BE5C82E87E050
:10061000D82EC601B5012DE133EF41E050E00E9434
:10062000E07E27EA31E440E050E00E94807E7B01DA
:100630008C01C601B5012DE133EF41E050E00E948D
:10064000E07ECA01B9012CEE34EF4FEF5FEF0E945C
:10065000807E6E0D7F1D801F911F97FF04C061502B
:10066000704080409048688379838A839B839B0194
:10067000AC015F77B901CA01CDB7DEB7EAE00C94EF
:10068000447FAFCF86EA9DE0ACCF6093A60D709318
:10069000A70D8093A80D9093A90D0895662777273D
:1006A000C8C0FC0188279927E89421912032E9F3FA
:1006B000293010F02E30C8F32B3239F02D3231F4BE
:1006C000689403C0AED0820F911D219120532A302F
:1006D000C8F31EF4909581959F4F08951F93FC01D8
:1006E00099278827BC01E89411911032E9F3193059
:1006F00010F01E30C8F31B3249F01D3241F46894EB
:1007000005C07AD0610F711D811D911D119110538B
:100710001A30B8F33EF490958095709561957F4FAF
:100720008F4F9F4F1F910895FB01DC0104C08D91F5
:100730000190801921F441505040C8F7881B990B53
:100740000895FB01DC0102C001900D924150504020
:10075000D8F70895FC018191861721F08823D9F7F5
:10076000992708953197CF010895FB01DC018D9100
:10077000019080190110D9F3990B0895FB01DC0158
:1007800001900D920020E1F70895FB01DC0141503A
:10079000504030F08D910190801919F40020B9F784
:1007A000881B990B0895FB01DC014150504048F033
:1007B00001900D920020C9F701C01D924150504098
:1007C000E0F70895FB0151915523A9F0BF01DC0129
:1007D0004D9145174111E1F759F4CD0101900020E9
:1007E00049F04D9140154111C9F3FB014111EFCF83
:1007F00081E090E001970895592F482F372F262F39
:10080000660F771F881F991F660F771F881F991F14
:10081000620F731F841F951F660F771F881F991F14
:1008200008957AE0979F902D879F802D910D112438
:100830000895A0E0B0E0EFE1F4E00C94267FEC0135
:100840005B016115710519F0FB0191838083F990BB
:100850008F2D90E00E94157F892BC9F7FDE2FF16CE
:1008600021F4F990EE24E39405C02BE2F21609F48A
:10087000F990EE248E0101501040C80161E475E04A
:1008800043E050E033D1892BF9F48E010E5F1F4F06
:10089000C80164E475E045E050E028D1892B19F4E3
:1008A0008E01095F1F4FA114B10419F0F5011183E6
:1008B0000083E0FC04C070E090E080E813C070E0CA
:1008C00090E080E86FEF07C1C80169E475E043E09C
:1008D00050E00CD1892B69F4A114B10429F470E023
:1008E00090E080EC6FE7F7C02296F501D183C083DA
:1008F000F6CF8824992440E050E060E070E0EF2DCE
:10090000E053EA30A0F5F2E0EF2A8E2D90E09C0152
:1009100028703070E2FE06C0232B79F50894811C04
:10092000911C2BC0232B19F0089481089108DB013E
:10093000CA0112E0880F991FAA1FBB1F1A95D1F791
:10094000480F591F6A1F7B1F440F551F661F771FD3
:100950004E0F511D611D711D483929E9520729E9C2
:10096000620729E1720748F084E0E82A06C0EE3FFA
:1009700031F4E3FC39C098E0E92AF990C0CFE533BF
:1009800011F0E53189F529912D3219F4E0E1EE2AD3
:1009900005C02B3219F081E090E003C0299182E07C
:1009A00090E0E22FE053EA3018F0C81BD90B1CC0CE
:1009B00020E030E0FCE020383F075CF4C901880FFC
:1009C000991F880F991F280F391F220F331F2E0FD1
:1009D000311DE991E053EA3068F3E4FE03C030953D
:1009E00021953F4F820E931ECE2CDD24E1FE07C0E1
:1009F000A114B10421F02197F501D183C083CB016B
:100A0000BA010E94807C7B018C01F3E0CF22DD24BF
:100A100023E0C216D10421F417FB109517F91095A5
:100A200057016801C801B70120E030E040E050E024
:100A30000E94E07B882309F44AC097FE0DC020E69F
:100A4000E22E25E0F22E9094819491089394C0E2D6
:100A5000D0E000E010E012C098E7E92E95E0F92E12
:100A6000F6CFF7012591359145915491C601B50115
:100A70000E94787D5B016C018C1A9D0A8C169D0684
:100A800084F7D595C7950F5F1F4F0630110529F0E4
:100A90008CEF9FEFE80EF91EF1CFC501D6017C0166
:100AA0008D018C2D880F8D2D881F8F3F51F0C60131
:100AB000B50120E030E040E050E00E94E07B882378
:100AC00031F482E290E090930417809303177E2D17
:100AD0009F2D802F612F272F392F482F562FB90197
:100AE000CA01CDB7DEB7ECE00C94427FFB01DC011C
:100AF0004150504088F08D9181341CF08B350CF4BE
:100B0000805E659161341CF06B350CF4605E861B71
:100B1000611171F3990B0895881BFCCFAF92BF92BE
:100B2000CF92DF92EF92FF920F931F936E157F0586
:100B30008007910734F42E153F054007510764F4F0
:100B40002CC0E616F7060807190794F4A216B30698
:100B5000C406D5063CF423C0A216B306C406D506C7
:100B6000BCF41FC02A153B054C055D05C4F41BC031
:100B70006E157F058007910791F42A153B054C05FA
:100B80005D058CF0A216B306C406D50644F409C070
:100B90002A153B054C055D0511F484E005C082E093
:100BA00003C083E001C081E01F910F91FF90EF909F
:100BB000DF90CF90BF90AF900895EF92FF920F9388
:100BC0001F937B018C01662757FD6095762FCB0123
:100BD000BA010E94827C20916A0E30916B0E409186
:100BE0006C0E50916D0E0E94787DA80197010E94B5
:100BF000E77B7B018C0120E030E040E050E40E9484
:100C0000747D87FF03C061E070E004C0C801B701D4
:100C10000E944F7CCB011F910F91FF90EF900895A0
:100C20006F927F928F929F92AF92BF92CF92DF92FC
:100C3000EF92FF920F931F93CF93DF937C015B01A1
:100C4000662757FD6095762FCB01BA010E94827C02
:100C50003B014C010027F7FC0095102FC801B7019C
:100C60000E94827C7B018C01CC24B7FCC094DC2CDC
:100C7000C601B5010E94827C9B01AC01C801B7018D
:100C80000E94E77BA40193010E94787D9B01AC0147
:100C9000C401B3010E947B7B7B018C010E944F7CCD
:100CA000EB01BE01882777FD8095982F0E94827CFA
:100CB0009B01AC01C801B7010E947B7B20E030E0C2
:100CC00040E05FE30E94747D18160CF42196CE017B
:100CD000DF91CF911F910F91FF90EF90DF90CF9018
:100CE000BF90AF909F908F907F906F900895CF921C
:100CF000DF92EF92FF920F931F93CF93DF93EC015C
:100D00006B01688179818A819B812091E80D309106
:100D1000E90D4091EA0D5091EB0D0E94787D6883BA
:100D200079838A839B83F6016081718182819381BB
:100D30002091EC0D3091ED0D4091EE0D5091EF0DA5
:100D40000E94787D7B018C01F60160837183828330
:100D5000938320915B1130915C11C9018E978A3584
:100D6000910580F4288139814A815B81D801C701CE
:100D7000B05888839983AA83BB83208331834283BD
:100D8000538329C0C901885890408A35910580F461
:100D900088819981AA81BB81B05888839983AA836D
:100DA000BB83F60180819181A281B381B0580FC0CD
:100DB000225E30402A35310570F488819981AA81FC
:100DC000BB81E882F9820A831B83B058F6018083D5
:100DD0009183A283B383688179818A819B812091E9
:100DE0005D1130915E1140915F11509160110E9430
:100DF0007C7B688379838A839B83F6016081718120
:100E0000828193812091611130916211409163112F
:100E1000509164110E947C7BF60160837183828310
:100E20009383DF91CF911F910F91FF90EF90DF900F
:100E3000CF9008952F923F924F925F926F927F9240
:100E40008F929F92AF92BF92CF92DF92EF92FF92DA
:100E50000F931F931B012C0139014A016091720EFF
:100E60007091730E8091740E9091750E0E94827C29
:100E70007B018C01A80197010E94787D5B016C01C8
:100E8000C401B301A40193010E94787D9B01AC01D0
:100E9000C601B5010E947B7B5B016C01C201B101FF
:100EA000A20191010E94787D9B01AC01C601B501B0
:100EB0000E947C7B5B016C01C801B701A80197010E
:100EC0000E947C7B9B01AC01C601B5010E94E77BBF
:100ED0001F910F91FF90EF90DF90CF90BF90AF9058
:100EE0009F908F907F906F905F904F903F902F904A
:100EF00008950F931F93CF93DF93242F2627A22FBC
:100F0000B0E0AF70B070AA0FBB1FAA0FBB1FC2E04A
:100F1000D1E0AC0FBD1FFD010591159125913491D4
:100F2000E4E09695879577956795EA95D1F706273A
:100F300017272827392742954F70402750E04F70D8
:100F40005070440F551F440F551F4C0F5D1FFA0181
:100F500085919591A591B49144E036952795179583
:100F600007954A95D1F7082719272A273B27B80163
:100F7000C901DF91CF911F910F910895EF92FF92D8
:100F80000F931F938130910509F03BC26F5F7F4F34
:100F900009F03EC385EC9FE060E072E00E94CA7AEF
:100FA0008FE59EE00E947C5083E69EE066E072E062
:100FB0000E94CA7A8CEC9FE067E072E00E94CA7AD5
:100FC0006091B00D7091B10D882777FD8095982FB5
:100FD0002091AA0D3091AB0D442737FD4095542F39
:100FE0000E94807E0E94827C7B018C016091AC0D0E
:100FF0007091AD0D8091AE0D9091AF0DA80197014C
:101000000E94E77B60936A0E70936B0E80936C0E68
:1010100090936D0EC801B7012091AC0D3091AD0DCC
:101020004091AE0D5091AF0D0E94E77B7B018C018A
:1010300060936E0E70936F0E8093700E9093710E8E
:101040006091E40D7091E50D882777FD8095982FCC
:101050000E94827CA80197010E94787D0E944F7CAB
:101060006093720E7093730E8093740E9093750E4E
:101070006091E60D7091E70D882777FD8095982F98
:101080000E94827CA80197010E94787D0E944F7C7B
:101090006093760E7093770E8093780E9093790E0E
:1010A00083ED9FE060E172E00E94CA7A8AED9FE0E2
:1010B00062E172E00E94CA7A81EE9FE066E172E02E
:1010C0000E94CA7A88EE9FE06EE172E00E94CA7ABE
:1010D0008FEE9FE061E572E00E94CA7A86EF9FE0A2
:1010E00061E572E00E94CA7A8DEF9FE061E572E0EF
:1010F0000E94CA7A84E090E161E572E00E94CA7AB7
:101100008BE090E160E672E00E94CA7A82E190E1B1
:101110006AE672E00E94CA7A89E190E161E772E0D2
:101120000E94CA7A80E290E169E772E00E94CA7A7E
:1011300087E290E164E872E00E94CA7A8EE290E170
:101140006BE070E10E945F7B8AE89EE066E072E0FF
:101150000E94CA7A85E390E16AE872E00E94CA7A46
:101160008CE390E16CE872E00E94CA7A83E490E13B
:1011700061E972E00E94CA7A8AE490E165E972E06E
:101180000E94CA7A81E590E169E972E00E94CA7A18
:1011900088E590E16DE972E00E94CA7A8FE590E1FE
:1011A00061EA72E00E94CA7A86E690E165EA72E03E
:1011B0000E94CA7A8DE690E169EA72E00E94CA7ADA
:1011C00084E790E16DEA72E00E94CA7A8BE790E1D1
:1011D00061EB72E00E94CA7A82E890E165EB72E00E
:1011E0000E94CA7A89E890E169EB72E00E94CA7AAB
:1011F00080E990E16DEB72E00E94CA7A87E990E1A4
:1012000061EC72E00E94CA7A8EE990E165EC72E0CE
:101210000E94CA7A85EA90E169EC72E00E94CA7A7B
:101220008CEA90E16DEC72E00E94CA7A83EB90E167
:1012300061ED72E00E94CA7A8AEB90E165ED72E09E
:101240000E94CA7A81EC90E169ED72E00E94CA7A4C
:1012500088EC90E16DED72E00E94CA7A8FEC90E12B
:1012600061EE72E00E94CA7A86ED90E165EE72E06E
:101270000E94CA7A8DED90E169EE72E00E94CA7A0E
:1012800084EE90E16DEE72E00E94CA7A8BEE90E1FE
:1012900061EF72E00E94CA7A82EF90E165EF72E03E
:1012A0000E94CA7A89EF90E169EF72E00E94CA7ADF
:1012B00080E091E16DEF72E00E94CA7A87E091E1EF
:1012C00061E073E00E94CA7A8EE091E165E073E02C
:1012D0000E94CA7A85E191E169E073E00E94CA7ACE
:1012E0008CE191E16DE073E00E94CA7A83E291E1C2
:1012F00061E173E00E94CA7A8AE291E165E173E0FC
:101300000E94CA7A81E391E169E173E00E94CA7A9E
:1013100088E391E16DE173E00E94CA7A8FE391E185
:1013200061E273E00E94CA7A86E491E165E273E0CB
:101330000E94CA7A8DE491E169E273E00E94CA7A60
:1013400084E591E16DE273E00E94CA7A83E99EE050
:1013500066E072E00E94CA7A8CE99EE066E072E084
:101360000E94CA7A1092A80E1092A90E1092AC0E8A
:101370001092AE0E82E090E0A0E0B0E08093AF0E5D
:101380009093B00EA093B10EB093B20E1092C60E11
:101390001092D00E1092CF0E8AE49EE09093CE0E63
:1013A0008093CD0E1092D20E8AEE9EE00E94AF5531
:1013B00085E09FE066E072E00E94CA7A6091AA0D23
:1013C0007091AB0D85E29FE041E00E94465560912F
:1013D000AA0D7091AB0D81E39FE042E00E9446555B
:1013E0008DE39FE065E375E34FE255E30E94C74B51
:1013F00081E89FE069E275E343E255E30E94C74B51
:1014000007C1892B09F004C16F5F7F4F09F000C14C
:1014100085E09FE00E94717B8AEE9EE00E94C255AB
:101420008CE99EE00E94717B83E99EE00E94717BC3
:1014300084E591E10E94717B8DE491E10E94717BD2
:1014400086E491E10E94717B8FE391E10E94717BC0
:1014500088E391E10E94717B81E391E10E94717BBD
:101460008AE291E10E94717B83E291E10E94717BAB
:101470008CE191E10E94717B85E191E10E94717B99
:101480008EE091E10E94717B87E091E10E94717B87
:1014900080E091E10E94717B89EF90E10E94717B75
:1014A00082EF90E10E94717B8BEE90E10E94717B54
:1014B00084EE90E10E94717B8DED90E10E94717B42
:1014C00086ED90E10E94717B8FEC90E10E94717B30
:1014D00088EC90E10E94717B81EC90E10E94717B2D
:1014E0008AEB90E10E94717B83EB90E10E94717B1B
:1014F0008CEA90E10E94717B85EA90E10E94717B09
:101500008EE990E10E94717B87E990E10E94717BF6
:1015100080E990E10E94717B89E890E10E94717BF3
:1015200082E890E10E94717B8BE790E10E94717BE1
:1015300084E790E10E94717B8DE690E10E94717BCF
:1015400086E690E10E94717B8FE590E10E94717BBD
:1015500088E590E10E94717B81E590E10E94717BBA
:101560008AE490E10E94717B83E490E10E94717BA8
:101570008CE390E10E94717B85E390E10E94717B96
:101580008AE89EE00E94717B8EE290E10E94717B6E
:1015900087E290E10E94717B80E290E10E94717B82
:1015A00089E190E10E94717B82E190E10E94717B70
:1015B0008BE090E10E94717B84E090E10E94717B5E
:1015C0008DEF9FE00E94717B86EF9FE00E94717B10
:1015D0008FEE9FE00E94717B88EE9FE00E94717BFE
:1015E00081EE9FE00E94717B8AED9FE00E94717BFB
:1015F00083ED9FE00E94717B8CEC9FE00E94717BE9
:1016000083E69EE00E94717B85EC9FE00E94717BE7
:101610001F910F91FF90EF90089580E090E06FEFA1
:101620007FEFACCC81E090E06FEF7FEFA7CCCF9263
:10163000DF92EF92FF920F931F93CF93DF936C0192
:10164000EE24EA94FE2C8701C0E0D0E00BC0C60176
:10165000BE010E943E78482FC801B7014ADC7B01D9
:101660008C012196F60184819581C817D90778F3FA
:10167000A80197012095309540955095B901CA0170
:10168000DF91CF911F910F91FF90EF90DF90CF905E
:1016900008950F931F9384E090E00E94DE6B8C010D
:1016A0000E94656C2DB73EB7201B310BC9011F91FD
:1016B0000F910895EEDF9C0180917E0E90917F0E38
:1016C00028173907D1F030937F0E20937E0E88E7DC
:1016D00096E161EE7FE00E94757760917E0E7091D9
:1016E0007F0E88E796E14AE050E00E944F7688E757
:1016F00096E16CE370E10C94A777089588E796E192
:1017000062E170E10C94A77788E796E16BE070E105
:101710000C94A777AF92BF92CF92DF92EF92FF9295
:101720000F931F937B018C01CA01B9010E94787D40
:101730005B016C01C801B701A80197010E94787D87
:101740009B01AC01C601B5010E947B7B0E94E57D37
:101750001F910F91FF90EF90DF90CF90BF90AF90CF
:1017600008956F927F928F929F92AF92BF92CF9285
:10177000DF92EF92FF920F931F937B018C015ADB54
:101780005B016C01A8019701C5DF3B014C01E090B2
:10179000C40DF090C50D0091C60D1091C70DC80184
:1017A000B7010E94827C9B01AC01C601B5010E9479
:1017B000E07B87FD4AC08091CC0D9091CD0DA0912A
:1017C000CE0DB091CF0DE80EF91E0A1F1B1FC801E8
:1017D000B7010E94827C9B01AC01C601B5010E9449
:1017E000747D181694F1E090C80DF090C90D009129
:1017F000CA0D1091CB0DC801B7010E94827C9B01DC
:10180000AC01C401B3010E94E07B87FD1EC0DD2452
:101810008091D00D9091D10DA091D20DB091D30DAA
:10182000E80EF91E0A1F1B1FC801B7010E94827C27
:101830009B01AC01C401B3010E94747D181614F41D
:10184000DD24D39481E0D82601C0DD248D2D1F91A5
:101850000F91FF90EF90DF90CF90BF90AF909F904F
:101860008F907F906F900895AF92BF92CF92DF924A
:10187000EF92FF920F931F937B018C0159016A0134
:101880006091720E7091730E8091740E9091750E2E
:101890000E94827CA80197010E947B7B9B01AC0186
:1018A0000E94787D7B018C01C601B501A6019501DE
:1018B0000E94787D9B01AC01C801B7010E947C7B2E
:1018C0000E94E57D1F910F91FF90EF90DF90CF90E8
:1018D000BF90AF900895AF92BF92CF92DF92EF92F8
:1018E000FF920F931F937B018C0159016A01A8019C
:1018F00097010E94787D7B018C01C601B501A6018C
:1019000095010E94787D9B01AC01C801B7010E943E
:101910007C7B0E94E57D1F910F91FF90EF90DF90FF
:10192000CF90BF90AF9008952F923F924F925F92C9
:101930006F927F928F929F92AF92BF92CF92DF92DF
:10194000EF92FF920F931F93DF93CF9300D00F92EC
:10195000CDB7DEB769837A838B839C8359016A0193
:1019600017012801611571058105910559F40F2EA4
:10197000F0E0EF2EF0E0FF2EF0E00F2FF0E01F2F51
:10198000F02DA4C0CA01B9010E94787D7B018C01B1
:10199000C601B50120E030E040E050E00E94E07B6D
:1019A000882324F417FB109517F91095C201B10193
:1019B000A20191010E947C7B3B014C01C801B7014F
:1019C000A40193010E94E77B7B018C0169817A81EC
:1019D0008B819C810E94827C9B01AC01C801B70174
:1019E0000E94E07B8823B4F5C601B50120E030E019
:1019F00040E050E00E94E07B882329F4C401B30159
:101A00000E94E57D0DC0C201B101A60195010E94B1
:101A1000E77B9B01AC015F77C601B5010E947C7B2F
:101A20007B018C01D090B20DC090B30DB090B40D7D
:101A3000A090B50D2D2D3C2D4B2D5A2D0E94747D5F
:101A400018160CF043C08D2D9C2DAB2DBA2D7C01AA
:101A50008D013CC0C601B50120E030E040E050E01F
:101A60000E94E07B882359F4C401B3010E94E57D04
:101A70007B018C0117FB109517F910950FC0C2015F
:101A8000B101A60195010E94E77B9B01AC015F7744
:101A9000C601B5010E947B7B7B018C018091B20D58
:101AA0009091B30DA091B40DB091B50D5C016D0195
:101AB000D7FAD094D7F8D094C801B701A601950100
:101AC0000E94E07B882314F486017501B701C801E8
:101AD0000F900F900F900F90CF91DF911F910F916A
:101AE000FF90EF90DF90CF90BF90AF909F908F903E
:101AF0007F906F905F904F903F902F900895EF925E
:101B0000FF920F931F938091BB0D882309F456C059
:101B100088E796E167E270E10E9475778DE39FE0C8
:101B20000E94244A0E94827C7B018C016091B00D4E
:101B30007091B10D882777FD8095982F0E94827C47
:101B40009B01AC01C801B7010E94E77B0E944F7C5A
:101B5000AB01BC0188E796E12AE030E00E94FF7506
:101B600088E796E165E370E10E94757781E89FE080
:101B70000E94244A0E94827C7B018C016091B00DFE
:101B80007091B10D882777FD8095982F0E94827CF7
:101B90009B01AC01C801B7010E94E77B0E944F7C0A
:101BA000AB01BC0188E796E12AE030E00E94FF75B6
:101BB00088E796E16CE370E10E94A7771F910F918F
:101BC000FF90EF900895EF92FF920F931F938091F3
:101BD0007A0E90917B0EA0917C0EB0917D0E0097B5
:101BE000A105B10509F03FC06091720E7091730EAE
:101BF0008091740E9091750E0E94827C7B018C0105
:101C00006091760E7091770E8091780E9091790E9A
:101C10000E94827C9B01AC01C801B7015CDE20E020
:101C200030E040E05FE30E947C7B0E944F7C609349
:101C30007A0E70937B0E80937C0E90937D0E88E7D6
:101C400096E161E373E00E947E7640917A0E5091B6
:101C50007B0E60917C0E70917D0E88E796E12AE004
:101C600030E00E943D7660917A0E70917B0E8091FB
:101C70007C0E90917D0E1F910F91FF90EF90089533
:101C800088E796E168E473E00C94647788E796E16E
:101C90006AE971E00E94237510929B0E08958F925D
:101CA0009F92AF92BF92CF92DF92EF92FF920F93EB
:101CB0001F936C017B0188E796E16FE573E00E945A
:101CC0007E7688E796E1B6014AE050E00E944F76C2
:101CD00088E796E168E673E00E947E7688E796E101
:101CE000B7014AE050E00E94617688E796E16DE630
:101CF00073E00E947E766091160F7091170F88E74F
:101D000096E14AE050E00E94617688E796E16DE74F
:101D100073E00E947E7640910C0F50910D0F609100
:101D20000E0F70910F0F88E796E12AE030E00E94D5
:101D30003D764601AA2497FCA094BA2C8091160FF8
:101D40009091170FAA2797FDA095BA2F880E991E7C
:101D5000AA1EBB1E0027F7FC0095102F20910C0F28
:101D600030910D0F40910E0F50910F0FC801B70128
:101D70000E94807E860E971EA81EB91E88E796E1F7
:101D800067E873E00E947E7688E796E1B501A401DA
:101D90002AE030E00E94FF758091180F9091190F92
:101DA000A0911A0FB0911B0F88159905AA05BB05C4
:101DB00014F41FEF18C08AEE9EE0B501A4010E9442
:101DC00049568AEE9EE00E945956182F88E796E100
:101DD00060E973E00E947E7688E796E1612F4AE031
:101DE00050E00E94E375812F1F910F91FF90EF90BB
:101DF000DF90CF90BF90AF909F908F9008956F929B
:101E00007F928F929F92AF92BF92CF92DF92EF928A
:101E1000FF920F931F93DF93CF93CDB7DEB7A397B6
:101E20000FB6F894DEBF0FBECDBF6DB67EB68AEE9C
:101E30009EE040E050E060E070E00E9449567E0184
:101E40000894E11CF11CC7016FE973E00E94CA7A93
:101E50008AEE9EE00E945956182FC70160E070E09C
:101E60000E944F78FC0110838AEE9EE00E94595632
:101E7000182FC70161E070E00E944F78FC011083C9
:101E8000C70162EA73E00E947779882399F488E7B2
:101E900096E165EA73E00E947E7688E796E1B701F5
:101EA0000E94757788E796E163EC73E00E9464779F
:101EB00010E083C188E796E16EED73E00E946477DD
:101EC0008AEE9EE00E9459568E01085F1F4FC8019E
:101ED00066E072E00E94CA7A8AEE9EE00E9459563D
:101EE000E82E9FE0C92ED12CCC0EDD1EF02E012F46
:101EF00021C083E2E81641F48AEE9EE00E94595622
:101F0000E82E9AE0E916C1F7C6016F2D702F0E94E6
:101F1000687BC6016E2D0E949C7ABC018F2D902F8C
:101F20000E944A7BC6010E94767B8AEE9EE00E9458
:101F30005956E82E8AE0E81619F090E2E916C9F63B
:101F400088E796E164E074E00E947E7688E0E82EFF
:101F5000F12CEC0EFD1E88E796E1B7010E94A777F1
:101F60004C855D854F5F5F4F8DB79EB7841B950B8A
:101F70000FB6F8949EBF0FBE8DBF0DB71EB70F5F93
:101F80001F4F902E812EB02EA12EC701B80120E048
:101F900030E00E942879C8010E945103AA2797FDCA
:101FA000A095BA2F80930C0F90930D0FA0930E0F56
:101FB000B0930F0F0A97A105B10544F488E796E1A5
:101FC00062E471E00E94237510E0F3C0C70166E08F
:101FD00072E00E94E37A8AEE9EE00E945956182F22
:101FE00006E1C02ED12CCC0EDD1EC701FE2C092F20
:101FF0001FC0133239F48AEE9EE00E945956182F02
:102000008A30C9F7C6016F2D702F0E94687BC60108
:10201000612F0E949C7ABC018F2D902F0E944A7BD9
:10202000C6010E94767B8AEE9EE00E945956182FC8
:102030001A30F9F688E796E16FE074E00E947E7648
:1020400018E0C12ED12CCC0EDD1E88E796E1B6013A
:102050000E94A7774C855D854F5F5F4FC6016B2D52
:102060007A2D20E030E00E942879892D982D0E9459
:102070005103AA2797FDA095BA2F8093100F909334
:10208000110FA093120FB093130FBC01CD010E944A
:10209000827C7B018C0160910C0F70910D0F8091FF
:1020A0000E0F90910F0F0E94827C9B01AC01C80122
:1020B000B7010E94E77B6093DC0D7093DD0D809388
:1020C000DE0D9093DF0D88E796E16BE174E00E94EE
:1020D0007E764091DC0D5091DD0D6091DE0D7091AA
:1020E000DF0D88E796E122E030E00E945377C601D9
:1020F00066E072E00E94E37A8AEE9EE00E94595602
:10210000182F0D2DBDE1EB2EF12CEC0EFD1E16C08F
:10211000C7016C2D702F0E94687BC701612F0E9440
:102120009C7ABC018C2D902F0E944A7BC7010E9493
:10213000767B8AEE9EE00E945956182F1A3041F79E
:1021400088E796E16DE274E00E947E7688E796E18A
:102150006C2D702F0E94A7774C855D854F5F5F4F78
:102160008C2D902F6B2D7A2D20E030E00E94287965
:10217000892D982D0E9451039093150F8093140F71
:102180008AEE9EE00E9404567093170F6093160F1C
:1021900088E796E161E474E00E947E766091160F14
:1021A0007091170F88E796E14AE050E00E9461764F
:1021B00011E0CE0108960E94717BCE0101960E942B
:1021C000717B812F0FB6F8947EBE0FBE6DBEA396B5
:1021D0000FB6F894DEBF0FBECDBFCF91DF911F9138
:1021E0000F91FF90EF90DF90CF90BF90AF909F90B6
:1021F0008F907F906F900895EF92FF920F931F93AF
:10220000DF93CF93CDB7DEB7FC01EDB6FEB64481C8
:1022100055814F5F5F4F8DB79EB7841B950B0FB6EF
:10222000F8949EBF0FBE8DBF0DB71EB70F5F1F4F37
:10223000CF01B80120E030E00E942879C8010E9457
:1022400051030FB6F894FEBE0FBEEDBECF91DF91E5
:102250001F910F91FF90EF900895EF92FF920F93CF
:102260001F93DF93CF93CDB7DEB72E970FB6F894B9
:10227000DEBF0FBECDBF8E010F5F1F4FC8016FEED7
:102280007FE00E945F7BC801B7DF7C01C8010E942C
:10229000717BE114F10419F410921E0F2EC081E03D
:1022A000E816F10451F581E080931E0F8091800EB5
:1022B0009091810E03970CF18E01085F1F4FC801AA
:1022C00066EF7FE00E945F7BC80196DF7C01C8015A
:1022D0000E94717B81E0E816F10429F4F0921D0F51
:1022E000E0921C0F0AC088E796E16FE474E00E9458
:1022F000647710921D0F10921C0F2E960FB6F89453
:10230000DEBF0FBECDBFCF91DF911F910F91FF9028
:10231000EF900895EF92FF920F931F93DF93CF9367
:10232000CDB7DEB727970FB6F894DEBF0FBECDBF8F
:102330008E010F5F1F4FC8016FEE7FE00E945F7B31
:10234000C8015ADF7C01C8010E94717BEF2819F493
:102350001092920E0EC080919A0E882321F081E097
:102360008093920E06C088E796E16FE474E00E94C5
:10237000647727960FB6F894DEBF0FBECDBFCF911E
:10238000DF911F910F91FF90EF9008950F931F938E
:10239000DF93CF93CDB7DEB72E970FB6F894DEBF9D
:1023A0000FBECDBF8E010F5F1F4FC8016FEE7FE0E4
:1023B0000E945F7BC80120DF9093F30D8093F20DA4
:1023C000C8010E94717B8E01085F1F4FC80166EF34
:1023D0007FE00E945F7BC8010FDF9093F10D809337
:1023E000F00DC8010E94717B2E960FB6F894DEBFE7
:1023F0000FBECDBFCF91DF911F910F910895EF9246
:10240000FF920F931F93DF93CF93CDB7DEB76B97F8
:102410000FB6F894DEBF0FBECDBFFC01EDB6FEB621
:10242000448155814F5F5F4F8DB79EB7841B950BDD
:102430000FB6F8949EBF0FBE8DBF0DB71EB70F5FCE
:102440001F4FCF01B80120E030E00E942879CE0173
:1024500001966DEF71E1A80121E00E9452598B8134
:102460009C819093ED0E8093EC0E8D819E81AF81C7
:10247000B8858093EE0E9093EF0EA093F00EB0937C
:10248000F10E89859A85AB85BC858093F20E909379
:10249000F30EA093F40EB093F50EA6EFBEE0FE018E
:1024A0003D968DE001900D928150E1F78A8D9B8DD4
:1024B0009093040F8093030FCE0101960E94C255A2
:1024C0008AEE9EE00E942A56882329F488E796E146
:1024D00063E774E007C093DC882341F488E796E162
:1024E00064E874E00E94647780E00DC08AEE9EE0AC
:1024F0000E9417566093180F7093190F80931A0F4C
:1025000090931B0F81E00FB6F894FEBE0FBEEDBE98
:102510006B960FB6F894DEBF0FBECDBFCF91DF91A3
:102520001F910F91FF90EF900895EF92FF920F93FC
:102530001F93DF93CF93CDB7DEB727970FB6F894ED
:10254000DEBF0FBECDBF8091800E9091810E0297AD
:1025500009F0C2C085E09FE06FEE7FE00E944A7BF9
:102560008E010F5F1F4FC80165E07FE00E945F7B17
:10257000C80145DFF82EC8010E94717BFF2069F475
:1025800088E796E16CE874E00E947E7688E796E141
:1025900065E07FE00E94A777A5C088E796E167EA3B
:1025A00074E00E947E7640910C0F50910D0F609167
:1025B0000E0F70910F0F88E796E12AE030E00E943D
:1025C000FF7588E796E163EB74E00E947E764091A8
:1025D000100F5091110F6091120F7091130F88E737
:1025E00096E12AE030E00E943D7688E796E166EBCE
:1025F00074E00E947E764091CC0D5091CD0D60919B
:10260000CE0D7091CF0D88E796E12AE030E00E9470
:10261000FF7588E796E162EC74E00E946477609150
:10262000CC0D7091CD0D8091CE0D9091CF0D0E946B
:10263000827C7B018C0160910C0F70910D0F809159
:102640000E0F90910F0F0E94827C9B01AC01C8017C
:10265000B7010E94E77B6093D80D7093D90D8093EA
:10266000DA0D9093DB0D88E796E164EC74E00E944C
:102670007E764091D80D5091D90D6091DA0D709110
:10268000DB0D88E796E122E030E00E94537788E78F
:1026900096E164ED74E00E947E764091CC0D5091FD
:1026A000CD0D6091CE0D7091CF0D88E796E12AE0B7
:1026B00030E00E943D7688E796E161E474E00E9494
:1026C0007E766091160F7091170F88E796E14AE0C9
:1026D00050E00E94617606C088E796E160EE74E003
:1026E0000E94647727960FB6F894DEBF0FBECDBF69
:1026F000CF91DF911F910F91FF90EF900895AF92CE
:10270000BF92CF92DF92EF92FF920F931F93DF93CE
:10271000CF93CDB7DEB76B970FB6F894DEBF0FBE81
:10272000CDBF6C01ADB6BEB64091A00E5091A10ECA
:102730004F5F5F4F8DB79EB7841B950B0FB6F89414
:102740009EBF0FBE8DBF0DB71EB70F5F1F4F8CE929
:102750009EE0B80120E030E00E9428797E010894D4
:10276000E11CF11CC7016DEF71E1A80123E10E949A
:102770005259C7010E942A568823D1F088E796E172
:1027800067EF74E00E947E7688E796E16CE97EE070
:102790000E94A777C701B6010E94A777C7010E94D0
:1027A000375688E796E168E075E00E9464770CC0D0
:1027B00088E796E16EE075E00E947E7688E796E114
:1027C0006CE97EE00E94A777CE0101960E94C25577
:1027D0000FB6F894BEBE0FBEADBE6B960FB6F894A2
:1027E000DEBF0FBECDBFCF91DF911F910F91FF9044
:1027F000EF90DF90CF90BF90AF900895EF92FF924F
:102800000F931F9385E361E00E94146F8DEF91E1B8
:1028100065E30E94725A882329F488E796E16DE106
:1028200075E06AC088E796E169E375E00E94647725
:1028300088E796E16BE475E00E94647783EA9EE0A6
:1028400061E045E30E94C85C8823B9F488E796E11B
:1028500063E675E00E94647788E796E16BE875E0CF
:102860000E94647788E796E164EA75E00E946477E5
:1028700088E796E16EEB75E03FC088E796E162E09D
:1028800076E00E94647788E796E16BE276E00E944A
:102890007E768091AE0E823049F0833061F08130D7
:1028A00079F488E796E168E376E00EC088E796E180
:1028B0006CE376E009C088E796E160E476E004C066
:1028C00088E796E165E476E00E9464778FEA9EE00F
:1028D00063EA7EE041E00E94BE67882381F48FEACC
:1028E0009EE063EA7EE040E00E94BE67882339F400
:1028F00088E796E16DE476E00E94647774C088E72B
:1029000096E167E976E00E947E7688E796E160913D
:10291000C60E4AE050E00E94E37588E796E10E9407
:1029200003752091B30E30E040E050E06091B80EA6
:102930007091B90E8091BA0E9091BB0EE9E0660FCE
:10294000771F881F991FEA95D1F70E94807E7B012F
:102950008C0188E796E16BEA76E00E947E7688E754
:1029600096E1B801A7012AE030E00E94C17588E72E
:1029700096E161EC76E00E947E763AE01695079546
:10298000F794E7943A95D1F788E796E1B801A70163
:102990002AE030E00E94C17588E796E168ED76E0B4
:1029A0000E947E762AE016950795F794E7942A957B
:1029B000D1F788E796E1B801A7012AE030E00E944C
:1029C000C17588E796E16FEE76E00E9464778DEC42
:1029D0009EE06FEA7EE00E94D3618DEC9EE067E0AE
:1029E00040E00E94CD621F910F91FF90EF900895FB
:1029F000AF92BF92CF92DF92EF92FF920F931F930D
:102A00008DE39FE00E94455081E89FE00E94455081
:102A10008DE39FE00E94144A6115710581059105BF
:102A200009F048C06091C40D7091C50D8091C60D2C
:102A30009091C70D2091CC0D3091CD0D4091CE0DD0
:102A40005091CF0D260F371F481F591F0E94217824
:102A50005B016C016091C80D7091C90D8091CA0D28
:102A60009091CB0D2091D00D3091D10D4091D20D90
:102A70005091D30D260F371F481F591F0E942178F0
:102A80007B018C01C601B5010E94827C5B016C0157
:102A9000C801B7010E94827C9B01AC01C601B5014F
:102AA0000E946B0C0E944F7CAB01BC018DE39FE048
:102AB0000E94A94B81E89FE00E94144A61157105AC
:102AC0008105910509F048C06091C40D7091C50D54
:102AD0008091C60D9091C70D2091CC0D3091CD0DF8
:102AE0004091CE0D5091CF0D260F371F481F591F13
:102AF0000E9421785B016C016091C80D7091C90D35
:102B00008091CA0D9091CB0D2091D00D3091D10DB7
:102B10004091D20D5091D30D260F371F481F591FDA
:102B20000E9421787B018C01C601B5010E94827C44
:102B30005B016C01C801B7010E94827C9B01AC0162
:102B4000C601B5010E94340C0E944F7CAB01BC0150
:102B500081E89FE00E94A94B1F910F91FF90EF9099
:102B6000DF90CF90BF90AF900895EF92FF920F93B8
:102B70001F93CF93DF93C0E0D0E088E796E169E24E
:102B800077E00E947E7688E796E1BE014AE050E059
:102B90000E9461768DE39FE00E94144A61157105E1
:102BA0008105910509F469C081E89FE00E94144AFB
:102BB000611571058105910509F45FC08DE39FE002
:102BC0000E94455081E89FE00E944550E3CF6EEFA0
:102BD0007FEF8FEF9FEF23E030E040E050E00E9476
:102BE00021787B018C01A701662757FD6095762F20
:102BF0008DE39FE00E94BA4B88E796E162E377E0BD
:102C00000E947E7688E796E1B7014AE050E00E9494
:102C1000617681E89FE00E94144A61157105810583
:102C2000910511F56EEF7FEF8FEF9FEF23E030E01E
:102C300040E050E00E9421787B018C01A7016627CB
:102C400057FD6095762F81E89FE00E94BA4B88E798
:102C500096E168E477E00E947E7688E796E1B70126
:102C60004AE050E00E9461760E947F0D219683E049
:102C7000C83ED80709F081CF0AC08DE39FE00E94CB
:102C8000144A611571058105910519F6A0CFDF91F0
:102C9000CF911F910F91FF90EF9008958AE892E0F5
:102CA0009093040E8093030E9093060E8093050E6E
:102CB0008FE590E09093000E8093FF0D80E991E006
:102CC0009093020E8093010E81E090E09093FE0DB0
:102CD0008093FD0D93DD64EF71E080E090E00C9453
:102CE0004F6EAF92BF92CF92DF92EF92FF920F930F
:102CF0001F93CF93DF93EC015B016A018FE59EE0A8
:102D000069E070E00E941952CA15DB059CF4760157
:102D10000027F7FC0095102F8FE59EE0BE010E9472
:102D20000251C801B7010E944F6E2196AC16BD0634
:102D30009CF712C076010027F7FC0095102F8FE555
:102D40009EE0BE010E940251C801B7010E944F6E71
:102D50002197CA15DB059CF78FE59EE00E949650EF
:102D6000DF91CF911F910F91FF90EF90DF90CF9067
:102D7000BF90AF900895EF92FF920F931F93DF9350
:102D8000CF93CDB7DEB727970FB6F894DEBF0FBE4F
:102D9000CDBF8091800E9091810E2091620E02979E
:102DA00014F1222329F0E090F90DF090FA0D04C0FF
:102DB000E090FB0DF090FC0D8E010F5F1F4FC801DE
:102DC0006FEE7FE00E945F7BC80116DA9093FC0DE6
:102DD0008093FB0DC8010E94717B6091FB0D709187
:102DE000FC0DC7010AC0213059F46091FB0D7091B0
:102DF000FC0D8091F90D9091FA0D43E050E071DFE8
:102E00001092620E27960FB6F894DEBF0FBECDBFAC
:102E1000CF91DF911F910F91FF90EF900895EF9266
:102E2000FF920F931F93DF93CF93CDB7DEB7279712
:102E30000FB6F894DEBF0FBECDBF8091800E90918B
:102E4000810E2091620E029714F1222329F0E09066
:102E5000F90DF090FA0D04C0E090FB0DF090FC0D20
:102E60008E010F5F1F4FC8016FEE7FE00E945F7BF6
:102E7000C801C2D99093FA0D8093F90DC8010E9440
:102E8000717B6091F90D7091FA0DC7010AC0222380
:102E900059F46091F90D7091FA0D8091FB0D9091AC
:102EA000FC0D43E050E01DDF81E08093620E279629
:102EB0000FB6F894DEBF0FBECDBFCF91DF911F914B
:102EC0000F91FF90EF9008952F923F924F925F9253
:102ED0006F927F928F929F92AF92BF92CF92DF922A
:102EE000EF92FF920F931F9380919A0E882309F41B
:102EF00024C18091920E882309F41FC180911E0F76
:102F0000882309F41AC18AEE9EE00E942A5688237B
:102F100009F413C10E941B6E20911F0F3091200FE6
:102F20004091210F5091220F621B730B840B950B64
:102F30002091E00D3091E10D4091E20D5091E30DB3
:102F400026173707480759070CF0FDC06091CC0DD4
:102F50007091CD0D8091CE0D9091CF0D0E94827C0D
:102F60002091DC0D3091DD0D4091DE0D5091DF0D93
:102F70000E94787D0E944F7C6093D00D7093D10D9C
:102F80008093D20D9093D30D8DE39FE00E94244A4D
:102F90000E94827C7B018C0181E89FE00E94244A90
:102FA0000E94827C5B016C01B701C8019501A601FA
:102FB0000E94B10B882309F4B4C0B701C801950180
:102FC000A6010E941A071B012C019701A8010E946B
:102FD0008A0B7B018C016090C40D7090C50D8090B0
:102FE000C60D9090C70D6091C80D7091C90D80916C
:102FF000CA0D9091CB0D0E94827C9B01AC01C8014F
:10300000B7010E947B7BE090D80DF090D90D009124
:10301000DA0D1091DB0DA80197010E94E77B0E9459
:103020004F7C5B016C019B01442737FD4095542F79
:103030008091100F9091110FA091120FB091130F6A
:1030400082179307A407B50724F1C401B3010E94B6
:10305000827C9B01AC01C201B1010E947B7BA80173
:1030600097010E94E77B0E944F7C7B018C019B01B2
:10307000442737FD4095542F80910C0F90910D0FF0
:10308000A0910E0FB0910F0F82179307A407B507F9
:103090005CF488E796E16EE577E00E946477109231
:1030A0001E0F1092920E3DC0C701B5010E944F0E37
:1030B000082F88E796E168E777E00E947E7688E748
:1030C00096E1602F4AE050E00E94E37560E070E016
:1030D00080E090E02FEF30E040E050E00E94217867
:1030E0006B017C0188E796E165E877E00E947E76D7
:1030F00088E796E1B6014AE050E00E94617610E070
:10310000C016D10644F488E796E16EE877E00E94A5
:10311000647731DE07C088E796E16DE977E00E94C9
:1031200064777DDE0E941B6E60931F0F7093200FEB
:103130008093210F9093220F06C088E796E16DEAF5
:1031400077E00E9464771F910F91FF90EF90DF90DE
:10315000CF90BF90AF909F908F907F906F905F9037
:103160004F903F902F90089580911E0F882339F043
:1031700080911C0F90911D0F019709F4A5CE089521
:103180008DE39FE00E94AE4E81E89FE00E94AE4E2C
:103190001092240F88E796E160EE77E00C94647754
:1031A000EF92FF920F931F930E941B6E9B01AC0145
:1031B000E090820EF090830E0091840E1091850EA7
:1031C0008091C30D8823E1F08091240F8823C1F002
:1031D0002E193F09400B510B8091BF0D9091C00DEE
:1031E000A091C10DB091C20D82179307A407B50736
:1031F0003CF488E796E160EF77E00E946477C0DFF7
:103200008091920E882331F0F3DB80911E0F88238A
:1032100009F0AADF1F910F91FF90EF900895AC0184
:10322000662757FD6095762F81E89FE00E94BA4B94
:1032300009C0B6DF8091BC0D882321F081E89FE0B2
:103240000E94455081E89FE00E94144A6115710573
:103250008105910571F70E941B6E6093820E709339
:10326000830E8093840E9093850E0895AC0166279B
:1032700057FD6095762F8DE39FE00E94BA4B09C001
:103280008FDF8091BC0D882321F08DE39FE00E94A9
:1032900045508DE39FE00E94144A61157105810538
:1032A000910571F70E941B6E6093820E7093830EDE
:1032B0008093840E9093850E0895CF93DF93FC0145
:1032C000EB0121153105A9F48091F80D882339F01F
:1032D000CF0162E070E00E94AB7ECB012BC0CF013A
:1032E00062E070E00E94AB7ECB01909581959F4F8C
:1032F00021C08091F80D24173507A1F4882339F0F7
:10330000CF0162E070E00E94AB7ECB0109C0CF012B
:1033100062E070E00E94AB7ECB01909581959F4F5B
:10332000A5DF15C0882311F0CF0104C08827992795
:103330008E1B9F0B9BDFCE0172DF8091F80D8823DF
:1033400019F01092F80D03C081E08093F80DDF9121
:10335000CF9108950F931F93CF93DF93EC018B01CF
:1033600021153105D9F488E796E165E178E00E94FE
:1033700064778091F80D882339F0CE0162E070E027
:103380000E94AB7ECB012BC0CE0162E070E00E94B8
:10339000AB7ECB01909581959F4F21C08091F80D18
:1033A00024173507A1F4882339F0CE0162E070E0DC
:1033B0000E94AB7ECB0109C0CE0162E070E00E94AA
:1033C000AB7ECB01909581959F4F29DF15C0882357
:1033D00011F0CE0104C0882799278C1B9D0B1FDF9D
:1033E000C80144DF8091F80D882319F01092F80D80
:1033F00003C081E08093F80DDF91CF911F910F9171
:1034000008953F924F925F926F927F928F929F9218
:10341000AF92BF92CF92DF92EF92FF920F931F93E2
:10342000DF93CF9300D00F92CDB7DEB7FC014B01F5
:103430006A01322E141615060CF07FC0BA010E94E4
:10344000AB7E5B01CF01B6010E94AB7EAA2797FD40
:10345000A095BA2FBC01CD010E94827C7B018C011A
:10346000B601882777FD8095982F0E94827C9B016A
:10347000AC01C801B7010E94E77B2B013C010F2E74
:10348000F0E0EF2EF0E0FF2EF0E00F2FF0E01F2F26
:10349000F02D1C821B82C50101969A838983C80185
:1034A000B701A30192010E947C7B7B018C0120E08B
:1034B00030E040E85FE30E94747D87FF02C0950121
:1034C0000CC0C801B70120E030E040E85FE30E9493
:1034D0007B7B7B018C0129813A8192E0391619F4BA
:1034E000C401B9010EC0E3E03E1619F4C401B901EC
:1034F00015C0F4E03F1651F466277727621B730B63
:10350000C401A6012B813C8125DF0CC081E0381667
:1035100049F466277727621B730BC401A6012B8130
:103520003C81CBDE0E947F0DEB81FC813196FC83D8
:10353000EB83CE16DF060CF0B2CF0F900F900F90FA
:103540000F90CF91DF911F910F91FF90EF90DF903F
:10355000CF90BF90AF909F908F907F906F905F9033
:103560004F903F9008958F929F92AF92BF92CF92CB
:10357000DF92EF92FF920F931F93DF93CF93CDB71C
:10358000DEB72E970FB6F894DEBF0FBECDBF6E012B
:103590000894C11CD11CC6016FEE7FE00E945F7BC6
:1035A000C6010E94FC10AA2797FDA095BA2F209172
:1035B000B00D3091B10D442737FD4095542FBC011B
:1035C000CD010E94807E7B018C015B01C6010E94BF
:1035D000717BA8E0CA2ED12CCC0EDD1EC60166EF91
:1035E0007FE00E945F7BC6010E94FC104C01C60177
:1035F0000E94717BC701B701A40122E002DFAA0C7F
:10360000BB1CC50133DEC701B701A40123E0F9DE0D
:10361000C50105DEC701B701A40124E0F2DEB094C4
:10362000A194B108B394C50121DEC701B701A4017B
:1036300021E0E7DEC501F3DD2E960FB6F894DEBF7C
:103640000FBECDBFCF91DF911F910F91FF90EF90F3
:10365000DF90CF90BF90AF909F908F900895AF92E2
:10366000BF92CF92DF92EF92FF920F931F93DF935F
:10367000CF93CDB7DEB728970FB6F894DEBF0FBE55
:10368000CDBF69837A838B839C832D833E834F8355
:1036900058870E941B6E6093820E7093830E8093F6
:1036A000840E9093850ECE010196BE016B5F7F4F15
:1036B0000E9477068DE39FE00E94084D5B016C013C
:1036C00081E89FE00E94084D7B018C018DE39FE023
:1036D00040E050E060E070E00E94834C81E89FE0B1
:1036E00040E050E060E070E00E94834C69817A81A4
:1036F0008B819C810E944F7CAB01BC018DE39FE0DC
:103700000E94A94B6D817E818F8198850E944F7C9C
:10371000AB01BC0181E89FE00E94A94B8091BA0DEA
:10372000882309F042C08DE39FE00E94084D20E00D
:1037300030E040E050E00E94E07B882324F4D7FA98
:10374000D094D7F8D09481E89FE00E94084D20E003
:1037500030E040E050E00E94E07B882324F417FB37
:10376000109517F910958DE39FE0B601A5010E9411
:10377000834C81E89FE0B801A7010E94834C15C0EB
:103780008091BA0D882349F08DE39FE00E94455057
:1037900081E89FE00E94455008C08DE39FE00E94B1
:1037A000225081E89FE00E9422508DE39FE00E941A
:1037B000144A611571058105910549F481E89FE07E
:1037C0000E94144A611571058105910531F0E8DC0C
:1037D0008091BC0D882349F3D3CF0E947F0D28969A
:1037E0000FB6F894DEBF0FBECDBFCF91DF911F9112
:1037F0000F91FF90EF90DF90CF90BF90AF90089522
:10380000AF92BF92CF92DF92EF92FF920F931F93EE
:1038100079018A010E94827C5B016C01C801B701B9
:103820000E94827C9B01AC01C601B50118DF1F918B
:103830000F91FF90EF90DF90CF90BF90AF900895E1
:103840002F923F924F925F926F927F928F929F92B0
:10385000AF92BF92CF92DF92EF92FF920F931F939E
:10386000DF93CF93CDB7DEB760970FB6F894DEBF86
:103870000FBECDBF88E796E165E278E00E946477ED
:1038800088E796E165E478E00E947E766091F00D2D
:103890007091F10D88E796E14AE050E00E94617670
:1038A0008091F00D9091F10D029709F0A6C081E88A
:1038B0009FE00E94244A1B012C018091D40D90911D
:1038C000D50DAA2797FDA095BA2F280E391E4A1E9E
:1038D0005B1E88E796E16FE578E00E947E7688E7D8
:1038E00096E1B201A1012AE030E00E943D76C201DA
:1038F000B101A20191010E94807E3B014C01A09088
:10390000C80DB090C90DC090CA0DD090CB0DE090FD
:10391000D00DF090D10D0091D20D1091D30DEA0C85
:10392000FB1C0C1D1D1D2091720E3091730E4091D9
:10393000740E5091750E2D873E874F87588B80915E
:10394000C40D9091C50DA091C60DB091C70D89878A
:103950009A87AB87BC87281B390B4A0B5B0BCA01C4
:10396000B9010E94807E6D837E838F839887C80112
:10397000B701A80197010E94807EED80FE800F8133
:1039800018856E0D7F1D801F911F661577058805B0
:1039900099056CF1C601B501A60195010E94807ED2
:1039A0005B016C018091CC0D9091CD0DA091CE0D5D
:1039B000B091CF0D2D853E854F855889E984FA84D5
:1039C0000B851C852E193F09400B510B281B390B09
:1039D0004A0B5B0BCA01B9010E94807E6A0D7B1DF8
:1039E0008C1D9D1D661677068806990644F488E7A7
:1039F00096E16AE678E00E94647780E005C18D81F7
:103A00009E81AF81B8858A0D9B1DAC1DBD1D86159D
:103A10009705A805B9050CF499C088E796E16EE70B
:103A200078E00E9464770091C80D1091C90D209133
:103A3000CA0D3091CB0D09831A832B833C83C901B6
:103A4000B801A90198010E94807E9B01AC01C401CC
:103A5000B301621B730B840B950B0E94827C0E9446
:103A6000E57D7B018C016091720E7091730E8091E7
:103A7000740E9091750E0E94827CA80197010E949D
:103A80007B7B0E944F7C5B016C0188E796E16FE8CD
:103A900078E00E947E76C201B1010E94827C209172
:103AA0006A0E30916B0E40916C0E50916D0E0E941B
:103AB000787DAB01BC0188E796E122E030E00E940E
:103AC000517788E796E169E978E00E947E76609117
:103AD000C40D7091C50D8091C60D9091C70D0E94C7
:103AE000827C20916A0E30916B0E40916C0E509149
:103AF0006D0E0E94787DAB01BC0188E796E122E063
:103B000030E00E94517788E796E162EA78E00E940F
:103B10007E766091C80D7091C90D8091CA0D90910B
:103B2000CB0D0E94827C20916A0E30916B0E4091E9
:103B30006C0E50916D0E0E94787DAB01BC0188E740
:103B400096E122E030E00E94537730C088E796E1AA
:103B50006BEA78E00E946477A090C40DB090C50D28
:103B6000C090C60DD090C70D2091720E3091730E8B
:103B70004091740E5091750EC601B501621B730B16
:103B8000840B950B2A193B094C095D090E94807E24
:103B9000660D771D881D991D0E94827C0E94E57D1F
:103BA0000E944F7C69837A838B839C83C601B50115
:103BB0000E94827C3B014C0169817A818B819C81CE
:103BC0000E94827C7B018C01C401B301A801970192
:103BD0000E946B0C5B016C01C401B301A801970149
:103BE0000E94340C7B018C01C601B5010E944F7C00
:103BF0005B016C01C801B7010E944F7C9B01AC01C5
:103C0000C601B501FDDD81E060960FB6F894DEBF18
:103C10000FBECDBFCF91DF911F910F91FF90EF901D
:103C2000DF90CF90BF90AF909F908F907F906F90DC
:103C30005F904F903F902F9008952F923F924F9218
:103C40005F926F927F928F929F92AF92BF92CF922C
:103C5000DF92EF92FF920F931F93DF93CF9300D0E9
:103C60000F92CDB7DEB73B014C0159016A01FA82D0
:103C7000E982C80162E070E00E94AB7E882777FD90
:103C80008095982F661A770A880A990AA61AB70AA1
:103C9000C80AD90A1C821B821801442437FC4094AC
:103CA000542C2DC060E070E080E090E0A201910112
:103CB0000E9421787B018C0160E070E080E090E060
:103CC000A20191010E9421789B01AC010027F7FC21
:103CD0000095102FE60CF71C081D191D442737FD11
:103CE0004095542F2A0D3B1D4C1D5D1DC801B70189
:103CF00087DD2B813C812F5F3F4F3C832B838B8162
:103D00009C81E981FA81E817F90764F60F900F901A
:103D10000F900F90CF91DF911F910F91FF90EF9037
:103D2000DF90CF90BF90AF909F908F907F906F90DB
:103D30005F904F903F902F9008952F923F924F9217
:103D40005F926F927F928F929F92AF92BF92CF922B
:103D5000DF92EF92FF920F931F93DF93CF93CDB734
:103D6000DEB7EA970FB6F894DEBF0FBECDBF8091E5
:103D70009A0E882309F4BDC46E010894C11CD11C9D
:103D8000C6016FEE7FE00E945F7B8E01085F1F4FD0
:103D9000C80166EF7FE00E945F7BC8010E94FC10B3
:103DA0004C01A090B00DB090B10DC8010E94717B84
:103DB0008E01015F1F4FC8016DEF7FE00E945F7BA6
:103DC000C8010E94FC10AA2797FDA095BA2F209148
:103DD000B00D3091B10D442737FD4095542FBC01F3
:103DE000CD010E94807E7CA76BA7C8010E94717BD9
:103DF0008E010A5E1F4FC801B6010E945F7BC80199
:103E00000E94FF11F82EC8010E94717BFF2069F407
:103E100088E796E16CE874E00E947E7688E796E198
:103E2000B6010E94A777C6016BC4B401882777FD4D
:103E30008095982F9501442737FD4095542F0E9477
:103E4000807E1B012C017EA76DA788E796E167EABB
:103E500074E00E947E7640910C0F50910D0F60919E
:103E60000E0F70910F0F88E796E12AE030E00E9474
:103E7000FF7588E796E163EB74E00E947E764091DF
:103E8000100F5091110F6091120F7091130F88E76E
:103E900096E12AE030E00E943D7688E796E166EB05
:103EA00074E00E947E764091CC0D5091CD0D6091D2
:103EB000CE0D7091CF0D88E796E12AE030E00E94A8
:103EC000FF7588E796E162EC74E00E946477609188
:103ED000CC0D7091CD0D8091CE0D9091CF0D0E94A3
:103EE000827C7B018C0160910C0F70910D0F809191
:103EF0000E0F90910F0F0E94827C9B01AC01C801B4
:103F0000B7010E94E77B6093D80D7093D90D809321
:103F1000DA0D9093DB0D88E796E164EC74E00E9483
:103F20007E764091D80D5091D90D6091DA0D709147
:103F3000DB0D88E796E122E030E00E94537788E7C6
:103F400096E164ED74E00E947E764091CC0D509134
:103F5000CD0D6091CE0D7091CF0D88E796E12AE0EE
:103F600030E00E943D7688E796E161E474E00E94CB
:103F70007E766091160F7091170F88E796E14AE000
:103F800050E00E9461760E940F176091CC0D7091F5
:103F9000CD0D8091CE0D9091CF0D0E94827C20910D
:103FA000DC0D3091DD0D4091DE0D5091DF0D0E9452
:103FB000787D0E944F7C5B016C016093D00D709303
:103FC000D10D8093D20D9093D30D2091CC0D3091D3
:103FD000CD0D4091CE0D5091CF0D8091C40D90919B
:103FE000C50DA091C60DB091C70D280F391F4A1FEE
:103FF0005B1F2FA338A749A75AA7E090C80DF090E0
:10400000C90D0091CA0D1091CB0DAE0CBF1CC01E86
:10401000D11ECA01B9010E94827C3B014C01C8013A
:10402000B7010E94827C9B01AC01C401B3010E94D4
:10403000340C7B018C01C10162E070E00E94AB7E18
:10404000882777FD8095982F0E94827C9B01AC0188
:10405000C801B7010E947C7B6D8F7E8F8F8F98A3E4
:104060006091C80D7091C90D8091CA0D9091CB0DD2
:104070000E94827C9B01AC01C401B3010E946B0CC5
:104080002D8D3E8D4F8D58A1EADA0E94BB168DE32F
:104090009FE00E94244A0E94827C6BA37CA38DA394
:1040A0009EA381E89FE00E94244A0E94827C1B011B
:1040B0002C01C601B501A60195010E94807E6FA763
:1040C00078AB89AB9AAB1AA219A28DA59EA5AA2797
:1040D00097FDA095BA2F8BAB9CABADABBEAB2BA520
:1040E0003CA5442737FD4095542F2FAB38AF49AF3F
:1040F0005AAF6BA17CA18DA19EA1A20191010E944A
:10410000B10B882309F0ADC188E796E16DEB78E04B
:104110000E9464770E940F176BA97CA98DA99EA9A4
:104120000E94827C9B01AC016D8D7E8D8F8D98A14C
:104130000E947C7B6D8F7E8F8F8F98A39B01AC013B
:104140000E94787D5B016C016090720E7090730E1E
:104150008090740E9090750E8091C40D9091C50D55
:10416000A091C60DB091C70DA4019301281B390B76
:104170004A0B5B0BCA01B9010E94807E1B012C0116
:104180006FA578A989A99AA9620D731D841D951D33
:104190000E94827C9B01AC01C601B5010E94747D26
:1041A000181654F12091C80D3091C90D4091CA0DD7
:1041B0005091CB0DCA01B9010E94807E7B018C0118
:1041C000A40193018FA198A5A9A5BAA5281B390B15
:1041D0004A0B5B0BCA01B9010E94807E6E0D7F1DE8
:1041E000801F911F0E94827C9B01AC01C601B5011A
:1041F0000E94E07B882364F488E796E161EE78E032
:104200000E9464772D8C3E8C4F8C58A011E01FC10A
:10421000C201B1016E0D7F1D801F911F0E94827C23
:104220009B01AC01C601B5010E94E07B18160CF49D
:104230007FC088E796E16EE778E00E94647760903F
:10424000C80D7090C90D8090CA0D9090CB0DC4011F
:10425000B301A40193010E94807E0E94827C9B0195
:10426000AC01C601B5010E947B7B0E94E57D7B010C
:104270008C016091720E7091730E8091740E90910A
:10428000750E0E94827CA80197010E947B7B0E9490
:104290004F7C7B018C0188E796E164EF78E00E9417
:1042A0007E766091C40D7091C50D8091C60D909180
:1042B000C70D0E94827C20916A0E30916B0E409156
:1042C0006C0E50916D0E0E94787DAB01BC0188E7A9
:1042D00096E122E030E00E94517788E796E16EE0B7
:1042E00079E00E947E766091C80D7091C90D809131
:1042F000CA0D9091CB0D0E94827C20916A0E309164
:104300006B0E40916C0E50916D0E0E94787DAB014A
:10431000BC0188E796E122E030E00E945177C801B5
:10432000B7010E94827C5B016C01C401B30178C0BB
:1043300088E796E16BEA78E00E946477E090C40D2C
:10434000F090C50D0091C60D1091C70D2091720E11
:104350003091730E4091740E5091750E2E193F09D5
:10436000400B510BCA01B9010E94807E0E94827CE1
:104370009B01AC01C601B5010E947B7B0E94E57DDB
:104380003B014C0188E796E164EF78E00E947E767D
:104390006091C40D7091C50D8091C60D9091C70DAF
:1043A0000E94827C20916A0E30916B0E40916C0EBF
:1043B00050916D0E0E94787DAB01BC0188E796E1BB
:1043C00022E030E00E94517788E796E16EE079E0E4
:1043D0000E947E766091C80D7091C90D8091CA0DC2
:1043E0009091CB0D0E94827C20916A0E30916B0ED1
:1043F00040916C0E50916D0E0E94787DAB01BC0116
:1044000088E796E122E030E00E945177C801B701C9
:104410000E94827C5B016C01C401B3010E944F7C4D
:104420000E94827C7B018C01C601B501A801970125
:104430000E946B0C6BA37CA38DA39EA3C601B50148
:10444000A80197010E94340C1B012C0110E068EEBA
:1044500073E080E090E00E944F6E112309F03EC1AE
:1044600006C088E796E162E179E00E9464776BA17B
:104470007CA18DA19EA1A2019101F1D80E94BB1641
:10448000A9A1BAA11196BAA3A9A388E796E16BE105
:1044900079E00E947E7688E796E169A17AA14AE0F8
:1044A00050E00E9461766BA17CA18DA19EA1A2012A
:1044B00091010E941A077B018C012BA13CA14DA107
:1044C0005EA10E948A0B5B016C016091C40D70912A
:1044D000C50D8091C60D9091C70D0E94827C9B01F5
:1044E000AC01C801B7010E947B7B3B014C0160918C
:1044F000C80D7091C90D8091CA0D9091CB0D0E948D
:10450000827C9B01AC01C601B5010E947B7B5B01F3
:104510006C0188E796E162E279E00E947E7688E7A6
:1045200096E1B401A30122E030E00E94517788E7D0
:1045300096E168E673E00E947E7688E796E1B60130
:10454000A50122E030E00E945377E090D80DF09072
:10455000D90D0091DA0D1091DB0DC401B301A80152
:1045600097010E94E77B3B014C01C601B501A80100
:1045700097010E94E77B7B018C0188E796E16EE35F
:1045800079E00E947E7688E796E1B401A30122E0FB
:1045900030E00E94517788E796E168E673E00E9478
:1045A0007E7688E796E1B801A70122E030E00E941C
:1045B0005377C801B7010E944F7C5B016C019B01DE
:1045C000442737FD4095542F8091100F9091110F83
:1045D000A091120FB091130F82179307A407B5078C
:1045E000C4F0C401B3010E944F7C7B018C019B018C
:1045F000442737FD4095542F80910C0F90910D0F5B
:10460000A0910E0FB0910F0F82179307A407B50763
:104610002CF488E796E16EE577E064C0C701B50148
:104620000E944F0E6091140F7091150F90E04DA5F0
:104630005EA50E941006E82E6FA978AD89AD9AADEF
:104640000E94827C3B014C01FF2400E010E0C80185
:10465000B7010E94807C20E030E040E05FE30E94F0
:10466000787D5B016C01C401B30120E030E040E0E3
:104670005FE30E94787D9B01AC016BA17CA18DA1C1
:104680009EA10E947C7B7B018C01C201B101A6012D
:1046900095010E947B7B9B01AC01B701C8010E9480
:1046A0002F1BC201B101A60195010E947C7B9B01D9
:1046B000AC01B701C8010E942F1B6BA17CA18DA189
:1046C0009EA1A40193010E947C7B6BA37CA38DA37C
:1046D0009EA3A20191010E942F1B0BCD88E796E1BA
:1046E00062E679E00E9464770E940F17CE0101967E
:1046F00007C088E796E16DE679E00E94647702C022
:104700000E94717BEA960FB6F894DEBF0FBECDBF54
:10471000CF91DF911F910F91FF90EF90DF90CF909D
:10472000BF90AF909F908F907F906F905F904F90D1
:104730003F902F9008952F923F924F925F926F92E9
:104740007F928F929F92AF92BF92CF92DF92EF9221
:10475000FF920F931F93DF93CF93CDB7DEB7E09710
:104760000FB6F894DEBF0FBECDBF2B013C019CA25B
:104770008BA20E941A076B8F7C8F8D8F9E8FA30157
:1047800092010E948A0B6F8B788F898F9A8FC80154
:10479000B701A60195010E941A075B016C01A801EF
:1047A00097010E948A0B7B018C01C601B50120E0B4
:1047B00030E040EA51E40E94747D18160CF00AC201
:1047C0006091720E7091730E8091740E9091750EBF
:1047D00064517040804090400E94827C6F8F78A32B
:1047E00089A39AA3C601B5012F8D38A149A15AA169
:1047F0000E94E07B88230CF0EDC1C801B70120E0E6
:1048000030E040EA51E40E94747D18160CF0E2C1D9
:104810006091760E7091770E8091780E9091790E5E
:1048200064517040804090400E94827C2B013C018A
:10483000C801B701A30192010E94E07B88230CF01C
:10484000C9C16B8D7C8D8D8D9E8D20E030E040EA5E
:1048500051E40E94747D18160CF0BCC16B8D7C8DE8
:104860008D8D9E8D2F8D38A149A15AA10E94E07B8C
:1048700088230CF0AFC16F89788D898D9A8D20E0E7
:1048800030E040EA51E40E94747D18160CF0A2C199
:104890006F89788D898D9A8DA30192010E94E07BAA
:1048A00088230CF097C11092BB0DC601B5012B8D6A
:1048B0003C8D4D8D5E8D0E947B7B1B012C01C801C0
:1048C000B7012F89388D498D5A8D0E947B7B3B0122
:1048D0004C01C201B10120E030E040E050E00E9414
:1048E000747D18161CF48201710106C082017101E9
:1048F00017FB109517F91095C401B30120E030E0C3
:1049000040E050E00E94747D18161CF4A40193014D
:1049100003C0A40193015058C801B7010E94747DDF
:1049200018169CF021E030E03E8B2D8BD401C301A2
:10493000B0588DA79EA7AFA7B8ABABA1BCA15D0136
:10494000CC24B7FCC094DC2C4EC021E030E03E8B80
:104950002D8BD201C101B05889A79AA7ABA7BCA7DC
:10496000ABA1BCA15D01CC24B7FCC094DC2C06C07B
:104970002D893E892F5F3F4F3E8B2D8BC201B101A8
:1049800020E030E040E050E00E94747D18161CF4F6
:104990008201710104C0E9A4FAA40BA51CA5AD898C
:1049A000BE89BD01882777FD8095982F0E94827C63
:1049B0009B01AC01C801B7010E94E77B7B018C0120
:1049C000C601B5010E94827C9B01AC01C801B70100
:1049D0000E94747D181664F234C02D893E892F5FC1
:1049E0003F4F3E8B2D8BC401B30120E030E040E00F
:1049F00050E00E94747D18161CF48401730104C0F9
:104A0000EDA4FEA40FA518A9AD89BE89BD01882714
:104A100077FD8095982F0E94827C9B01AC01C80194
:104A2000B7010E94E77B7B018C01C601B5010E94A2
:104A3000827C9B01AC01C801B7010E94747D1816ED
:104A400064F22D893E895901CC24B7FCC094DC2C3A
:104A5000C601B5010E94827C7B018C01C201B101BB
:104A6000A80197010E94E77B6D837E838F839887DF
:104A7000C401B301A80197010E94E77B69837A838F
:104A80008B839C831092BA0D198A1A8A1B8A1C8AFE
:104A900019861A861B861C86ADA2BEA2CFA2D8A6F6
:104AA0006B8D7C8D8D8D9E8D2D813E814F815885A6
:104AB0000E947C7B6B8F7C8F8D8F9E8F6F89788D12
:104AC000898D9A8D29813A814B815C810E947C7B02
:104AD0006F8B788F898F9A8F6B8D7C8D8D8D9E8D4E
:104AE0002F89388D498D5A8D0E946B0C6D877E877A
:104AF0008F87988B6B8D7C8D8D8D9E8D2F89388DBA
:104B0000498D5A8D0E94340C1B012C0169847A84D2
:104B10008B849C848DA19EA1AFA1B8A5680E791E3F
:104B20008A1E9B1E69897A898B899C890E94827C56
:104B30005B016C016091B60D7091B70D8091B80D5D
:104B40009091B90D20E030E040E850E40E94787D7B
:104B50007B018C01C401B301A60195010E94940C54
:104B60000E944F7C698B7A8B8B8B9C8B0E94827C02
:104B70007B018C018DE39FE0B801A7010E94834C6B
:104B800081E89FE0B801A7010E94834C6D857E8576
:104B90008F859889A20191010E942F1B89859A8592
:104BA000AB85BC850197A109B10989879A87AB8735
:104BB000BC878D899E89A985BA858A0F9B1F892B01
:104BC00009F06ECF81E08093BB0D8093BA0D0E94F7
:104BD0007F0D06C088E796E16AE979E00E94647774
:104BE0000E945A0BE0960FB6F894DEBF0FBECDBF01
:104BF000CF91DF911F910F91FF90EF90DF90CF90B9
:104C0000BF90AF909F908F907F906F905F904F90EC
:104C10003F902F9008952F923F924F925F926F9204
:104C20007F928F929F92AF92BF92CF92DF92EF923C
:104C3000FF920F931F93DF93CF93CDB7DEB7A69765
:104C40000FB6F894DEBF0FBECDBF80919A0E8823B9
:104C500009F401C3CE0101966FEE7FE00E945F7BF5
:104C60008E01085F1F4FC801BE016F5F7F4F0E941A
:104C70005F7BC8010E94FF11F82EC8010E94717B62
:104C8000FF2071F488E796E16CE874E00E947E767C
:104C900088E796E1BE016F5F7F4F0E94A777D6C27B
:104CA00088E796E167EA74E00E947E7640910C0FF7
:104CB00050910D0F60910E0F70910F0F88E796E1E4
:104CC0002AE030E00E94FF7588E796E163EB74E02C
:104CD0000E947E764091100F5091110F6091120F3B
:104CE0007091130F88E796E12AE030E00E943D764C
:104CF00088E796E166EB74E00E947E764091CC0DE9
:104D00005091CD0D6091CE0D7091CF0D88E796E159
:104D10002AE030E00E94FF7588E796E162EC74E0DB
:104D20000E9464776091CC0D7091CD0D8091CE0D75
:104D30009091CF0D20910C0F30910D0F40910E0FDF
:104D400050910F0F0E94E07ECA01B9010E94827C3F
:104D50006093D80D7093D90D8093DA0D9093DB0D8D
:104D600088E796E164EC74E00E947E764091D80D6D
:104D70005091D90D6091DA0D7091DB0D88E796E1C5
:104D800022E030E00E94537788E796E164ED74E01A
:104D90000E947E764091CC0D5091CD0D6091CE0D4C
:104DA0007091CF0D88E796E12AE030E00E943D76D1
:104DB00088E796E161E474E00E947E766091160FC8
:104DC0007091170F88E796E14AE050E00E94617603
:104DD000E090CC0DF090CD0D0091CE0D1091CF0D47
:104DE000C801B7010E94827C2091DC0D3091DD0D5D
:104DF0004091DE0D5091DF0D0E94787D0E944F7C26
:104E00006093D00D7093D10D8093D20D9093D30DFC
:104E10002090C40D3090C50D4090C60D5090C70D28
:104E20002E0C3F1C401E511E2091C80D3091C90D03
:104E30004091CA0D5091CB0D260F371F481F591FA7
:104E40002F87388B498B5A8B88E796E160EC79E0A5
:104E50000E947E7688E796E1B201A1012AE030E067
:104E60000E94FF7588E796E168EC79E00E947E7603
:104E700088E796E14F85588969897A892AE030E088
:104E80000E943D768DE39FE00E94244A3B014C0145
:104E900081E89FE00E94244A6BA37CA38DA39EA37C
:104EA0006091C40D7091C50D8091C60D9091C70D94
:104EB0000E94827C7B018C016091C80D7091C90DAC
:104EC0008091CA0D9091CB0D0E94827C9B01AC0118
:104ED000C801B7010E946B0C7B018C016091C40D6D
:104EE0007091C50D8091C60D9091C70D0E94827C76
:104EF0005B016C016091C80D7091C90D8091CA0D64
:104F00009091CB0D0E94827C9B01AC01C601B50142
:104F10000E94340C5B016C01C401B3010E94827CCD
:104F20003B014C016BA17CA18DA19EA10E94827CC2
:104F30009B01AC01C401B301E4E18E2E912CFBDB9B
:104F40008DE39FE00E94244A3B014C0181E89FE0F1
:104F50000E94244A6F8F78A389A39AA3C201B1014A
:104F60000E94827C6B8F7C8F8D8F9E8F6091C80D8D
:104F70007091C90D8091CA0D9091CB0D0E94827CD9
:104F80009B01AC016B8D7C8D8D8D9E8D0E946B0C79
:104F90007B018C016091C80D7091C90D8091CA0D83
:104FA0009091CB0D0E94827C9B01AC016B8D7C8D1E
:104FB0008D8D9E8D0E94340C5B016C01C401B30188
:104FC0000E94827C3B014C016F8D78A189A19AA13E
:104FD0000E94827C9B01AC01C401B301B4E18B2E21
:104FE000912CA9DB8DE39FE00E94244A3B014C01F8
:104FF00081E89FE00E94244A6F8B788F898F9A8F77
:105000006F85788989899A890E94827C1B012C018D
:105010006B8D7C8D8D8D9E8DA20191010E946B0CFC
:105020007B018C016B8D7C8D8D8D9E8DA2019101FC
:105030000E94340C5B016C01C401B3010E94827CAC
:105040003B014C016F89788D898D9A8D0E94827CFD
:105050009B01AC01C401B301A4E18A2E912C6BDB4E
:105060008DE39FE00E94244A3B014C0181E89FE0D0
:105070000E94244A6B8B7C8B8D8B9E8B6091C40D20
:105080007091C50D8091C60D9091C70D0E94827CD4
:10509000A20191010E946B0C7B018C016091C40DF7
:1050A0007091C50D8091C60D9091C70D0E94827CB4
:1050B000A20191010E94340C5B016C01C401B30197
:1050C0000E94827C3B014C016B897C898D899E8981
:1050D0000E94827C9B01AC01C401B301F4E18F2EDC
:1050E000912C29DB8DE39FE00E94244A3B014C0177
:1050F00081E89FE00E94244A1B012C016091C40DAD
:105100007091C50D8091C60D9091C70D0E94827C53
:105110007B018C016091C80D7091C90D8091CA0D01
:105120009091CB0D0E94827C9B01AC01C801B7011C
:105130000E946B0C7B018C016091C40D7091C50DB8
:105140008091C60D9091C70D0E94827C5B016C011D
:105150006091C80D7091C90D8091CA0D9091CB0DD1
:105160000E94827C9B01AC01C601B5010E94340CF7
:105170005B016C01C401B3010E94827C3B014C01C4
:10518000C201B1010E94827C9B01AC01C401B30148
:10519000E4E18E2E912CCFDA8DE39FE00E94244A29
:1051A0003B014C0181E89FE00E94244A1B012C0135
:1051B0006091C40D7091C50D8091C60D9091C70D81
:1051C0000E94827C7B018C016091C80D7091C90D99
:1051D0008091CA0D9091CB0D0E94827C9B01AC0105
:1051E000C801B7010E946B0C7B018C016091C40D5A
:1051F0007091C50D8091C60D9091C70D0E94827C63
:105200005B016C016091C80D7091C90D8091CA0D50
:105210009091CB0D0E94827C9B01AC01C601B5012F
:105220000E94340C5B016C01C401B3010E94827CBA
:105230003B014C01C201B1010E94827C9B01AC0187
:10524000C401B301B4E18B2E912C75DACE01019625
:105250000E94717B06C088E796E16DE679E00E94C6
:105260006477A6960FB6F894DEBF0FBECDBFCF9180
:10527000DF911F910F91FF90EF90DF90CF90BF9043
:10528000AF909F908F907F906F905F904F903F90E6
:105290002F9008952F923F924F925F926F927F923C
:1052A0008F929F92AF92BF92CF92DF92EF92FF9236
:1052B0000F931F93DF93CF93CDB7DEB76E970FB6E3
:1052C000F894DEBF0FBECDBF6B877C878D879E872E
:1052D0002F87388B498B5A8BEB8AFC8A0D8B1E8B60
:1052E000AF8AB88EC98EDA8E0F2EF0E06F2EF0E006
:1052F0007F2EF0E08F2EF0E09F2EF02D1A82198283
:105300008CAD9DADAA2797FDA095BA2F8B8F9C8F52
:10531000AD8FBE8F60E070E080E89FE3A401930151
:105320000E947B7B7B018C01A80197010E94787D04
:10533000AC01CB01DA018F839887A987BA87C401B2
:10534000B301A40193010E947C7BA80197010E94F4
:10535000787D6B837C838D839E83C401B301A4011C
:1053600093010E94787DAC01CB01DA011C012D0173
:10537000ACADBDADAB2BB1F06B8D7C8D8D8D9E8DAD
:105380000E94827C7B018C018DE39FE0B801A70124
:105390000E94834C81E89FE0B801A7010E94834CE2
:1053A0001092BA0D1092BB0D6B857C858D859E8504
:1053B0000E94827C9B01AC016F81788589859A85EA
:1053C0000E94787D7B018C016CA97DA98EA99FA983
:1053D0000E94827C9B01AC016B817C818D819E81CE
:1053E0000E94787D9B01AC01C801B7010E947C7BC3
:1053F0007B018C016B897C898D899E890E94827CCE
:105400009B01AC01C201B1010E94787D9B01AC01FE
:10541000C801B7010E947C7B5B016C016F857889B4
:1054200089899A890E94827C9B01AC016F81788571
:1054300089859A850E94787D7B018C0168AD79AD64
:105440008AAD9BAD0E94827C9B01AC016B817C810B
:105450008D819E810E94787D9B01AC01C801B701BE
:105460000E947C7B7B018C016F89788D898D9A8D60
:105470000E94827C9B01AC01C201B1010E94787D37
:105480009B01AC01C801B7010E947C7B9B01AC0170
:10549000C601B5010E942F1BB1E0B093BB0DB093C4
:1054A000BA0DC401B3012AE037ED43E25CE30E9488
:1054B0007C7B3B014C0189819A8101969A83898387
:1054C0008536910509F026CF6E960FB6F894DEBFAB
:1054D0000FBECDBFCF91DF911F910F91FF90EF9045
:1054E000DF90CF90BF90AF909F908F907F906F9004
:1054F0005F904F903F902F900895EF92FF920F93FF
:105500001F930DE31FE0C8010E94FC4EF1E8EF2E4F
:10551000FFE0FF2EC7010E94FC4E81E08093240F24
:10552000C8010E94244AAB01BC01405E5F4F6F4F2F
:105530007F4FC8010E947350C7010E94244AAB01EB
:10554000BC01405E5F4F6F4F7F4FC7010E94735099
:10555000C8010E94244AAB01BC0140525040604047
:105560007040C8010E947350C7010E94244AAB01D9
:10557000BC014052504060407040C7010E947350CF
:1055800088E796E160ED79E00E9464771F910F91C2
:10559000FF90EF900895EF92FF920F931F937C017D
:1055A00008E716E1C80162EC73E00E94D874C801F4
:1055B000B7010E947577C80164EA73E00E94237501
:1055C0001F910F91FF90EF900895AF92BF92CF92ED
:1055D000DF92EF92FF920F931F93DF93CF93CDB79C
:1055E000DEB72E970FB6F894DEBF0FBECDBFADB6B7
:1055F000BEB67E010894E11CF11CC7016FEE7FE08E
:105600000E945F7B8E01085F1F4FC80166EF7FE03D
:105610000E945F7BC70166E072E00E947779882371
:1056200009F057C088E796E160EE79E00E947E7647
:1056300088E796E1B7010E94A77781E080939B0EEF
:105640008CE99EE0B7010E944A7BC8016DEF79E0CA
:105650000E947779882309F442C0DDB6CEB64D8129
:105660005E814F5F5F4F8DB79EB7841B950B0FB662
:10567000F8949EBF0FBE8DBF0DB71EB70F5F1F4FB3
:10568000C701B80120E030E00E9428798DEF91E158
:10569000B8010E942D58882399F088E796E164ECC0
:1056A00071E00E9423758DEF91E1B8010E942358AB
:1056B000882331F088E796E166EB71E00E9423755C
:1056C0008D2D9C2D9C010FB6F8943EBF0FBE2DBFB3
:1056D00006C088E796E16FEF79E00E946477CE011B
:1056E00008960E94717BCE0101960E94717B0FB6D5
:1056F000F894BEBE0FBEADBE2E960FB6F894DEBFB8
:105700000FBECDBFCF91DF911F910F91FF90EF9012
:10571000DF90CF90BF90AF9008950F931F93AB0190
:10572000BC014093B60D5093B70D6093B80D7093C4
:10573000B90D8DE39FE00E94534F4091B60D5091FB
:10574000B70D6091B80D7091B90D81E89FE00E948E
:10575000534F08E716E1C80166E172E00E94D87471
:105760004091B60D5091B70D6091B80D7091B90D83
:10577000C80122E030E00E9453771F910F910895F5
:10578000CF92DF92EF92FF920F931F937C018B01D8
:10579000AAEFCA2EA1E1DA2EC601B701F8014081B5
:1057A0000E949B530894E11CF11CC601B701F8014B
:1057B00041810E949B5382E090E01F910F91FF90E6
:1057C000EF90DF90CF9008950F931F93AB01BC0132
:1057D0004093B20D5093B30D6093B40D7093B50D1B
:1057E0008DE39FE00E942E4C4091B20D5091B30D7D
:1057F0006091B40D7091B50D81E89FE00E942E4C30
:1058000008E716E1C80169E272E00E94D87440918D
:10581000B20D5091B30D6091B40D7091B50DC801EA
:1058200022E030E00E9453771F910F910895CF92AC
:10583000DF92EF92FF920F931F937C018B01BAEFDF
:10584000CB2EB1E1DB2EC601B7010E949453F801C3
:1058500080830894E11CF11CC601B7010E94945397
:10586000F801818382E090E01F910F91FF90EF900B
:10587000DF90CF90089584E190E060EB7DE0D7DF8A
:105880008091B00D9091B10D1816190644F08091D9
:10589000FD0D9091FE0D9093B10D8093B00D88E7B2
:1058A00096E165EF72E00E94D8746091B00D70913E
:1058B000B10D88E796E14AE050E00C9461768AE207
:1058C00090E06BEF7DE0B3DF8091FB0D9091FC0DDC
:1058D00097FF06C08AE590E09093FC0D8093FB0D46
:1058E00088E796E167E373E00E94D8746091FB0D4E
:1058F0007091FC0D88E796E14AE050E00E946176E5
:105900008CE290E069EF7DE092DF8091F90D90915B
:10591000FA0D97FF06C084EB90E09093FA0D809308
:10592000F90D88E796E168E273E00E94D87460910F
:10593000F90D7091FA0D88E796E14AE050E00C9479
:1059400061760F931F93DF93CF93CDB7DEB7629746
:105950000FB6F894DEBF0FBECDBF8E010B5F1F4F99
:10596000C8016FEE7FE00E945F7BC8010E94FC10BF
:105970009A838983C8010E94717B8E01045F1F4F47
:10598000C80166EF7FE00E945F7BC8010E94FC10A7
:105990009C838B83C8010E94717B88E796E16EE34C
:1059A00072E00E94D87469817A8188E796E14AE0C2
:1059B00050E00E94617688E796E169E372E00E9418
:1059C000D8746B817C8188E796E14AE050E00E94C0
:1059D00061768091800E9091810E8430910571F4F2
:1059E0008AE290E0BE016F5F7F4FCADE8CE290E0FA
:1059F000BE016D5F7F4FC4DE62DF3AC00397C1F521
:105A000069817A818B819C8143E050E00E9471160C
:105A100068EC70E080E090E00E944F6E6B817C81CA
:105A200089819A8143E050E00E94711668EC70E031
:105A300080E090E00E944F6E69817A818B819C8129
:105A400043E050E00E94711668EC70E080E090E066
:105A50000E944F6E6B817C8189819A8143E050E086
:105A60000E94711668EC70E080E090E00E944F6E3A
:105A700062960FB6F894DEBF0FBECDBFCF91DF9117
:105A80001F910F91089580E090E064EE7DE0CFDEFD
:105A90008091E40D9091E50D1816190644F080915F
:105AA000030E9091040E9093E50D8093E40D88E72A
:105AB00096E16EE873E00E94D8746091E40D7091F5
:105AC000E50D88E796E14AE050E00E94617682E0C9
:105AD00090E066EE7DE0ABDE8091E60D9091E70D03
