:10000000C2C20000EDC20000EBC20000E9C2000065
:10001000E7C20000E5C20000E3C20000E1C2000048
:10002000DFC20000DDC20000DBC20000D9C2000058
:10003000D7C20000D5C20000D3C20000D1C2000068
:10004000CFC200000C946552CBC20000C9C20000B0
:10005000C7C20000C5C20000C3C200000C94DA6A27
:10006000BFC200000C94016D0C94296EB9C200004F
:10007000B7C20000B5C20000B3C20000B1C20000A8
:100080000C943852ADC20000ABC20000A9C20000FF
:100090000C943A6D0C94686EA3C20000A1C20000DB
:1000A0009FC200009DC200000C940B5299C2000038
:1000B00097C2000095C2000093C200000C94DE516C
:1000C0008FC200008DC200008BC200000C94736DC3
:1000D0000C94A76E85C200000C94AC6D0C94E66E77
:1000E0007FC2000005A84CCDB2D44EB93836A90263
:1000F0000C50B9918688083CA6AAAA2ABE00000026
:10010000803F000000006410B71DC8206E3BAC307B
:10011000D9269041DC76F4516B6B5861B24D3C713D
:1001200005502083B8ED44930FF0E8A3D6D68CB3E6
:1001300061CBB0C2649BD4D2D38678E20AA01CF211
:10014000BDBD50424D20696D616765206D7573744A
:10015000206265206174206C6561737420313020E9
:10016000706978656C7320776964652E002C206D4A
:1001700061782064656E736974793A20002C207070
:10018000656E2077696474683A200050656E7769FF
:10019000647468207465737420004368616E6769D5
:1001A0006E67206261636B20746F206C69766520D6
:1001B0006D6F64652E0046696C652072656D6F76A3
:1001C00065642E0046696C6520616C7265616479B6
:1001D000206578697374732E00457865637574695A
:1001E0006E6720636F6D6D616E643A0053746F7259
:1001F000696E6720636F6D6D616E643A006D6D00AE
:100200004368616E6765642050656E207769647429
:100210006820746F20004E657720616363656C65AC
:10022000726174696F6E3A20004E6577206D617857
:100230002073706565643A200055703A2000446F61
:10024000776E3A2000504753504545442C005047A4
:100250004C4946542C005047535445504D554C542E
:1002600049504C4945522C00504753544550535027
:1002700045525245562C0050474D4D50455252451F
:10028000562C00504753495A452C0050474E414D7B
:10029000452C002900526563616C632070616765BD
:1002A00048656967687420696E207374657073208F
:1002B00028002900526563616C632070616765578F
:1002C0006964746820696E207374657073202800F7
:1002D0002900292C2073746570735065724D4D2070
:1002E0002800526563616C63206D6D5065725374B4
:1002F00065702028004C6F61646564206D6F746FB9
:10030000722073746570206D756C7469706C6965AA
:10031000723A004C6F61646564206D616368696E58
:1003200065206E616D653A004C6F6164656420758F
:100330007020706F733A004C6F6164656420646F65
:10034000776E20706F733A004C6F61646564206D46
:100350006F746F7220737465707320706572207291
:1003600065763A004C6F61646564206D6D20706540
:1003700072207265763A004C6F61646564206D612D
:100380006368696E65206865696768743A004C6FD8
:1003900061646564206D616368696E652077696476
:1003A00074683A002069736E2774206120636F6D52
:1003B0006D616E642049207265636F676E69736555
:1003C0002E00536F7272792C200029206E6F7420DA
:1003D0007061727365642E00436F6D6D616E642091
:1003E0002800436865636B73756D206E6F74206DB4
:1003F000617463686564213A004920676F74200066
:100400007600504F4C41524752415048204F4E21A8
:10041000007C3C3E5E2B3D3F2F5B5D3B2C2A225CEB
:100420000000002100240027002A002D00300033A6
:100430000001010000040107010A0100002200255B
:100440000028002B002E00310034000201000005BE
:100450000108010B01000020002300260029002CC8
:10046000002F003200000100000301060109010510
:10047000050505070508080808020202020A0A081D
:100480000804040404010101010101010103030343
:100490000303030303040707070C0C0C0C0C0C0CE0
:1004A0000C0202020206060606060606060B0B0BE7
:1004B0000B0B0B0B0B010210202008081020401022
:1004C0002040800201020108040201010204081018
:1004D0002040808040201008040201800402018036
:1004E000402010080402010804020101020408105F
:1004F00020408001020408102040800000090A0208
:10050000080B0C0D070603040100000000000000AA
:1005100000000000000000000000000000000000DB
:100520000000000000000011100F0000000000009B
:1005300000000000000000000000000000000000BB
:1005400000494E46494E4954594E414ECDCCCC3DC2
:100550000AD7233C17B7D13877CC2B329595E624B0
:100560001FB14F0A000020410000C84200401C4655
:1005700020BCBE4CCA1B0E5AAEC59D74C80CA552F9
:1005800041565070C30C11241FBECFEFD1E2DEBF25
:10059000CDBF00E00CBF1DE0A0E0B2E0E2ECF7EF61
:1005A00000E00BBF02C007900D92A23DB107D9F742
:1005B0001BBE16E1A2EDBDE001C01D92A535B1073D
:1005C000E1F715E0C4E8D5E004C02297FE010E94DF
:1005D0008F7BCC37D107C9F70E946E710C94D57B05
:1005E0000FCDCF93DF93BC018230910510F462E010
:1005F00070E0A0915116B0915216ED01E0E0F0E0EC
:1006000040E050E021C0888199818617970769F4FE
:100610008A819B81309719F09383828304C09093E1
:10062000521680935116FE0134C06817790738F4CA
:100630004115510519F08417950708F4AC01FE0126
:100640008A819B819C01E9012097E9F641155105BA
:10065000A9F1CA01861B970B049708F4BA01E0E0E0
:10066000F0E02AC08D919C91119784179507F9F4B9
:100670006417750781F412968D919C9113973097AA
:1006800019F09383828304C090935216809351167D
:10069000FD0132964CC0CA01861B970BFD01E80F85
:1006A000F91F6193719302978D939C9340C0FD0154
:1006B000828193819C01D9011097A1F680914F16F8
:1006C00090915016892B41F480911F0D9091200D2F
:1006D0009093501680934F164091210D5091220D0A
:1006E0004115510541F44DB75EB780911D0D9091B4
:1006F0001E0D481B590B20914F1630915016CA0100
:10070000821B930B8617970780F0AB014E5F5F4FFC
:100710008417950750F0420F531F50935016409383
:100720004F16F9016193719302C0E0E0F0E0CF0150
:10073000DF91CF910895CF93DF93009709F450C0D4
:10074000EC0122971B821A82A0915116B091521689
:10075000109709F140E050E0AC17BD0708F1BB83EA
:10076000AA83FE0121913191E20FF31FAE17BF075B
:1007700079F48D919C911197280F391F2E5F3F4F6F
:100780003983288312968D919C9113979B838A833A
:100790004115510571F4D0935216C093511620C0E3
:1007A00012968D919C911397AD01009711F0DC0189
:1007B000D3CFFA01D383C28321913191E20FF31F8A
:1007C000CE17DF0769F488819981280F391F2E5FC2
:1007D0003F4FFA01318320838A819B8193838283F7
:1007E000DF91CF910895A0E0B0E0E9EFF3E00C9441
:1007F000A67BEC01A880B980CA80DB80A114B1047B
:10080000C104D10441F484E2A82E89EDB82E8BE511
:10081000C82E87E0D82EC601B5012DE133EF41E0A7
:1008200050E00E945E7B27EA31E440E050E00E9405
:10083000FE7A7B018C01C601B5012DE133EF41E069
:1008400050E00E945E7BCA01B9012CEE34EF4FEFFD
:100850005FEF0E94FE7A6E0D7F1D801F911F97FF34
:1008600004C06150704080409048688379838A83D7
:100870009B839B01AC015F77B901CA01CDB7DEB79D
:10088000EAE00C94C27BAFCF83E29DE0ACCF6093F3
:10089000230D7093240D8093250D9093260D0895BC
:1008A000A0E0B0E0E6E5F4E00C94A07B6C010097DA
:1008B00021F4CB0196DE6C01BDC08EEF882E8FEF48
:1008C000982E8C0C9D1C8601060F171F0815190504
:1008D00008F4AEC0F401A081B181A617B707B0F04B
:1008E000A530B10508F4A6C0CD0104978617970777
:1008F00008F4A0C01297A61BB70BF801A193B193FF
:10090000D4016D937C93CF0116DF94C07B01EA1A6A
:10091000FB0AEEEFFFEFEE0EFF1E36016A0E7B1EA6
:10092000C0915116D091521644245524AA24BB24B8
:100930004AC0C615D705E1F5488159814E155F05B6
:10094000B8F1CA0104978E159F05B0F41296A40F52
:10095000B51FF401B183A0832A813B814114510466
:1009600031F0D20113963C932E93129763C03093CB
:100970005216209351165EC08A819B81F8019383A1
:100980008283425050404E195F0951834083411485
:10099000510431F0D20113961C930E93129704C0A8
:1009A0001093521600935116F4017183608342C074
:1009B00088819981A816B90608F45C012E018A8104
:1009C0009B819C01E901209709F0B3CF80914F16DC
:1009D0009091501686159705E9F4A616B706D0F43F
:1009E0002091210D3091220D2115310541F42DB7B3
:1009F0003EB780911D0D90911E0D281B390B0217DB
:100A00001307B0F41093501600934F16D4016D9352
:100A10007C9310C0CB01E5DDEC01009749F0F401B7
:100A200040815181B6015FD0C60185DE6E0102C0F2
:100A3000CC24DD24C601CDB7DEB7E0E10C94BC7B4D
:100A400066277727C8C0FC0188279927E894219159
:100A50002032E9F3293010F02E30C8F32B3239F070
:100A60002D3231F4689403C0AED0820F911D2191D4
:100A700020532A30C8F31EF4909581959F4F089516
:100A80001F93FC0199278827BC01E894119110322B
:100A9000E9F3193010F01E30C8F31B3249F01D3253
:100AA00041F4689405C07AD0610F711D811D911DBC
:100AB000119110531A30B8F33EF4909580957095CB
:100AC00061957F4F8F4F9F4F1F910895FB01DC0170
:100AD00004C08D910190801921F441505040C8F715
:100AE000881B990B0895FB01DC0102C001900D9257
:100AF00041505040D8F70895FC018191861721F0AC
:100B00008823D9F7992708953197CF010895FB01DC
:100B1000DC018D91019080190110D9F3990B089592
:100B2000FB01DC0101900D920020E1F70895FB012B
:100B3000DC014150504030F08D910190801919F442
:100B40000020B9F7881B990B0895FB01DC01415087
:100B5000504048F001900D920020C9F701C01D924D
:100B600041505040E0F70895FB0151915523A9F001
:100B7000BF01DC014D9145174111E1F759F4CD0159
:100B80000190002049F04D9140154111C9F3FB013E
:100B90004111EFCF81E090E001970895592F482F40
:100BA000372F262F660F771F881F991F660F771F15
:100BB000881F991F620F731F841F951F660F771F71
:100BC000881F991F08957AE0979F902D879F802D09
:100BD000910D11240895A0E0B0E0E1EFF5E00C9450
:100BE000A47BEC015B016115710519F0FB01918398
:100BF0008083F9908F2D90E00E94937B892BC9F719
:100C0000FDE2FF1621F4F990EE24E39405C02BE2F7
:100C1000F21609F4F990EE248E0101501040C8013B
:100C200061E475E043E050E033D1892BF9F48E01A3
:100C30000E5F1F4FC80164E475E045E050E028D125
:100C4000892B19F48E01095F1F4FA114B10419F00B
:100C5000F50111830083E0FC04C070E090E080E8BF
:100C600013C070E090E080E86FEF07C1C80169E44D
:100C700075E043E050E00CD1892B69F4A114B10474
:100C800029F470E090E080EC6FE7F7C02296F50160
:100C9000D183C083F6CF8824992440E050E060E0FF
:100CA00070E0EF2DE053EA30A0F5F2E0EF2A8E2D50
:100CB00090E09C0128703070E2FE06C0232B79F58D
:100CC0000894811C911C2BC0232B19F008948108D7
:100CD0009108DB01CA0112E0880F991FAA1FBB1FF0
:100CE0001A95D1F7480F591F6A1F7B1F440F551FD4
:100CF000661F771F4E0F511D611D711D483929E96F
:100D0000520729E9620729E1720748F084E0E82ADE
:100D100006C0EE3F31F4E3FC39C098E0E92AF990CF
:100D2000C0CFE53311F0E53189F529912D3219F461
:100D3000E0E1EE2A05C02B3219F081E090E003C01B
:100D4000299182E090E0E22FE053EA3018F0C81BCE
:100D5000D90B1CC020E030E0FCE020383F075CF4F9
:100D6000C901880F991F880F991F280F391F220F5B
:100D7000331F2E0F311DE991E053EA3068F3E4FE92
:100D800003C0309521953F4F820E931ECE2CDD245B
:100D9000E1FE07C0A114B10421F02197F501D18330
:100DA000C083CB01BA010E9402797B018C01F3E080
:100DB000CF22DD2423E0C216D10421F417FB1095C5
:100DC00017F9109557016801C801B70120E030E01C
:100DD00040E050E00E946278882309F44AC097FE00
:100DE0000DC020E6E22E25E0F22E90948194910829
:100DF0009394C0E2D0E000E010E012C098E7E92E42
:100E000095E0F92EF6CFF701259135914591549152
:100E1000C601B5010E94FA795B016C018C1A9D0A2A
:100E20008C169D0684F7D595C7950F5F1F4F06302A
:100E3000110529F08CEF9FEFE80EF91EF1CFC501E7
:100E4000D6017C018D018C2D880F8D2D881F8F3F41
:100E500051F0C601B50120E030E040E050E00E94D2
:100E60006278882331F482E290E090935416809364
:100E700053167E2D9F2D802F612F272F392F482F1E
:100E8000562FB901CA01CDB7DEB7ECE00C94C07B98
:100E9000FB01DC014150504088F08D9181341CF001
:100EA0008B350CF4805E659161341CF06B350CF46D
:100EB000605E861B611171F3990B0895881BFCCF4E
:100EC000AF92BF92CF92DF92EF92FF920F931F9358
:100ED0006E157F058007910734F42E153F054007F6
:100EE000510764F42CC0E616F7060807190794F4B6
:100EF000A216B306C406D5063CF423C0A216B30658
:100F0000C406D506BCF41FC02A153B054C055D057B
:100F1000C4F41BC06E157F058007910791F42A1554
:100F20003B054C055D058CF0A216B306C406D5063C
:100F300044F409C02A153B054C055D0511F484E015
:100F400005C082E003C083E001C081E01F910F91E2
:100F5000FF90EF90DF90CF90BF90AF900895EF9209
:100F6000FF920F931F937B018C01662757FD6095BD
:100F7000762FCB01BA010E9404792091DE0D3091C9
:100F8000DF0D4091E00D5091E10D0E94FA79A8012A
:100F900097010E9469787B018C0120E030E040E0FD
:100FA00050E40E94F67987FF03C061E070E004C05E
:100FB000C801B7010E94D178CB011F910F91FF901A
:100FC000EF9008956F927F928F929F92AF92BF920F
:100FD000CF92DF92EF92FF920F931F93CF93DF9305
:100FE0007C015B01662757FD6095762FCB01BA0126
:100FF0000E9404793B014C010027F7FC0095102F5B
:10100000C801B7010E9404797B018C01CC24B7FC94
:10101000C094DC2CC601B5010E9404799B01AC018F
:10102000C801B7010E946978A40193010E94FA796E
:101030009B01AC01C401B3010E94FD777B018C01CF
:101040000E94D178EB01BE01882777FD8095982F0B
:101050000E9404799B01AC01C801B7010E94FD7791
:1010600020E030E040E05FE30E94F67918160CF4CF
:101070002196CE01DF91CF911F910F91FF90EF90BC
:10108000DF90CF90BF90AF909F908F907F906F90A8
:101090000895CF92DF92EF92FF920F931F93CF9319
:1010A000DF93EC016B01688179818A819B812091BA
:1010B000610D3091620D4091630D5091640D0E945D
:1010C000FA79688379838A839B83F60160817181D1
:1010D000828193812091650D3091660D4091670D5D
:1010E0005091680D0E94FA797B018C01F6016083B2
:1010F0007183828393832091B3103091B410C9011E
:101100008E978A35910580F4288139814A815B81E7
:10111000D801C701B05888839983AA83BB832083F1
:1011200031834283538329C0C901885890408A354E
:10113000910580F488819981AA81BB81B058888308
:101140009983AA83BB83F60180819181A281B381B7
:10115000B0580FC0225E30402A35310570F48881C6
:101160009981AA81BB81E882F9820A831B83B058E6
:10117000F60180839183A283B383688179818A8118
:101180009B812091B5103091B6104091B7105091CD
:10119000B8100E94FE77688379838A839B83F60167
:1011A00060817181828193812091B9103091BA1050
:1011B0004091BB105091BC100E94FE77F6016083F5
:1011C000718382839383DF91CF911F910F91FF9061
:1011D000EF90DF90CF9008952F923F924F925F92C1
:1011E0006F927F928F929F92AF92BF92CF92DF9237
:1011F000EF92FF920F931F931B012C0139014A01BB
:10120000E090E60DF090E70D0091E80D1091E90DEA
:10121000C801B701A80197010E94FE7A0E940479D3
:101220005B016C01C401B301A40193010E94FA792E
:101230009B01AC01C601B5010E94FD775B016C0109
:10124000C201B101A20191010E94FA799B01AC0196
:10125000C601B5010E94FE775B016C01EE0CFF1C1C
:10126000001F111FC801B7010E9404799B01AC0146
:10127000C601B5010E9469781F910F91FF90EF9010
:10128000DF90CF90BF90AF909F908F907F906F90A6
:101290005F904F903F902F9008950F931F93CF939F
:1012A000DF93242F2627A22FB0E0AF70B070AA0FD3
:1012B000BB1FAA0FBB1FC2E0D1E0AC0FBD1FFD01D9
:1012C0000591159125913491E4E096958795779550
:1012D0006795EA95D1F706271727282739274295DA
:1012E0004F70402750E04F705070440F551F440F0F
:1012F000551F4C0F5D1FFA0185919591A591B491F1
:1013000044E036952795179507954A95D1F7082714
:1013100019272A273B27B801C901DF91CF911F91D7
:101320000F910895EF92FF920F931F9381309105D3
:1013300009F029C26F5F7F4F09F020C38BE29FE065
:1013400060E072E00E944C7783ED9DE00E947A4F4E
:1013500087ED9DE065E072E00E944C7782E39FE0BC
:1013600066E072E00E944C7760912D0D70912E0D19
:10137000882777FD8095982F2091270D3091280D93
:10138000442737FD4095542F0E94FE7A0E9404792D
:101390007B018C016091290D70912A0D80912B0D9C
:1013A00090912C0DA80197010E9469786093DE0D41
:1013B0007093DF0D8093E00D9093E10DC801B701AC
:1013C0002091290D30912A0D40912B0D50912C0D1B
:1013D0000E9469787B018C016093E20D7093E30DAC
:1013E0008093E40D9093E50D60915D0D70915E0D1D
:1013F000882777FD8095982F0E940479A80197018E
:101400000E94FA790E94D1786093E60D7093E70DFF
:101410008093E80D9093E90D60915F0D7091600DE0
:10142000882777FD8095982F0E940479A80197015D
:101430000E94FA790E94D1786093EA0D7093EB0DC7
:101440008093EC0D9093ED0D89E39FE06FE072E0E7
:101450000E944C7780E49FE061E172E00E944C774B
:1014600087E49FE065E172E00E944C778EE49FE0A4
:101470006DE172E00E944C7785E59FE060E572E0E7
:101480000E944C778CE59FE060E572E00E944C770B
:1014900083E69FE060E572E00E944C778AE69FE079
:1014A00060E572E00E944C7781E79FE06FE572E0B3
:1014B0000E944C7788E79FE069E672E00E944C77D3
:1014C0008FE79FE060E772E00E944C7786E89FE03C
:1014D00068E772E00E944C778DE89FE063E872E075
:1014E0000E944C7784E99FE061E77FE00E94E1770A
:1014F0008EEF9DE065E072E00E944C778BE99FE003
:1015000069E872E00E944C7782EA9FE06BE872E043
:101510000E944C7789EA9FE060E972E00E944C7774
:1015200080EB9FE064E972E00E944C7787EB9FE0DC
:1015300068E972E00E944C778EEB9FE06CE972E004
:101540000E944C7785EC9FE060EA72E00E944C7745
:101550008CEC9FE064EA72E00E944C7783ED9FE0A0
:1015600068EA72E00E944C778AED9FE06CEA72E0D4
:101570000E944C7781EE9FE060EB72E00E944C7716
:1015800088EE9FE064EB72E00E944C778FEE9FE064
:1015900068EB72E00E944C7786EF9FE06CEB72E0A4
:1015A0000E944C778DEF9FE060EC72E00E944C77D8
:1015B00084E090E164EC72E00E944C778BE090E173
:1015C00068EC72E00E944C7782E190E16CEC72E092
:1015D0000E944C7789E190E160ED72E00E944C77C7
:1015E00080E290E164ED72E00E944C7787E290E146
:1015F00068ED72E00E944C778EE290E16CED72E053
:101600000E944C7785E390E160EE72E00E944C7797
:101610008CE390E164EE72E00E944C7783E490E109
:1016200068EE72E00E944C778AE490E16CEE72E022
:101630000E944C7781E590E160EF72E00E944C7768
:1016400088E590E164EF72E00E944C778FE590E1CD
:1016500068EF72E00E944C7786E690E16CEF72E0F2
:101660000E944C778DE690E160E073E00E944C7739
:1016700084E790E164E073E00E944C778BE790E1AF
:1016800068E073E00E944C7782E890E16CE073E0E0
:101690000E944C7789E890E160E173E00E944C770A
:1016A00080E990E164E173E00E944C7787E990E182
:1016B00068E173E00E944C778EE990E16CE173E0A1
:1016C0000E944C7785EA90E160E273E00E944C77DB
:1016D0008CEA90E164E273E00E944C7787E09EE040
:1016E00065E072E00E944C7780E19EE065E072E088
:1016F0000E944C7710921C0E10921D0E1092200E1C
:101700001092220E82E090E0A0E0B0E08093230EE1
:101710009093240EA093250EB093260E10923A0EAD
:101720001092440E1092430E8DEB9DE09093420E6A
:101730008093410E1092460E8EE59EE00E94AB54BF
:101740006091270D7091280D8BE89EE041E00E948A
:1017500042546091270D7091280D87E99EE042E088
:101760000E94425483EA9EE06FE474E349E454E348
:101770000E94C54A87EE9EE063E474E34DE354E3C0
:101780000E94C54AFBC0892B09F0F8C06F5F7F4FEC
:1017900009F0F4C08EE59EE00E94BE5480E19EE018
:1017A0000E94F37787E09EE00E94F3778CEA90E155
:1017B0000E94F37785EA90E10E94F3778EE990E149
:1017C0000E94F37787E990E10E94F37780E990E146
:1017D0000E94F37789E890E10E94F37782E890E134
:1017E0000E94F3778BE790E10E94F37784E790E122
:1017F0000E94F3778DE690E10E94F37786E690E110
:101800000E94F3778FE590E10E94F37788E590E1FD
:101810000E94F37781E590E10E94F3778AE490E1FA
:101820000E94F37783E490E10E94F3778CE390E1E8
:101830000E94F37785E390E10E94F3778EE290E1D6
:101840000E94F37787E290E10E94F37780E290E1D3
:101850000E94F37789E190E10E94F37782E190E1C1
:101860000E94F3778BE090E10E94F37784E090E1AF
:101870000E94F3778DEF9FE00E94F37786EF9FE061
:101880000E94F3778FEE9FE00E94F37788EE9FE04F
:101890000E94F37781EE9FE00E94F3778AED9FE04C
:1018A0000E94F37783ED9FE00E94F3778CEC9FE03A
:1018B0000E94F37785EC9FE00E94F3778EEB9FE028
:1018C0000E94F37787EB9FE00E94F37780EB9FE025
:1018D0000E94F37789EA9FE00E94F37782EA9FE013
:1018E0000E94F3778BE99FE00E94F3778EEF9DE0F3
:1018F0000E94F37784E99FE00E94F3778DE89FE0F0
:101900000E94F37786E89FE00E94F3778FE79FE0DD
:101910000E94F37788E79FE00E94F37781E79FE0DA
:101920000E94F3778AE69FE00E94F37783E69FE0C8
:101930000E94F3778CE59FE00E94F37785E59FE0B6
:101940000E94F3778EE49FE00E94F37787E49FE0A4
:101950000E94F37780E49FE00E94F37789E39FE0A1
:101960000E94F37782E39FE00E94F37787ED9DE08A
:101970000E94F3778BE29FE00E94F3771F910F9113
:10198000FF90EF90089580E090E06FEF7FEFCACC7A
:1019900081E090E06FEF7FEFC5CCCF92DF92EF92C6
:1019A000FF920F931F93CF93DF936C01EE24EA9481
:1019B000FE2C8701C0E0D0E00BC0C601BE010E9432
:1019C000C074482FC801B70168DC7B018C012196E7
:1019D000F60184819581C817D90778F3A80197018A
:1019E0002095309540955095B901CA01DF91CF916E
:1019F0001F910F91FF90EF90DF90CF9008950F937C
:101A00001F9384E090E00E94F1028C010E949B03EE
:101A10002DB73EB7201B310BC9011F910F910895BF
:101A2000EEDF9C018091F20D9091F30D281739079C
:101A3000D1F03093F30D2093F20D82ED95E167E440
:101A40007FE00E94F7736091F20D7091F30D82EDCB
:101A500095E14AE050E00E94147382ED95E162EA5C
:101A60007FE00C942974089582ED95E168E77FE0AA
:101A70000C94297482ED95E161E77FE00C94297460
:101A8000AF92BF92CF92DF92EF92FF920F931F938C
:101A90007B018C01CA01B9010E94FA795B016C01DA
:101AA000C801B701A80197010E94FA799B01AC0116
:101AB000C601B5010E94FD770E94677A1F910F91C0
:101AC000FF90EF90DF90CF90BF90AF9008956F920E
:101AD0007F928F929F92AF92BF92CF92DF92EF92BE
:101AE000FF920F931F937B018C0176DB5B016C01EE
:101AF000A8019701C5DF3B014C01E090410DF0903A
:101B0000420D0091430D1091440DC801B7010E9490
:101B100004799B01AC01C601B5010E94627887FD82
:101B20004AC08091490D90914A0DA0914B0DB09102
:101B30004C0DE80EF91E0A1F1B1FC801B7010E94B9
:101B400004799B01AC01C601B5010E94F679181613
:101B500094F1E090450DF090460D0091470D1091E5
:101B6000480DC801B7010E9404799B01AC01C40172
:101B7000B3010E94627887FD1EC0DD2480914D0D67
:101B800090914E0DA0914F0DB091500DE80EF91EA1
:101B90000A1F1B1FC801B7010E9404799B01AC01F9
:101BA000C401B3010E94F679181614F4DD24D3940D
:101BB00081E0D82601C0DD248D2D1F910F91FF906B
:101BC000EF90DF90CF90BF90AF909F908F907F90DD
:101BD0006F900895AF92BF92CF92DF92EF92FF92F3
:101BE0000F931F937B018C0159016A016091E60DEF
:101BF0007091E70D8091E80D9091E90D0E940479B4
:101C0000A80197010E94FD779B01AC010E94FA791F
:101C10007B018C01C601B501A60195010E94FA79EC
:101C20009B01AC01C801B7010E94FE770E94677A50
:101C30001F910F91FF90EF90DF90CF90BF90AF90EA
:101C40000895AF92BF92CF92DF92EF92FF920F93DF
:101C50001F937B018C0159016A01A80197010E9421
:101C6000FA797B018C01C601B501A60195010E949C
:101C7000FA799B01AC01C801B7010E94FE770E946E
:101C8000677A1F910F91FF90EF90DF90CF90BF90F8
:101C9000AF9008952F923F924F925F926F927F92F2
:101CA0008F929F92AF92BF92CF92DF92EF92FF926C
:101CB0000F931F93DF93CF9300D00F92CDB7DEB772
:101CC00069837A838B839C8359016A0117012801F8
:101CD000611571058105910559F40F2EF0E0EF2E85
:101CE000F0E0FF2EF0E00F2FF0E01F2FF02DA4C04A
:101CF000CA01B9010E94FA797B018C01C601B501C4
:101D000020E030E040E050E00E946278882324F434
:101D100017FB109517F91095C201B101A2019101AD
:101D20000E94FE773B014C01C801B701A401930159
:101D30000E9469787B018C0169817A818B819C8109
:101D40000E9404799B01AC01C801B7010E9462782E
:101D50008823B4F5C601B50120E030E040E050E052
:101D60000E946278882329F4C401B3010E94677A33
:101D70000DC0C201B101A60195010E9469789B01C5
:101D8000AC015F77C601B5010E94FE777B018C0133
:101D9000D0902F0DC090300DB090310DA090320D2D
:101DA0002D2D3C2D4B2D5A2D0E94F67918160CF036
:101DB00043C08D2D9C2DAB2DBA2D7C018D013CC0D7
:101DC000C601B50120E030E040E050E00E946278BA
:101DD000882359F4C401B3010E94677A7B018C0106
:101DE00017FB109517F910950FC0C201B101A6019C
:101DF00095010E9469789B01AC015F77C601B5012E
:101E00000E94FD777B018C0180912F0D9091300D08
:101E1000A091310DB091320D5C016D01D7FAD094D3
:101E2000D7F8D094C801B701A60195010E94627845
:101E3000882314F486017501B701C8010F900F9033
:101E40000F900F90CF91DF911F910F91FF90EF9026
:101E5000DF90CF90BF90AF909F908F907F906F90CA
:101E60005F904F903F902F9008958091380D882378
:101E7000F1F182ED95E16DE87FE00E94F77383EA6E
:101E80009EE00E94224920912D0D30912E0D442775
:101E900037FD4095542F0E945E7B82ED95E1BA019B
:101EA000A9012AE030E00E94C47282ED95E16BE95D
:101EB0007FE00E94F77387EE9EE00E942249209106
:101EC0002D0D30912E0D442737FD4095542F0E9443
:101ED0005E7B82ED95E1BA01A9012AE030E00E9423
:101EE000C47282ED95E162EA7FE00C942974089552
:101EF000EF92FF920F931F938091EE0D9091EF0D53
:101F0000A091F00DB091F10D0097A105B10509F078
:101F10003FC06091E60D7091E70D8091E80D9091C2
:101F2000E90D0E9404797B018C016091EA0D7091AA
:101F3000EB0D8091EC0D9091ED0D0E9404799B01C9
:101F4000AC01C801B7017DDE20E030E040E05FE396
:101F50000E94FE770E94D1786093EE0D7093EF0D92
:101F60008093F00D9093F10D82ED95E168E273E0BE
:101F70000E9443734091EE0D5091EF0D6091F00D72
:101F80007091F10D82ED95E12AE030E00E9402733C
:101F90006091EE0D7091EF0D8091F00D9091F10D2B
:101FA0001F910F91FF90EF90089582ED95E16FE3FF
:101FB00073E00C94E67382ED95E16AE971E00E94AA
:101FC000F07110920F0E08958F929F92AF92BF9270
:101FD000CF92DF92EF92FF920F931F936C017B01E0
:101FE00082ED95E166E573E00E94437382ED95E131
:101FF000B6014AE050E00E94147382ED95E16FE56E
:1020000073E00E94437382ED95E1B7014AE050E02E
:102010000E94267382ED95E164E673E00E944373AB
:102020006091830E7091840E82ED95E14AE050E05C
:102030000E94267382ED95E164E773E00E9443738A
:102040004091790E50917A0E60917B0E70917C0ECA
:1020500082ED95E12AE030E00E9402734601AA2455
:1020600097FCA094BA2C8091830E9091840EAA279D
:1020700097FDA095BA2F880E991EAA1EBB1E002799
:10208000F7FC0095102F2091790E30917A0E409137
:102090007B0E50917C0EC801B7010E94FE7A860E1D
:1020A000971EA81EB91E82ED95E16EE773E00E94AF
:1020B000437382ED95E1B501A4012AE030E00E946E
:1020C000C4728091850E9091860EA091870EB0917A
:1020D000880E88159905AA05BB0514F41FEF18C0D2
:1020E0008EE59EE0B501A4010E9445558EE59EE077
:1020F0000E945555182F82ED95E167E873E00E9424
:10210000437382ED95E1612F4AE050E00E94A8728E
:10211000812F1F910F91FF90EF90DF90CF90BF9094
:10212000AF909F908F9008956F927F928F929F9221
:10213000AF92BF92CF92DF92EF92FF920F931F93D5
:10214000DF93CF93CDB7DEB7A3970FB6F894DEBF7A
:102150000FBECDBF6DB67EB68EE59EE040E050E08E
:1021600060E070E00E9445557E010894E11CF11C7E
:10217000C70166E973E00E944C778EE59EE00E94FD
:102180005555182FC70160E070E00E94D174FC0122
:1021900010838EE59EE00E945555182FC70161E01F
:1021A00070E00E94D174FC011083C70169E973E0FB
:1021B0000E94F975882399F482ED95E16CE973E04A
:1021C0000E94437382ED95E1B7010E94F77382ED9F
:1021D00095E16AEB73E00E94E67310E083C182ED43
:1021E00095E165ED73E00E94E6738EE59EE00E9446
:1021F00055558E01085F1F4FC80165E072E00E94CF
:102200004C778EE59EE00E945555E82E9FE0C92E42
:10221000D12CCC0EDD1EF02E012F21C083E2E8165A
:1022200041F48EE59EE00E945555E82E9AE0E916AD
:10223000C1F7C6016F2D702F0E94EA77C6016E2D7F
:102240000E941E77BC018F2D902F0E94CC77C60173
:102250000E94F8778EE59EE00E945555E82E8AE0B0
:10226000E81619F090E2E916C9F682ED95E16BEFF8
:1022700073E00E94437388E0E82EF12CEC0EFD1E03
:1022800082ED95E1B7010E9429744C855D854F5F11
:102290005F4F8DB79EB7841B950B0FB6F8949EBF0A
:1022A0000FBE8DBF0DB71EB70F5F1F4F902E812E33
:1022B000B02EA12EC701B80120E030E00E94AA751F
:1022C000C8010E942305AA2797FDA095BA2F8093E5
:1022D000790E90937A0EA0937B0EB0937C0E0A97A2
:1022E000A105B10544F482ED95E162E471E00E943C
:1022F000F07110E0F3C0C70165E072E00E946577FD
:102300008EE59EE00E945555182F06E1C02ED12C77
:10231000CC0EDD1EC701FE2C092F1FC0133239F46D
:102320008EE59EE00E945555182F8A30C9F7C601E8
:102330006F2D702F0E94EA77C601612F0E941E77D1
:10234000BC018F2D902F0E94CC77C6010E94F87798
:102350008EE59EE00E945555182F1A30F9F682ED51
:1023600095E166E074E00E94437318E0C12ED12C21
:10237000CC0EDD1E82ED95E1B6010E9429744C85DC
:102380005D854F5F5F4FC6016B2D7A2D20E030E0F9
:102390000E94AA75892D982D0E942305AA2797FDD2
:1023A000A095BA2F80937D0E90937E0EA0937F0E02
:1023B000B093800EBC01CD010E9404797B018C0199
:1023C0006091790E70917A0E80917B0E90917C0EC7
:1023D0000E9404799B01AC01C801B7010E94697891
:1023E0006093590D70935A0D80935B0D90935C0D23
:1023F00082ED95E162E174E00E9443734091590DD2
:1024000050915A0D60915B0D70915C0D82ED95E1DC
:1024100022E030E00E94D573C60165E072E00E94C0
:1024200065778EE59EE00E945555182F0D2DBDE174
:10243000EB2EF12CEC0EFD1E16C0C7016C2D702F7B
:102440000E94EA77C701612F0E941E77BC018C2D84
:10245000902F0E94CC77C7010E94F8778EE59EE00E
:102460000E945555182F1A3041F782ED95E164E22C
:1024700074E00E94437382ED95E16C2D702F0E94F1
:1024800029744C855D854F5F5F4F8C2D902F6B2D90
:102490007A2D20E030E00E94AA75892D982D0E94A7
:1024A00023059093820E8093810E8EE59EE00E941C
:1024B00000557093840E6093830E82ED95E168E37E
:1024C00074E00E9443736091830E7091840E82EDDC
:1024D00095E14AE050E00E94267311E0CE01089693
:1024E0000E94F377CE0101960E94F377812F0FB6F9
:1024F000F8947EBE0FBE6DBEA3960FB6F894DEBFF5
:102500000FBECDBFCF91DF911F910F91FF90EF9044
:10251000DF90CF90BF90AF909F908F907F906F9003
:102520000895EF92FF920F931F93DF93CF93CDB750
:10253000DEB7FC01EDB6FEB6448155814F5F5F4FBB
:102540008DB79EB7841B950B0FB6F8949EBF0FBE38
:102550008DBF0DB71EB70F5F1F4FCF01B80120E031
:1025600030E00E94AA75C8010E9423050FB6F894B6
:10257000FEBE0FBEEDBECF91DF911F910F91FF9078
:10258000EF900895EF92FF920F931F93DF93CF93F5
:10259000CDB7DEB727970FB6F894DEBF0FBECDBF1D
:1025A0008E010F5F1F4FC80165E57FE00E94E17754
:1025B000C801B7DF7C01C8010E94F377EF2819F446
:1025C0001092060E0EC080910E0E882321F081E03D
:1025D0008093060E06C082ED95E166E474E00E94E9
:1025E000E67327960FB6F894DEBF0FBECDBFCF912E
:1025F000DF911F910F91FF90EF9008950F931F931C
:10260000DF93CF93CDB7DEB72E970FB6F894DEBF2A
:102610000FBECDBF8E010F5F1F4FC80165E57FE084
:102620000E94E177C8017DDF90936C0D80936B0D64
:10263000C8010E94F3778E01085F1F4FC8016CE547
:102640007FE00E94E177C8016CDF90936A0D809370
:10265000690DC8010E94F3772E960FB6F894DEBF7D
:102660000FBECDBFCF91DF911F910F910895EF92D3
:10267000FF920F931F93DF93CF93CDB7DEB76B9786
:102680000FB6F894DEBF0FBECDBFFC01EDB6FEB6AF
:10269000448155814F5F5F4F8DB79EB7841B950B6B
:1026A0000FB6F8949EBF0FBE8DBF0DB71EB70F5F5C
:1026B0001F4FCF01B80120E030E00E94AA75CE0183
:1026C000019667E571E1A80121E00E944E588B81D7
:1026D0009C819093610E8093600E8D819E81AF816D
:1026E000B8858093620E9093630EA093640EB093AE
:1026F000650E89859A85AB85BC858093660E90931F
:10270000670EA093680EB093690EAAE6BEE0FE01C4
:102710003D968DE001900D928150E1F78A8D9B8D61
:102720009093780E8093770ECE0101960E94BE544E
:102730008EE59EE00E942655882329F482ED95E1DE
:102740006AE674E007C0F0DC882341F482ED95E18D
:102750006BE774E00E94E67380E00DC08EE59EE0BA
:102760000E9413556093850E7093860E8093870E9A
:102770009093880E81E00FB6F894FEBE0FBEEDBEBA
:102780006B960FB6F894DEBF0FBECDBFCF91DF9131
:102790001F910F91FF90EF900895AF92BF92CF924B
:1027A000DF92EF92FF920F931F93DF93CF93CDB7FA
:1027B000DEB76B970FB6F894DEBF0FBECDBF6C01CE
:1027C000ADB6BEB64091140E5091150E4F5F5F4FDF
:1027D0008DB79EB7841B950B0FB6F8949EBF0FBEA6
:1027E0008DBF0DB71EB70F5F1F4F80E19EE0B80190
:1027F00020E030E00E94AA757E010894E11CF11CE3
:10280000C70167E571E1A80123E10E944E58C701A5
:102810000E9426558823D1F082ED95E163E874E0AB
:102820000E94437382ED95E160E17EE00E9429748D
:10283000C701B6010E942974C7010E94335582ED79
:1028400095E164E974E00E94E6730CC082ED95E1C5
:102850006AE974E00E94437382ED95E160E17EE0F5
:102860000E942974CE0101960E94BE540FB6F894BE
:10287000BEBE0FBEADBE6B960FB6F894DEBF0FBEE8
:10288000CDBFCF91DF911F910F91FF90EF90DF901F
:10289000CF90BF90AF900895EF92FF920F931F9348
:1028A00085E361E00E941B6C87E591E165E30E948E
:1028B0006E59882329F482ED95E169EA74E06AC0D3
:1028C00082ED95E165EC74E00E94E67382ED95E19E
:1028D00067ED74E00E94E67387E19EE061E045E306
:1028E0000E94C45B8823B9F482ED95E16FEE74E039
:1028F0000E94E67382ED95E167E175E00E94E67360
:1029000082ED95E160E375E00E94E67382ED95E16A
:102910006AE475E03FC082ED95E16EE875E00E94E3
:10292000E67382ED95E167EB75E00E944373809159
:10293000220E823049F0833061F0813079F482EDEB
:1029400095E164EC75E00EC082ED95E168EC75E010
:1029500009C082ED95E16CEC75E004C082ED95E173
:1029600061ED75E00E94E67383E29EE067E17EE040
:1029700041E00E94BA66882381F483E29EE067E129
:102980007EE040E00E94BA66882339F482ED95E14A
:1029900069ED75E00E94E67374C082ED95E163E233
:1029A00076E00E94437382ED95E160913A0E4AE031
:1029B00050E00E94A87282ED95E10E94D0712091B2
:1029C000270E30E040E050E060912C0E70912D0E0B
:1029D00080912E0E90912F0EE9E0660F771F881FD1
:1029E000991FEA95D1F70E94FE7A7B018C0182ED56
:1029F00095E167E376E00E94437382ED95E1B801CB
:102A0000A7012AE030E00E94867282ED95E16DE434
:102A100076E00E9443733AE016950795F794E794A1
:102A20003A95D1F782ED95E1B801A7012AE030E0AF
:102A30000E94867282ED95E164E676E00E9443731F
:102A40002AE016950795F794E7942A95D1F782ED39
:102A500095E1B801A7012AE030E00E94867282ED7C
:102A600095E16BE776E00E94E67381E49EE063E225
:102A70007EE00E94CF6081E49EE067E040E00E943B
:102A8000C9611F910F91FF90EF900895AF92BF928F
:102A9000CF92DF92EF92FF920F931F9383EA9EE013
:102AA0000E94434F87EE9EE00E94434F83EA9EE0E0
:102AB0000E941249611571058105910509F047C011
:102AC0006091410D7091420D8091430D9091440DA4
:102AD0002091490D30914A0D40914B0D50914C0D74
:102AE000260F371F481F591F0E94A3745B016C01FA
:102AF0006091450D7091460D8091470D9091480D64
:102B000020914D0D30914E0D40914F0D5091500D33
:102B1000260F371F481F591F0E94A3747B018C0189
:102B2000C601B5010E9404795B016C01C801B701BF
:102B30000E9404799B01AC01C601B50182D80E94B4
:102B4000D178AB01BC0183EA9EE00E94A74A87EEE0
:102B50009EE00E941249611571058105910509F0F9
:102B600048C06091410D7091420D8091430D90914C
:102B7000440D2091490D30914A0D40914B0D5091DB
:102B80004C0D260F371F481F591F0E94A3745B016D
:102B90006C016091450D7091460D8091470D9091AB
:102BA000480D20914D0D30914E0D40914F0D50919B
:102BB000500D260F371F481F591F0E94A3747B0119
:102BC0008C01C601B5010E9404795B016C01C8014A
:102BD000B7010E9404799B01AC01C601B5010E94B6
:102BE000EA0D0E94D178AB01BC0187EE9EE00E9405
:102BF000A74A1F910F91FF90EF90DF90CF90BF9069
:102C0000AF900895EF92FF920F931F93CF93DF93AE
:102C1000C0E0D0E082ED95E165EB76E00E94437381
:102C200082ED95E1BE014AE050E00E94267383EAFE
:102C30009EE00E941249611571058105910509F414
:102C400068C087EE9EE00E941249611571058105FA
:102C5000910509F45EC083EA9EE00E94434F87EE2F
:102C60009EE00E94434FE3CF6EEF7FEF8FEF9FEF29
:102C700023E030E040E050E00E94A3747B018C012F
:102C8000A701662757FD6095762F83EA9EE00E9494
:102C9000B84A82ED95E16EEB76E00E94437382EDD7
:102CA00095E1B7014AE050E00E94267387EE9EE06E
:102CB0000E941249611571058105910511F56EEFAC
:102CC0007FEF8FEF9FEF23E030E040E050E00E9485
:102CD000A3747B018C01A701662757FD6095762FB1
:102CE00087EE9EE00E94B84A82ED95E164ED76E0C1
:102CF0000E94437382ED95E1B7014AE050E00E94E3
:102D00002673B3D8219683E0C83ED80709F082CF56
:102D10000AC083EA9EE00E9412496115710581058F
:102D2000910521F6A1CFDF91CF911F910F91FF90D7
:102D3000EF9008958AE892E090937B0D80937A0D4E
:102D400090937D0D80937C0D8FE590E09093770DAF
:102D50008093760D80E991E09093790D8093780DC2
:102D600081E090E09093750D8093740D95DD64EF94
:102D700071E080E090E00C94566BAF92BF92CF92DE
:102D8000DF92EF92FF920F931F93CF93DF93EC01AB
:102D90005B016A0183ED9DE069E070E00E941751DC
:102DA000CA15DB059CF476010027F7FC0095102F6F
:102DB00083ED9DE0BE010E940050C801B7010E9452
:102DC000566B2196AC16BD069CF712C07601002703
:102DD000F7FC0095102F83ED9DE0BE010E9400508E
:102DE000C801B7010E94566B2197CA15DB059CF7F5
:102DF00083ED9DE00E94944FDF91CF911F910F9141
:102E0000FF90EF90DF90CF90BF90AF900895EF923A
:102E1000FF920F931F93DF93CF93CDB7DEB7279722
:102E20000FB6F894DEBF0FBECDBF8091F40D909128
:102E3000F50D2091D60D029714F1222329F0E09090
:102E4000BD10F090BE1004C0E090720DF090730DB4
:102E50008E010F5F1F4FC80165E57FE00E94E1779B
:102E6000C8015FDB9093730D8093720DC8010E94BF
:102E7000F3776091720D7091730DC7010AC0213014
:102E800059F46091720D7091730D8091BD10909105
:102E9000BE1043E050E071DF1092D60D27960FB6BA
:102EA000F894DEBF0FBECDBFCF91DF911F910F9180
:102EB000FF90EF900895EF92FF920F931F93DF938F
:102EC000CF93CDB7DEB727970FB6F894DEBF0FBE0E
:102ED000CDBF8091F40D9091F50D2091D60D029704
:102EE00014F1222329F0E090BD10F090BE1004C030
:102EF000E090720DF090730D8E010F5F1F4FC801AF
:102F000065E57FE00E94E177C8010BDB9093BE107E
:102F10008093BD10C8010E94F3776091BD1070913D
:102F2000BE10C7010AC0222359F46091BD107091F0
:102F3000BE108091720D9091730D43E050E01DDF43
:102F400081E08093D60D27960FB6F894DEBF0FBEB2
:102F5000CDBFCF91DF911F910F91FF90EF9008951A
:102F600083EA9EE00E94AC4D87EE9EE00E94AC4D4D
:102F700010928A0E82ED95E16AEE76E00C94E6738B
:102F8000EF92FF920F931F930E94226B9B01AC0163
:102F9000E090F60DF090F70D0091F80D1091F90DFD
:102FA0008091400D8823E1F080918A0E8823C1F042
:102FB0002E193F09400B510B80913C0D90913D0D16
:102FC000A0913E0DB0913F0D82179307A407B5075E
:102FD0003CF482ED95E16AEF76E00E94E673C0DF93
:102FE0008091060E882309F051DD1F910F91FF900B
:102FF000EF900895AC01662757FD6095762F87EE18
:103000009EE00E94B84A09C0BBDF8091390D882339
:1030100021F087EE9EE00E94434F87EE9EE00E94E3
:103020001249611571058105910571F70E94226BA6
:103030006093F60D7093F70D8093F80D9093F90D52
:103040000895AC01662757FD6095762F83EA9EE0D0
:103050000E94B84A09C094DF8091390D882321F07D
:1030600083EA9EE00E94434F83EA9EE00E94124959
:10307000611571058105910571F70E94226B6093BE
:10308000F60D7093F70D8093F80D9093F90D089558
:10309000CF93DF93FC01EB0121153105A9F4809159
:1030A000710D882339F0CF0162E070E00E94297B26
:1030B000CB012BC0CF0162E070E00E94297BCB01E5
:1030C000909581959F4F21C08091710D24173507F0
:1030D000A1F4882339F0CF0162E070E00E94297BDF
:1030E000CB0109C0CF0162E070E00E94297BCB01D7
:1030F000909581959F4FA5DF15C0882311F0CF01D2
:1031000004C0882799278E1B9F0B9BDFCE0172DF9F
:103110008091710D882319F01092710D03C081E028
:103120008093710DDF91CF9108950F931F93CF93EB
:10313000DF93EC018B0121153105D9F482ED95E186
:103140006FE177E00E94E6738091710D882339F07A
:10315000CE0162E070E00E94297BCB012BC0CE0142
:1031600062E070E00E94297BCB01909581959F4F92
:1031700021C08091710D24173507A1F4882339F0FF
:10318000CE0162E070E00E94297BCB0109C0CE0134
:1031900062E070E00E94297BCB01909581959F4F62
:1031A00029DF15C0882311F0CE0104C08827992794
:1031B0008C1B9D0B1FDFC80144DF8091710D88239C
:1031C00019F01092710D03C081E08093710DDF91B1
:1031D000CF911F910F9108953F924F925F926F92FE
:1031E0007F928F929F92AF92BF92CF92DF92EF9297
:1031F000FF920F931F93DF93CF9300D00F92CDB721
:10320000DEB7FC014B016A01322E141615060CF0D4
:103210007FC0BA010E94297B5B01CF01B6010E94E9
:10322000297BAA2797FDA095BA2FBC01CD010E944A
:1032300004797B018C01B601882777FD8095982F52
:103240000E9404799B01AC01C801B7010E94697812
:103250002B013C010F2EF0E0EF2EF0E0FF2EF0E00E
:103260000F2FF0E01F2FF02D1C821B82C50101964D
:103270009A838983C801B701A30192010E94FE7756
:103280007B018C0120E030E040E85FE30E94F679AA
:1032900087FF02C095010CC0C801B70120E030E0F3
:1032A00040E85FE30E94FD777B018C0129813A8130
:1032B00092E0391619F4C401B9010EC0E3E03E16DC
:1032C00019F4C401B90115C0F4E03F1651F46627A2
:1032D0007727621B730BC401A6012B813C8125DF7C
:1032E0000CC081E0381649F466277727621B730B00
:1032F000C401A6012B813C81CBDE0E94350FEB81FE
:10330000FC813196FC83EB83CE16DF060CF0B2CF46
:103310000F900F900F900F90CF91DF911F910F9111
:10332000FF90EF90DF90CF90BF90AF909F908F90E5
:103330007F906F905F904F903F9008958F929F92F3
:10334000AF92BF92CF92DF92EF92FF920F931F93B3
:10335000DF93CF93CDB7DEB72E970FB6F894DEBFCD
:103360000FBECDBF6E010894C11CD11CC60165E51E
:103370007FE00E94E177C601D4D8AA2797FDA095E7
:10338000BA2F20912D0D30912E0D442737FD4095F9
:10339000542FBC01CD010E94FE7A7B018C015B01A0
:1033A000C6010E94F377A8E0CA2ED12CCC0EDD1EF8
:1033B000C6016CE57FE00E94E177C601B2D84C01FE
:1033C000C6010E94F377C701B701A40122E004DF20
:1033D000AA0CBB1CC50135DEC701B701A40123E05F
:1033E000FBDEC50107DEC701B701A40124E0F4DE5E
:1033F000B094A194B108B394C50123DEC701B7010D
:10340000A40121E0E9DEC501F5DD2E960FB6F894A2
:10341000DEBF0FBECDBFCF91DF911F910F91FF9007
:10342000EF90DF90CF90BF90AF909F908F900895D6
:10343000AF92BF92CF92DF92EF92FF920F931F93C2
:10344000DF93CF93CDB7DEB728970FB6F894DEBFE2
:103450000FBECDBF69837A838B839C832D833E838C
:103460004F8358870E94226B6093F60D7093F70D7F
:103470008093F80D9093F90DCE010196BE016B5F1C
:103480007F4F0E94490883EA9EE00E94064C5B0140
:103490006C0187EE9EE00E94064C7B018C0183EA62
:1034A0009EE040E050E060E070E00E94814B87EEDB
:1034B0009EE040E050E060E070E00E94814B698156
:1034C0007A818B819C810E94D178AB01BC0183EA17
:1034D0009EE00E94A74A6D817E818F8198850E941F
:1034E000D178AB01BC0187EE9EE00E94A74A809193
:1034F000370D882309F042C083EA9EE00E94064C03
:1035000020E030E040E050E00E946278882324F41C
:10351000D7FAD094D7F8D09487EE9EE00E94064C5C
:1035200020E030E040E050E00E946278882324F4FC
:1035300017FB109517F9109583EA9EE0B601A501D7
:103540000E94814B87EE9EE0B801A7010E94814B4B
:1035500015C08091370D882349F083EA9EE00E94D0
:10356000434F87EE9EE00E94434F08C083EA9EE0EF
:103570000E94204F87EE9EE00E94204F83EA9EE04B
:103580000E941249611571058105910549F487EE84
:103590009EE00E941249611571058105910531F087
:1035A000EFDC8091390D882349F3D3CF0E94350F8A
:1035B00028960FB6F894DEBF0FBECDBFCF91DF9136
:1035C0001F910F91FF90EF90DF90CF90BF90AF9041
:1035D0000895AF92BF92CF92DF92EF92FF920F9336
:1035E0001F9379018A010E9404795B016C01C80173
:1035F000B7010E9404799B01AC01C601B50118DF37
:103600001F910F91FF90EF90DF90CF90BF90AF9000
:1036100008952F923F924F925F926F927F928F9276
:103620009F92AF92BF92CF92DF92EF92FF920F9351
:103630001F93DF93CF93CDB7DEB760970FB6F894A3
:10364000DEBF0FBECDBF82ED95E16FE277E00E9455
:10365000E67382ED95E16FE477E00E944373609139
:10366000690D70916A0D82ED95E14AE050E00E948B
:1036700026738091690D90916A0D029709F0A6C09A
:1036800087EE9EE00E9422491B012C018091510D82
:103690009091520DAA2797FDA095BA2F280E391E9A
:1036A0004A1E5B1E82ED95E169E677E00E94437356
:1036B00082ED95E1B201A1012AE030E00E9402739F
:1036C000C201B101A20191010E94FE7A3B014C01AD
:1036D000A090450DB090460DC090470DD090480D7C
:1036E000E0904D0DF0904E0D00914F0D1091500D4A
:1036F000EA0CFB1C0C1D1D1D2091E60D3091E70D01
:103700004091E80D5091E90D2D873E874F87588BEA
:103710008091410D9091420DA091430DB091440DC7
:1037200089879A87AB87BC87281B390B4A0B5B0BB1
:10373000CA01B9010E94FE7A6D837E838F839887C8
:10374000C801B701A80197010E94FE7AED80FE80B2
:103750000F8118856E0D7F1D801F911F66157705DF
:10376000880599056CF1C601B501A60195010E9475
:10377000FE7A5B016C018091490D90914A0DA091F8
:103780004B0DB0914C0D2D853E854F855889E984B0
:10379000FA840B851C852E193F09400B510B281B01
:1037A000390B4A0B5B0BCA01B9010E94FE7A6A0D04
:1037B0007B1D8C1D9D1D661677068806990644F4B0
:1037C00082ED95E164E777E00E94E67380E005C151
:1037D0008D819E81AF81B8858A0D9B1DAC1DBD1D5D
:1037E00086159705A805B9050CF499C082ED95E1F9
:1037F00068E877E00E94E6730091450D1091460D50
:103800002091470D3091480D09831A832B833C8307
:10381000C901B801A90198010E94FE7A9B01AC017F
:10382000C401B301621B730B840B950B0E940479D6
:103830000E94677A7B018C016091E60D7091E70D23
:103840008091E80D9091E90D0E940479A8019701FB
:103850000E94FD770E94D1785B016C0182ED95E1B9
:1038600069E977E00E944373C201B1010E940479C3
:103870002091DE0D3091DF0D4091E00D5091E10D72
:103880000E94FA79AB01BC0182ED95E122E030E0C3
:103890000E94D37382ED95E163EA77E00E9443735F
:1038A0006091410D7091420D8091430D9091440DB6
:1038B0000E9404792091DE0D3091DF0D4091E00DE2
:1038C0005091E10D0E94FA79AB01BC0182ED95E1C6
:1038D00022E030E00E94D37382ED95E16CEA77E05C
:1038E0000E9443736091450D7091460D8091470D84
:1038F0009091480D0E9404792091DE0D3091DF0DEA
:103900004091E00D5091E10D0E94FA79AB01BC01AC
:1039100082ED95E122E030E00E94D57330C082ED67
:1039200095E165EB77E00E94E673A090410DB090C1
:10393000420DC090430DD090440D2091E60D309182
:10394000E70D4091E80D5091E90DC601B501621BEC
:10395000730B840B950B2A193B094C095D090E94D6
:10396000FE7A660D771D881D991D0E9404790E94BC
:10397000677A0E94D17869837A838B839C83C6019E
:10398000B5010E9404793B014C0169817A818B81E8
:103990009C810E9404797B018C01C401B301A801C0
:1039A00097010E94210E5B016C01C401B301A801C3
:1039B00097010E94EA0D7B018C01C601B5010E94AE
:1039C000D1785B016C01C801B7010E94D1789B01DD
:1039D000AC01C601B501FDDD81E060960FB6F8943B
:1039E000DEBF0FBECDBFCF91DF911F910F91FF9032
:1039F000EF90DF90CF90BF90AF909F908F907F908F
:103A00006F905F904F903F902F9008952F923F922C
:103A10004F925F926F927F928F929F92AF92BF92DE
:103A2000CF92DF92EF92FF920F931F93DF93CF938A
:103A300000D00F92CDB7DEB73B014C0159016A01AE
:103A4000FA82E982C80162E070E00E94297B88273F
:103A500077FD8095982F661A770A880A990AA61A20
:103A6000B70AC80AD90A1C821B821801442437FCF1
:103A70004094542C2DC060E070E080E090E0A20102
:103A800091010E94A3747B018C0160E070E080E0F2
:103A900090E0A20191010E94A3749B01AC01002758
:103AA000F7FC0095102FE60CF71C081D191D442784
:103AB00037FD4095542F2A0D3B1D4C1D5D1DC8013F
:103AC000B70187DD2B813C812F5F3F4F3C832B83E8
:103AD0008B819C81E981FA81E817F90764F60F90E0
:103AE0000F900F900F90CF91DF911F910F91FF904A
:103AF000EF90DF90CF90BF90AF909F908F907F908E
:103B00006F905F904F903F902F9008952F923F922B
:103B10004F925F926F927F928F929F92AF92BF92DD
:103B2000CF92DF92EF92FF920F931F93DF93CF9389
:103B3000CDB7DEB7EA970FB6F894DEBF0FBECDBFA4
:103B400080910E0E882309F4BCC46E010894C11C38
:103B5000D11CC60165E57FE00E94E1778E01085F18
:103B60001F4FC8016CE57FE00E94E177C8010E9409
:103B700091124C01A0902D0DB0902E0DC8010E9405
:103B8000F3778E01015F1F4FC80163E67FE00E945B
:103B9000E177C8010E949112AA2797FDA095BA2F3C
:103BA00020912D0D30912E0D442737FD4095542F37
:103BB000BC01CD010E94FE7A7CA76BA7C8010E94C0
:103BC000F3778E010A5E1F4FC801B6010E94E177AC
:103BD000C8010E943713F82EC8010E94F377FF2016
:103BE00069F482ED95E167EC77E00E94437382ED22
:103BF00095E1B6010E942974C6016AC4B401882700
:103C000077FD8095982F9501442737FD4095542FD7
:103C10000E94FE7A1B012C017EA76DA782ED95E123
:103C200062EE77E00E9443734091790E50917A0ED4
:103C300060917B0E70917C0E82ED95E12AE030E080
:103C40000E94C47282ED95E16EEE77E00E944373AC
:103C500040917D0E50917E0E60917F0E7091800E8E
:103C600082ED95E12AE030E00E94027382ED95E159
:103C700061EF77E00E9443734091490D50914A0DE6
:103C800060914B0D70914C0D82ED95E12AE030E092
:103C90000E94C47282ED95E16DEF77E00E94E673B9
:103CA0006091490D70914A0D80914B0D90914C0D92
:103CB0000E9404797B018C016091790E70917A0EDB
:103CC00080917B0E90917C0E0E9404799B01AC0147
:103CD000C801B7010E9469786093550D7093560D25
:103CE0008093570D9093580D82ED95E16FEF77E03B
:103CF0000E9443734091550D5091560D6091570DA0
:103D00007091580D82ED95E122E030E00E94D5736C
:103D100082ED95E16FE078E00E9443734091490D98
:103D200050914A0D60914B0D70914C0D82ED95E1D3
:103D30002AE030E00E94027382ED95E168E374E0CE
:103D40000E9443736091830E7091840E82ED95E121
:103D50004AE050E00E942673AED86091490D709100
:103D60004A0D80914B0D90914C0D0E940479209149
:103D7000590D30915A0D40915B0D50915C0D0E9490
:103D8000FA790E94D1785B016C0160934D0D7093BC
:103D90004E0D80934F0D9093500D2091490D309111
:103DA0004A0D40914B0D50914C0D8091410D9091D9
:103DB000420DA091430DB091440D280F391F4A1FA9
:103DC0005B1F2FA338A749A75AA7E090450DF09095
:103DD000460D0091470D1091480DAE0CBF1CC01E42
:103DE000D11ECA01B9010E9404793B014C01C801EE
:103DF000B7010E9404799B01AC01C401B3010E9488
:103E0000EA0D7B018C01C10162E070E00E94297B18
:103E1000882777FD8095982F0E9404799B01AC013B
:103E2000C801B7010E94FE776D8F7E8F8F8F98A398
:103E30006091450D7091460D8091470D9091480D10
:103E40000E9404799B01AC01C401B3010E94210EC0
:103E50002D8D3E8D4F8D58A1EBDA0E94071783EA16
:103E60009EE00E9422490E9404796BA37CA38DA34B
:103E70009EA387EE9EE00E9422490E9404791B01C6
:103E80002C01C601B501A60195010E94FE7A6FA71B
:103E900078AB89AB9AAB1AA219A28DA59EA5AA27C9
:103EA00097FDA095BA2F8BAB9CABADABBEAB2BA552
:103EB0003CA5442737FD4095542F2FAB38AF49AF71
:103EC0005AAF6BA17CA18DA19EA1A20191010E947C
:103ED000670D882309F0ADC182ED95E16BE178E0D3
:103EE0000E94E6730E945B176BA97CA98DA99EA90D
:103EF0000E9404799B01AC016D8D7E8D8F8D98A100
:103F00000E94FE776D8F7E8F8F8F98A39B01AC01EF
:103F10000E94FA795B016C016090E60D7090E70DEC
:103F20008090E80D9090E90D8091410D9091420DA7
:103F3000A091430DB091440DA4019301281B390BAE
:103F40004A0B5B0BCA01B9010E94FE7A1B012C01CE
:103F50006FA578A989A99AA9620D731D841D951D65
:103F60000E9404799B01AC01C601B5010E94F6795B
:103F7000181654F12091450D3091460D4091470D92
:103F80005091480DCA01B9010E94FE7A7B018C0153
:103F9000A40193018FA198A5A9A5BAA5281B390B47
:103FA0004A0B5B0BCA01B9010E94FE7A6E0D7F1DA0
:103FB000801F911F0E9404799B01AC01C601B501CD
:103FC0000E946278882364F482ED95E16FE378E0E3
:103FD0000E94E6732D8C3E8C4F8C58A011E01FC1BF
:103FE000C201B1016E0D7F1D801F911F0E940479D7
:103FF0009B01AC01C601B5010E94627818160CF451
:104000007FC082ED95E168E877E00E94E6736090FA
:10401000450D7090460D8090470D9090480DC4015D
:10402000B301A40193010E94FE7A0E9404799B01CE
:10403000AC01C601B5010E94FD770E94677A7B0141
:104040008C016091E60D7091E70D8091E80D9091E3
:10405000E90D0E940479A80197010E94FD770E9452
:10406000D1787B018C0182ED95E162E578E00E94D8
:1040700043736091410D7091420D8091430D909179
:10408000440D0E9404792091DE0D3091DF0D4091A6
:10409000E00D5091E10D0E94FA79AB01BC0182ED77
:1040A00095E122E030E00E94D37382ED95E16CE669
:1040B00078E00E9443736091450D7091460D8091A8
:1040C000470D9091480D0E9404792091DE0D3091AA
:1040D000DF0D4091E00D5091E10D0E94FA79AB01A6
:1040E000BC0182ED95E122E030E00E94D373C8016B
:1040F000B7010E9404795B016C01C401B30178C06F
:1041000082ED95E165EB77E00E94E673E090410D6A
:10411000F090420D0091430D1091440D2091E60D59
:104120003091E70D4091E80D5091E90D2E193F09AE
:10413000400B510BCA01B9010E94FE7A0E9404791A
:104140009B01AC01C601B5010E94FD770E94677A10
:104150003B014C0182ED95E162E578E00E944373FA
:104160006091410D7091420D8091430D9091440DED
:104170000E9404792091DE0D3091DF0D4091E00D19
:104180005091E10D0E94FA79AB01BC0182ED95E1FD
:1041900022E030E00E94D37382ED95E16CE678E096
:1041A0000E9443736091450D7091460D8091470DBB
:1041B0009091480D0E9404792091DE0D3091DF0D21
:1041C0004091E00D5091E10D0E94FA79AB01BC01E4
:1041D00082ED95E122E030E00E94D373C801B7017F
:1041E0000E9404795B016C01C401B3010E94D17883
:1041F0000E9404797B018C01C601B501A8019701D9
:104200000E94210E6BA37CA38DA39EA3C601B501C2
:10421000A80197010E94EA0D1B012C0110E068EE35
:1042200073E080E090E00E94566B112309F03EC1DC
:1042300006C082ED95E160E778E00E94E6736BA12D
:104240007CA18DA19EA1A2019101F2D80E94071725
:10425000A9A1BAA11196BAA3A9A382ED95E169E734
:1042600078E00E94437382ED95E169A17AA14AE06A
:1042700050E00E9426736BA17CA18DA19EA1A2019A
:1042800091010E94EC087B018C012BA13CA14DA166
:104290005EA10E94400D5B016C016091410D709127
:1042A000420D8091430D9091440D0E9404799B0131
:1042B000AC01C801B7010E94FD773B014C01609140
:1042C000450D7091460D8091470D9091480D0E94CB
:1042D00004799B01AC01C601B5010E94FD775B0129
:1042E0006C0182ED95E160E878E00E94437382ED15
:1042F00095E1B401A30122E030E00E94D37382ED86
:1043000095E16FE573E00E94437382ED95E1B6019C
:10431000A50122E030E00E94D573E090550DF090A9
:10432000560D0091570D1091580DC401B301A8010D
:1043300097010E9469783B014C01C601B501A801B3
:1043400097010E9469787B018C0182ED95E16CE90F
:1043500078E00E94437382ED95E1B401A30122E06D
:1043600030E00E94D37382ED95E16FE573E00E9427
:10437000437382ED95E1B801A70122E030E00E948D
:10438000D573C801B7010E94D1785B016C019B0114
:10439000442737FD4095542F80917D0E90917E0EDD
:1043A000A0917F0EB091800E82179307A407B507E6
:1043B000C4F0C401B3010E94D1787B018C019B0140
:1043C000442737FD4095542F8091790E90917A0EB5
:1043D000A0917B0EB0917C0E82179307A407B507BE
:1043E0002CF482ED95E160EC78E064C0C701B50182
:1043F0000E94E40F6091810E7091820E90E04DA5B5
:104400005EA50E94E207E82E6FA978AD89AD9AAD4E
:104410000E9404793B014C01FF2400E010E0C80138
:10442000B7010E94027920E030E040E05FE30E94A3
:10443000FA795B016C01C401B30120E030E040E097
:104440005FE30E94FA799B01AC016BA17CA18DA175
:104450009EA10E94FE777B018C01C201B101A601E1
:1044600095010E94FD779B01AC01B701C8010E9434
:10447000181AC201B101A60195010E94FE779B01A5
:10448000AC01B701C8010E94181A6BA17CA18DA1D3
:104490009EA1A40193010E94FE776BA37CA38DA330
:1044A0009EA3A20191010E94181A0BCD82ED95E105
:1044B0006AED78E00E94E6730E945B17CE010196D8
:1044C00007C082ED95E165EE78E00E94E67302C0D8
:1044D0000E94F377EA960FB6F894DEBF0FBECDBF09
:1044E000CF91DF911F910F91FF90EF90DF90CF90D0
:1044F000BF90AF909F908F907F906F905F904F9004
:104500003F902F9008952F923F924F925F926F921B
:104510007F928F929F92AF92BF92CF92DF92EF9253
:10452000FF920F931F93DF93CF93CDB7DEB7AC9776
:104530000FB6F894DEBF0FBECDBF2B013C0198A291
:104540008F8E0E94EC086B8F7C8F8D8F9E8FA301C6
:1045500092010E94400D6F8B788F898F9A8FC801CE
:10456000B701A60195010E94EC085B016C01A8014E
:1045700097010E94400D3B014C01C601B50120E0AE
:1045800030E040EA51E40E94F67918160CF03EC281
:104590006091E60D7091E70D8091E80D9091E90D25
:1045A00064517040804090400E9404791B012C01AE
:1045B000C601B501A20191010E94627888230CF026
:1045C00025C2C401B30120E030E040EA51E40E947A
:1045D000F67918160CF01AC26091EA0D7091EB0D85
:1045E0008091EC0D9091ED0D6451704080409040B1
:1045F0000E9404797B018C01C401B301A8019701D9
:104600000E94627888230CF001C26B8D7C8D8D8DA9
:104610009E8D20E030E040EA51E40E94F6791816C1
:104620000CF0F4C16B8D7C8D8D8D9E8DA20191015E
:104630000E94627888230CF0E9C16F89788D898D9A
:104640009A8D20E030E040EA51E40E94F679181695
:104650000CF0DCC16F89788D898D9A8DA801970146
:104660000E94627888230CF0D1C182ED95E162E16D
:1046700079E00E94437382ED95E14B8D5C8D6D8DE9
:104680007E8D22E030E00E94D37382ED95E169E8EF
:1046900072E00E94437382ED95E14F89588D698DD8
:1046A0007A8D22E030E00E94D37382ED95E168E1DB
:1046B00079E00E94437382ED95E1B601A50122E005
:1046C00030E00E94D37382ED95E169E872E00E94C8
:1046D000437382ED95E1B401A30122E030E00E9432
:1046E000D5731092380DC601B5012B8D3C8D4D8DC3
:1046F0005E8D0E94FD771B012C01C401B3012F893F
:10470000388D498D5A8D0E94FD773B014C01C201C5
:10471000B10120E030E040E050E00E94F679181648
:104720001CF48201710106C08201710117FB109512
:1047300017F91095C401B30120E030E040E050E0EB
:104740000E94F67918161CF4A401930103C0A40179
:1047500093015058C801B7010E94F67918169CF0D1
:1047600021E030E03E8B2D8BD401C301B05889A7E6
:104770009AA7ABA7BCA7AF8DB8A15D01CC24B7FCAD
:10478000C094DC2C4EC021E030E03E8B2D8BD2015A
:10479000C101B0588DA39EA3AFA3B8A7AF8DB8A198
:1047A0005D01CC24B7FCC094DC2C06C02D893E8969
:1047B0002F5F3F4F3E8B2D8BC201B10120E030E0D7
:1047C00040E050E00E94F67918161CF48201710155
:1047D00004C0EDA0FEA00FA118A5AD89BE89BD0142
:1047E000882777FD8095982F0E9404799B01AC0162
:1047F000C801B7010E9469787B018C01C601B5012F
:104800000E9404799B01AC01C801B7010E94F679AE
:10481000181664F234C02D893E892F5F3F4F3E8BBE
:104820002D8BC401B30120E030E040E050E00E9455
:10483000F67918161CF48401730104C0E9A4FAA4E3
:104840000BA51CA5AD89BE89BD01882777FD809584
:10485000982F0E9404799B01AC01C801B7010E9406
:1048600069787B018C01C601B5010E9404799B0126
:10487000AC01C801B7010E94F679181664F22D89BF
:104880003E895901CC24B7FCC094DC2CC601B5018B
:104890000E9404797B018C01C201B101A80197013A
:1048A0000E9469786D837E838F839887C401B301EA
:1048B000A80197010E94697869837A838B839C831E
:1048C0001092370D198A1A8A1B8A1C8A19861A8631
:1048D0001B861C86A9A2BAA2CBA2DCA26B8D7C8D02
:1048E0008D8D9E8D2D813E814F8158850E94FE7752
:1048F0006B8F7C8F8D8F9E8F6F89788D898D9A8D30
:1049000029813A814B815C810E94FE776F8B788F81
:10491000898F9A8F6B8D7C8D8D8D9E8D2F89388D93
:10492000498D5A8D0E94210E6D877E878F87988BC7
:104930006B8D7C8D8D8D9E8D2F89388D498D5A8DF7
:104940000E94EA0D1B012C0169847A848B849C846B
:1049500089A19AA1ABA1BCA1680E791E8A1E9B1EDB
:1049600069897A898B899C890E9404795B016C0131
:104970006091330D7091340D8091350D9091360D0D
:1049800020E030E040E850E40E94FA797B018C019D
:10499000C401B301A60195010E944A0E0E94D1787C
:1049A000698B7A8B8B8B9C8B0E9404797B018C01A9
:1049B00083EA9EE0B801A7010E94814B87EE9EE04A
:1049C000B801A7010E94814B6D857E858F859889EE
:1049D000A20191010E94181A89859A85AB85BC8530
:1049E0000197A109B10989879A87AB87BC878D890F
:1049F0009E89A985BA858A0F9B1F892B09F06ECFE6
:104A000081E08093380D8093370D06C082ED95E1EB
:104A10006DE179E00E94E6730E94100DAC960FB62E
:104A2000F894DEBF0FBECDBFCF91DF911F910F91E4
:104A3000FF90EF90DF90CF90BF90AF909F908F90BE
:104A40007F906F905F904F903F902F9008952F929E
:104A50003F924F925F926F927F928F929F92AF920E
:104A6000BF92CF92DF92EF92FF920F931F93DF934B
:104A7000CF93CDB7DEB7A6970FB6F894DEBF0FBEC3
:104A8000CDBF80910E0E882309F401C3CE0101969B
:104A900065E57FE00E94E1778E01085F1F4FC80146
:104AA000BE016F5F7F4F0E94E177C8010E943713FC
:104AB000F82EC8010E94F377FF2071F482ED95E192
:104AC00067EC77E00E94437382ED95E1BE016F5F72
:104AD0007F4F0E942974D6C282ED95E162EE77E0A5
:104AE0000E9443734091790E50917A0E60917B0E33
:104AF00070917C0E82ED95E12AE030E00E94C47254
:104B000082ED95E16EEE77E00E94437340917D0E59
:104B100050917E0E60917F0E7091800E82ED95E136
:104B20002AE030E00E94027382ED95E161EF77E0C8
:104B30000E9443734091490D50914A0D60914B0D75
:104B400070914C0D82ED95E12AE030E00E94C47234
:104B500082ED95E16DEF77E00E94E6736091490D7B
:104B600070914A0D80914B0D90914C0D2091790ED2
:104B700030917A0E40917B0E50917C0E0E945E7BAC
:104B8000CA01B9010E9404796093550D7093560DC6
:104B90008093570D9093580D82ED95E16FEF77E07C
:104BA0000E9443734091550D5091560D6091570DE1
:104BB0007091580D82ED95E122E030E00E94D573AE
:104BC00082ED95E16FE078E00E9443734091490DDA
:104BD00050914A0D60914B0D70914C0D82ED95E115
:104BE0002AE030E00E94027382ED95E168E374E010
:104BF0000E9443736091830E7091840E82ED95E163
:104C00004AE050E00E942673E090490DF0904A0D72
:104C100000914B0D10914C0DC801B7010E94047911
:104C20002091590D30915A0D40915B0D50915C0DC2
:104C30000E94FA790E94D17860934D0D70934E0DC9
:104C400080934F0D9093500D2090410D3090420D68
:104C50004090430D5090440D2E0C3F1C401E511EA1
:104C60002091450D3091460D4091470D5091480DD2
:104C7000260F371F481F591F2F87388B498B5A8B98
:104C800082ED95E163E479E00E94437382ED95E162
:104C9000B201A1012AE030E00E94C47282ED95E1E8
:104CA0006BE479E00E94437382ED95E14F8558896A
:104CB00069897A892AE030E00E94027383EA9EE0E3
:104CC0000E9422493B014C0187EE9EE00E9422494E
:104CD0006BA37CA38DA39EA36091410D7091420DA7
:104CE0008091430D9091440D0E9404797B018C01C9
:104CF0006091450D7091460D8091470D9091480D42
:104D00000E9404799B01AC01C801B7010E94210EE9
:104D10007B018C016091410D7091420D8091430D9A
:104D20009091440D0E9404795B016C016091450DE6
:104D30007091460D8091470D9091480D0E94047925
:104D40009B01AC01C601B5010E94EA0D5B016C013B
:104D5000C401B3010E9404793B014C016BA17CA109
:104D60008DA19EA10E9404799B01AC01C401B301F5
:104D7000E4E18E2E912CC7DB83EA9EE00E9422495B
:104D80003B014C0187EE9EE00E9422496F8F78A381
:104D900089A39AA3C201B1010E9404796B8F7C8F11
:104DA0008D8F9E8F6091450D7091460D8091470DBE
:104DB0009091480D0E9404799B01AC016B8D7C8D14
:104DC0008D8D9E8D0E94210E7B018C016091450D81
:104DD0007091460D8091470D9091480D0E94047985
:104DE0009B01AC016B8D7C8D8D8D9E8D0E94EA0D9B
:104DF0005B016C01C401B3010E9404793B014C01C9
:104E00006F8D78A189A19AA10E9404799B01AC01C0
:104E1000C401B301B4E18B2E912C75DB83EA9EE0D3
:104E20000E9422493B014C0187EE9EE00E942249EC
:104E30006F8B788F898F9A8F6F85788989899A8906
:104E40000E9404791B012C016B8D7C8D8D8D9E8DB4
:104E5000A20191010E94210E7B018C016B8D7C8D42
:104E60008D8D9E8DA20191010E94EA0D5B016C0166
:104E7000C401B3010E9404793B014C016F89788D14
:104E8000898D9A8D0E9404799B01AC01C401B30104
:104E9000A4E18A2E912C37DB83EA9EE00E9422490E
:104EA0003B014C0187EE9EE00E9422496B8B7C8B7C
:104EB0008D8B9E8B6091410D7091420D8091430DC1
:104EC0009091440D0E940479A20191010E94210E4B
:104ED0007B018C016091410D7091420D8091430DD9
:104EE0009091440D0E940479A20191010E94EA0D63
:104EF0005B016C01C401B3010E9404793B014C01C8
:104F00006B897C898D899E890E9404799B01AC0103
:104F1000C401B301F4E18F2E912CF5DA83EA9EE00F
:104F20000E9422493B014C0187EE9EE00E942249EB
:104F30001B012C016091410D7091420D8091430D38
:104F40009091440D0E9404797B018C016091450D84
:104F50007091460D8091470D9091480D0E94047903
:104F60009B01AC01C801B7010E94210E7B018C019D
:104F70006091410D7091420D8091430D9091440DCF
:104F80000E9404795B016C016091450D7091460DA2
:104F90008091470D9091480D0E9404799B01AC01CE
:104FA000C601B5010E94EA0D5B016C01C401B301A9
:104FB0000E9404793B014C01C201B1010E940479B5
:104FC0009B01AC01C401B301E4E18E2E912C9BDA6C
:104FD00083EA9EE00E9422493B014C0187EE9EE05D
:104FE0000E9422491B012C016091410D7091420DDC
:104FF0008091430D9091440D0E9404797B018C01B6
:105000006091450D7091460D8091470D9091480D2E
:105010000E9404799B01AC01C801B7010E94210ED6
:105020007B018C016091410D7091420D8091430D87
:105030009091440D0E9404795B016C016091450DD3
:105040007091460D8091470D9091480D0E94047912
:105050009B01AC01C601B5010E94EA0D5B016C0128
:10506000C401B3010E9404793B014C01C201B101AA
:105070000E9404799B01AC01C401B301B4E18B2E01
:10508000912C41DACE0101960E94F37706C082EDA1
:1050900095E165EE78E00E94E673A6960FB6F89467
:1050A000DEBF0FBECDBFCF91DF911F910F91FF905B
:1050B000EF90DF90CF90BF90AF909F908F907F90B8
:1050C0006F905F904F903F902F9008952F923F9256
:1050D0004F925F926F927F928F929F92AF92BF9208
:1050E000CF92DF92EF92FF920F931F93DF93CF93B4
:1050F000CDB7DEB76E970FB6F894DEBF0FBECDBF4B
:105100006B877C878D879E872F87388B498B5A8B3F
:10511000EB8AFC8A0D8B1E8BAF8AB88EC98EDA8E15
:105120000F2EF0E06F2EF0E07F2EF0E08F2EF0E0FB
:105130009F2EF02D1A8219828CAD9DADAA2797FD66
:10514000A095BA2F8B8F9C8FAD8FBE8F60E070E0E3
:1051500080E89FE3A40193010E94FD777B018C010D
:10516000A80197010E94FA79AC01CB01DA018F8383
:105170009887A987BA87C401B301A40193010E944B
:10518000FE77A80197010E94FA796B837C838D8357
:105190009E83C401B301A40193010E94FA79AC017A
:1051A000CB01DA011C012D01ACADBDADAB2BB1F0D3
:1051B0006B8D7C8D8D8D9E8D0E9404797B018C0181
:1051C00083EA9EE0B801A7010E94814B87EE9EE032
:1051D000B801A7010E94814B1092370D1092380D33
:1051E0006B857C858D859E850E9404799B01AC0131
:1051F0006F81788589859A850E94FA797B018C0177
:105200006CA97DA98EA99FA90E9404799B01AC017C
:105210006B817C818D819E810E94FA799B01AC011A
:10522000C801B7010E94FE777B018C016B897C89E4
:105230008D899E890E9404799B01AC01C201B10154
:105240000E94FA799B01AC01C801B7010E94FE7768
:105250005B016C016F85788989899A890E9404793C
:105260009B01AC016F81788589859A850E94FA79C6
:105270007B018C0168AD79AD8AAD9BAD0E9404794C
:105280009B01AC016B817C818D819E810E94FA79AA
:105290009B01AC01C801B7010E94FE777B018C0124
:1052A0006F89788D898D9A8D0E9404799B01AC015C
:1052B000C201B1010E94FA799B01AC01C801B7019A
:1052C0000E94FE779B01AC01C601B5010E94181A2D
:1052D000B1E0B093380DB093370DC401B3012AE0AB
:1052E00037ED43E25CE30E94FE773B014C0189818C
:1052F0009A8101969A8389838536910509F026CF94
:105300006E960FB6F894DEBF0FBECDBFCF91DF9182
:105310001F910F91FF90EF90DF90CF90BF90AF90D3
:105320009F908F907F906F905F904F903F902F90C5
:105330000895EF92FF920F931F9303EA1EE0C801B6
:105340000E94FA4DF7EEEF2EFEE0FF2EC7010E94FD
:10535000FA4D81E080938A0EC8010E942249AB0178
:10536000BC01405E5F4F6F4F7F4FC8010E94714F7D
:10537000C7010E942249AB01BC01405E5F4F6F4FE5
:105380007F4FC7010E94714FC8010E942249AB01A3
:10539000BC014052504060407040C8010E94714FB3
:1053A000C7010E942249AB01BC01405250406040FD
:1053B0007040C7010E94714F82ED95E163E579E08D
:1053C0000E94E6731F910F91FF90EF900895EF9266
:1053D000FF920F931F937C0102ED15E1C80162EC6F
:1053E00073E00E94A571C801B7010E94F773C8015C
:1053F00064EA73E00E94F0711F910F91FF90EF90AB
:105400000895AF92BF92CF92DF92EF92FF920F93E7
:105410001F93DF93CF93CDB7DEB72E970FB6F894D7
:10542000DEBF0FBECDBFADB6BEB67E010894E11C97
:10543000F11CC70165E57FE00E94E1778E01085FFE
:105440001F4FC8016CE57FE00E94E177C70165E06E
:1054500072E00E94F975882309F057C082ED95E14A
:1054600063E679E00E94437382ED95E1B7010E9403
:10547000297481E080930F0E80E19EE0B7010E94C5
:10548000CC77C80160E879E00E94F975882309F4B7
:1054900042C0DDB6CEB64D815E814F5F5F4F8DB7A6
:1054A0009EB7841B950B0FB6F8949EBF0FBE8DBFA1
:1054B0000DB71EB70F5F1F4FC701B80120E030E0E6
:1054C0000E94AA7587E591E1B8010E9429578823B7
:1054D00099F082ED95E164EC71E00E94F07187E54E
:1054E00091E1B8010E941F57882331F082ED95E1C8
:1054F00066EB71E00E94F0718D2D9C2D9C010FB622
:10550000F8943EBF0FBE2DBF06C082ED95E162E864
:1055100079E00E94E673CE0108960E94F377CE01EF
:1055200001960E94F3770FB6F894BEBE0FBEADBED3
:105530002E960FB6F894DEBF0FBECDBFCF91DF9190
:105540001F910F91FF90EF90DF90CF90BF90AF90A1
:1055500008950F931F93AB01BC014093330D5093FB
:10556000340D6093350D7093360D83EA9EE00E94F2
:10557000514E4091330D5091340D6091350D709125
:10558000360D87EE9EE00E94514E02ED15E1C801F6
:1055900066E172E00E94A5714091330D5091340D87
:1055A0006091350D7091360DC80122E030E00E9407
:1055B000D5731F910F910895CF92DF92EF92FF92D2
:1055C0000F931F937C018B01A4E5CA2EA1E1DA2E73
:1055D000C601B701F80140810E9499520894E11C6C
:1055E000F11CC601B701F80141810E94995282E085
:1055F00090E01F910F91FF90EF90DF90CF90089572
:105600000F931F93AB01BC0140932F0D5093300DAE
:105610006093310D7093320D83EA9EE00E942C4B13
:1056200040912F0D5091300D6091310D7091320DE0
:1056300087EE9EE00E942C4B02ED15E1C80169E265
:1056400072E00E94A57140912F0D5091300D609134
:10565000310D7091320DC80122E030E00E94D57307
:105660001F910F910895CF92DF92EF92FF920F93C7
:105670001F937C018B01B4E5CB2EB1E1DB2EC6017B
:10568000B7010E949252F80180830894E11CF11C3A
:10569000C601B7010E949252F801818382E090E036
:1056A0001F910F91FF90EF90DF90CF90089584E1CC
:1056B00090E06DE27DE0D7DF80912D0D90912E0D71
:1056C0001816190644F08091740D9091750D909301
:1056D0002E0D80932D0D82ED95E165EF72E00E9415
:1056E000A57160912D0D70912E0D82ED95E14AE02E
:1056F00050E00C9426738AE290E062E77DE0B3DF2D
:105700008091720D9091730D97FF06C08AE590E02D
:105710009093730D8093720D82ED95E167E373E0D2
:105720000E94A5716091720D7091730D82ED95E1EB
:105730004AE050E00E9426738CE290E06DEB70E14D
:1057400092DF8091BD109091BE1097FF04C010921F
:10575000BE101092BD1082ED95E168E273E00E94E8
:10576000A5716091BD107091BE1082ED95E14AE087
:1057700050E00C9426730F931F93DF93CF93CDB714
:10578000DEB762970FB6F894DEBF0FBECDBF8E01B5
:105790000B5F1F4FC80165E57FE00E94E177C801FC
:1057A0000E9491129A838983C8010E94F3778E0127
:1057B000045F1F4FC8016CE57FE00E94E177C801DC
:1057C0000E9491129C838B83C8010E94F37782ED23
:1057D00095E16EE372E00E94A57169817A8182EDA4
:1057E00095E14AE050E00E94267382ED95E169E37D
:1057F00072E00E94A5716B817C8182ED95E14AE0A7
:1058000050E00E9426738091F40D9091F50D843044
:10581000910571F48AE290E0BE016F5F7F4FCCDEAC
:105820008CE290E0BE016D5F7F4FC6DE64DF3AC060
:105830000397C1F56B817C8189819A8143E050E0B7
:105840000E94BD1668EC70E080E090E00E94566B0C
:1058500069817A818B819C8143E050E00E94BD1672
:1058600068EC70E080E090E00E94566B6B817C8178
:1058700089819A8143E050E00E94BD1668EC70E097
:1058800080E090E00E94566B69817A818B819C81D7
:1058900043E050E00E94BD1668EC70E080E090E0CC
:1058A0000E94566B62960FB6F894DEBF0FBECDBF56
:1058B000CF91DF911F910F91089580E090E06DE509
:1058C0007DE0D1DE80915D0D90915E0D1816190678
:1058D00044F080917A0D90917B0D90935E0D8093B2
:1058E0005D0D82ED95E16EE873E00E94A571609117
:1058F0005D0D70915E0D82ED95E14AE050E00E94F1
:10590000267382E090E06FE57DE0ADDE80915F0D73
:105910009091600D1816190644F080917C0D9091BD
:105920007D0D9093600D80935F0D82ED95E167E7AB
:1059300073E00E94A57160915F0D7091600D82ED22
:1059400095E14AE050E00C9426730F931F93DF9388
:10595000CF93CDB7DEB764970FB6F894DEBF0FBE16
:10596000CDBF8E01095F1F4FC80165E57FE00E9432
:10597000E177C8010E9491129A838983C8010E942D
:10598000F3778E01025F1F4FC8016CE57FE00E9434
:10599000E177C8010E9491129C838B83C8010E9409
:1059A000F37789819A819E838D8380E090E0BE01A8
:1059B0006B5F7F4F58DE29813A818D819E818217EE
:1059C000930749F02B30310534F080E090E0BE01C0
:1059D0006F5F7F4FF1DD82E090E0BE016B5F7F4F34
:1059E00042DE2B813C818D819E818217930749F095
:1059F0002B30310534F082E090E0BE016D5F7F4FC7
:105A0000DBDD5BDF64960FB6F894DEBF0FBECDBF63
:105A1000CF91DF911F910F910895EF92FF920F9315
:105A20001F93CF93DF93AC01EB0114E0E12EF12C37
:105A3000E60EF71E8A010F5F1F4F84E591E1BA0160
:105A40000E9492528993A801CE15DF0599F784E050
:105A500090E0DF91CF911F910F91FF90EF9008950B
:105A600086E190E06FE27DE0D8DF60912F0D7091CC
:105A7000300D8091310D9091320D0E94D178161623
:105A8000170664F080E090E0A8E4B4E480932F0D62
:105A90009093300DA093310DB093320D8AE190E0D8
:105AA00063E37DE0BADF6091330D7091340D809136
:105AB000350D9091360D0E94D1781616170664F0B8
:105AC00080E090E0A8E4B4E48093330D9093340D2B
:105AD000A093350DB093360D08958EE090E069E205
