:10000000D0C20000FBC20000F9C20000F7C200002D
:10001000F5C20000F3C20000F1C20000EFC2000010
:10002000EDC20000EBC20000E9C20000E7C2000020
:10003000E5C20000E3C20000E1C20000DFC2000030
:10004000DDC200000C94184DD9C20000D7C20000D8
:10005000D5C20000D3C20000D1C200000C948D654F
:10006000CDC200000C94B4670C94DC68C7C20000D9
:10007000C5C20000C3C20000C1C20000BFC2000070
:100080000C94EB4CBBC20000B9C20000B7C2000028
:100090000C94ED670C941B69B1C20000AFC2000064
:1000A000ADC20000ABC200000C94BE4CA7C2000061
:1000B000A5C20000A3C20000A1C200000C94914C94
:1000C0009DC200009BC2000099C200000C942668EB
:1000D0000C945A6993C200000C945F680C9499695F
:1000E0008DC2000005A84CCDB2D44EB93836A90255
:1000F0000C50B9918688083CA6AAAA2ABE00000026
:10010000803F000000006410B71DC8206E3BAC307B
:10011000D9269041DC76F4516B6B5861B24D3C713D
:1001200005502083B8ED44930FF0E8A3D6D68CB3E6
:1001300061CBB0C2649BD4D2D38678E20AA01CF211
:10014000BDBD50424D20696D616765206D7573744A
:10015000206265206174206C6561737420313020E9
:10016000706978656C7320776964652E002C206D4A
:1001700061782064656E736974793A20002C207070
:10018000656E2077696474683A200050656E7769FF
:10019000647468207465737420004368616E6769D5
:1001A0006E67206261636B20746F206C69766520D6
:1001B0006D6F64652E0046696C652072656D6F76A3
:1001C00065642E0046696C6520616C7265616479B6
:1001D000206578697374732E00457865637574695A
:1001E0006E6720636F6D6D616E643A0053746F7259
:1001F000696E6720636F6D6D616E643A006D6D00AE
:100200004368616E6765642050656E207769647429
:100210006820746F20004E657720616363656C65AC
:10022000726174696F6E3A20004E6577206D617857
:100230002073706565643A20005047535445504D13
:10024000554C5449504C4945522C00504753544545
:1002500050535045525245562C0050474D4D504535
:10026000525245562C00504753495A452C0050478E
:100270004E414D452C0020616E64206469726563B7
:1002800074696F6E20697320004368616E676564EE
:10029000206472617720646972656374696F6E208F
:1002A0006D6F646520746F206265200020746F207C
:1002B00061646472657373200057726974696E6754
:1002C00020496E7420002900526563616C63756C6F
:1002D000617465642070616765486569676874204A
:1002E000696E20737465707320280029005265635D
:1002F000616C63756C6174656420706167655769D2
:1003000064746820696E20737465707320280029F6
:10031000002920616E642073746570735065724D9E
:100320004D202800526563616C63756C617465646F
:10033000206D6D506572537465702028004C6F619C
:10034000646564206D6F746F722073746570206DC6
:10035000756C7469706C6965723A004C6F616465A4
:1003600064206D616368696E65206E616D653A0039
:100370004C6F61646564206D6F746F722073746577
:10038000707320706572207265763A004C6F6164FC
:100390006564206D6D20706572207265763A004C40
:1003A0006F61646564206D616368696E652068656E
:1003B000696768743A004C6F61646564206D6163BD
:1003C00068696E652077696474683A002069736EA5
:1003D0002774206120636F6D6D616E642049207207
:1003E00065636F676E6973652E00536F7272792C47
:1003F0002000436F6D6D616E64206E6F74207061BC
:10040000727365642E00436865636B73756D206E4F
:100410006F74206D617463686564213A00504F4CBD
:1004200041524752415048204F4E21007C3C3E5E95
:100430002B3D3F2F5B5D3B2C2A225C0000002100FE
:10044000240027002A002D003000330001010000A5
:10045000040107010A0100002200250028002B00EA
:100460002E003100340002010000050108010B01DB
:10047000000020002300260029002C002F0032005D
:100480000001000003010601090105050505070536
:1004900008080808020202020A0A08080404040400
:1004A000010101010101010103030303030303032C
:1004B000040707070C0C0C0C0C0C0C0C02020202BB
:1004C00006060606060606060B0B0B0B0B0B0B0BA4
:1004D0000102102020080810204010204080020156
:1004E000020108040201010204081020408080403B
:1004F000201008040201800402018040201008043A
:1005000002010804020101020408102040800102D7
:100510000408102040800000090A02080B0C0D0797
:1005200006030401000000000000000000000000BD
:1005300000000000000000000000000000000000BB
:10054000000011100F00000000000000000000007B
:10055000000000000000000000000000494E464975
:100560004E4954594E414ECDCCCC3D0AD7233C1771
:10057000B7D13877CC2B329595E6241FB14F0A00BE
:100580000020410000C84200401C4620BCBE4CCAAE
:100590001B0E5AAEC59D7400CC0C584DF450036B25
:1005A000C70C11241FBECFEFD1E2DEBFCDBF00E0EC
:1005B0000CBF1DE0A0E0B2E0E8E2FDEE00E00BBF02
:1005C00002C007900D92A838B107D9F71BBE15E1FC
:1005D000A8E8BDE001C01D92A33DB107E1F715E019
:1005E000C0EAD5E004C02297FE010E944276C839D5
:1005F000D107C9F70E94216C0C94887601CDCF9366
:10060000DF93BC018230910510F462E070E0A091AC
:10061000CF15B091D015ED01E0E0F0E040E050E002
:1006200021C0888199818617970769F48A819B8107
:10063000309719F09383828304C09093D0158093F0
:10064000CF15FE0134C06817790738F441155105FC
:1006500019F08417950708F4AC01FE018A819B818B
:100660009C01E9012097E9F641155105A9F1CA015C
:10067000861B970B049708F4BA01E0E0F0E02AC06B
:100680008D919C91119784179507F9F4641775075C
:1006900081F412968D919C911397309719F0938362
:1006A000828304C09093D0158093CF15FD013296BC
:1006B0004CC0CA01861B970BFD01E80FF91F61931F
:1006C000719302978D939C9340C0FD018281938129
:1006D0009C01D9011097A1F68091CD159091CE156E
:1006E000892B41F48091D90C9091DA0C9093CE151E
:1006F0008093CD154091DB0C5091DC0C41155105D8
:1007000041F44DB75EB78091D70C9091D80C481B3F
:10071000590B2091CD153091CE15CA01821B930B38
:100720008617970780F0AB014E5F5F4F84179507E0
:1007300050F0420F531F5093CE154093CD15F90141
:100740006193719302C0E0E0F0E0CF01DF91CF91BF
:100750000895CF93DF93009709F450C0EC012297DE
:100760001B821A82A091CF15B091D015109709F174
:1007700040E050E0AC17BD0708F1BB83AA83FE013F
:1007800021913191E20FF31FAE17BF0779F48D91DC
:100790009C911197280F391F2E5F3F4F3983288373
:1007A00012968D919C9113979B838A8341155105D5
:1007B00071F4D093D015C093CF1520C012968D91AF
:1007C0009C911397AD01009711F0DC01D3CFFA0192
:1007D000D383C28321913191E20FF31FCE17DF073C
:1007E00069F488819981280F391F2E5F3F4FFA01E4
:1007F000318320838A819B8193838283DF91CF9190
:100800000895A0E0B0E0E7E0F4E00C945976EC0144
:10081000A880B980CA80DB80A114B104C104D104CE
:1008200041F484E2A82E89EDB82E8BE5C82E87E02E
:10083000D82EC601B5012DE133EF41E050E00E9412
:10084000117627EA31E440E050E00E94B1757B0167
:100850008C01C601B5012DE133EF41E050E00E946B
:100860001176CA01B9012CEE34EF4FEF5FEF0E9411
:10087000B1756E0D7F1D801F911F97FF04C06150E1
:10088000704080409048688379838A839B839B0172
:10089000AC015F77B901CA01CDB7DEB7EAE00C94CD
:1008A0007576AFCF8DED9CE0ACCF6093DD0C70938F
:1008B000DE0C8093DF0C9093E00C0895A0E0B0E094
:1008C000E4E6F4E00C9453766C01009721F4CB013C
:1008D00096DE6C01BDC08EEF882E8FEF982E8C0CAB
:1008E0009D1C8601060F171F0815190508F4AEC0D8
:1008F000F401A081B181A617B707B0F0A530B1050A
:1009000008F4A6C0CD0104978617970708F4A0C085
:100910001297A61BB70BF801A193B193D4016D9365
:100920007C93CF0116DF94C07B01EA1AFB0AEEEF3D
:10093000FFEFEE0EFF1E36016A0E7B1EC091CF1533
:10094000D091D01544245524AA24BB244AC0C615EE
:10095000D705E1F5488159814E155F05B8F1CA0107
:1009600004978E159F05B0F41296A40FB51FF401DD
:10097000B183A0832A813B814114510431F0D2011B
:1009800013963C932E93129763C03093D015209307
:10099000CF155EC08A819B81F80193838283425088
:1009A00050404E195F09518340834114510431F086
:1009B000D20113961C930E93129704C01093D01576
:1009C0000093CF15F4017183608342C088819981BF
:1009D000A816B90608F45C012E018A819B819C014E
:1009E000E901209709F0B3CF8091CD159091CE15F4
:1009F00086159705E9F4A616B706D0F42091DB0C0E
:100A00003091DC0C2115310541F42DB73EB78091B2
:100A1000D70C9091D80C281B390B02171307B0F490
:100A20001093CE150093CD15D4016D937C9310C017
:100A3000CB01E5DDEC01009749F0F40140815181E3
:100A4000B6015FD0C60185DE6E0102C0CC24DD2474
:100A5000C601CDB7DEB7E0E10C946F766627772745
:100A6000C8C0FC0188279927E89421912032E9F336
:100A7000293010F02E30C8F32B3239F02D3231F4FA
:100A8000689403C0AED0820F911D219120532A306B
:100A9000C8F31EF4909581959F4F08951F93FC0114
:100AA00099278827BC01E89411911032E9F3193095
:100AB00010F01E30C8F31B3249F01D3241F4689427
:100AC00005C07AD0610F711D811D911D11911053C8
:100AD0001A30B8F33EF490958095709561957F4FEC
:100AE0008F4F9F4F1F910895FB01DC0104C08D9132
:100AF0000190801921F441505040C8F7881B990B90
:100B00000895FB01DC0102C001900D92415050405C
:100B1000D8F70895FC018191861721F08823D9F731
:100B2000992708953197CF010895FB01DC018D913C
:100B3000019080190110D9F3990B0895FB01DC0194
:100B400001900D920020E1F70895FB01DC01415076
:100B5000504030F08D910190801919F40020B9F7C0
:100B6000881B990B0895FB01DC014150504048F06F
:100B700001900D920020C9F701C01D9241505040D4
:100B8000E0F70895FB0151915523A9F0BF01DC0165
:100B90004D9145174111E1F759F4CD010190002025
:100BA00049F04D9140154111C9F3FB014111EFCFBF
:100BB00081E090E001970895592F482F372F262F75
:100BC000660F771F881F991F660F771F881F991F51
:100BD000620F731F841F951F660F771F881F991F51
:100BE00008957AE0979F902D879F802D910D112475
:100BF0000895A0E0B0E0EFEFF5E00C945776EC013B
:100C00005B016115710519F0FB0191838083F990F7
:100C10008F2D90E00E944676892BC9F7FDE2FF16E2
:100C200021F4F990EE24E39405C02BE2F21609F4C6
:100C3000F990EE248E0101501040C8016CE575E07A
:100C400043E050E033D1892BF9F48E010E5F1F4F42
:100C5000C8016FE575E045E050E028D1892B19F413
:100C60008E01095F1F4FA114B10419F0F501118322
:100C70000083E0FC04C070E090E080E813C070E006
:100C800090E080E86FEF07C1C80164E675E043E0DB
:100C900050E00CD1892B69F4A114B10429F470E05F
:100CA00090E080EC6FE7F7C02296F501D183C08316
:100CB000F6CF8824992440E050E060E070E0EF2D0A
:100CC000E053EA30A0F5F2E0EF2A8E2D90E09C018F
:100CD00028703070E2FE06C0232B79F50894811C41
:100CE000911C2BC0232B19F0089481089108DB017B
:100CF000CA0112E0880F991FAA1FBB1F1A95D1F7CE
:100D0000480F591F6A1F7B1F440F551F661F771F0F
:100D10004E0F511D611D711D483929E9520729E9FE
:100D2000620729E1720748F084E0E82A06C0EE3F36
:100D300031F4E3FC39C098E0E92AF990C0CFE533FB
:100D400011F0E53189F529912D3219F4E0E1EE2A0F
:100D500005C02B3219F081E090E003C0299182E0B8
:100D600090E0E22FE053EA3018F0C81BD90B1CC00A
:100D700020E030E0FCE020383F075CF4C901880F38
:100D8000991F880F991F280F391F220F331F2E0F0D
:100D9000311DE991E053EA3068F3E4FE03C0309579
:100DA00021953F4F820E931ECE2CDD24E1FE07C01D
:100DB000A114B10421F02197F501D183C083CB01A7
:100DC000BA010E94B5737B018C01F3E0CF22DD24D0
:100DD00023E0C216D10421F417FB109517F91095E2
:100DE00057016801C801B70120E030E040E050E061
:100DF0000E941573882309F44AC097FE0DC02BE7A3
:100E0000E22E25E0F22E9094819491089394C0E212
:100E1000D0E000E010E012C093E9E92E95E0F92E51
:100E2000F6CFF7012591359145915491C601B50151
:100E30000E94AD745B016C018C1A9D0A8C169D0694
:100E400084F7D595C7950F5F1F4F0630110529F020
:100E50008CEF9FEFE80EF91EF1CFC501D6017C01A2
:100E60008D018C2D880F8D2D881F8F3F51F0C6016D
:100E7000B50120E030E040E050E00E941573882387
:100E800031F482E290E09093D2158093D1157E2DBB
:100E90009F2D802F612F272F392F482F562FB901D3
:100EA000CA01CDB7DEB7ECE00C947376FB01DC0130
:100EB0004150504088F08D9181341CF08B350CF4FA
:100EC000805E659161341CF06B350CF4605E861BAE
:100ED000611171F3990B0895881BFCCFAF92BF92FB
:100EE000CF92DF92EF92FF920F931F936E157F05C3
:100EF0008007910734F42E153F054007510764F42D
:100F00002CC0E616F7060807190794F4A216B306D4
:100F1000C406D5063CF423C0A216B306C406D50603
:100F2000BCF41FC02A153B054C055D05C4F41BC06D
:100F30006E157F058007910791F42A153B054C0536
:100F40005D058CF0A216B306C406D50644F409C0AC
:100F50002A153B054C055D0511F484E005C082E0CF
:100F600003C083E001C081E01F910F91FF90EF90DB
:100F7000DF90CF90BF90AF900895EF92FF920F93C4
:100F80001F937B018C01662757FD6095762FCB015F
:100F9000BA010E94B7732091930D3091940D409146
:100FA000950D5091960D0E94AD74A80197010E9475
:100FB0001C737B018C0120E030E040E050E40E9493
:100FC000A97487FF03C061E070E004C0C801B701E5
:100FD0000E948473CB011F910F91FF90EF900895B1
:100FE0006F927F928F929F92AF92BF92CF92DF9239
:100FF000EF92FF920F931F93CF93DF937C015B01DE
:10100000662757FD6095762FCB01BA010E94B77312
:101010003B014C010027F7FC0095102FC801B701D8
:101020000E94B7737B018C01CC24B7FCC094DC2CEC
:10103000C601B5010E94B7739B01AC01C801B7019D
:101040000E941C73A40193010E94AD749B01AC012A
:10105000C401B3010E94B0727B018C010E948473B1
:10106000EB01BE01882777FD8095982F0E94B7730A
:101070009B01AC01C801B7010E94B07220E030E0D2
:1010800040E05FE30E94A97418160CF42196CE018B
:10109000DF91CF911F910F91FF90EF90DF90CF9054
:1010A000BF90AF909F908F907F906F900895CF9258
:1010B000DF92EF92FF920F931F93CF93DF93EC0198
:1010C0006B01688179818A819B8120911E0D30910D
:1010D0001F0D4091200D5091210D0E94AD74688329
:1010E00079838A839B83F6016081718182819381F8
:1010F0002091220D3091230D4091240D5091250D0A
:101100000E94AD747B018C01F60160837183828340
:1011100093832091331030913410C9018E978A3512
:10112000910580F4288139814A815B81D801C7010A
:10113000B05888839983AA83BB83208331834283F9
:10114000538329C0C901885890408A35910580F49D
:1011500088819981AA81BB81B05888839983AA83A9
:10116000BB83F60180819181A281B381B0580FC009
:10117000225E30402A35310570F488819981AA8138
:10118000BB81E882F9820A831B83B058F601808311
:101190009183A283B383688179818A819B81209125
:1011A00035103091361040913710509138100E9410
:1011B000B172688379838A839B83F6016081718130
:1011C000828193812091391030913A1040913B10E7
:1011D00050913C100E94B172F6016083718382834A
:1011E0009383DF91CF911F910F91FF90EF90DF904C
:1011F000CF9008952F923F924F925F926F927F927D
:101200008F929F92AF92BF92CF92DF92EF92FF9216
:101210000F931F931B012C0139014A01E0909B0D94
:10122000F0909C0D00919D0D10919E0DC801B7018D
:10123000A80197010E94B1750E94B7735B016C0110
:10124000C401B301A40193010E94AD749B01AC01E0
:10125000C601B5010E94B0725B016C01C201B1010F
:10126000A20191010E94AD749B01AC01C601B501C0
:101270000E94B1725B016C01EE0CFF1C001F111F7C
:10128000C801B7010E94B7739B01AC01C601B5014B
:101290000E941C731F910F91FF90EF90DF90CF90F1
:1012A000BF90AF909F908F907F906F905F904F9086
:1012B0003F902F9008950F931F93CF93DF93242F88
:1012C0002627A22FB0E0AF70B070AA0FBB1FAA0FE5
:1012D000BB1FC2E0D1E0AC0FBD1FFD010591159110
:1012E00025913491E4E09695879577956795EA95F1
:1012F000D1F7062717272827392742954F7040270F
:1013000050E04F705070440F551F440F551F4C0F45
:101310005D1FFA0185919591A591B49144E03695B0
:101320002795179507954A95D1F7082719272A2752
:101330003B27B801C901DF91CF911F910F9108950B
:10134000EF92FF920F931F938130910509F023C212
:101350006F5F7F4F09F016C382EB9EE060E072E0A2
:101360000E94FF7189E89DE00E942D4A8CE89DE073
:1013700066E072E00E94FF7189EB9EE067E072E038
:101380000E94FF716091E80C7091E90C882777FD4D
:101390008095982F2091E20C3091E30C442737FD83
:1013A0004095542F0E94B1750E94B7737B018C0148
:1013B0006091E40C7091E50C8091E60C9091E70C43
:1013C000A80197010E941C736093930D7093940D74
:1013D0008093950D9093960DC801B7012091E40C70
:1013E0003091E50C4091E60C5091E70C0E941C7383
:1013F0007B018C016093970D7093980D8093990DEC
:1014000090939A0D60911A0D70911B0D882777FDAE
:101410008095982F0E94B773A80197010E94AD7420
:101420000E94847360939B0D70939C0D80939D0D1F
:1014300090939E0D60911C0D70911D0D882777FD76
:101440008095982F0E94B773A80197010E94AD74F0
:101450000E94847360939F0D7093A00D8093A10DE3
:101460009093A20D80EC9EE060E172E00E94FF711B
:1014700087EC9EE062E172E00E94FF718EEC9EE0DC
:1014800066E172E00E94FF7185ED9EE06EE172E020
:101490000E94FF718CED9EE061E572E00E94FF7199
:1014A00083EE9EE061E572E00E94FF718AEE9EE0AD
:1014B00061E572E00E94FF7181EF9EE061E572E0FC
:1014C0000E94FF7188EF9EE060E672E00E94FF716B
:1014D0008FEF9EE06AE672E00E94FF7186E09FE077
:1014E00061E772E00E94FF718DE09FE069E772E0C2
:1014F0000E94FF7184E19FE064E872E00E94FF7146
:101500008BE19FE068EF7EE00E94947283EB9DE0A8
:1015100066E072E00E94FF7182E29FE06AE872E09A
:101520000E94FF7189E29FE06CE872E00E94FF7107
:1015300080E39FE061E972E00E94FF7187E39FE032
:1015400065E972E00E94FF718EE39FE069E972E055
:101550000E94FF7185E49FE06DE972E00E94FF71D7
:101560008CE49FE061EA72E00E94FF7183E59FE0F6
:1015700065EA72E00E94FF718AE59FE069EA72E025
:101580000E94FF7181E69FE06DEA72E00E94FF71A8
:1015900088E69FE061EB72E00E94FF718FE69FE0BA
:1015A00065EB72E00E94FF7186E79FE069EB72E0F5
:1015B0000E94FF718DE79FE06DEB72E00E94FF716A
:1015C00084E89FE061EC72E00E94FF718BE89FE08D
:1015D00065EC72E00E94FF7182E99FE069EC72E0C5
:1015E0000E94FF7189E99FE06DEC72E00E94FF713B
:1015F00080EA9FE061ED72E00E94FF7187EA9FE060
:1016000065ED72E00E94FF718EEA9FE069ED72E085
:101610000E94FF7185EB9FE06DED72E00E94FF710B
:101620008CEB9FE061EE72E00E94FF7183EC9FE023
:1016300065EE72E00E94FF718AEC9FE069EE72E055
:101640000E94FF7181ED9FE06DEE72E00E94FF71DC
:1016500088ED9FE061EF72E00E94FF718FED9FE0E7
:1016600065EF72E00E94FF7186EE9FE069EF72E025
:101670000E94FF718DEE9FE06DEF72E00E94FF719E
:1016800084EF9FE061E073E00E94FF718BEF9FE0C9
:1016900065E073E00E94FF7182E090E169E073E031
:1016A0000E94FF7189E090E16DE073E00E94FF719C
:1016B00080E190E161E173E00E94FF7187E190E1D8
:1016C00065E173E00E94FF718EE190E169E173E0F2
:1016D0000E94FF7185E290E16DE173E00E94FF716D
:1016E0008CE290E161E273E00E94FF718CEB9DE07F
:1016F00066E072E00E94FF7185EC9DE066E072E0BA
:101700000E94FF711092D10D1092D20D1092D50D42
:101710001092D70D82E090E0A0E0B0E08093D80D69
:101720009093D90DA093DA0DB093DB0D1092EF0DCD
:101730001092F90D1092F80D84E79DE09093F70D4B
:101740008093F60D1092FB0D83E19EE00E945E4FA8
:101750006091E20C7091E30C80E49EE041E00E9415
:10176000F54E6091E20C7091E30C8CE49EE042E057
:101770000E94F54E88E59EE06AE471E344E451E39B
:101780000E94B14585E89EE06EE371E348E351E3D2
:101790000E94B145F7C0892B09F0F4C06F5F7F4FFD
:1017A00009F0F0C083E19EE00E94714F85EC9DE05E
:1017B0000E94A6728CEB9DE00E94A6728CE290E1E2
:1017C0000E94A67285E290E10E94A6728EE190E1ED
:1017D0000E94A67287E190E10E94A67280E190E1EA
:1017E0000E94A67289E090E10E94A67282E090E1D8
:1017F0000E94A6728BEF9FE00E94A67284EF9FE08A
:101800000E94A6728DEE9FE00E94A67286EE9FE077
:101810000E94A6728FED9FE00E94A67288ED9FE065
:101820000E94A67281ED9FE00E94A6728AEC9FE062
:101830000E94A67283EC9FE00E94A6728CEB9FE050
:101840000E94A67285EB9FE00E94A6728EEA9FE03E
:101850000E94A67287EA9FE00E94A67280EA9FE03B
:101860000E94A67289E99FE00E94A67282E99FE029
:101870000E94A6728BE89FE00E94A67284E89FE017
:101880000E94A6728DE79FE00E94A67286E79FE005
:101890000E94A6728FE69FE00E94A67288E69FE0F3
:1018A0000E94A67281E69FE00E94A6728AE59FE0F0
:1018B0000E94A67283E59FE00E94A6728CE49FE0DE
:1018C0000E94A67285E49FE00E94A6728EE39FE0CC
:1018D0000E94A67287E39FE00E94A67280E39FE0C9
:1018E0000E94A67289E29FE00E94A67282E29FE0B7
:1018F0000E94A67283EB9DE00E94A6728BE19FE09E
:101900000E94A67284E19FE00E94A6728DE09FE093
:101910000E94A67286E09FE00E94A6728FEF9EE072
:101920000E94A67288EF9EE00E94A67281EF9EE060
:101930000E94A6728AEE9EE00E94A67283EE9EE04E
:101940000E94A6728CED9EE00E94A67285ED9EE03C
:101950000E94A6728EEC9EE00E94A67287EC9EE02A
:101960000E94A67280EC9EE00E94A67289EB9EE027
:101970000E94A6728CE89DE00E94A67282EB9EE017
:101980000E94A6721F910F91FF90EF90089580E042
:1019900090E06FEF7FEFD4CC81E090E06FEF7FEFCE
:1019A000CFCCCF92DF92EF92FF920F931F93CF9302
:1019B000DF936C01EE24EA94FE2C8701C0E0D0E0B6
:1019C0000BC0C601BE010E94736F482FC801B7014A
:1019D00072DC7B018C012196F60184819581C81708
:1019E000D90778F3A8019701209530954095509537
:1019F000B901CA01DF91CF911F910F91FF90EF9034
:101A0000DF90CF9008950F931F9384E090E00E94A1
:101A1000FF028C010E94A9032DB73EB7201B310B9A
:101A2000C9011F910F910895EEDF9C018091A70DD0
:101A30009091A80D28173907D1F03093A80D209365
:101A4000A70D80E595E16EEC7EE00E94AA6E6091A4
:101A5000A70D7091A80D80E595E14AE050E00E9445
:101A6000C76D80E595E169E27FE00C94DC6E089536
:101A700080E595E16FEF7EE00C94DC6E80E595E10A
:101A800068EF7EE00C94DC6EAF92BF92CF92DF9253
:101A9000EF92FF920F931F937B018C01CA01B90152
:101AA0000E94AD745B016C01C801B701A8019701E8
:101AB0000E94AD749B01AC01C601B5010E94B072D9
:101AC0000E941A751F910F91FF90EF90DF90CF90B9
:101AD000BF90AF9008956F927F928F929F92AF9236
:101AE000BF92CF92DF92EF92FF920F931F937B01F1
:101AF0008C0180DB5B016C01A8019701C5DF3B0114
:101B00004C01E090FE0CF090FF0C0091000D109144
:101B1000010DC801B7010E94B7739B01AC01C6015A
:101B2000B5010E94157387FD4AC08091060D909102
:101B3000070DA091080DB091090DE80EF91E0A1FBE
:101B40001B1FC801B7010E94B7739B01AC01C601FE
:101B5000B5010E94A974181694F1E090020DF0905E
:101B6000030D0091040D1091050DC801B7010E94ED
:101B7000B7739B01AC01C401B3010E94157387FDCB
:101B80001EC0DD2480910A0D90910B0DA0910C0DCB
:101B9000B0910D0DE80EF91E0A1F1B1FC801B701F9
:101BA0000E94B7739B01AC01C401B3010E94A974E8
:101BB000181614F4DD24D39481E0D82601C0DD2466
:101BC0008D2D1F910F91FF90EF90DF90CF90BF90E0
:101BD000AF909F908F907F906F900895AF92BF923B
:101BE000CF92DF92EF92FF920F931F937B018C01B4
:101BF00059016A0160919B0D70919C0D80919D0D22
:101C000090919E0D0E94B773A80197010E94B07237
:101C10009B01AC010E94AD747B018C01C601B50132
:101C2000A60195010E94AD749B01AC01C801B701EA
:101C30000E94B1720E941A751F910F91FF90EF9050
:101C4000DF90CF90BF90AF900895AF92BF92CF92A8
:101C5000DF92EF92FF920F931F937B018C0159014A
:101C60006A01A80197010E94AD747B018C01C60135
:101C7000B501A60195010E94AD749B01AC01C8019C
:101C8000B7010E94B1720E941A751F910F91FF90C7
:101C9000EF90DF90CF90BF90AF9008952F923F923A
:101CA0004F925F926F927F928F929F92AF92BF926C
:101CB000CF92DF92EF92FF920F931F93DF93CF9318
:101CC00000D00F92CDB7DEB769837A838B839C8374
:101CD00059016A01170128016115710581059105F6
:101CE00059F40F2EF0E0EF2EF0E0FF2EF0E00F2F72
:101CF000F0E01F2FF02DA4C0CA01B9010E94AD74FD
:101D00007B018C01C601B50120E030E040E050E0ED
:101D10000E941573882324F417FB109517F910956A
:101D2000C201B101A20191010E94B1723B014C01BB
:101D3000C801B701A40193010E941C737B018C01AF
:101D400069817A818B819C810E94B7739B01AC0170
:101D5000C801B7010E9415738823B4F5C601B50107
:101D600020E030E040E050E00E941573882329F421
:101D7000C401B3010E941A750DC0C201B101A601D0
:101D800095010E941C739B01AC015F77C601B501F0
:101D90000E94B1727B018C01D090EA0CC090EB0CD8
:101DA000B090EC0CA090ED0C2D2D3C2D4B2D5A2D10
:101DB0000E94A97418160CF043C08D2D9C2DAB2DDC
:101DC000BA2D7C018D013CC0C601B50120E030E098
:101DD00040E050E00E941573882359F4C401B30118
:101DE0000E941A757B018C0117FB109517F910954D
:101DF0000FC0C201B101A60195010E941C739B0195
:101E0000AC015F77C601B5010E94B0727B018C0105
:101E10008091EA0C9091EB0CA091EC0CB091ED0C40
:101E20005C016D01D7FAD094D7F8D094C801B701FE
:101E3000A60195010E941573882314F4860175018B
:101E4000B701C8010F900F900F900F90CF91DF91C5
:101E50001F910F91FF90EF90DF90CF90BF90AF90C8
:101E60009F908F907F906F905F904F903F902F90BA
:101E700008958091F50C882309F43FC080E595E131
:101E800064E17FE00E94AA6E88E59EE00E94AB4577
:101E90002091E80C3091E90C442737FD4095542FF0
:101EA0000E94117680E595E1BA01A9012AE030E0AF
:101EB0000E94776D80E595E162E27FE00E94AA6E64
:101EC00085E89EE00E94AB452091E80C3091E90C3A
:101ED000442737FD4095542F0E94117680E595E107
:101EE000BA01A9012AE030E00E94776D80E595E112
:101EF00069E27FE00E94DC6E97CD0895EF92FF9239
:101F00000F931F938091A30D9091A40DA091A50D07
:101F1000B091A60D0097A105B10509F03FC06091F1
:101F20009B0D70919C0D80919D0D90919E0D0E9436
:101F3000B7737B018C0160919F0D7091A00D809112
:101F4000A10D9091A20D0E94B7739B01AC01C80135
:101F5000B7017BDE20E030E040E05FE30E94B17239
:101F60000E9484736093A30D7093A40D8093A50DBC
:101F70009093A60D80E595E165E273E00E94F66D11
:101F80004091A30D5091A40D6091A50D7091A60DE7
:101F900080E595E12AE030E00E94B56D6091A30DE7
:101FA0007091A40D8091A50D9091A60D1F910F9198
:101FB000FF90EF90089580E595E16CE373E00C9459
:101FC000996E80E595E16AE971E00E94A36C109238
:101FD000C40D08958F929F92AF92BF92CF92DF92DD
:101FE000EF92FF920F931F936C017B0180E595E1C7
:101FF00063E573E00E94F66D80E595E1B6014AE085
:1020000050E00E94C76D80E595E16CE573E00E94A9
:10201000F66D80E595E1B7014AE050E00E94D96D88
:1020200080E595E161E673E00E94F66D6091380EFF
:102030007091390E80E595E14AE050E00E94D96D3B
:1020400080E595E161E773E00E94F66D40912E0E08
:1020500050912F0E6091300E7091310E80E595E118
:102060002AE030E00E94B56D4601AA2497FCA094B6
:10207000BA2C8091380E9091390EAA2797FDA09521
:10208000BA2F880E991EAA1EBB1E0027F7FC0095CA
:10209000102F20912E0E30912F0E4091300E509126
:1020A000310EC801B7010E94B175860E971EA81E99
:1020B000B91E80E595E16BE773E00E94F66D80E55F
:1020C00095E1B501A4012AE030E00E94776D80918E
:1020D0003A0E90913B0EA0913C0EB0913D0E8815AA
:1020E0009905AA05BB0514F41FEF18C083E19EE013
:1020F000B501A4010E94F84F83E19EE00E940850C0
:10210000182F80E595E164E873E00E94F66D80E5A4
:1021100095E1612F4AE050E00E945B6D812F1F9195
:102120000F91FF90EF90DF90CF90BF90AF909F9076
:102130008F9008956F927F928F929F92AF92BF92ED
:10214000CF92DF92EF92FF920F931F93DF93CF9383
:10215000CDB7DEB7A3970FB6F894DEBF0FBECDBFE5
:102160006DB67EB683E19EE040E050E060E070E056
:102170000E94F84F7E010894E11CF11CC70163E93D
:1021800073E00E94FF7183E19EE00E940850182FC7
:10219000C70160E070E00E94846FFC01108383E15E
:1021A0009EE00E940850182FC70161E070E00E9475
:1021B000846FFC011083C70166E973E00E94AC7074
:1021C000882399F480E595E169E973E00E94F66D52
:1021D00080E595E1B7010E94AA6E80E595E167EB85
:1021E00073E00E94996E10E083C180E595E162ED95
:1021F00073E00E94996E83E19EE00E9408508E0178
:10220000085F1F4FC80166E072E00E94FF7183E122
:102210009EE00E940850E82E9FE0C92ED12CCC0EE3
:10222000DD1EF02E012F21C083E2E81641F483E188
:102230009EE00E940850E82E9AE0E916C1F7C60118
:102240006F2D702F0E949D72C6016E2D0E94D1715C
:10225000BC018F2D902F0E947F72C6010E94AB722D
:1022600083E19EE00E940850E82E8AE0E81619F00B
:1022700090E2E916C9F680E595E168EF73E00E9407
:10228000F66D88E0E82EF12CEC0EFD1E80E595E160
:10229000B7010E94DC6E4C855D854F5F5F4F8DB747
:1022A0009EB7841B950B0FB6F8949EBF0FBE8DBFD3
:1022B0000DB71EB70F5F1F4F902E812EB02EA12E8F
:1022C000C701B80120E030E00E945D70C8010E94A3
:1022D0003105AA2797FDA095BA2F80932E0E9093D3
:1022E0002F0EA093300EB093310E0A97A105B105C1
:1022F00044F480E595E162E471E00E94A36C10E093
:10230000F3C0C70166E072E00E94187283E19EE0AC
:102310000E940850182F06E1C02ED12CCC0EDD1ED5
:10232000C701FE2C092F1FC0133239F483E19EE050
:102330000E940850182F8A30C9F7C6016F2D702FE0
:102340000E949D72C601612F0E94D171BC018F2D28
:10235000902F0E947F72C6010E94AB7283E19EE0C3
:102360000E940850182F1A30F9F680E595E163E0D5
:1023700074E00E94F66D18E0C12ED12CCC0EDD1E4B
:1023800080E595E1B6010E94DC6E4C855D854F5F6E
:102390005F4FC6016B2D7A2D20E030E00E945D700A
:1023A000892D982D0E943105AA2797FDA095BA2F57
:1023B0008093320E9093330EA093340EB093350E6B
:1023C000BC01CD010E94B7737B018C0160912E0E80
:1023D00070912F0E8091300E9091310E0E94B77344
:1023E0009B01AC01C801B7010E941C736093160DDC
:1023F0007093170D8093180D9093190D80E595E15A
:102400006FE074E00E94F66D4091160D5091170D2B
:102410006091180D7091190D80E595E122E030E092
:102420000E94886EC60166E072E00E94187283E125
:102430009EE00E940850182F0D2DBDE1EB2EF12CCF
:10244000EC0EFD1E16C0C7016C2D702F0E949D72F0
:10245000C701612F0E94D171BC018C2D902F0E9469
:102460007F72C7010E94AB7283E19EE00E94085018
:10247000182F1A3041F780E595E161E274E00E947F
:10248000F66D80E595E16C2D702F0E94DC6E4C8519
:102490005D854F5F5F4F8C2D902F6B2D7A2D20E047
:1024A00030E00E945D70892D982D0E943105909337
:1024B000370E8093360E83E19EE00E94B34F7093F7
:1024C000390E6093380E80E595E165E374E00E9473
:1024D000F66D6091380E7091390E80E595E14AE015
:1024E00050E00E94D96D11E0CE0108960E94A672BC
:1024F000CE0101960E94A672812F0FB6F8947EBE7F
:102500000FBE6DBEA3960FB6F894DEBF0FBECDBF53
:10251000CF91DF911F910F91FF90EF90DF90CF90BF
:10252000BF90AF909F908F907F906F900895EF92A3
:10253000FF920F931F93DF93CF93CDB7DEB7FC01CC
:10254000EDB6FEB6448155814F5F5F4F8DB79EB7A4
:10255000841B950B0FB6F8949EBF0FBE8DBF0DB7B1
:102560001EB70F5F1F4FCF01B80120E030E00E947F
:102570005D70C8010E9431050FB6F894FEBE0FBE13
:10258000EDBECF91DF911F910F91FF90EF900895D5
:10259000EF92FF920F931F93DF93CF93CDB7DEB7E8
:1025A00027970FB6F894DEBF0FBECDBF8E010F5F29
:1025B0001F4FC8016CED7EE00E949472C801B7DF26
:1025C0007C01C8010E94A672EF2819F41092BB0D7D
:1025D0000EC08091C30D882321F081E08093BB0D54
:1025E00006C080E595E163E474E00E94996E279649
:1025F0000FB6F894DEBF0FBECDBFCF91DF911F9114
:102600000F91FF90EF900895EF92FF920F931F9319
:10261000DF93CF93CDB7DEB76B970FB6F894DEBFDD
:102620000FBECDBFFC01EDB6FEB6448155814F5FB4
:102630005F4F8DB79EB7841B950B0FB6F8949EBF66
:102640000FBE8DBF0DB71EB70F5F1F4FCF01B80173
:1026500020E030E00E945D70CE01019665ED70E1F2
:10266000A80121E00E9401538B819C819093160E5A
:102670008093150E8D819E81AF81B8858093170E52
:102680009093180EA093190EB0931A0E89859A850F
:10269000AB85BC8580931B0E90931C0EA0931D0EE2
:1026A000B0931E0EAFE1BEE0FE013D968DE00190BD
:1026B0000D928150E1F78A8D9B8D90932D0E809322
:1026C0002C0ECE0101960E94714F83E19EE00E9484
:1026D000D94F882329F480E595E167E674E007C0C7
:1026E00029DD882341F480E595E168E774E00E94E4
:1026F000996E80E00DC083E19EE00E94C64F60931A
:102700003A0E70933B0E80933C0E90933D0E81E009
:102710000FB6F894FEBE0FBEEDBE6B960FB6F894E2
:10272000DEBF0FBECDBFCF91DF911F910F91FF9004
:10273000EF900895AF92BF92CF92DF92EF92FF9207
:102740000F931F93DF93CF93CDB7DEB76B970FB681
:10275000F894DEBF0FBECDBF6C01ADB6BEB64091E2
:10276000C90D5091CA0D4F5F5F4F8DB79EB7841B47
:10277000950B0FB6F8949EBF0FBE8DBF0DB71EB759
:102780000F5F1F4F85EC9DE0B80120E030E00E9414
:102790005D707E010894E11CF11CC70165ED70E1DC
:1027A000A80123E10E940153C7010E94D94F882349
:1027B000D1F080E595E160E874E00E94F66D80E577
:1027C00095E165EC7DE00E94DC6EC701B6010E94D8
:1027D000DC6EC7010E94E64F80E595E161E974E097
:1027E0000E94996E0CC080E595E167E974E00E9453
:1027F000F66D80E595E165EC7DE00E94DC6ECE0132
:1028000001960E94714F0FB6F894BEBE0FBEADBECA
:102810006B960FB6F894DEBF0FBECDBFCF91DF91A0
:102820001F910F91FF90EF90DF90CF90BF90AF90EE
:102830000895EF92FF920F931F9385E361E00E944A
:10284000CE6685ED90E165E30E942154882329F44A
:1028500080E595E166EA74E06AC080E595E162ECA6
:1028600074E00E94996E80E595E164ED74E00E9449
:10287000996E8CEC9DE061E045E30E9477568823D9
:10288000B9F480E595E16CEE74E00E94996E80E504
:1028900095E164E175E00E94996E80E595E16DE255
:1028A00075E00E94996E80E595E167E475E03FC0B0
:1028B00080E595E16BE875E00E94996E80E595E111
:1028C00064EB75E00E94F66D8091D70D823049F07F
:1028D000833061F0813079F480E595E161EC75E059
:1028E0000EC080E595E165EC75E009C080E595E1F5
:1028F00069EC75E004C080E595E16EEC75E00E943E
:10290000996E88ED9DE06CEC7DE041E00E946D6188
:10291000882381F488ED9DE06CEC7DE040E00E942E
:102920006D61882339F480E595E166ED75E00E94DC
:10293000996E74C080E595E160E276E00E94F66DE4
:1029400080E595E16091EF0D4AE050E00E945B6DFB
:1029500080E595E10E94836C2091DC0D30E040E041
:1029600050E06091E10D7091E20D8091E30D909146
:10297000E40DE9E0660F771F881F991FEA95D1F7EC
:102980000E94B1757B018C0180E595E164E376E0FE
:102990000E94F66D80E595E1B801A7012AE030E0DC
:1029A0000E94396D80E595E16AE476E00E94F66D5B
:1029B0003AE016950795F794E7943A95D1F780E5B4
:1029C00095E1B801A7012AE030E00E94396D80E569
:1029D00095E161E676E00E94F66D2AE0169507958E
:1029E000F794E7942A95D1F780E595E1B801A7011E
:1029F0002AE030E00E94396D80E595E168E776E0F5
:102A00000E94996E86EF9DE068ED7DE00E94825BFA
:102A100086EF9DE067E040E00E947C5C1F910F9193
:102A2000FF90EF900895AF92BF92CF92DF92EF9216
:102A3000FF920F931F9388E59EE00E94F94985E875
:102A40009EE00E94F94988E59EE00E949B45611541
:102A500071058105910509F047C06091FE0C7091E8
:102A6000FF0C8091000D9091010D2091060D309189
:102A7000070D4091080D5091090D260F371F481F73
:102A8000591F0E94566F5B016C016091020D70919D
:102A9000030D8091040D9091050D20910A0D309148
:102AA0000B0D40910C0D50910D0D260F371F481F37
:102AB000591F0E94566F7B018C01C601B5010E940F
:102AC000B7735B016C01C801B7010E94B7739B012A
:102AD000AC01C601B501B9D80E948473AB01BC0139
:102AE00088E59EE00E94824685E89EE00E949B4524
:102AF000611571058105910509F047C06091FE0CD3
:102B00007091FF0C8091000D9091010D2091060DA8
:102B10003091070D4091080D5091090D260F371F78
:102B2000481F591F0E94566F5B016C016091020D96
:102B30007091030D8091040D9091050D20910A0D67
:102B400030910B0D40910C0D50910D0D260F371F3C
:102B5000481F591F0E94566F7B018C01C601B501A9
:102B60000E94B7735B016C01C801B7010E94B77383
:102B70009B01AC01C601B50131D80E948473AB0141
:102B8000BC0185E89EE00E9482461F910F91FF9054
:102B9000EF90DF90CF90BF90AF900895EF92FF92AB
:102BA0000F931F93CF93DF93C0E0D0E080E595E1D2
:102BB00062EB76E00E94F66D80E595E1BE014AE0A9
:102BC00050E00E94D96D88E59EE00E949B4561150A
:102BD00071058105910509F468C085E89EE00E94B1
:102BE0009B45611571058105910509F45EC088E575
:102BF0009EE00E94F94985E89EE00E94F949E3CFF2
:102C00006EEF7FEF8FEF9FEF23E030E040E050E08A
:102C10000E94566F7B018C01A701662757FD6095C6
:102C2000762F88E59EE00E94884680E595E16BEB73
:102C300076E00E94F66D80E595E1B7014AE050E04C
:102C40000E94D96D85E89EE00E949B456115710543
:102C50008105910511F56EEF7FEF8FEF9FEF23E078
:102C600030E040E050E00E94566F7B018C01A701EC
:102C7000662757FD6095762F85E89EE00E9488467E
:102C800080E595E161ED76E00E94F66D80E595E1E5
:102C9000B7014AE050E00E94D96DEBD8219683E05D
:102CA000C83ED80709F082CF0AC088E59EE00E949E
:102CB0009B45611571058105910521F6A1CFDF9135
:102CC000CF911F910F91FF90EF9008958AE892E0C5
:102CD0009093300D80932F0D9093320D8093310D92
:102CE0008FE590E09093340D8093330D80E991E06F
:102CF0009093360D8093350D81E090E09093380DE0
:102D00008093370D96DD64EF71E080E090E00C94E5
:102D10000966CF93DF9389E89DE06AE070E00E9446
:102D2000CA4BC4EBD0E089E89DE0BE010E94B34AE3
:102D300063E070E080E090E00E9409662197CA3568
:102D4000D10589F789E89DE00E94474A1092E10C7D
:102D5000DF91CF9108958091E10C813009F4D9CFB2
:102D60000895CF93DF9389E89DE06AE070E00E94C8
:102D7000CA4BCAE5D0E089E89DE0BE010E94B34A93
:102D800063E070E080E090E00E9409662196C43B19
:102D9000D10589F789E89DE00E94474A81E0809348
:102DA000E10CDF91CF9108958091E10C882309F423
:102DB000D8CF089588E59EE00E94144785E89EE0FC
:102DC0000E94144710923F0E80E595E167EE76E091
:102DD0000C94996EEF92FF920F931F930E94D5650A
:102DE0009B01AC01E090AB0DF090AC0D0091AD0DEE
:102DF0001091AE0D8091FD0C8823E1F080913F0E83
:102E00008823C1F02E193F09400B510B8091F90C1A
:102E10009091FA0CA091FB0CB091FC0C82179307D7
:102E2000A407B5073CF480E595E167EF76E00E94E2
:102E3000996EC0DF8091BB0D882309F0F4DD1F91EE
:102E40000F91FF90EF900895AC01662757FD6095B4
:102E5000762F85E89EE00E94884609C0BBDF8091FE
:102E6000F60C882321F085E89EE00E94F94985E868
:102E70009EE00E949B45611571058105910571F7E2
:102E80000E94D5656093AB0D7093AC0D8093AD0D32
:102E90009093AE0D0895AC01662757FD6095762F8F
:102EA00088E59EE00E94884609C094DF8091F60C78
:102EB000882321F088E59EE00E94F94988E59EE09C
:102EC0000E949B45611571058105910571F70E946E
:102ED000D5656093AB0D7093AC0D8093AD0D909361
:102EE000AE0D0895CF93DF93FC01EB012115310561
:102EF000A9F480912E0D882339F0CF0162E070E0B3
:102F00000E94DC75CB012BC0CF0162E070E00E9413
:102F1000DC75CB01909581959F4F21C080912E0D3E
:102F200024173507A1F4882339F0CF0162E070E05F
:102F30000E94DC75CB0109C0CF0162E070E00E9405
:102F4000DC75CB01909581959F4FA5DF15C0882337
:102F500011F0CF0104C0882799278E1B9F0B9BDFA0
:102F6000CE0172DF80912E0D882319F010922E0D64
:102F700003C081E080932E0DDF91CF9108950F93D0
:102F80001F93CF93DF93EC018B0121153105D9F409
:102F900080E595E16CE177E00E94996E80912E0DBD
:102FA000882339F0CE0162E070E00E94DC75CB012D
:102FB0002BC0CE0162E070E00E94DC75CB019095E1
:102FC00081959F4F21C080912E0D24173507A1F4C4
:102FD000882339F0CE0162E070E00E94DC75CB01FD
:102FE00009C0CE0162E070E00E94DC75CB019095D3
:102FF00081959F4F29DF15C0882311F0CE0104C0B1
:10300000882799278C1B9D0B1FDFC80144DF809107
:103010002E0D882319F010922E0D03C081E08093AD
:103020002E0DDF91CF911F910F9108953F924F92F6
:103030005F926F927F928F929F92AF92BF92CF9248
:10304000DF92EF92FF920F931F93DF93CF9300D005
:103050000F92CDB7DEB7FC014B016A01322E141678
:1030600015060CF07FC0BA010E94DC755B01CF0130
:10307000B6010E94DC75AA2797FDA095BA2FBC0166
:10308000CD010E94B7737B018C01B601882777FDC3
:103090008095982F0E94B7739B01AC01C801B701BE
:1030A0000E941C732B013C010F2EF0E0EF2EF0E08C
:1030B000FF2EF0E00F2FF0E01F2FF02D1C821B825F
:1030C000C50101969A838983C801B701A3019201C2
:1030D0000E94B1727B018C0120E030E040E85FE3A8
:1030E0000E94A97487FF02C095010CC0C801B701F6
:1030F00020E030E040E85FE30E94B0727B018C0189
:1031000029813A8192E0391619F4C401B9010EC03F
:10311000E3E03E1619F4C401B90115C0F4E03F160E
:1031200051F466277727621B730BC401A6012B811C
:103130003C8125DF0CC081E0381649F466277727EB
:10314000621B730BC401A6012B813C81CBDE0E9464
:10315000390FEB81FC813196FC83EB83CE16DF06C1
:103160000CF0B2CF0F900F900F900F90CF91DF9196
:103170001F910F91FF90EF90DF90CF90BF90AF9095
:103180009F908F907F906F905F904F903F900895A9
:103190008F929F92AF92BF92CF92DF92EF92FF9267
:1031A0000F931F93DF93CF93CDB7DEB72E970FB654
:1031B000F894DEBF0FBECDBF6E010894C11CD11CB8
:1031C000C6016CED7EE00E949472C601B0D9AA27B8
:1031D00097FDA095BA2F2091E80C3091E90C442777
:1031E00037FD4095542FBC01CD010E94B1757B0184
:1031F0008C015B01C6010E94A672A8E0CA2ED12CE8
:10320000CC0EDD1EC60163EE7EE00E949472C60104
:103210008ED94C01C6010E94A672C701B701A40154
:1032200022E004DFAA0CBB1CC50135DEC701B701D3
:10323000A40123E0FBDEC50107DEC701B701A4013D
:1032400024E0F4DEB094A194B108B394C50123DE68
:10325000C701B701A40121E0E9DEC501F5DD2E9625
:103260000FB6F894DEBF0FBECDBFCF91DF911F9197
:103270000F91FF90EF90DF90CF90BF90AF909F9015
:103280008F900895DF93CF93CDB7DEB728970FB611
:10329000F894DEBF0FBECDBF69837A838B839C8396
:1032A0002D833E834F8358870E94D5656093AB0D75
:1032B0007093AC0D8093AD0D9093AE0DCE01019641
:1032C000BE016B5F7F4F0E94570869817A818B81B5
:1032D0009C810E948473AB01BC0188E59EE00E9442
:1032E00082466D817E818F8198850E948473AB01B7
:1032F000BC0185E89EE00E94824615C08091F20CD8
:10330000882349F088E59EE00E94F94985E89EE01F
:103310000E94F94908C088E59EE00E94C14985E8FD
:103320009EE00E94C14988E59EE00E949B45611590
:1033300071058105910549F485E89EE00E949B4551
:10334000611571058105910531F044DD8091F60C20
:10335000882349F3D3CF0E94390F28960FB6F894EB
:10336000DEBF0FBECDBFCF91DF910895AF92BF9268
:10337000CF92DF92EF92FF920F931F9379018A0110
:103380000E94B7735B016C01C801B7010E94B7735B
:103390009B01AC01C601B50175DF1F910F91FF9034
:1033A000EF90DF90CF90BF90AF9008952F923F9213
:1033B0004F925F926F927F928F929F92AF92BF9245
:1033C000CF92DF92EF92FF920F931F93DF93CF93F1
:1033D000CDB7DEB760970FB6F894DEBF0FBECDBF96
:1033E00080E595E16CE277E00E94996E80E595E1D9
:1033F0006CE477E00E94F66D6091260D7091270DC8
:1034000080E595E14AE050E00E94D96D8091260D5B
:103410009091270D029709F0A6C085E89EE00E94D2
:10342000AB451B012C0180910E0D90910F0DAA2729
:1034300097FDA095BA2F280E391E4A1E5B1E80E507
:1034400095E166E677E00E94F66D80E595E1B201D0
:10345000A1012AE030E00E94B56DC201B101A201D4
:1034600091010E94B1753B014C01A090020DB090FA
:10347000030DC090040DD090050DE0900A0DF09062
:103480000B0D00910C0D10910D0DEA0CFB1C0C1D89
:103490001D1D20919B0D30919C0D40919D0D5091D3
:1034A0009E0D2D873E874F87588B8091FE0C909103
:1034B000FF0CA091000DB091010D89879A87AB8711
:1034C000BC87281B390B4A0B5B0BCA01B9010E9450
:1034D000B1756D837E838F839887C801B701A8017A
:1034E00097010E94B175ED80FE800F8118856E0DE9
:1034F0007F1D801F911F66157705880599056CF162
:10350000C601B501A60195010E94B1755B016C0170
:103510008091060D9091070DA091080DB091090DB5
:103520002D853E854F855889E984FA840B851C8555
:103530002E193F09400B510B281B390B4A0B5B0B13
:10354000CA01B9010E94B1756A0D7B1D8C1D9D1DBC
:10355000661677068806990644F480E595E161E7EA
:1035600077E00E94996E80E005C18D819E81AF81D8
:10357000B8858A0D9B1DAC1DBD1D86159705A80538
:10358000B9050CF499C080E595E165E877E00E9403
:10359000996E0091020D1091030D2091040D309150
:1035A000050D09831A832B833C83C901B801A90146
:1035B00098010E94B1759B01AC01C401B301621B6B
:1035C000730B840B950B0E94B7730E941A757B01D5
:1035D0008C0160919B0D70919C0D80919D0D90913F
:1035E0009E0D0E94B773A80197010E94B0720E94BD
:1035F00084735B016C0180E595E166E977E00E94E8
:10360000F66DC201B1010E94B7732091930D309104
:10361000940D4091950D5091960D0E94AD74AB01A3
:10362000BC0180E595E122E030E00E94866E80E5F5
:1036300095E160EA77E00E94F66D6091FE0C709172
:10364000FF0C8091000D9091010D0E94B7732091A5
:10365000930D3091940D4091950D5091960D0E94CF
:10366000AD74AB01BC0180E595E122E030E00E9441
:10367000866E80E595E169EA77E00E94F66D6091DB
:10368000020D7091030D8091040D9091050D0E9423
:10369000B7732091930D3091940D4091950D5091F9
:1036A000960D0E94AD74AB01BC0180E595E122E06E
:1036B00030E00E94886E30C080E595E162EB77E0F3
:1036C0000E94996EA090FE0CB090FF0CC090000D6F
:1036D000D090010D20919B0D30919C0D40919D0D3E
:1036E00050919E0DC601B501621B730B840B950BA7
:1036F0002A193B094C095D090E94B175660D771DB9
:10370000881D991D0E94B7730E941A750E948473C8
:1037100069837A838B839C83C601B5010E94B7734A
:103720003B014C0169817A818B819C810E94B77336
:103730007B018C01C401B301A80197010E94250EF1
:103740005B016C01C401B301A80197010E94EE0D59
:103750007B018C01C601B5010E9484735B016C0181
:10376000C801B7010E9484739B01AC01C601B50179
:10377000FDDD81E060960FB6F894DEBF0FBECDBFD1
:10378000CF91DF911F910F91FF90EF90DF90CF903D
:10379000BF90AF909F908F907F906F905F904F9071
:1037A0003F902F9008952F923F924F925F926F9289
:1037B0007F928F929F92AF92BF92CF92DF92EF92C1
:1037C000FF920F931F93DF93CF9300D00F92CDB74B
:1037D000DEB73B014C0159016A01FA82E982C80156
:1037E00062E070E00E94DC75882777FD8095982F55
:1037F000661A770A880A990AA61AB70AC80AD90A5D
:103800001C821B821801442437FC4094542C2DC088
:1038100060E070E080E090E0A20191010E94566FAC
:103820007B018C0160E070E080E090E0A2019101FA
:103830000E94566F9B01AC010027F7FC0095102FEA
:10384000E60CF71C081D191D442737FD4095542F21
:103850002A0D3B1D4C1D5D1DC801B70187DD2B8165
:103860003C812F5F3F4F3C832B838B819C81E9817F
:10387000FA81E817F90764F60F900F900F900F90F8
:10388000CF91DF911F910F91FF90EF90DF90CF903C
:10389000BF90AF909F908F907F906F905F904F9070
:1038A0003F902F9008952F923F924F925F926F9288
:1038B0007F928F929F92AF92BF92CF92DF92EF92C0
:1038C000FF920F931F93DF93CF93CDB7DEB7EA97A5
:1038D0000FB6F894DEBF0FBECDBF8091C30D882315
:1038E00009F4B7C46E010894C11CD11CC6016CED6B
:1038F0007EE00E9494728E01085F1F4FC80163EE44
:103900007EE00E949472C8010E9497124C01A09020
:10391000E80CB090E90CC8010E94A6728E01015F0C
:103920001F4FC8016AEE7EE00E949472C8010E9497
:103930009712AA2797FDA095BA2F2091E80C3091F5
:10394000E90C442737FD4095542FBC01CD010E945E
:10395000B1757CA76BA7C8010E94A6728E010A5E92
:103960001F4FC801B6010E949472C8010E9404133F
:10397000F82EC8010E94A672FF2069F480E595E147
:1039800064EC77E00E94F66D80E595E1B6010E9457
:10399000DC6EC60165C4B401882777FD8095982F39
:1039A0009501442737FD4095542F0E94B1751B01A6
:1039B0002C017EA76DA780E595E16FED77E00E9471
:1039C000F66D40912E0E50912F0E6091300E709139
:1039D000310E80E595E12AE030E00E94776D80E5C8
:1039E00095E16BEE77E00E94F66D4091320E5091BA
:1039F000330E6091340E7091350E80E595E12AE02A
:103A000030E00E94B56D80E595E16EEE77E00E94B2
:103A1000F66D4091060D5091070D6091080D709163
:103A2000090D80E595E12AE030E00E94776D80E5A0
:103A300095E16AEF77E00E94996E6091060D7091B2
:103A4000070D8091080D9091090D0E94B7737B01BD
:103A50008C0160912E0E70912F0E8091300E9091FE
:103A6000310E0E94B7739B01AC01C801B7010E94DF
:103A70001C736093120D7093130D8093140D90932B
:103A8000150D80E595E16CEF77E00E94F66D4091B1
:103A9000120D5091130D6091140D7091150D80E56C
:103AA00095E122E030E00E94886E80E595E16CE0CF
:103AB00078E00E94F66D4091060D5091070D6091DF
:103AC000080D7091090D80E595E12AE030E00E9433
:103AD000B56D80E595E165E374E00E94F66D609157
:103AE000380E7091390E80E595E14AE050E00E9471
:103AF000D96D5AD96091060D7091070D8091080D0E
:103B00009091090D0E94B7732091160D3091170DF9
:103B10004091180D5091190D0E94AD740E9484734C
:103B20005B016C0160930A0D70930B0D80930C0D7B
:103B300090930D0D2091060D3091070D4091080DC9
:103B40005091090D8091FE0C9091FF0CA091000DF9
:103B5000B091010D280F391F4A1F5B1F2FA338A7F3
:103B600049A75AA7E090020DF090030D0091040DB3
:103B70001091050DAE0CBF1CC01ED11ECA01B901AB
:103B80000E94B7733B014C01C801B7010E94B77393
:103B90009B01AC01C401B3010E94EE0D7B018C01BD
:103BA000C10162E070E00E94DC75882777FD809596
:103BB000982F0E94B7739B01AC01C801B7010E9406
:103BC000B1726D8F7E8F8F8F98A36091020D70916F
:103BD000030D8091040D9091050D0E94B7739B0118
:103BE000AC01C401B3010E94250E2D8D3E8D4F8D79
:103BF00058A148DBB0D888E59EE00E94AB450E9402
:103C0000B7736BA37CA38DA39EA385E89EE00E945F
:103C1000AB450E94B7731B012C01C601B501A6017B
:103C200095010E94B1756FA778AB89AB9AAB1AA2C8
:103C300019A28DA59EA5AA2797FDA095BA2F8BAB9B
:103C40009CABADABBEAB2BA53CA5442737FD409547
:103C5000542F2FAB38AF49AF5AAF6BA17CA18DA1C8
:103C60009EA1A20191010E946B0D882309F0ACC1B5
:103C700080E595E168E178E00E94996E95D86BA99E
:103C80007CA98DA99EA90E94B7739B01AC016D8D83
:103C90007E8D8F8D98A10E94B1726D8F7E8F8F8FD8
:103CA00098A39B01AC010E94AD745B016C01609014
:103CB0009B0D70909C0D80909D0D90909E0D80911D
:103CC000FE0C9091FF0CA091000DB091010DA4018C
:103CD0009301281B390B4A0B5B0BCA01B9010E94E7
:103CE000B1751B012C016FA578A989A99AA9620D4C
:103CF000731D841D951D0E94B7739B01AC01C60105
:103D0000B5010E94A974181654F12091020D30914A
:103D1000030D4091040D5091050DCA01B9010E9497
:103D2000B1757B018C01A40193018FA198A5A9A570
:103D3000BAA5281B390B4A0B5B0BCA01B9010E94BB
:103D4000B1756E0D7F1D801F911F0E94B7739B017F
:103D5000AC01C601B5010E941573882364F480E5A7
:103D600095E16CE378E00E94996E2D8C3E8C4F8C2F
:103D700058A011E01FC1C201B1016E0D7F1D801F4F
:103D8000911F0E94B7739B01AC01C601B5010E944F
:103D9000157318160CF47FC080E595E165E877E0AF
:103DA0000E94996E6090020D7090030D8090040D3A
:103DB0009090050DC401B301A40193010E94B17557
:103DC0000E94B7739B01AC01C601B5010E94B0729D
:103DD0000E941A757B018C0160919B0D70919C0D66
:103DE00080919D0D90919E0D0E94B773A80197013F
:103DF0000E94B0720E9484737B018C0180E595E182
:103E00006FE478E00E94F66D6091FE0C7091FF0CFB
:103E10008091000D9091010D0E94B7732091930D38
:103E20003091940D4091950D5091960D0E94AD7476
:103E3000AB01BC0180E595E122E030E00E94866E96
:103E400080E595E169E678E00E94F66D6091020DEB
:103E50007091030D8091040D9091050D0E94B77330
:103E60002091930D3091940D4091950D5091960DA8
:103E70000E94AD74AB01BC0180E595E122E030E029
:103E80000E94866EC801B7010E94B7735B016C0186
:103E9000C401B30178C080E595E162EB77E00E9450
:103EA000996EE090FE0CF090FF0C0091000D1091C7
:103EB000010D20919B0D30919C0D40919D0D5091D5
:103EC0009E0D2E193F09400B510BCA01B9010E94EA
:103ED000B1750E94B7739B01AC01C601B5010E9488
:103EE000B0720E941A753B014C0180E595E16FE4C8
:103EF00078E00E94F66D6091FE0C7091FF0C80914D
:103F0000000D9091010D0E94B7732091930D309197
:103F1000940D4091950D5091960D0E94AD74AB019A
:103F2000BC0180E595E122E030E00E94866E80E5EC
:103F300095E169E678E00E94F66D6091020D70915E
:103F4000030D8091040D9091050D0E94B77320918F
:103F5000930D3091940D4091950D5091960D0E94C6
:103F6000AD74AB01BC0180E595E122E030E00E9438
:103F7000866EC801B7010E94B7735B016C01C40172
:103F8000B3010E9484730E94B7737B018C01C60148
:103F9000B501A80197010E94250E6BA37CA38DA3F8
:103FA0009EA3C601B501A80197010E94EE0D1B0159
:103FB0002C0110E068EE73E080E090E00E9409665A
:103FC000112309F03BC106C080E595E16DE678E07C
:103FD0000E94996E6BA17CA18DA19EA1A20191016D
:103FE00051D90E94AB16A9A1BAA11196BAA3A9A34F
:103FF00080E595E166E778E00E94F66D80E595E161
:1040000069A17AA14AE050E00E94D96D6BA17CA120
:104010008DA19EA1A20191010E94FA087B018C0151
:104020002BA13CA14DA15EA10E94440D5B016C013E
:104030006091FE0C7091FF0C8091000D9091010D2C
:104040000E94B7739B01AC01C801B7010E94B07216
:104050003B014C016091020D7091030D8091040DA4
:104060009091050D0E94B7739B01AC01C601B5018B
:104070000E94B0725B016C0180E595E16DE778E02C
:104080000E94F66D80E595E1B401A30122E030E0E5
:104090000E94866E80E595E16CE573E00E94F66D06
:1040A00080E595E1B601A50122E030E00E94886E2E
:1040B000E090120DF090130D0091140D1091150D5C
:1040C000C401B301A80197010E941C733B014C017C
:1040D000C601B501A80197010E941C737B018C01E8
:1040E00080E595E169E978E00E94F66D80E595E16B
:1040F000B401A30122E030E00E94866E80E595E1E4
:104100006CE573E00E94F66D80E595E1B801A701CA
:1041100022E030E00E94886EC801B7010E948473DB
:104120005B016C019B01442737FD4095542F809122
:10413000320E9091330EA091340EB091350E82174D
:104140009307A407B507C4F0C401B3010E948473A8
:104150007B018C019B01442737FD4095542F8091B2
:104160002E0E90912F0EA091300EB091310E82172D
:104170009307A407B5072CF480E595E16DEB78E093
:1041800061C0C701B5010E94EA0F6091360E7091BF
:10419000370E90E04DA55EA50E94F007E82E6FA9AE
:1041A00078AD89AD9AAD0E94B7733B014C01FF24F5
:1041B00000E010E0C801B7010E94B57320E030E0D4
:1041C00040E05FE30E94AD745B016C01C401B30188
:1041D00020E030E040E05FE30E94AD749B01AC0161
:1041E0006BA17CA18DA19EA10E94B1727B018C016B
:1041F000C201B101A60195010E94B0729B01AC0100
:10420000B701C8013FD8C201B101A60195010E94C2
:10421000B1729B01AC01B701C80134D86BA17CA17C
:104220008DA19EA1A40193010E94B1726BA37CA3F6
:104230008DA39EA3A201910125D80FCD80E595E124
:1042400067ED78E00E94996E0E94D416CE01019627
:1042500007C080E595E162EE78E00E94996E02C0A9
:104260000E94A672EA960FB6F894DEBF0FBECDBFCD
:10427000CF91DF911F910F91FF90EF90DF90CF9042
:10428000BF90AF909F908F907F906F905F904F9076
:104290003F902F9008952F923F924F925F926F928E
:1042A0007F928F929F92AF92BF92CF92DF92EF92C6
:1042B000FF920F931F93DF93CF93CDB7DEB766972F
:1042C0000FB6F894DEBF0FBECDBF6F8378878987A6
:1042D0009A872B873C874D875E87EF86F88A098B04
:1042E0001A8BAB8ABC8ACD8ADE8A80E090E0A0E09F
:1042F000B0E08B839C83AD83BE831A82198260E019
:1043000070E080E89FE32B813C814D815E810E94BB
:10431000B0725B016C01A60195010E94AD747B0136
:104320008C016B817C818D819E819B01AC010E94FF
:10433000B172A60195010E94AD741B012C016B8125
:104340007C818D819E819B01AC010E94AD745B01DB
:104350006C016F81788589859A850E94B7739B016E
:10436000AC01C801B7010E94AD743B014C016CA5C2
:104370007DA58EA59FA50E94B7739B01AC01C201CC
:10438000B1010E94AD749B01AC01C401B3010E9454
:10439000B1723B014C016F85788989899A890E94A5
:1043A000B7739B01AC01C601B5010E94AD749B01BE
:1043B000AC01C401B3010E94B1723B014C016B8599
:1043C0007C858D859E850E94B7739B01AC01C801D9
:1043D000B7010E94AD747B018C0168A979A98AA9F3
:1043E0009BA90E94B7739B01AC01C201B1010E945D
:1043F000AD749B01AC01C801B7010E94B1727B0191
:104400008C016B897C898D899E890E94B7739B0181
:10441000AC01C601B5010E94AD749B01AC01C8019D
:10442000B7010E94B1729B01AC01C401B3010E94AB
:1044300042196B817C818D819E812AE037ED43E2B8
:104440005BE30E94B1726B837C838D839E83A98121
:10445000BA811196BA83A983A159B14009F04FCF0F
:1044600066960FB6F894DEBF0FBECDBFCF91DF9139
:104470001F910F91FF90EF90DF90CF90BF90AF9082
:104480009F908F907F906F905F904F903F902F9074
:1044900008952F923F924F925F926F927F928F92E8
:1044A0009F92AF92BF92CF92DF92EF92FF920F93C3
:1044B0001F93DF93CF93CDB7DEB7C055D0400FB673
:1044C000F894DEBF0FBECDBF6BAF7CAF8DAF9EAF9C
:1044D00023962CAF3DAF4EAF5FAF23972596FFAE2F
:1044E000EEAE25972796DFAECEAE279780E595E115
:1044F0006FE079E00E94996E80E595E16CE179E0EA
:104500000E94F66D80E595E1B8014AE050E00E9416
:10451000D96D80E595E169E279E00E94F66D80E56C
:1045200095E125966EAD7FAD25974AE050E00E945B
:10453000D96D80E595E164E379E00E94F66D80E550
:1045400095E127966EAD7FAD27974AE050E00E9437
:10455000D96D25962EAD3FAD2597B901882777FDFA
:104560008095982F0E94B77369837A838B839C838D
:104570006D8F7E8F8F8F98A384E190E09AA389A39B
:104580001C8E1B8E44C22596AEADBFAD2597A035BF
:10459000B10574F46D8D7E8D8F8D98A120E030E093
:1045A00040E85EE30E94AD740E9484737AA369A31D
:1045B00088E691E069A17AA10E94DC75882777FDE1
:1045C0008095982F0E94B7736F8B788F898F9A8F01
:1045D000E9A1FAA1BF01882777FD8095982F0E9455
:1045E000B7739B01AC0169817A818B819C810E94A8
:1045F0001C736B8B7C8B8D8B9E8B8F89988DA98D7B
:10460000BA8D8D879E87AF87B88B1A8A198A6624E0
:104610006394EBC1A989BA89BD01882777FD80958C
:10462000982F0E94B7735B016C016BAD7CAD8DADB3
:104630009EAD0E94B7736FAB78AF89AF9AAFC601DA
:10464000B50120E030E044E353E40E941C732BEDFD
:104650003FE049E450E40E94AD747B018C01C80145
:104660000E9419739B01AC016D8D7E8D8F8D98A179
:104670000E94AD746BAB7CAB8DAB9EAB6FA978AD7C
:1046800089AD9AAD2BA93CA94DA95EA90E94B17232
:1046900069877A878B879C8723966CAD7DAD8EADBD
:1046A0009FAD23970E94B7736FA778AB89AB9AAB86
:1046B000B701C8010E9410759B01AC016D8D7E8D04
:1046C0008F8D98A10E94AD746BA77CA78DA79EA724
:1046D0006FA578A989A99AA92BA53CA54DA55EA58A
:1046E0000E94B1726D837E838F8398876D857E85EE
:1046F0008F8598890E9484737A8B698BFB01BF0137
:10470000882777FD8095982F0E94B77320E030E0CE
:1047100044E353E40E941C732BED3FE049E450E472
:104720000E94AD747B018C01C8010E9419739B012A
:10473000AC016D8D7E8D8F8D98A10E94AD746FA39D
:1047400078A789A79AA7B701C8010E9410759B0195
:10475000AC016D8D7E8D8F8D98A10E94AD746BA381
:104760007CA38DA39EA3662051F069857A858B85F5
:104770009C852D813E814F8158850E94421910925F
:10478000F20C6D857E858F859889A60195010E9422
:10479000B07220E030E040E05FE30E94AD749B0126
:1047A000AC01C601B5010E94B1720E9484738827D2
:1047B00077FD8095982F0E94B77320E030E044E3A6
:1047C00053E40E941C732BED3FE049E450E40E9447
:1047D000AD747B018C01C8010E9419733B014C012F
:1047E000B701C8010E9410751B012C012DB73EB7FF
:1047F000285030400FB6F8943EBF0FBE2DBF8DB786
:104800009EB7019661969FAF8EAF619769857A8555
:104810008B859C850E9484732B966CAF7DAF8EAF89
:104820009FAF2B976D817E818F8198850E948473C5
:104830002F966CAF7DAF8EAF9FAF2F976FA978ADDE
:1048400089AD9AAD2FA138A549A55AA50E94B1728C
:104850000E9484737B018C016FA578A989A99AA90C
:104860002BA13CA14DA15EA10E94B1720E94847354
:104870005B016C016D8D7E8D8F8D98A1A4019301DC
:104880000E94AD743B014C016BA97CA98DA99EA926
:1048900020E030E040E85EEB0E94AD749B01AC018B
:1048A000C401B3010E94B1723B014C016FA178A514
:1048B00089A59AA520E030E040E85EEB0E94AD7447
:1048C0009B01AC01C401B3010E94B1729B01AC0118
:1048D0000E94B1729B01AC016FA978AD89AD9AAD10
:1048E0000E94B1720E9484736196AEADBFAD6197B4
:1048F0006D937D938D939C9313976D8D7E8D8F8D8E
:1049000098A1A20191010E94AD743B014C016BA5DD
:104910007CA58DA59EA520E030E040E85EEB0E94DE
:10492000AD749B01AC01C401B3010E94B1723B01A3
:104930004C016BA17CA18DA19EA120E030E040E85C
:104940005EEB0E94AD749B01AC01C401B3010E94F7
:10495000B1729B01AC010E94B1729B01AC016FA5C9
:1049600078A989A99AA90E94B1720E94847361965C
:10497000EEADFFAD619764837583868397832B9635
:104980006CAD7DAD8EAD9FAD2B972F962CAD3DAD13
:104990004EAD5FAD2F977FDCF1E0F093F20C6D8DA3
:1049A0007E8D8F8D98A12B893C894D895E890E94CF
:1049B000B1726D8F7E8F8F8F98A36D857E858F8569
:1049C00098892F89388D498D5A8D0E94B1726D87D3
:1049D0007E878F87988B66242DB73EB7285F3F4F21
:1049E0000FB6F8943EBF0FBE2DBF6D857E858F85B7
:1049F000988920E030E044EB53E40E9415731816C8
:104A00000CF008CE8B8D9C8D01969C8F8B8FAB8D7F
:104A1000BC8D2796EEADFFAD2797AE17BF070CF400
:104A2000B2CDC05BDF4F0FB6F894DEBF0FBECDBF77
:104A3000CF91DF911F910F91FF90EF90DF90CF907A
:104A4000BF90AF909F908F907F906F905F904F90AE
:104A50003F902F900895EF92FF920F931F9308E5D8
:104A60001EE0C8010E94EA46B5E8EB2EBEE0FB2E30
:104A7000C7010E94EA4681E080933F0EC8010E9470
:104A8000AB45AB01BC01405E5F4F6F4F7F4FC8012C
:104A90000E941F4AC7010E94AB45AB01BC01405EAA
:104AA0005F4F6F4F7F4FC7010E941F4AC8010E948E
:104AB000AB45AB01BC014052504060407040C80162
:104AC0000E941F4AC7010E94AB45AB01BC01405286
:104AD000504060407040C7010E941F4A80E595E148
:104AE0006DE379E00E94996E1F910F91FF90EF9016
:104AF00008950F931F93DF93CF93CDB7DEB72E9713
:104B00000FB6F894DEBF0FBECDBF8E010F5F1F4FF3
:104B1000C8016CED7EE00E949472C8010E94971259
:104B20009093290D8093280DC8010E94A6728E01D2
:104B3000085F1F4FC80163EE7EE00E949472C801B7
:104B40000E9497129093270D8093260DC8010E9412
:104B5000A67200E515E1C80169E872E00E94586C90
:104B60006091280D7091290DC8014AE050E00E9423
:104B7000C76DC80166E772E00E94586C6091260D0F
:104B80007091270DC8014AE050E00E94D96D2E9621
:104B90000FB6F894DEBF0FBECDBFCF91DF911F914E
:104BA0000F910895EF92FF920F931F937C0100E500
:104BB00015E1C8016AEE73E00E94586CC801B701A4
:104BC0000E94AA6EC8016CEC73E00E94A36C1F9156
:104BD0000F91FF90EF900895AF92BF92CF92DF9226
:104BE000EF92FF920F931F93DF93CF93CDB7DEB772
:104BF0002E970FB6F894DEBF0FBECDBFADB6BEB6D2
:104C00007E010894E11CF11CC7016CED7EE00E945E
:104C100094728E01085F1F4FC80163EE7EE00E9410
:104C20009472C70166E072E00E94AC70882309F0BC
:104C300057C080E595E16DE479E00E94F66D80E56E
:104C400095E1B7010E94DC6E81E08093C40D85EC94
:104C50009DE0B7010E947F72C8016AE679E00E9478
:104C6000AC70882309F442C0DDB6CEB64D815E81BA
:104C70004F5F5F4F8DB79EB7841B950B0FB6F894AF
:104C80009EBF0FBE8DBF0DB71EB70F5F1F4FC70171
:104C9000B80120E030E00E945D7085ED90E1B80140
:104CA0000E94DC51882399F080E595E164EC71E085
:104CB0000E94A36C85ED90E1B8010E94D251882337
:104CC00031F080E595E166EB71E00E94A36C8D2DDB
:104CD0009C2D9C010FB6F8943EBF0FBE2DBF06C0A1
:104CE00080E595E16CE679E00E94996ECE01089628
:104CF0000E94A672CE0101960E94A6720FB6F89489
:104D0000BEBE0FBEADBE2E960FB6F894DEBF0FBE70
:104D1000CDBFCF91DF911F910F91FF90EF90DF906A
:104D2000CF90BF90AF9008952F923F924F925F9295
:104D30006F927F928F929F92AF92BF92CF92DF92AB
:104D4000EF92FF920F931F93DF93CF93CDB7DEB710
:104D5000E4970FB6F894DEBF0FBECDBF2B013C0128
:104D6000EF8EF8A209A31AA3ABA2BCA2CDA2DEA229
:104D700098A68FA20E94FA086B8F7C8F8D8F9E8FD2
:104D8000A30192010E94440D6F8B788F898F9A8FB7
:104D90006F8D78A189A19AA12BA13CA14DA15EA103
:104DA0000E94FA087B018C012F8D38A149A15AA1DC
:104DB0000E94440D5B016C01C801B70120E030E0A6
:104DC00040EA51E40E94A97418160CF0E8C1609101
:104DD0009B0D70919C0D80919D0D90919E0D645145
:104DE0007040804090400E94B7739B01AC01C801A5
:104DF000B7010E94157388230CF0D1C1C601B5011B
:104E000020E030E040EA51E40E94A97418160CF04A
:104E1000C6C160919F0D7091A00D8091A10D9091E0
:104E2000A20D64517040804090400E94B7739B0176
:104E3000AC01C601B5010E94157388230CF0AFC107
:104E40001092F50CC801B7012B8D3C8D4D8D5E8DF8
:104E50000E94B0721B012C01C601B5012F89388D4B
:104E6000498D5A8D0E94B0723B014C01C201B101C3
:104E700020E030E040E050E00E94A97418161CF4D5
:104E80008201710106C08201710117FB109517F9AB
:104E90001095C401B30120E030E040E050E00E94F2
:104EA000A97418161CF4A401930103C0A401930172
:104EB0005058C801B7010E94A97418169CF021E04F
:104EC00030E03E8B2D8BD401C301B05889AB9AAB37
:104ED000ABABBCABAFA1B8A55D01CC24B7FCC09413
:104EE000DC2C4EC021E030E03E8B2D8BD201C10185
:104EF000B0588DA79EA7AFA7B8ABAFA1B8A55D016D
:104F0000CC24B7FCC094DC2C06C02D893E892F5FD1
:104F10003F4F3E8B2D8BC201B10120E030E040E0DD
:104F200050E00E94A97418161CF48201710104C09B
:104F3000EDA4FEA40FA518A9AD89BE89BD018827DF
:104F400077FD8095982F0E94B7739B01AC01C80133
:104F5000B7010E941C737B018C01C601B5010E9440
:104F6000B7739B01AC01C801B7010E94A974181660
:104F700064F234C02D893E892F5F3F4F3E8B2D8BCD
:104F8000C401B30120E030E040E050E00E94A97489
:104F900018161CF48401730104C0E9A8FAA80BA92F
:104FA0001CA9AD89BE89BD01882777FD8095982F02
:104FB0000E94B7739B01AC01C801B7010E941C732A
:104FC0007B018C01C601B5010E94B7739B01AC0146
:104FD000C801B7010E94A974181664F22D893E8990
:104FE0005901CC24B7FCC094DC2CC601B5010E9449
:104FF000B7737B018C01C201B101A80197010E9426
:105000001C736D837E838F839887C401B301A801CD
:1050100097010E941C7369837A838B839C8310920F
:10502000F20C198A1A8A1B8A1C8A19861A861B8610
:105030001C86A9A6BAA6CBA6DCA66B8D7C8D8D8D11
:105040009E8D2D813E814F8158850E94B1726B8F5C
:105050007C8F8D8F9E8F6F89788D898D9A8D298118
:105060003A814B815C810E94B1726F8B788F898FFE
:105070009A8F6B8D7C8D8D8D9E8D2F89388D498D6E
:105080005A8D0E94250E6D877E878F87988B6B8D3A
:105090007C8D8D8D9E8D2F89388D498D5A8D0E94E6
:1050A000EE0D1B012C0169847A848B849C8489A574
:1050B0009AA5ABA5BCA5680E791E8A1E9B1E6989A0
:1050C0007A898B899C890E94B7735B016C0160911E
:1050D000EE0C7091EF0C8091F00C9091F10C20E0AF
:1050E00030E040E850E40E94AD747B018C01C401C3
:1050F000B301A60195010E944E0E0E948473698B34
:105100007A8B8B8B9C8B0E94B7737B018C0188E51B
:105110009EE0B801A7010E94EC4585E89EE0B80139
:10512000A7010E94EC456D857E858F859889A20137
:1051300091010E94421989859A85AB85BC850197AA
:10514000A109B10989879A87AB87BC878D899E8918
:10515000A985BA858A0F9B1F892B09F06ECF88E538
:105160009EE040E050E060E070E00E94EC4585E8A1
:105170009EE040E050E060E070E00E94EC4511E00D
:105180001093F50C6F8D78A189A19AA12BA13CA158
:105190004DA15EA10E9442191093F20C06C080E559
:1051A00095E16EE879E00E94996E0E94140DE496F4
:1051B0000FB6F894DEBF0FBECDBFCF91DF911F9128
:1051C0000F91FF90EF90DF90CF90BF90AF909F90A6
:1051D0008F907F906F905F904F903F902F900895A9
:1051E0002F923F924F925F926F927F928F929F92F7
:1051F000AF92BF92CF92DF92EF92FF920F931F93E5
:10520000DF93CF93CDB7DEB7A6970FB6F894DEBF86
:105210000FBECDBF8091C30D882309F401C3CE0119
:1052200001966CED7EE00E9494728E01085F1F4F24
:10523000C801BE016F5F7F4F0E949472C8010E9437
:105240000413F82EC8010E94A672FF2071F480E5B5
:1052500095E164EC77E00E94F66D80E595E1BE0192
:105260006F5F7F4F0E94DC6ED6C280E595E16FEDE7
:1052700077E00E94F66D40912E0E50912F0E6091B6
:10528000300E7091310E80E595E12AE030E00E9409
:10529000776D80E595E16BEE77E00E94F66D4091C9
:1052A000320E5091330E6091340E7091350E80E5C0
:1052B00095E12AE030E00E94B56D80E595E16EEE63
:1052C00077E00E94F66D4091060D5091070D6091B8
:1052D000080D7091090D80E595E12AE030E00E940B
:1052E000776D80E595E16AEF77E00E94996E6091B5
:1052F000060D7091070D8091080D9091090D209178
:105300002E0E30912F0E4091300E5091310E0E9492
:105310001176CA01B9010E94B7736093120D7093A0
:10532000130D8093140D9093150D80E595E16CEFAE
:1053300077E00E94F66D4091120D5091130D60912F
:10534000140D7091150D80E595E122E030E00E948A
:10535000886E80E595E16CE078E00E94F66D409102
:10536000060D5091070D6091080D7091090D80E5B3
:1053700095E12AE030E00E94B56D80E595E165E3B6
:1053800074E00E94F66D6091380E7091390E80E5E0
:1053900095E14AE050E00E94D96DE090060DF09052
:1053A000070D0091080D1091090DC801B7010E9469
:1053B000B7732091160D3091170D4091180D509133
:1053C000190D0E94AD740E94847360930A0D70934E
:1053D0000B0D80930C0D90930D0D2090FE0C3090D2
:1053E000FF0C4090000D5090010D2E0C3F1C401EF4
:1053F000511E2091020D3091030D4091040D5091EA
:10540000050D260F371F481F591F2F87388B498BD3
:105410005A8B80E595E164EB79E00E94F66D80E5BA
:1054200095E1B201A1012AE030E00E94776D80E5AC
:1054300095E16CEB79E00E94F66D80E595E14F8592
:10544000588969897A892AE030E00E94B56D88E53B
:105450009EE00E94AB453B014C0185E89EE00E9426
:10546000AB456BA37CA38DA39EA36091FE0C7091B2
:10547000FF0C8091000D9091010D0E94B7737B018C
:105480008C016091020D7091030D8091040D90913B
:10549000050D0E94B7739B01AC01C801B7010E94C2
:1054A000250E7B018C016091FE0C7091FF0C8091A8
:1054B000000D9091010D0E94B7735B016C0160912A
:1054C000020D7091030D8091040D9091050D0E94C5
:1054D000B7739B01AC01C601B5010E94EE0D5B01E3
:1054E0006C01C401B3010E94B7733B014C016BA175
:1054F0007CA18DA19EA10E94B7739B01AC01C40148
:10550000B301F4E18F2E912C0FDC88E59EE00E9420
:10551000AB453B014C0185E89EE00E94AB456F8F97
:1055200078A389A39AA3C201B1010E94B7736B8FBC
:105530007C8F8D8F9E8F6091020D7091030D8091F5
:10554000040D9091050D0E94B7739B01AC016B8D0A
:105550007C8D8D8D9E8D0E94250E7B018C0160912E
:10556000020D7091030D8091040D9091050D0E9424
:10557000B7739B01AC016B8D7C8D8D8D9E8D0E94D0
:10558000EE0D5B016C01C401B3010E94B7733B01D6
:105590004C016F8D78A189A19AA10E94B7739B01DC
:1055A000AC01C401B301E4E18E2E912CBDDB88E592
:1055B0009EE00E94AB453B014C0185E89EE00E94C5
:1055C000AB456F8B788F898F9A8F6F8578898989A2
:1055D0009A890E94B7731B012C016B8D7C8D8D8D78
:1055E0009E8DA20191010E94250E7B018C016B8D85
:1055F0007C8D8D8D9E8DA20191010E94EE0D5B012F
:105600006C01C401B3010E94B7733B014C016F8967
:10561000788D898D9A8D0E94B7739B01AC01C4016E
:10562000B301B4E18B2E912C7FDB88E59EE00E94D4
:10563000AB453B014C0185E89EE00E94AB456B8B7E
:105640007C8B8D8B9E8B6091FE0C7091FF0C8091FA
:10565000000D9091010D0E94B773A20191010E946B
:10566000250E7B018C016091FE0C7091FF0C8091E6
:10567000000D9091010D0E94B773A20191010E944B
:10568000EE0D5B016C01C401B3010E94B7733B01D5
:105690004C016B897C898D899E890E94B7739B011F
:1056A000AC01C401B301A4E18A2E912C3DDB88E555
:1056B0009EE00E94AB453B014C0185E89EE00E94C4
:1056C000AB451B012C016091FE0C7091FF0C809189
:1056D000000D9091010D0E94B7737B018C016091C8
:1056E000020D7091030D8091040D9091050D0E94A3
:1056F000B7739B01AC01C801B7010E94250E7B0165
:105700008C016091FE0C7091FF0C8091000D9091C6
:10571000010D0E94B7735B016C016091020D7091E5
:10572000030D8091040D9091050D0E94B7739B01AC
:10573000AC01C601B5010E94EE0D5B016C01C40114
:10574000B3010E94B7733B014C01C201B1010E9439
:10575000B7739B01AC01C401B301F4E18F2E912C0E
:10576000E3DA88E59EE00E94AB453B014C0185E809
:105770009EE00E94AB451B012C016091FE0C7091D4
:10578000FF0C8091000D9091010D0E94B7737B0179
:105790008C016091020D7091030D8091040D909128
:1057A000050D0E94B7739B01AC01C801B7010E94AF
:1057B000250E7B018C016091FE0C7091FF0C809195
:1057C000000D9091010D0E94B7735B016C01609117
:1057D000020D7091030D8091040D9091050D0E94B2
:1057E000B7739B01AC01C601B5010E94EE0D5B01D0
:1057F0006C01C401B3010E94B7733B014C01C201AB
:10580000B1010E94B7739B01AC01C401B301E4E193
:105810008E2E912C89DACE0101960E94A67206C0C6
:1058200080E595E162EE78E00E94996EA6960FB64B
:10583000F894DEBF0FBECDBFCF91DF911F910F91C6
:10584000FF90EF90DF90CF90BF90AF909F908F90A0
:105850007F906F905F904F903F902F9008958F9220
:105860009F92AF92BF92CF92DF92EF92FF920F93EF
:105870001F93DF93CF93CDB7DEB72E970FB6F89473
:10588000DEBF0FBECDBF8E010F5F1F4FC8016CED95
:105890007EE00E949472C8010E949712AA2797FD89
:1058A000A095BA2F2091E80C3091E90C442737FDE0
:1058B0004095542FBC01CD010E94B1755B016C0174
:1058C000C8010E94A672A8E08A2E912C8C0E9D1E03
:1058D000C40163EE7EE00E949472C4010E9497129C
:1058E000AA2797FDA095BA2F2091E80C3091E90CDA
:1058F000442737FD4095542FBC01CD010E94B1755E
:105900007B018C01C4010E94A672A501662757FD88
:105910006095762F88E59EE00E947846A70166276D
:1059200057FD6095762F85E89EE00E94784693D8D3
:105930000E94390F2E960FB6F894DEBF0FBECDBF72
:10594000CF91DF911F910F91FF90EF90DF90CF905B
:10595000BF90AF909F908F9008950F931F93AB01CE
:10596000BC014093EE0C5093EF0C6093F00C7093DD
:10597000F10C88E59EE00E946C464091EE0C50913F
:10598000EF0C6091F00C7091F10C85E89EE00E94A4
:105990006C4600E515E1C80166E172E00E94586CB2
:1059A0004091EE0C5091EF0C6091F00C7091F10C65
:1059B000C80122E030E00E94886E1F910F91089587
:1059C0000F931F93AB01BC014093EA0C5093EB0C77
:1059D0006093EC0C7093ED0C88E59EE00E9472469B
:1059E0004091EA0C5091EB0C6091EC0C7091ED0C35
:1059F00085E89EE00E94724600E515E1C80169E273
:105A000072E00E94586C4091EA0C5091EB0C60914E
:105A1000EC0C7091ED0CC80122E030E00E94886E21
:105A20001F910F910895CF92DF92EF92FF920F9303
:105A30001F937C01D62EC72E00E515E1C80169EB46
:105A400072E00E94586CC8016D2D7C2D4AE050E038
:105A50000E94C76DC8016CEA72E00E94586CC801D0
:105A6000B7014AE050E00E94D96D02ED10E1C80193
:105A7000B7014D2D0E944C4D0894E11CF11CC8014A
:105A8000B7014C2D0E944C4D1F910F91FF90EF904C
:105A9000DF90CF900895DF92EF92FF920F931F93C4
:105AA0008C01B2EDEB2EB0E1FB2EC701B8010E94D4
:105AB000454DD82E0F5F1F4FC701B8010E94454DBD
:105AC000382F20E02D0D311DC9011F910F91FF903E
:105AD000EF90DF900895AF92BF92CF92DF92EF9256
