:10000000C2C20000EDC20000EBC20000E9C2000065
:10001000E7C20000E5C20000E3C20000E1C2000048
:10002000DFC20000DDC20000DBC20000D9C2000058
:10003000D7C20000D5C20000D3C20000D1C2000068
:10004000CFC200000C94B953CBC20000C9C200005B
:10005000C7C20000C5C20000C3C200000C94256ED8
:10006000BFC200000C944C700C949071B9C2000097
:10007000B7C20000B5C20000B3C20000B1C20000A8
:100080000C948C53ADC20000ABC20000A9C20000AA
:100090000C948C700C94CF71A3C20000A1C200001C
:1000A0009FC200009DC200000C945F5399C20000E3
:1000B00097C2000095C2000093C200000C94325316
:1000C0008FC200008DC200008BC200000C94CC7067
:1000D0000C940E7285C200000C940C710C944D723D
:1000E0007FC2000005A84CCDB2D44EB93836A90263
:1000F0000C50B9918688083CA6AAAA2ABE00000026
:10010000803F000000006410B71DC8206E3BAC307B
:10011000D9269041DC76F4516B6B5861B24D3C713D
:1001200005502083B8ED44930FF0E8A3D6D68CB3E6
:1001300061CBB0C2649BD4D2D38678E20AA01CF211
:10014000BDBD50424D20696D616765206D7573744A
:10015000206265206174206C6561737420313020E9
:10016000706978656C7320776964652E002C206D4A
:1001700061782064656E736974793A20002C207070
:10018000656E2077696474683A200050656E7769FF
:10019000647468207465737420004368616E6769D5
:1001A0006E67206261636B20746F206C69766520D6
:1001B0006D6F64652E0046696C652072656D6F76A3
:1001C00065642E0046696C6520616C7265616479B6
:1001D000206578697374732E00457865637574695A
:1001E0006E6720636F6D6D616E643A0053746F7259
:1001F000696E6720636F6D6D616E643A006D6D00AE
:100200004368616E6765642050656E207769647429
:100210006820746F20004E657720616363656C65AC
:10022000726174696F6E3A20004E6577206D617857
:100230002073706565643A200055703A2000446F61
:10024000776E3A2000504753504545442C005047A4
:100250004C4946542C005047535445504D554C542E
:1002600049504C4945522C00504753544550535027
:1002700045525245562C0050474D4D50455252451F
:10028000562C00504753495A452C0050474E414D7B
:10029000452C002900526563616C632070616765BD
:1002A00048656967687420696E207374657073208F
:1002B00028002900526563616C632070616765578F
:1002C0006964746820696E207374657073202800F7
:1002D0002900292C2073746570735065724D4D2070
:1002E0002800526563616C63206D6D5065725374B4
:1002F00065702028004C6F61646564206D6F746FB9
:10030000722073746570206D756C7469706C6965AA
:10031000723A004C6F61646564206D616368696E58
:1003200065206E616D653A004C6F6164656420758F
:100330007020706F733A004C6F6164656420646F65
:10034000776E20706F733A004C6F61646564206D46
:100350006F746F7220737465707320706572207291
:1003600065763A004C6F61646564206D6D20706540
:1003700072207265763A004C6F61646564206D612D
:100380006368696E65206865696768743A004C6FD8
:1003900061646564206D616368696E652077696476
:1003A00074683A002069736E2774206120636F6D52
:1003B0006D616E642049207265636F676E69736555
:1003C0002E00536F7272792C200029206E6F7420DA
:1003D0007061727365642E00436F6D6D616E642091
:1003E0002800436865636B73756D206E6F74206DB4
:1003F000617463686564213A004920676F74200066
:100400007600504F4C41524752415048204F4E21A8
:10041000007C3C3E5E2B3D3F2F5B5D3B2C2A225CEB
:100420000000002100240027002A002D00300033A6
:100430000001010000040107010A0100002200255B
:100440000028002B002E00310034000201000005BE
:100450000108010B01000020002300260029002CC8
:10046000002F003200000100000301060109010510
:10047000050505070508080808020202020A0A081D
:100480000804040404010101010101010103030343
:100490000303030303040707070C0C0C0C0C0C0CE0
:1004A0000C0202020206060606060606060B0B0BE7
:1004B0000B0B0B0B0B010210202008081020401022
:1004C0002040800201020108040201010204081018
:1004D0002040808040201008040201800402018036
:1004E000402010080402010804020101020408105F
:1004F00020408001020408102040800000090A0208
:10050000080B0C0D070603040100000000000000AA
:1005100000000000000000000000000000000000DB
:100520000000000000000011100F0000000000009B
:1005300000000000000000000000000000000000BB
:1005400000494E46494E4954594E414ECDCCCC3DC2
:100550000AD7233C17B7D13877CC2B329595E624B0
:100560001FB14F0A000020410000C84200401C4655
:1005700020BCBE4CCA1B0E5AAEC59D74120BF9535B
:100580009757BD730D0B11241FBECFEFD1E2DEBF15
:10059000CDBF00E00CBF1EE0A0E0B2E0EAE6FFEF56
:1005A00000E00BBF02C007900D92AE39B107D9F73A
:1005B0001BBE17E1AEE9BEE001C01D92A534B10734
:1005C000E1F715E0C4E8D5E004C02297FE010E94DF
:1005D000637FCC37D107C9F70E94F3740C94A97FCD
:1005E0000FCDA0E0B0E0E7EFF2E00C947A7FEC01F1
:1005F000A880B980CA80DB80A114B104C104D104F1
:1006000041F484E2A82E89EDB82E8BE5C82E87E050
:10061000D82EC601B5012DE133EF41E050E00E9434
:10062000327F27EA31E440E050E00E94D27E7B0135
:100630008C01C601B5012DE133EF41E050E00E948D
:10064000327FCA01B9012CEE34EF4FEF5FEF0E9409
:10065000D27E6E0D7F1D801F911F97FF04C06150D9
:10066000704080409048688379838A839B839B0194
:10067000AC015F77B901CA01CDB7DEB7EAE00C94EF
:10068000967FAFCF85EE9DE0ACCF6093E50D709384
:10069000E60D8093E70D9093E80D08956627772780
:1006A000C8C0FC0188279927E89421912032E9F3FA
:1006B000293010F02E30C8F32B3239F02D3231F4BE
:1006C000689403C0AED0820F911D219120532A302F
:1006D000C8F31EF4909581959F4F08951F93FC01D8
:1006E00099278827BC01E89411911032E9F3193059
:1006F00010F01E30C8F31B3249F01D3241F46894EB
:1007000005C07AD0610F711D811D911D119110538B
:100710001A30B8F33EF490958095709561957F4FAF
:100720008F4F9F4F1F910895FB01DC0104C08D91F5
:100730000190801921F441505040C8F7881B990B53
:100740000895FB01DC0102C001900D924150504020
:10075000D8F70895FC018191861721F08823D9F7F5
:10076000992708953197CF010895FB01DC018D9100
:10077000019080190110D9F3990B0895FB01DC0158
:1007800001900D920020E1F70895FB01DC0141503A
:10079000504030F08D910190801919F40020B9F784
:1007A000881B990B0895FB01DC014150504048F033
:1007B00001900D920020C9F701C01D924150504098
:1007C000E0F70895FB0151915523A9F0BF01DC0129
:1007D0004D9145174111E1F759F4CD0101900020E9
:1007E00049F04D9140154111C9F3FB014111EFCF83
:1007F00081E090E001970895592F482F372F262F39
:10080000660F771F881F991F660F771F881F991F14
:10081000620F731F841F951F660F771F881F991F14
:1008200008957AE0979F902D879F802D910D112438
:100830000895A0E0B0E0EFE1F4E00C94787FEC01E3
:100840005B016115710519F0FB0191838083F990BB
:100850008F2D90E00E94677F892BC9F7FDE2FF167C
:1008600021F4F990EE24E39405C02BE2F21609F48A
:10087000F990EE248E0101501040C80161E475E04A
:1008800043E050E033D1892BF9F48E010E5F1F4F06
:10089000C80164E475E045E050E028D1892B19F4E3
:1008A0008E01095F1F4FA114B10419F0F5011183E6
:1008B0000083E0FC04C070E090E080E813C070E0CA
:1008C00090E080E86FEF07C1C80169E475E043E09C
:1008D00050E00CD1892B69F4A114B10429F470E023
:1008E00090E080EC6FE7F7C02296F501D183C083DA
:1008F000F6CF8824992440E050E060E070E0EF2DCE
:10090000E053EA30A0F5F2E0EF2A8E2D90E09C0152
:1009100028703070E2FE06C0232B79F50894811C04
:10092000911C2BC0232B19F0089481089108DB013E
:10093000CA0112E0880F991FAA1FBB1F1A95D1F791
:10094000480F591F6A1F7B1F440F551F661F771FD3
:100950004E0F511D611D711D483929E9520729E9C2
:10096000620729E1720748F084E0E82A06C0EE3FFA
:1009700031F4E3FC39C098E0E92AF990C0CFE533BF
:1009800011F0E53189F529912D3219F4E0E1EE2AD3
:1009900005C02B3219F081E090E003C0299182E07C
:1009A00090E0E22FE053EA3018F0C81BD90B1CC0CE
:1009B00020E030E0FCE020383F075CF4C901880FFC
:1009C000991F880F991F280F391F220F331F2E0FD1
:1009D000311DE991E053EA3068F3E4FE03C030953D
:1009E00021953F4F820E931ECE2CDD24E1FE07C0E1
:1009F000A114B10421F02197F501D183C083CB016B
:100A0000BA010E94D27C7B018C01F3E0CF22DD246D
:100A100023E0C216D10421F417FB109517F91095A5
:100A200057016801C801B70120E030E040E050E024
:100A30000E94327C882309F44AC097FE0DC020E64C
:100A4000E22E25E0F22E9094819491089394C0E2D6
:100A5000D0E000E010E012C098E7E92E95E0F92E12
:100A6000F6CFF7012591359145915491C601B50115
:100A70000E94CA7D5B016C018C1A9D0A8C169D0632
:100A800084F7D595C7950F5F1F4F0630110529F0E4
:100A90008CEF9FEFE80EF91EF1CFC501D6017C0166
:100AA0008D018C2D880F8D2D881F8F3F51F0C60131
:100AB000B50120E030E040E050E00E94327C882325
:100AC00031F482E290E090934417809343177E2D97
:100AD0009F2D802F612F272F392F482F562FB90197
:100AE000CA01CDB7DEB7ECE00C94947FFB01DC01CA
:100AF0004150504088F08D9181341CF08B350CF4BE
:100B0000805E659161341CF06B350CF4605E861B71
:100B1000611171F3990B0895881BFCCFAF92BF92BE
:100B2000CF92DF92EF92FF920F931F936E157F0586
:100B30008007910734F42E153F054007510764F4F0
:100B40002CC0E616F7060807190794F4A216B30698
:100B5000C406D5063CF423C0A216B306C406D506C7
:100B6000BCF41FC02A153B054C055D05C4F41BC031
:100B70006E157F058007910791F42A153B054C05FA
:100B80005D058CF0A216B306C406D50644F409C070
:100B90002A153B054C055D0511F484E005C082E093
:100BA00003C083E001C081E01F910F91FF90EF909F
:100BB000DF90CF90BF90AF900895EF92FF920F9388
:100BC0001F937B018C01662757FD6095762FCB0123
:100BD000BA010E94D47C2091AA0E3091AB0E4091B4
:100BE000AC0E5091AD0E0E94CA7DA80197010E94E3
:100BF000397C7B018C0120E030E040E050E40E9431
:100C0000C67D87FF03C061E070E004C0C801B70182
:100C10000E94A17CCB011F910F91FF90EF9008954E
:100C20006F927F928F929F92AF92BF92CF92DF92FC
:100C3000EF92FF920F931F93CF93DF937C015B01A1
:100C4000662757FD6095762FCB01BA010E94D47CB0
:100C50003B014C010027F7FC0095102FC801B7019C
:100C60000E94D47C7B018C01CC24B7FCC094DC2C8A
:100C7000C601B5010E94D47C9B01AC01C801B7013B
:100C80000E94397CA40193010E94CA7D9B01AC01A2
:100C9000C401B3010E94CD7B7B018C010E94A17C29
:100CA000EB01BE01882777FD8095982F0E94D47CA8
:100CB0009B01AC01C801B7010E94CD7B20E030E070
:100CC00040E05FE30E94C67D18160CF42196CE0129
:100CD000DF91CF911F910F91FF90EF90DF90CF9018
:100CE000BF90AF909F908F907F906F900895CF921C
:100CF000DF92EF92FF920F931F93CF93DF93EC015C
:100D00006B01688179818A819B812091270E3091C6
:100D1000280E4091290E50912A0E0E94CA7D6883A8
:100D200079838A839B83F6016081718182819381BB
:100D300020912B0E30912C0E40912D0E50912E0EA5
:100D40000E94CA7D7B018C01F601608371838283DE
:100D5000938320919B1130919C11C9018E978A3504
:100D6000910580F4288139814A815B81D801C701CE
:100D7000B05888839983AA83BB83208331834283BD
:100D8000538329C0C901885890408A35910580F461
:100D900088819981AA81BB81B05888839983AA836D
:100DA000BB83F60180819181A281B381B0580FC0CD
:100DB000225E30402A35310570F488819981AA81FC
:100DC000BB81E882F9820A831B83B058F6018083D5
:100DD0009183A283B383688179818A819B812091E9
:100DE0009D1130919E1140919F115091A0110E9430
:100DF000CE7B688379838A839B83F60160817181CE
:100E0000828193812091A1113091A2114091A3116F
:100E10005091A4110E94CE7BF6016083718382837E
:100E20009383DF91CF911F910F91FF90EF90DF900F
:100E3000CF9008952F923F924F925F926F927F9240
:100E40008F929F92AF92BF92CF92DF92EF92FF92DA
:100E50000F931F933B014C0159016A016091B20E3F
:100E60007091B30E8091B40E9091B50E0E94D47C17
:100E70007B018C01A80197010E94CA7D1B012C01F6
:100E8000C601B501A60195010E94CA7D5B016C01F6
:100E9000C401B301A40193010E94CA7D9B01AC016E
:100EA000C601B5010E94CE7B9B01AC01C201B1011C
:100EB0000E94CD7B5B016C01C801B701A8019701BD
:100EC0000E94CE7B9B01AC01C601B5010E94397C1A
:100ED0001F910F91FF90EF90DF90CF90BF90AF9058
:100EE0009F908F907F906F905F904F903F902F904A
:100EF00008950F931F93CF93DF93242F2627A22FBC
:100F0000B0E0AF70B070AA0FBB1FAA0FBB1FC2E04A
:100F1000D1E0AC0FBD1FFD010591159125913491D4
:100F2000E4E09695879577956795EA95D1F706273A
:100F300017272827392742954F70402750E04F70D8
:100F40005070440F551F440F551F4C0F5D1FFA0181
:100F500085919591A591B49144E036952795179583
:100F600007954A95D1F7082719272A273B27B80163
:100F7000C901DF91CF911F910F910895EF92FF92D8
:100F80000F931F938130910509F03BC26F5F7F4F34
:100F900009F03EC385E090E160E072E00E941C7BB6
:100FA0008FE99EE00E94CE5083EA9EE065E072E009
:100FB0000E941C7B8CE090E166E072E00E941C7B4A
:100FC0006091EF0D7091F00D882777FD8095982F37
:100FD0002091E90D3091EA0D442737FD4095542FBB
:100FE0000E94D27E0E94D47C7B018C016091EB0D2B
:100FF0007091EC0D8091ED0D9091EE0DA80197018F
:101000000E94397C6093AA0E7093AB0E8093AC0E55
:101010009093AD0EC801B7012091EB0D3091EC0D0E
:101020004091ED0D5091EE0D0E94397C7B018C01B9
:101030006093AE0E7093AF0E8093B00E9093B10E8E
:101040006091230E7091240E882777FD8095982F4C
:101050000E94D47CA80197010E94CA7D0E94A17CB5
:101060006093B20E7093B30E8093B40E9093B50E4E
:101070006091250E7091260E882777FD8095982F18
:101080000E94D47CA80197010E94CA7D0E94A17C85
:101090006093B60E7093B70E8093B80E9093B90E0E
:1010A00083E190E16FE072E00E941C7B8AE190E1B5
:1010B00061E172E00E941C7B81E290E165E172E0F7
:1010C0000E941C7B88E290E16DE172E00E941C7B33
:1010D0008FE290E160E572E00E941C7B86E390E184
:1010E00060E572E00E941C7B8DE390E160E572E0B8
:1010F0000E941C7B84E490E160E572E00E941C7B0E
:101100008BE490E16FE572E00E941C7B82E590E148
:1011100069E672E00E941C7B89E590E160E772E07D
:101120000E941C7B80E690E168E772E00E941C7BD5
:1011300087E690E163E872E00E941C7B8EE690E116
:101140006BE470E10E94B17B8AEC9EE065E072E0A6
:101150000E941C7B85E790E169E872E00E941C7B9D
:101160008CE790E16BE872E00E941C7B83E890E1E1
:1011700060E972E00E941C7B8AE890E164E972E019
:101180000E941C7B81E990E168E972E00E941C7B6F
:1011900088E990E16CE972E00E941C7B8FE990E1A4
:1011A00060EA72E00E941C7B86EA90E164EA72E0E9
:1011B0000E941C7B8DEA90E168EA72E00E941C7B31
:1011C00084EB90E16CEA72E00E941C7B8BEB90E177
:1011D00060EB72E00E941C7B82EC90E164EB72E0B9
:1011E0000E941C7B89EC90E168EB72E00E941C7B02
:1011F00080ED90E16CEB72E00E941C7B87ED90E14A
:1012000060EC72E00E941C7B8EED90E164EC72E079
:101210000E941C7B85EE90E168EC72E00E941C7BD2
:101220008CEE90E16CEC72E00E941C7B83EF90E10D
:1012300060ED72E00E941C7B8AEF90E164ED72E049
:101240000E941C7B81E091E168ED72E00E941C7BB2
:1012500088E091E16CED72E00E941C7B8FE091E1EF
:1012600060EE72E00E941C7B86E191E164EE72E028
:101270000E941C7B8DE191E168EE72E00E941C7B74
:1012800084E291E16CEE72E00E941C7B8BE291E1C2
:1012900060EF72E00E941C7B82E391E164EF72E0F8
:1012A0000E941C7B89E391E168EF72E00E941C7B45
:1012B00080E491E16CEF72E00E941C7B87E491E195
:1012C00060E073E00E941C7B8EE491E164E073E0D7
:1012D0000E941C7B85E591E168E073E00E941C7B25
:1012E0008CE591E16CE073E00E941C7B83E691E168
:1012F00060E173E00E941C7B8AE691E164E173E0A7
:101300000E941C7B81E791E168E173E00E941C7BF5
:1013100088E791E16CE173E00E941C7B8FE791E12B
:1013200060E273E00E941C7B86E891E164E273E076
:101330000E941C7B8DE891E168E273E00E941C7BB7
:1013400084E991E16CE273E00E941C7B83ED9EE0F6
:1013500065E072E00E941C7B8CED9EE065E072E02F
:101360000E941C7B1092E80E1092E90E1092EC0E77
:101370001092EE0E82E090E0A0E0B0E08093EF0EDD
:101380009093F00EA093F10EB093F20E1092060F10
:101390001092100F10920F0F89E89EE090930E0F9D
:1013A00080930D0F1092120F8AE29FE00E94015667
:1013B00085E49FE065E072E00E941C7B6091E90D8E
:1013C0007091EA0D85E69FE041E00E94985560919A
:1013D000E90D7091EA0D81E79FE042E00E94985587
:1013E0008DE79FE06CEC75E346EC55E30E94194CE9
:1013F00081EC9FE060EC75E34AEB55E30E94194CE9
:1014000007C1892B09F004C16F5F7F4F09F000C14C
:1014100085E49FE00E94C37B8AE29FE00E9414560D
:101420008CED9EE00E94C37B83ED9EE00E94C37B17
:1014300084E991E10E94C37B8DE891E10E94C37B26
:1014400086E891E10E94C37B8FE791E10E94C37B14
:1014500088E791E10E94C37B81E791E10E94C37B11
:101460008AE691E10E94C37B83E691E10E94C37BFF
:101470008CE591E10E94C37B85E591E10E94C37BED
:101480008EE491E10E94C37B87E491E10E94C37BDB
:1014900080E491E10E94C37B89E391E10E94C37BD8
:1014A00082E391E10E94C37B8BE291E10E94C37BC6
:1014B00084E291E10E94C37B8DE191E10E94C37BB4
:1014C00086E191E10E94C37B8FE091E10E94C37BA2
:1014D00088E091E10E94C37B81E091E10E94C37B9F
:1014E0008AEF90E10E94C37B83EF90E10E94C37B6F
:1014F0008CEE90E10E94C37B85EE90E10E94C37B5D
:101500008EED90E10E94C37B87ED90E10E94C37B4A
:1015100080ED90E10E94C37B89EC90E10E94C37B47
:1015200082EC90E10E94C37B8BEB90E10E94C37B35
:1015300084EB90E10E94C37B8DEA90E10E94C37B23
:1015400086EA90E10E94C37B8FE990E10E94C37B11
:1015500088E990E10E94C37B81E990E10E94C37B0E
:101560008AE890E10E94C37B83E890E10E94C37BFC
:101570008CE790E10E94C37B85E790E10E94C37BEA
:101580008AEC9EE00E94C37B8EE690E10E94C37BC2
:1015900087E690E10E94C37B80E690E10E94C37BD6
:1015A00089E590E10E94C37B82E590E10E94C37BC4
:1015B0008BE490E10E94C37B84E490E10E94C37BB2
:1015C0008DE390E10E94C37B86E390E10E94C37BA0
:1015D0008FE290E10E94C37B88E290E10E94C37B8E
:1015E00081E290E10E94C37B8AE190E10E94C37B8B
:1015F00083E190E10E94C37B8CE090E10E94C37B79
:1016000083EA9EE00E94C37B85E090E10E94C37B59
:101610001F910F91FF90EF90089580E090E06FEFA1
:101620007FEFACCC81E090E06FEF7FEFA7CCCF9263
:10163000DF92EF92FF920F931F93CF93DF936C0192
:10164000EE24EA94FE2C8701C0E0D0E00BC0C60176
:10165000BE010E949078482FC801B7014ADC7B0187
:101660008C012196F60184819581C817D90778F3FA
:10167000A80197012095309540955095B901CA0170
:10168000DF91CF911F910F91FF90EF90DF90CF905E
:1016900008950F931F9384E090E00E94306C8C01BA
:1016A0000E94B76C2DB73EB7201B310BC9011F91AB
:1016B0000F910895EEDF9C018091BE0E9091BF0EB8
:1016C00028173907D1F03093BF0E2093BE0E88EB58
:1016D00096E161E270E10E94C7776091BE0E709161
:1016E000BF0E88EB96E14AE050E00E94A17688EBBD
:1016F00096E16CE770E10C94F977089588EB96E138
:1017000062E570E10C94F97788EB96E16BE470E1A7
:101710000C94F977AF92BF92CF92DF92EF92FF9243
:101720000F931F937B018C01CA01B9010E94CA7DEE
:101730005B016C01C801B701A80197010E94CA7D35
:101740009B01AC01C601B5010E94CD7B0E94377E92
:101750001F910F91FF90EF90DF90CF90BF90AF90CF
:1017600008956F927F928F929F92AF92BF92CF9285
:10177000DF92EF92FF920F931F937B018C015ADB54
:101780005B016C01A8019701C5DF3B014C01E090B2
:10179000030EF090040E0091050E1091060EC80184
:1017A000B7010E94D47C9B01AC01C601B5010E9427
:1017B000327C87FD4AC080910B0E90910C0EA09157
:1017C0000D0EB0910E0EE80EF91E0A1F1B1FC80168
:1017D000B7010E94D47C9B01AC01C601B5010E94F7
:1017E000C67D181694F1E090070EF090080E009157
:1017F000090E10910A0EC801B7010E94D47C9B010A
:10180000AC01C401B3010E94327C87FD1EC0DD24FF
:1018100080910F0E9091100EA091110EB091120EAA
:10182000E80EF91E0A1F1B1FC801B7010E94D47CD5
:101830009B01AC01C401B3010E94C67D181614F4CB
:10184000DD24D39481E0D82601C0DD248D2D1F91A5
:101850000F91FF90EF90DF90CF90BF90AF909F904F
:101860008F907F906F900895AF92BF92CF92DF924A
:10187000EF92FF920F931F937B018C0159016A0134
:101880006091B20E7091B30E8091B40E9091B50E2E
:101890000E94D47CA80197010E94CD7B9B01AC01E2
:1018A0000E94CA7D7B018C01C601B501A60195018C
:1018B0000E94CA7D9B01AC01C801B7010E94CE7B8A
:1018C0000E94377E1F910F91FF90EF90DF90CF9095
:1018D000BF90AF900895AF92BF92CF92DF92EF92F8
:1018E000FF920F931F937B018C0159016A01A8019C
:1018F00097010E94CA7D7B018C01C601B501A6013A
:1019000095010E94CA7D9B01AC01C801B7010E94EC
:10191000CE7B0E94377E1F910F91FF90EF90DF905A
:10192000CF90BF90AF9008952F923F924F925F92C9
:101930006F927F928F929F92AF92BF92CF92DF92DF
:10194000EF92FF920F931F93DF93CF9300D00F92EC
:10195000CDB7DEB769837A838B839C8359016A0193
:1019600017012801611571058105910559F40F2EA4
:10197000F0E0EF2EF0E0FF2EF0E00F2FF0E01F2F51
:10198000F02DA4C0CA01B9010E94CA7D7B018C015F
:10199000C601B50120E030E040E050E00E94327C1A
:1019A000882324F417FB109517F91095C201B10193
:1019B000A20191010E94CE7B3B014C01C801B701FD
:1019C000A40193010E94397C7B018C0169817A8199
:1019D0008B819C810E94D47C9B01AC01C801B70122
:1019E0000E94327C8823B4F5C601B50120E030E0C6
:1019F00040E050E00E94327C882329F4C401B30106
:101A00000E94377E0DC0C201B101A60195010E945E
:101A1000397C9B01AC015F77C601B5010E94CE7B8A
:101A20007B018C01D090F10DC090F20DB090F30DC0
:101A3000A090F40D2D2D3C2D4B2D5A2D0E94C67DCE
:101A400018160CF043C08D2D9C2DAB2DBA2D7C01AA
:101A50008D013CC0C601B50120E030E040E050E01F
:101A60000E94327C882359F4C401B3010E94377E5E
:101A70007B018C0117FB109517F910950FC0C2015F
:101A8000B101A60195010E94397C9B01AC015F77F1
:101A9000C601B5010E94CD7B7B018C018091F10DC7
:101AA0009091F20DA091F30DB091F40D5C016D01D8
:101AB000D7FAD094D7F8D094C801B701A601950100
:101AC0000E94327C882314F486017501B701C80195
:101AD0000F900F900F900F90CF91DF911F910F916A
:101AE000FF90EF90DF90CF90BF90AF909F908F903E
:101AF0007F906F905F904F903F902F900895EF925E
:101B0000FF920F931F938091FA0D882309F456C01A
:101B100088EB96E167E670E10E94C7778DE79FE06A
:101B20000E94764A0E94D47C7B018C016091EF0D6B
:101B30007091F00D882777FD8095982F0E94D47CB6
:101B40009B01AC01C801B7010E94397C0E94A17CB5
:101B5000AB01BC0188EB96E12AE030E00E945176AF
:101B600088EB96E165E770E10E94C77781EC9FE022
:101B70000E94764A0E94D47C7B018C016091EF0D1B
:101B80007091F00D882777FD8095982F0E94D47C66
:101B90009B01AC01C801B7010E94397C0E94A17C65
:101BA000AB01BC0188EB96E12AE030E00E9451765F
:101BB00088EB96E16CE770E10E94F9771F910F9135
:101BC000FF90EF900895EF92FF920F931F938091F3
:101BD000BA0E9091BB0EA091BC0EB091BD0E0097B5
:101BE000A105B10509F03FC06091B20E7091B30E2E
:101BF0008091B40E9091B50E0E94D47C7B018C0133
:101C00006091B60E7091B70E8091B80E9091B90E9A
:101C10000E94D47C9B01AC01C801B7015CDE20E0CE
:101C200030E040E05FE30E94CE7B0E94A17C6093A5
:101C3000BA0E7093BB0E8093BC0E9093BD0E88EBD2
:101C400096E160E373E00E94D0764091BA0E509125
:101C5000BB0E6091BC0E7091BD0E88EB96E12AE040
:101C600030E00E948F766091BA0E7091BB0E809129
:101C7000BC0E9091BD0E1F910F91FF90EF900895B3
:101C8000CF92DF92EF92FF920F931F937B018C0113
:101C9000B8EBCB2EB6E1DB2EC60167E473E00E9401
:101CA000D076C601B801A70122E030E00E94A577F6
:101CB000C6016DE573E00E94D0766091EF0D7091E2
:101CC000F00DC6014AE050E00E94A176C6016FE621
:101CD00073E00E94D0766091EF0D7091F00D88272F
:101CE00077FD8095982F0E94D47CAB01BC01C60182
:101CF00022E030E00E94A5776091EF0D7091F00D29
:101D0000882777FD8095982F0E94D47C9B01AC0199
:101D1000C801B7010E94CA7D7B018C01C60166E73C
:101D200073E00E94D076C601A701B80122E030E03E
:101D30000E94A577B701C8011F910F91FF90EF9006
:101D4000DF90CF90089588EB96E16CE773E00C94F8
:101D5000B67788EB96E16AE971E00E94757510929A
:101D6000DB0E08958F929F92AF92BF92CF92DF9237
:101D7000EF92FF920F931F936C017B0188EB96E12A
:101D800063E973E00E94D07688EB96E1B6014AE001
:101D900050E00E94A17688EB96E16CE973E00E9426
:101DA000D07688EB96E1B7014AE050E00E94B37626
:101DB00088EB96E161EA73E00E94D0766091560F5D
:101DC0007091570F88EB96E14AE050E00E94B3769D
:101DD00088EB96E161EB73E00E94D07640914C0F66
:101DE00050914D0F60914E0F70914F0F88EB96E11F
:101DF0002AE030E00E948F764601AA2497FCA09446
:101E0000BA2C8091560F9091570FAA2797FDA09555
:101E1000BA2F880E991EAA1EBB1E0027F7FC00953C
:101E2000102F20914C0F30914D0F40914E0F50913B
:101E30004F0FC801B7010E94D27E860E971EA81EC2
:101E4000B91E88EB96E16BEB73E00E94D07688EBCD
:101E500096E1B501A4012AE030E00E94517680911C
:101E6000580F9091590FA0915A0FB0915B0F8815A0
:101E70009905AA05BB0514F41FEF18C08AE29FE07C
:101E8000B501A4010E949B568AE29FE00E94AB56D6
:101E9000182F88EB96E164EC73E00E94D07688EB13
:101EA00096E1612F4AE050E00E943576812F1F9124
:101EB0000F91FF90EF90DF90CF90BF90AF909F90E9
:101EC0008F9008956F927F928F929F92AF92BF9260
:101ED000CF92DF92EF92FF920F931F93DF93CF93F6
:101EE000CDB7DEB7A3970FB6F894DEBF0FBECDBF58
:101EF0006DB67EB68AE29FE040E050E060E070E0C0
:101F00000E949B567E010894E11CF11CC70163ED01
:101F100073E00E941C7B8AE29FE00E94AB56182F60
:101F2000C70160E070E00E94A178FC0110838AE2A2
:101F30009FE00E94AB56182FC70161E070E00E943D
:101F4000A178FC011083C70166ED73E00E94C97996
:101F5000882399F488EB96E169ED73E00E94D076CE
:101F600088EB96E1B7010E94C77788EB96E167EFAF
:101F700073E00E94B67710E083C188EB96E162E1DE
:101F800074E00E94B6778AE29FE00E94AB568E0111
:101F9000085F1F4FC80165E072E00E941C7B8AE267
:101FA0009FE00E94AB56E82E4FE0C42ED12CCC0E01
:101FB000DD1EF02E012F21C083E2E81641F48AE2F3
:101FC0009FE00E94AB56E82E9AE0E916C1F7C601E1
:101FD0006F2D702F0E94BA7BC6016E2D0E94EE7A83
:101FE000BC018F2D902F0E949C7BC6010E94C87B54
:101FF0008AE29FE00E94AB56E82E8AE0E81619F0CC
:1020000090E2E916C9F688EB96E168E374E00E9475
:10201000D07638E0E32EF12CEC0EFD1E88EB96E135
:10202000B7010E94F9774C855D854F5F5F4F8DB793
:102030009EB7841B950B0FB6F8949EBF0FBE8DBF45
:102040000DB71EB70F5F1F4F902E812EB02EA12E01
:10205000C701B80120E030E00E947A79C8010E94EF
:102060005103AA2797FDA095BA2F80934C0F909308
:102070004D0FA0934E0FB0934F0F0A97A105B105D6
:1020800044F488EB96E162E471E00E94757510E01B
:10209000F3C0C70165E072E00E94357B8AE29FE0F1
:1020A0000E94AB56182F26E1C22ED12CCC0EDD1E7D
:1020B000C701FE2C092F1FC0133239F48AE29FE0BA
:1020C0000E94AB56182F8A30C9F7C6016F2D702FAA
:1020D0000E94BA7BC601612F0E94EE7ABC018F2D4F
:1020E000902F0E949C7BC6010E94C87B8AE29FE0E1
:1020F0000E94AB56182F1A30F9F688EB96E163E48C
:1021000074E00E94D07698E0C92ED12CCC0EDD1E52
:1021100088EB96E1B6010E94F9774C855D854F5FAB
:102120005F4FC6016B2D7A2D20E030E00E947A7956
:10213000892D982D0E945103AA2797FDA095BA2FAB
:102140008093500F9093510FA093520FB093530F61
:10215000BC01CD010E94D47C7B018C0160914C0FAD
:1021600070914D0F80914E0F90914F0F0E94D47C33
:102170009B01AC01C801B7010E94397C60931B0E22
:1021800070931C0E80931D0E90931E0E88EB96E1AB
:102190006FE474E00E94D07640911B0E50911C0EAB
:1021A00060911D0E70911E0E88EB96E122E030E0EA
:1021B0000E94A577C60165E072E00E94357B8AE245
:1021C0009FE00E94AB56182F0D2D8DE1E82EF12CCB
:1021D000EC0EFD1E16C0C7016C2D702F0E94BA7B3D
:1021E000C701612F0E94EE7ABC018C2D902F0E94B6
:1021F0009C7BC7010E94C87B8AE29FE00E94AB568D
:10220000182F1A3041F788EB96E161E674E00E94DE
:10221000D07688EB96E16C2D702F0E94F9774C8573
:102220005D854F5F5F4F8C2D902F6B2D7A2D20E0B9
:1022300030E00E947A79892D982D0E945103909365
:10224000550F8093540F8AE29FE00E945656709378
:10225000570F6093560F88EB96E165E774E00E9494
:10226000D0766091560F7091570F88EB96E14AE057
:1022700050E00E94B37611E0CE0108960E94C37B25
:10228000CE0101960E94C37B812F0FB6F8947EBECB
:102290000FBE6DBEA3960FB6F894DEBF0FBECDBFC6
:1022A000CF91DF911F910F91FF90EF90DF90CF9032
:1022B000BF90AF909F908F907F906F900895EF9216
:1022C000FF920F931F93DF93CF93CDB7DEB7FC013F
:1022D000EDB6FEB6448155814F5F5F4F8DB79EB717
:1022E000841B950B0FB6F8949EBF0FBE8DBF0DB724
:1022F0001EB70F5F1F4FCF01B80120E030E00E94F2
:102300007A79C8010E9451030FB6F894FEBE0FBE41
:10231000EDBECF91DF911F910F91FF90EF90089547
:10232000EF92FF920F931F93DF93CF93CDB7DEB75A
:102330002E970FB6F894DEBF0FBECDBF8E010F5F94
:102340001F4FC8016FE270E10E94B17BC801B7DF87
:102350007C01C8010E94C37BE114F10419F41092BE
:102360005E0F2EC081E0E816F10451F581E0809304
:102370005E0F8091C00E9091C10E03970CF18E01FB
:10238000085F1F4FC80166E370E10E94B17BC8017E
:1023900096DF7C01C8010E94C37B81E0E816F1044E
:1023A00029F4F0925D0FE0925C0F0AC088EB96E191
:1023B00063E874E00E94B67710925D0F10925C0F94
:1023C0002E960FB6F894DEBF0FBECDBFCF91DF9132
:1023D0001F910F91FF90EF900895EF92FF920F934E
:1023E0001F93DF93CF93CDB7DEB727970FB6F8943F
:1023F000DEBF0FBECDBF8E010F5F1F4FC8016FE262
:1024000070E10E94B17BC8015ADF7C01C8010E94C3
:10241000C37BEF2819F41092D20E0EC08091DA0E11
:10242000882321F081E08093D20E06C088EB96E1EC
:1024300063E874E00E94B67727960FB6F894DEBF83
:102440000FBECDBFCF91DF911F910F91FF90EF9005
:1024500008950F931F93DF93CF93CDB7DEB72E97D9
:102460000FB6F894DEBF0FBECDBF8E010F5F1F4FBA
:10247000C8016FE270E10E94B17BC80120DF909338
:10248000320E8093310EC8010E94C37B8E01085F1B
:102490001F4FC80166E370E10E94B17BC8010FDFE6
:1024A0009093300E80932F0EC8010E94C37B2E960E
:1024B0000FB6F894DEBF0FBECDBFCF91DF911F9155
:1024C0000F910895EF92FF920F931F93DF93CF9395
:1024D000CDB7DEB76B970FB6F894DEBF0FBECDBF9A
:1024E000FC01EDB6FEB6448155814F5F5F4F8DB75D
:1024F0009EB7841B950B0FB6F8949EBF0FBE8DBF81
:102500000DB71EB70F5F1F4FCF01B80120E030E0BD
:102510000E947A79CE0101966DE372E1A80121E073
:102520000E94A4598B819C8190932D0F80932C0F36
:102530008D819E81AF81B88580932E0F90932F0F50
:10254000A093300FB093310F89859A85AB85BC85F8
:102550008093320F9093330FA093340FB093350FC5
:10256000A6E3BFE0FE013D968DE001900D92815003
:10257000E1F78A8D9B8D9093440F8093430FCE019A
:1025800001960E9414568AE29FE00E947C5688239E
:1025900029F488EB96E167EA74E007C093DC8823AE
:1025A00041F488EB96E168EB74E00E94B67780E036
:1025B0000DC08AE29FE00E9469566093580F7093A5
:1025C000590F80935A0F90935B0F81E00FB6F894E8
:1025D000FEBE0FBEEDBE6B960FB6F894DEBF0FBE0B
:1025E000CDBFCF91DF911F910F91FF90EF90089594
:1025F000EF92FF920F931F93DF93CF93CDB7DEB788
:1026000027970FB6F894DEBF0FBECDBF8091C00EE6
:102610009091C10E029709F0C2C085E49FE06FE27D
:1026200070E10E949C7B8E010F5F1F4FC80165E423
:102630007FE00E94B17BC80145DFF82EC8010E94EF
:10264000C37BFF2069F488EB96E160EC74E00E94A4
:10265000D07688EB96E165E47FE00E94F977A5C02B
:1026600088EB96E16BED74E00E94D07640914C0FC0
:1026700050914D0F60914E0F70914F0F88EB96E186
:102680002AE030E00E94517688EB96E167EE74E034
:102690000E94D0764091500F5091510F6091520F8F
:1026A0007091530F88EB96E12AE030E00E948F761C
:1026B00088EB96E16AEE74E00E94D07640910B0EB2
:1026C00050910C0E60910D0E70910E0E88EB96E1FC
:1026D0002AE030E00E94517688EB96E166EF74E0E4
:1026E0000E94B67760910B0E70910C0E80910D0ECA
:1026F00090910E0E0E94D47C7B018C0160914C0F56
:1027000070914D0F80914E0F90914F0F0E94D47C8D
:102710009B01AC01C801B7010E94397C6093170E80
:102720007093180E8093190E90931A0E88EB96E111
:1027300068EF74E00E94D0764091170E5091180E09
:102740006091190E70911A0E88EB96E122E030E04C
:102750000E94A57788EB96E168E075E00E94D0764C
:1027600040910B0E50910C0E60910D0E70910E0E5B
:1027700088EB96E12AE030E00E948F7688EB96E1C4
:1027800065E774E00E94D0766091560F7091570F04
:1027900088EB96E14AE050E00E94B37606C088EBF1
:1027A00096E164E175E00E94B67727960FB6F8943B
:1027B000DEBF0FBECDBFCF91DF911F910F91FF9074
:1027C000EF900895AF92BF92CF92DF92EF92FF9277
:1027D0000F931F93DF93CF93CDB7DEB76B970FB6F1
:1027E000F894DEBF0FBECDBF6C01ADB6BEB6409152
:1027F000E00E5091E10E4F5F5F4F8DB79EB7841B87
:10280000950B0FB6F8949EBF0FBE8DBF0DB71EB7C8
:102810000F5F1F4F8CED9EE0B80120E030E00E947A
:102820007A797E010894E11CF11CC7016DE372E125
:10283000A80123E10E94A459C7010E947C56882365
:10284000D1F088EB96E16BE275E00E94D07688EBE0
:1028500096E16CED7EE00E94F977C701B6010E9417
:10286000F977C7010E94895688EB96E16CE375E021
:102870000E94B6770CC088EB96E162E475E00E9496
:10288000D07688EB96E16CED7EE00E94F977CE0180
:1028900001960E9414560FB6F894BEBE0FBEADBE90
:1028A0006B960FB6F894DEBF0FBECDBFCF91DF9110
:1028B0001F910F91FF90EF90DF90CF90BF90AF905E
:1028C0000895EF92FF920F931F9385E361E00E94BA
:1028D000666F8DE392E165E30E94C45A882329F470
:1028E00088EB96E161E575E06AC088EB96E16DE6FC
:1028F00075E00E94B67788EB96E16FE775E00E947D
:10290000B67783EE9EE061E045E30E941A5D88237E
:10291000B9F488EB96E167E975E00E94B67788EB39
:1029200096E16FEB75E00E94B67788EB96E168ED73
:1029300075E00E94B67788EB96E162EF75E03FC0E4
:1029400088EB96E166E376E00E94B67788EB96E145
:102950006FE576E00E94D0768091EE0E823049F0ED
:10296000833061F0813079F488EB96E16CE676E0B3
:102970000EC088EB96E160E776E009C088EB96E14F
:1029800064E776E004C088EB96E169E776E00E94B0
:10299000B6778FEE9EE063EE7EE041E00E94106825
:1029A000882381F48FEE9EE063EE7EE040E00E949B
:1029B0001068882339F488EB96E161E876E00E949C
:1029C000B67774C088EB96E16BEC76E00E94D07627
:1029D00088EB96E16091060F4AE050E00E94357660
:1029E00088EB96E10E9455752091F30E30E040E0AF
:1029F00050E06091F80E7091F90E8091FA0E90916E
:102A0000FB0EE9E0660F771F881F991FEA95D1F743
:102A10000E94D27E7B018C0188EB96E16FED76E01F
:102A20000E94D07688EB96E1B801A7012AE030E059
:102A30000E94137688EB96E165EF76E00E94D076EF
:102A40006AE016950795F794E7946A95D1F788EBB5
:102A500096E1B801A7012AE030E00E94137688EBE6
:102A600096E16CE077E00E94D0765AE016950795E3
:102A7000F794E7945A95D1F788EB96E1B801A7014E
:102A80002AE030E00E94137688EB96E163E277E07B
:102A90000E94B6778DE09FE06FEE7EE00E94256297
:102AA0008DE09FE067E040E00E941F631F910F915F
:102AB000FF90EF900895AF92BF92CF92DF92EF9286
:102AC000FF920F931F938DE79FE00E94975081EC38
:102AD0009FE00E9497508DE79FE00E94664A611533
:102AE00071058105910509F048C06091030E709150
:102AF000040E8091050E9091060E20910B0E3091E0
:102B00000C0E40910D0E50910E0E260F371F481FD0
:102B1000591F0E9473785B016C016091070E7091E0
:102B2000080E8091090E90910A0E20910F0E30919F
:102B3000100E4091110E5091120E260F371F481F94
:102B4000591F0E9473787B018C01C601B5010E9458
:102B5000D47C5B016C01C801B7010E94D47C9B014D
:102B6000AC01C601B5010E946B0C0E94A17CAB01B7
:102B7000BC018DE79FE00E94FB4B81EC9FE00E942F
:102B8000664A611571058105910509F048C060919B
:102B9000030E7091040E8091050E9091060E209107
:102BA0000B0E30910C0E40910D0E50910E0E260F13
:102BB000371F481F591F0E9473785B016C01609199
:102BC000070E7091080E8091090E90910A0E2091C7
:102BD0000F0E3091100E4091110E5091120E260FD3
:102BE000371F481F591F0E9473787B018C01C60153
:102BF000B5010E94D47C5B016C01C801B7010E9441
:102C0000D47C9B01AC01C601B5010E94340C0E942A
:102C1000A17CAB01BC0181EC9FE00E94FB4B1F91AA
:102C20000F91FF90EF90DF90CF90BF90AF900895FD
:102C3000EF92FF920F931F93CF93DF93C0E0D0E00A
:102C400088EB96E16DE577E00E94D07688EB96E11F
:102C5000BE014AE050E00E94B3768DE79FE00E94FB
:102C6000664A611571058105910509F469C081EC19
:102C70009FE00E94664A611571058105910509F47E
:102C80005FC08DE79FE00E94975081EC9FE00E941B
:102C90009750E3CF6EEF7FEF8FEF9FEF23E030E0B1
:102CA00040E050E00E9473787B018C01A701662709
:102CB00057FD6095762F8DE79FE00E940C4C88EBC6
:102CC00096E166E677E00E94D07688EB96E1B70160
:102CD0004AE050E00E94B37681EC9FE00E94664A91
:102CE000611571058105910511F56EEF7FEF8FEF8D
:102CF0009FEF23E030E040E050E00E9473787B01DA
:102D00008C01A701662757FD6095762F81EC9FE027
:102D10000E940C4C88EB96E16CE777E00E94D0763D
:102D200088EB96E1B7014AE050E00E94B3760E943A
:102D30007F0D219683E0C83ED80709F081CF0AC0F5
:102D40008DE79FE00E94664A611571058105910536
:102D500019F6A0CFDF91CF911F910F91FF90EF90C7
:102D600008958AE892E09093430E8093420E9093E8
:102D7000450E8093440E8FE590E090933F0E809334
:102D80003E0E80E991E09093410E8093400E81E0E9
:102D900090E090933D0E80933C0E93DD64EF71E0E4
:102DA00080E090E00C94A16EAF92BF92CF92DF9240
:102DB000EF92FF920F931F93CF93DF93EC015B0190
:102DC0006A018FE99EE069E070E00E946B52CA15CB
:102DD000DB059CF476010027F7FC0095102F8FE9A6
:102DE0009EE0BE010E945451C801B7010E94A16E2D
:102DF0002196AC16BD069CF712C076010027F7FCA1
:102E00000095102F8FE99EE0BE010E945451C80129
:102E1000B7010E94A16E2197CA15DB059CF78FE9C7
:102E20009EE00E94E850DF91CF911F910F91FF909B
:102E3000EF90DF90CF90BF90AF900895EF92FF9208
:102E40000F931F93DF93CF93CDB7DEB727970FB6BE
:102E5000F894DEBF0FBECDBF8091C00E9091C10E21
:102E60002091A20E029714F1222329F0E090380E4F
:102E7000F090390E04C0E0903A0EF0903B0E8E01B7
:102E80000F5F1F4FC8016FE270E10E94B17BC80164
:102E900016DA90933B0E80933A0EC8010E94C37BD2
:102EA00060913A0E70913B0EC7010AC0213059F46F
:102EB00060913A0E70913B0E8091380E9091390ED0
:102EC00043E050E071DF1092A20E27960FB6F894FF
:102ED000DEBF0FBECDBFCF91DF911F910F91FF904D
:102EE000EF900895EF92FF920F931F93DF93CF938C
:102EF000CDB7DEB727970FB6F894DEBF0FBECDBFB4
:102F00008091C00E9091C10E2091A20E029714F1F3
:102F1000222329F0E090380EF090390E04C0E090A2
:102F20003A0EF0903B0E8E010F5F1F4FC8016FE20B
:102F300070E10E94B17BC801C2D99093390E809391
:102F4000380EC8010E94C37B6091380E7091390E13
:102F5000C7010AC0222359F46091380E7091390ECE
:102F600080913A0E90913B0E43E050E01DDF81E0EE
:102F70008093A20E27960FB6F894DEBF0FBECDBF8A
:102F8000CF91DF911F910F91FF90EF9008952F92B5
:102F90003F924F925F926F927F928F929F92AF92E9
:102FA000BF92CF92DF92EF92FF920F931F93809187
:102FB000DA0E882309F424C18091D20E882309F403
:102FC0001FC180915E0F882309F41AC18AE29FE035
:102FD0000E947C56882309F413C10E946D6E2091D3
:102FE0005F0F3091600F4091610F5091620F621B33
:102FF000730B840B950B20911F0E3091200E409186
:10300000210E5091220E26173707480759070CF05A
:10301000FDC060910B0E70910C0E80910D0E909181
:103020000E0E0E94D47C20911B0E30911C0E4091FC
:103030001D0E50911E0E0E94CA7D0E94A17C6093BD
:103040000F0E7093100E8093110E9093120E8DE759
:103050009FE00E94764A0E94D47C7B018C0181EC27
:103060009FE00E94764A0E94D47C5B016C01B7010C
:10307000C8019501A6010E94B10B882309F4B4C0D0
:10308000B701C8019501A6010E941A071B012C0176
:103090009701A8010E948A0B7B018C016090030EAE
:1030A0007090040E8090050E9090060E6091070EB1
:1030B0007091080E8091090E90910A0E0E94D47CA6
:1030C0009B01AC01C801B7010E94CD7BE090170EB7
:1030D000F090180E0091190E10911A0EA801970188
:1030E0000E94397C0E94A17C5B016C019B014427FA
:1030F00037FD4095542F8091500F9091510FA09122
:10310000520FB091530F82179307A407B50724F10C
:10311000C401B3010E94D47C9B01AC01C201B10186
:103120000E94CD7BA80197010E94397C0E94A17C5E
:103130007B018C019B01442737FD4095542F8091E2
:103140004C0F90914D0FA0914E0FB0914F0F8217E1
:103150009307A407B5075CF488EB96E162E977E092
:103160000E94B67710925E0F1092D20E3DC0C7013A
:10317000B5010E94B20E082F88EB96E16CEA77E069
:103180000E94D07688EB96E1602F4AE050E00E94E2
:10319000357660E070E080E090E02FEF30E040E0D6
:1031A00050E00E9473786B017C0188EB96E169EB3B
:1031B00077E00E94D07688EB96E1B6014AE050E0D5
:1031C0000E94B37610E0C016D10644F488EB96E175
:1031D00062EC77E00E94B67731DE07C088EB96E1BB
:1031E00061ED77E00E94B6777DDE0E946D6E6093A0
:1031F0005F0F7093600F8093610F9093620F06C012
:1032000088EB96E161EE77E00E94B6771F910F910F
:10321000FF90EF90DF90CF90BF90AF909F908F90F6
:103220007F906F905F904F903F902F900895809186
:103230005E0F882339F080915C0F90915D0F0197AC
:1032400009F4A5CE08958DE79FE00E94004F81EC20
:103250009FE00E94004F1092640F88EB96E164E1BA
:1032600078E00C94B677EF92FF920F931F930E9431
:103270006D6E9B01AC01E090C20EF090C30E009108
:10328000C40E1091C50E8091020E8823E1F080914A
:10329000640F8823C1F02E193F09400B510B809118
:1032A000FE0D9091FF0DA091000EB091010E8217BE
:1032B0009307A407B5073CF488EB96E164E278E055
:1032C0000E94B677C0DF8091D20E882331F0F3DB05
:1032D00080915E0F882309F0AADF1F910F91FF9064
:1032E000EF900895AC01662757FD6095762F81EC2D
:1032F0009FE00E940C4C09C0B6DF8091FB0D882333
:1033000021F081EC9FE00E94975081EC9FE00E94A9
:10331000664A611571058105910571F70E946D6E10
:103320006093C20E7093C30E8093C40E9093C50E2B
:103330000895AC01662757FD6095762F8DE79FE0D5
:103340000E940C4C09C08FDF8091FB0D882321F077
:103350008DE79FE00E9497508DE79FE00E94664AAC
:10336000611571058105910571F70E946D6E60937D
:10337000C20E7093C30E8093C40E9093C50E089531
:10338000CF93DF93FC01EB0121153105A9F4809166
:10339000370E882339F0CF0162E070E00E94FD7E95
:1033A000CB012BC0CF0162E070E00E94FD7ECB011B
:1033B000909581959F4F21C08091370E2417350736
:1033C000A1F4882339F0CF0162E070E00E94FD7E15
:1033D000CB0109C0CF0162E070E00E94FD7ECB010D
:1033E000909581959F4FA5DF15C0882311F0CF01DF
:1033F00004C0882799278E1B9F0B9BDFCE0172DFAD
:103400008091370E882319F01092370E03C081E0A7
:103410008093370EDF91CF9108950F931F93CF9331
:10342000DF93EC018B0121153105D9F488EB96E18E
:1034300069E478E00E94B6778091370E882339F0EE
:10344000CE0162E070E00E94FD7ECB012BC0CE0178
:1034500062E070E00E94FD7ECB01909581959F4FC8
:1034600021C08091370E24173507A1F4882339F045
:10347000CE0162E070E00E94FD7ECB0109C0CE016A
:1034800062E070E00E94FD7ECB01909581959F4F98
:1034900029DF15C0882311F0CE0104C088279927A1
:1034A0008C1B9D0B1FDFC80144DF8091370E8823E2
:1034B00019F01092370E03C081E08093370EDF9130
:1034C000CF911F910F9108953F924F925F926F920B
:1034D0007F928F929F92AF92BF92CF92DF92EF92A4
:1034E000FF920F931F93DF93CF9300D00F92CDB72E
:1034F000DEB7FC014B016A01322E141615060CF0E2
:103500007FC0BA010E94FD7E5B01CF01B6010E941F
:10351000FD7EAA2797FDA095BA2FBC01CD010E9480
:10352000D47C7B018C01B601882777FD8095982F8C
:103530000E94D47C9B01AC01C801B7010E94397C78
:103540002B013C010F2EF0E0EF2EF0E0FF2EF0E01B
:103550000F2FF0E01F2FF02D1C821B82C50101965A
:103560009A838983C801B701A30192010E94CE7B8F
:103570007B018C0120E030E040E85FE30E94C67DE3
:1035800087FF02C095010CC0C801B70120E030E000
:1035900040E85FE30E94CD7B7B018C0129813A8169
:1035A00092E0391619F4C401B9010EC0E3E03E16E9
:1035B00019F4C401B90115C0F4E03F1651F46627AF
:1035C0007727621B730BC401A6012B813C8125DF89
:1035D0000CC081E0381649F466277727621B730B0D
:1035E000C401A6012B813C81CBDE0E947F0DEB81C3
:1035F000FC813196FC83EB83CE16DF060CF0B2CF54
:103600000F900F900F900F90CF91DF911F910F911E
:10361000FF90EF90DF90CF90BF90AF909F908F90F2
:103620007F906F905F904F903F9008958F929F9200
:10363000AF92BF92CF92DF92EF92FF920F931F93C0
:10364000DF93CF93CDB7DEB72E970FB6F894DEBFDA
:103650000FBECDBF6E010894C11CD11CC6016FE224
:1036600070E10E94B17BC6010E945F11AA2797FDFD
:10367000A095BA2F2091EF0D3091F00D442737FD22
:103680004095542FBC01CD010E94D27E7B018C015C
:103690005B01C6010E94C37BA8E0CA2ED12CCC0ED0
:1036A000DD1EC60166E370E10E94B17BC6010E9487
:1036B0005F114C01C6010E94C37BC701B701A40181
:1036C00022E002DFAA0CBB1CC50133DEC701B70133
:1036D000A40123E0F9DEC50105DEC701B701A4019D
:1036E00024E0F2DEB094A194B108B394C50121DEC8
:1036F000C701B701A40121E0E7DEC501F3DD2E9685
:103700000FB6F894DEBF0FBECDBFCF91DF911F91F2
:103710000F91FF90EF90DF90CF90BF90AF909F9070
:103720008F900895AF92BF92CF92DF92EF92FF9267
:103730000F931F93DF93CF93CDB7DEB728970FB6C4
:10374000F894DEBF0FBECDBF69837A838B839C83E1
:103750002D833E834F8358870E946D6E6093C20E07
:103760007093C30E8093C40E9093C50ECE01019644
:10377000BE016B5F7F4F0E9477068DE79FE00E943E
:103780005A4D5B016C0181EC9FE00E945A4D7B0118
:103790008C018DE79FE040E050E060E070E00E9427
:1037A000D54C81EC9FE040E050E060E070E00E948A
:1037B000D54C69817A818B819C810E94A17CAB016F
:1037C000BC018DE79FE00E94FB4B6D817E818F8164
:1037D00098850E94A17CAB01BC0181EC9FE00E9416
:1037E000FB4B8091F90D882309F042C08DE79FE0E3
:1037F0000E945A4D20E030E040E050E00E94327CD0
:10380000882324F4D7FAD094D7F8D09481EC9FE0A1
:103810000E945A4D20E030E040E050E00E94327CAF
:10382000882324F417FB109517F910958DE79FE076
:10383000B601A5010E94D54C81EC9FE0B801A7011B
:103840000E94D54C15C08091F90D882349F08DE771
:103850009FE00E94975081EC9FE00E94975008C023
:103860008DE79FE00E94745081EC9FE00E947450AD
:103870008DE79FE00E94664A6115710581059105FB
:1038800049F481EC9FE00E94664A6115710581054B
:10389000910531F0E8DC8091FB0D882349F3D3CF0B
:1038A0000E947F0D28960FB6F894DEBF0FBECDBFE5
:1038B000CF91DF911F910F91FF90EF90DF90CF900C
:1038C000BF90AF900895AF92BF92CF92DF92EF92E8
:1038D000FF920F931F9379018A010E94D47C5B01B0
:1038E0006C01C801B7010E94D47C9B01AC01C601E8
:1038F000B50118DF1F910F91FF90EF90DF90CF90EF
:10390000BF90AF9008952F923F924F925F926F9227
:103910007F928F929F92AF92BF92CF92DF92EF925F
:10392000FF920F931F93DF93CF93CDB7DEB76097CE
:103930000FB6F894DEBF0FBECDBF88EB96E169E508
:1039400078E00E94B67788EB96E169E778E00E941C
:10395000D07660912F0E7091300E88EB96E14AE0A0
:1039600050E00E94B37680912F0E9091300E029716
:1039700009F0A6C081EC9FE00E94764A1B012C0151
:103980008091130E9091140EAA2797FDA095BA2F3F
:10399000280E391E4A1E5B1E88EB96E163E978E02B
:1039A0000E94D07688EB96E1B201A1012AE030E0D6
:1039B0000E948F76C201B101A20191010E94D27EC4
:1039C0003B014C01A090070EB090080EC090090E6C
:1039D000D0900A0EE0900F0EF090100E0091110E94
:1039E0001091120EEA0CFB1C0C1D1D1D2091B20E35
:1039F0003091B30E4091B40E5091B50E2D873E8795
:103A00004F87588B8091030E9091040EA091050E64
:103A1000B091060E89879A87AB87BC87281B390B24
:103A20004A0B5B0BCA01B9010E94D27E6D837E8373
:103A30008F839887C801B701A80197010E94D27EA1
:103A4000ED80FE800F8118856E0D7F1D801F911FF8
:103A500066157705880599056CF1C601B501A601C3
:103A600095010E94D27E5B016C0180910B0E9091BA
:103A70000C0EA0910D0EB0910E0E2D853E854F853A
:103A80005889E984FA840B851C852E193F09400B5F
:103A9000510B281B390B4A0B5B0BCA01B9010E9461
:103AA000D27E6A0D7B1D8C1D9D1D661677068806CD
:103AB000990644F488EB96E16EE978E00E94B677C7
:103AC00080E005C18D819E81AF81B8858A0D9B1DE7
:103AD000AC1DBD1D86159705A805B9050CF499C048
:103AE00088EB96E162EB78E00E94B6770091070ED2
:103AF0001091080E2091090E30910A0E09831A8345
:103B00002B833C83C901B801A90198010E94D27E90
:103B10009B01AC01C401B301621B730B840B950BB9
:103B20000E94D47C0E94377E7B018C016091B20E92
:103B30007091B30E8091B40E9091B50E0E94D47C1A
:103B4000A80197010E94CD7B0E94A17C5B016C01C2
:103B500088EB96E163EC78E00E94D076C201B10177
:103B60000E94D47C2091AA0E3091AB0E4091AC0EF5
:103B70005091AD0E0E94CA7DAB01BC0188EB96E16D
:103B800022E030E00E94A37788EB96E16DEC78E0CC
:103B90000E94D0766091030E7091040E8091050E04
:103BA0009091060E0E94D47C2091AA0E3091AB0E0B
:103BB0004091AC0E5091AD0E0E94CA7DAB01BC018C
:103BC00088EB96E122E030E00E94A37788EB96E153
:103BD00066ED78E00E94D0766091070E7091080E35
:103BE0008091090E90910A0E0E94D47C2091AA0E19
:103BF0003091AB0E4091AC0E5091AD0E0E94CA7D3B
:103C0000AB01BC0188EB96E122E030E00E94A57791
:103C100030C088EB96E16FED78E00E94B677A09017
:103C2000030EB090040EC090050ED090060E2091A9
:103C3000B20E3091B30E4091B40E5091B50EC60144
:103C4000B501621B730B840B950B2A193B094C09B8
:103C50005D090E94D27E660D771D881D991D0E9408
:103C6000D47C0E94377E0E94A17C69837A838B83F7
:103C70009C83C601B5010E94D47C3B014C01698143
:103C80007A818B819C810E94D47C7B018C01C40150
:103C9000B301A80197010E946B0C5B016C01C40188
:103CA000B301A80197010E94340C7B018C01C6016D
:103CB000B5010E94A17C5B016C01C801B7010E94A3
:103CC000A17C9B01AC01C601B501FDDD81E06096E0
:103CD0000FB6F894DEBF0FBECDBFCF91DF911F911D
:103CE0000F91FF90EF90DF90CF90BF90AF909F909B
:103CF0008F907F906F905F904F903F902F9008959E
:103D00002F923F924F925F926F927F928F929F92EB
:103D1000AF92BF92CF92DF92EF92FF920F931F93D9
:103D2000DF93CF9300D00F92CDB7DEB73B014C01AC
:103D300059016A01FA82E982C80162E070E00E94DA
:103D4000FD7E882777FD8095982F661A770A880A66
:103D5000990AA61AB70AC80AD90A1C821B82180136
:103D6000442437FC4094542C2DC060E070E080E087
:103D700090E0A20191010E9473787B018C0160E0C8
:103D800070E080E090E0A20191010E9473789B01B5
:103D9000AC010027F7FC0095102FE60CF71C081D5E
:103DA000191D442737FD4095542F2A0D3B1D4C1DEE
:103DB0005D1DC801B70187DD2B813C812F5F3F4F1F
:103DC0003C832B838B819C81E981FA81E817F90779
:103DD00064F60F900F900F900F90CF91DF911F918D
:103DE0000F91FF90EF90DF90CF90BF90AF909F909A
:103DF0008F907F906F905F904F903F902F9008959D
:103E00002F923F924F925F926F927F928F929F92EA
:103E1000AF92BF92CF92DF92EF92FF920F931F93D8
:103E2000DF93CF93CDB7DEB7EA970FB6F894DEBF36
:103E30000FBECDBF8091DA0E882309F4BDC46E0198
:103E40000894C11CD11CC6016FE270E10E94B17BD5
:103E50008E01085F1F4FC80166E370E10E94B17BCD
:103E6000C8010E945F114C01A090EF0DB090F00DC1
:103E7000C8010E94C37B8E01015F1F4FC8016DE323
:103E800070E10E94B17BC8010E945F11AA2797FDD3
:103E9000A095BA2F2091EF0D3091F00D442737FDFA
:103EA0004095542FBC01CD010E94D27E7CA76BA708
:103EB000C8010E94C37B8E010A5E1F4FC801B60174
:103EC0000E94B17BC8010E946212F82EC8010E94B4
:103ED000C37BFF2069F488EB96E160EC74E00E94FC
:103EE000D07688EB96E1B6010E94F977C6016BC4E3
:103EF000B401882777FD8095982F9501442737FDD9
:103F00004095542F0E94D27E1B012C017EA76DA7E5
:103F100088EB96E16BED74E00E94D07640914C0FF7
:103F200050914D0F60914E0F70914F0F88EB96E1BD
:103F30002AE030E00E94517688EB96E167EE74E06B
:103F40000E94D0764091500F5091510F6091520FC6
:103F50007091530F88EB96E12AE030E00E948F7653
:103F600088EB96E16AEE74E00E94D07640910B0EE9
:103F700050910C0E60910D0E70910E0E88EB96E133
:103F80002AE030E00E94517688EB96E166EF74E01B
:103F90000E94B67760910B0E70910C0E80910D0E01
:103FA00090910E0E0E94D47C7B018C0160914C0F8D
:103FB00070914D0F80914E0F90914F0F0E94D47CC5
:103FC0009B01AC01C801B7010E94397C6093170EB8
:103FD0007093180E8093190E90931A0E88EB96E149
:103FE00068EF74E00E94D0764091170E5091180E41
:103FF0006091190E70911A0E88EB96E122E030E084
:104000000E94A57788EB96E168E075E00E94D07683
:1040100040910B0E50910C0E60910D0E70910E0E92
:1040200088EB96E12AE030E00E948F7688EB96E1FB
:1040300065E774E00E94D0766091560F7091570F3B
:1040400088EB96E14AE050E00E94B3760E94721736
:1040500060910B0E70910C0E80910D0E90910E0ED2
:104060000E94D47C20911B0E30911C0E40911D0E9D
:1040700050911E0E0E94CA7D0E94A17C5B016C01C2
:1040800060930F0E7093100E8093110E9093120E8A
:1040900020910B0E30910C0E40910D0E50910E0E92
:1040A0008091030E9091040EA091050EB091060E22
:1040B000280F391F4A1F5B1F2FA338A749A75AA7EC
:1040C000E090070EF090080E0091090E10910A0E74
:1040D000AE0CBF1CC01ED11ECA01B9010E94D47C07
:1040E0003B014C01C801B7010E94D47C9B01AC018B
:1040F000C401B3010E94340C7B018C01C10162E058
:1041000070E00E94FD7E882777FD8095982F0E94A1
:10411000D47C9B01AC01C801B7010E94CE7B6D8F9E
:104120007E8F8F8F98A36091070E7091080E8091FB
:10413000090E90910A0E0E94D47C9B01AC01C4012F
:10414000B3010E946B0C2D8D3E8D4F8D58A1EADA84
:104150000E941E178DE79FE00E94764A0E94D47C41
:104160006BA37CA38DA39EA381EC9FE00E94764A63
:104170000E94D47C1B012C01C601B501A60195014A
:104180000E94D27E6FA778AB89AB9AAB1AA219A214
:104190008DA59EA5AA2797FDA095BA2F8BAB9CABAA
:1041A000ADABBEAB2BA53CA5442737FD4095542FA6
:1041B0002FAB38AF49AF5AAF6BA17CA18DA19EA1A7
:1041C000A20191010E94B10B882309F0ADC188EBD7
:1041D00096E161EF78E00E94B6770E9472176BA9B2
:1041E0007CA98DA99EA90E94D47C9B01AC016D8DF8
:1041F0007E8D8F8D98A10E94CE7B6D8F7E8F8F8F4D
:1042000098A39B01AC010E94CA7D5B016C01609088
:10421000B20E7090B30E8090B40E9090B50E809157
:10422000030E9091040EA091050EB091060EA4010C
:104230009301281B390B4A0B5B0BCA01B9010E9481
:10424000D27E1B012C016FA578A989A99AA9620DBC
:10425000731D841D951D0E94D47C9B01AC01C60179
:10426000B5010E94C67D181654F12091070E3091B9
:10427000080E4091090E50910A0ECA01B9010E9420
:10428000D27E7B018C01A40193018FA198A5A9A5E1
:10429000BAA5281B390B4A0B5B0BCA01B9010E9456
:1042A000D27E6E0D7F1D801F911F0E94D47C9B01CA
:1042B000AC01C601B5010E94327C882364F488EB0E
:1042C00096E165E179E00E94B6772D8C3E8C4F8CAB
:1042D00058A011E01FC1C201B1016E0D7F1D801FEA
:1042E000911F0E94D47C9B01AC01C601B5010E94C4
:1042F000327C18160CF47FC088EB96E162EB78E014
:104300000E94B6776090070E7090080E8090090E9C
:1043100090900A0EC401B301A40193010E94D27EC1
:104320000E94D47C9B01AC01C601B5010E94CD7BEB
:104330000E94377E7B018C016091B20E7091B30EAA
:104340008091B40E9091B50E0E94D47CA801970183
:104350000E94CD7B0E94A17C7B018C0188EB96E1C1
:1043600068E279E00E94D0766091030E7091040EAD
:104370008091050E9091060E0E94D47C2091AA0E89
:104380003091AB0E4091AC0E5091AD0E0E94CA7DA3
:10439000AB01BC0188EB96E122E030E00E94A377FC
:1043A00088EB96E162E479E00E94D0766091070E96
:1043B0007091080E8091090E90910A0E0E94D47C93
:1043C0002091AA0E3091AB0E4091AC0E5091AD0EE3
:1043D0000E94CA7DAB01BC0188EB96E122E030E08F
:1043E0000E94A377C801B7010E94D47C5B016C01D5
:1043F000C401B30178C088EB96E16FED78E00E94CC
:10440000B677E090030EF090040E0091050E109127
:10441000060E2091B20E3091B30E4091B40E509121
:10442000B50E2E193F09400B510BCA01B9010E946C
:10443000D27E0E94D47C9B01AC01C601B5010E94D2
:10444000CD7B0E94377E3B014C0188EB96E168E210
:1044500079E00E94D0766091030E7091040E8091F5
:10446000050E9091060E0E94D47C2091AA0E3091E8
:10447000AB0E4091AC0E5091AD0E0E94CA7DAB01C7
:10448000BC0188EB96E122E030E00E94A37788EB44
:1044900096E162E479E00E94D0766091070E709117
:1044A000080E8091090E90910A0E0E94D47C2091F2
:1044B000AA0E3091AB0E4091AC0E5091AD0E0E9401
:1044C000CA7DAB01BC0188EB96E122E030E00E949E
:1044D000A377C801B7010E94D47C5B016C01C401C1
:1044E000B3010E94A17C0E94D47C7B018C01C60197
:1044F000B501A80197010E946B0C6BA37CA38DA34F
:104500009EA3C601B501A80197010E94340C1B01AE
:104510002C0110E068EE73E080E090E00E94A16E54
:10452000112309F03EC106C088EB96E166E479E00C
:104530000E94B6776BA17CA18DA19EA1A2019101E1
:10454000F1D80E941E17A9A1BAA11196BAA3A9A3D6
:1045500088EB96E16FE479E00E94D07688EB96E1F3
:1045600069A17AA14AE050E00E94B3766BA17CA1D8
:104570008DA19EA1A20191010E941A077B018C01CD
:104580002BA13CA14DA15EA10E948A0B5B016C0195
:104590006091030E7091040E8091050E9091060EAD
:1045A0000E94D47C9B01AC01C801B7010E94CD7B65
:1045B0003B014C016091070E7091080E8091090E2D
:1045C00090910A0E0E94D47C9B01AC01C601B501FA
:1045D0000E94CD7B5B016C0188EB96E166E579E09A
:1045E0000E94D07688EB96E1B401A30122E030E08E
:1045F0000E94A37788EB96E16CE973E00E94D07685
:1046000088EB96E1B601A50122E030E00E94A57793
:10461000E090170EF090180E0091190E10911A0EDE
:10462000C401B301A80197010E94397C3B014C01F0
:10463000C601B501A80197010E94397C7B018C015C
:1046400088EB96E162E779E00E94D07688EB96E10C
:10465000B401A30122E030E00E94A37788EB96E149
:104660006CE973E00E94D07688EB96E1B801A7016F
:1046700022E030E00E94A577C801B7010E94A17C2A
:104680005B016C019B01442737FD4095542F8091BD
:10469000500F9091510FA091520FB091530F82176C
:1046A0009307A407B507C4F0C401B3010E94A17C1D
:1046B0007B018C019B01442737FD4095542F80914D
:1046C0004C0F90914D0FA0914E0FB0914F0F82174C
:1046D0009307A407B5072CF488EB96E162E977E02D
:1046E00064C0C701B5010E94B20E6091540F709171
:1046F000550F90E04DA55EA50E941006E82E6FA90B
:1047000078AD89AD9AAD0E94D47C3B014C01FF2469
:1047100000E010E0C801B7010E94D27C20E030E048
:1047200040E05FE30E94CA7D5B016C01C401B301FC
:1047300020E030E040E05FE30E94CA7D9B01AC01D5
:104740006BA17CA18DA19EA10E94CE7B7B018C01DF
:10475000C201B101A60195010E94CD7B9B01AC0174
:10476000B701C8010E94921BC201B101A6019501C7
:104770000E94CE7B9B01AC01B701C8010E94921B35
:104780006BA17CA18DA19EA1A40193010E94CE7B6F
:104790006BA37CA38DA39EA3A20191010E94921BF7
:1047A0000BCD88EB96E166E979E00E94B6770E942E
:1047B0007217CE01019607C088EB96E161EA79E0B5
:1047C0000E94B67702C00E94C37BEA960FB6F894A7
:1047D000DEBF0FBECDBFCF91DF911F910F91FF9034
:1047E000EF90DF90CF90BF90AF909F908F907F9091
:1047F0006F905F904F903F902F9008952F923F922F
:104800004F925F926F927F928F929F92AF92BF92E0
:10481000CF92DF92EF92FF920F931F93DF93CF938C
:10482000CDB7DEB7AC970FB6F894DEBF0FBECDBFE5
:104830002B013C0198A28F8E0E941A076B8F7C8FF0
:104840008D8F9E8FA30192010E948A0B6F8B788FB0
:10485000898F9A8FC801B701A60195010E941A0796
:104860005B016C01A80197010E948A0B3B014C017E
:10487000C601B50120E030E040EA51E40E94C67D67
:1048800018160CF03EC26091B20E7091B30E80917A
:10489000B40E9091B50E64517040804090400E94DB
:1048A000D47C1B012C01C601B501A20191010E941B
:1048B000327C88230CF025C2C401B30120E030E033
:1048C00040EA51E40E94C67D18160CF01AC26091AD
:1048D000B60E7091B70E8091B80E9091B90E6451DA
:1048E0007040804090400E94D47C7B018C01C401C8
:1048F000B301A80197010E94327C88230CF001C209
:104900006B8D7C8D8D8D9E8D20E030E040EA51E4F2
:104910000E94C67D18160CF0F4C16B8D7C8D8D8DB8
:104920009E8DA20191010E94327C88230CF0E9C186
:104930006F89788D898D9A8D20E030E040EA51E4CE
:104940000E94C67D18160CF0DCC16F89788D898DA8
:104950009A8DA80197010E94327C88230CF0D1C166
:1049600088EB96E16EEC79E00E94D07688EB96E1D8
:104970004B8D5C8D6D8D7E8D22E030E00E94A377A3
:1049800088EB96E169E872E00E94D07688EB96E1C8
:104990004F89588D698D7A8D22E030E00E94A3778F
:1049A00088EB96E164ED79E00E94D07688EB96E1A1
:1049B000B601A50122E030E00E94A37788EB96E1E2
:1049C00069E872E00E94D07688EB96E1B401A30119
:1049D00022E030E00E94A5771092FA0DC601B501E1
:1049E0002B8D3C8D4D8D5E8D0E94CD7B1B012C014E
:1049F000C401B3012F89388D498D5A8D0E94CD7B1A
:104A00003B014C01C201B10120E030E040E050E048
:104A10000E94C67D18161CF48201710106C0820135
:104A2000710117FB109517F91095C401B30120E02F
:104A300030E040E050E00E94C67D18161CF4A4014E
:104A4000930103C0A40193015058C801B7010E940B
:104A5000C67D18169CF021E030E03E8B2D8BD401F2
:104A6000C301B05889A79AA7ABA7BCA7AF8DB8A1BF
:104A70005D01CC24B7FCC094DC2C4EC021E030E0BA
:104A80003E8B2D8BD201C101B0588DA39EA3AFA345
:104A9000B8A7AF8DB8A15D01CC24B7FCC094DC2CC5
:104AA00006C02D893E892F5F3F4F3E8B2D8BC20163
:104AB000B10120E030E040E050E00E94C67D1816D1
:104AC0001CF48201710104C0EDA0FEA00FA118A585
:104AD000AD89BE89BD01882777FD8095982F0E94FA
:104AE000D47C9B01AC01C801B7010E94397C7B01D9
:104AF0008C01C601B5010E94D47C9B01AC01C801A8
:104B0000B7010E94C67D181664F234C02D893E8913
:104B10002F5F3F4F3E8B2D8BC401B30120E030E06F
:104B200040E050E00E94C67D18161CF48401730119
:104B300004C0E9A4FAA40BA51CA5AD89BE89BD01DA
:104B4000882777FD8095982F0E94D47C9B01AC012B
:104B5000C801B7010E94397C7B018C01C601B501F7
:104B60000E94D47C9B01AC01C801B7010E94C67DA4
:104B7000181664F22D893E895901CC24B7FCC094E3
:104B8000DC2CC601B5010E94D47C7B018C01C201E2
:104B9000B101A80197010E94397C6D837E838F83C8
:104BA0009887C401B301A80197010E94397C6983E9
:104BB0007A838B839C831092F90D198A1A8A1B8A37
:104BC0001C8A19861A861B861C86A9A2BAA2CBA2A9
:104BD000DCA26B8D7C8D8D8D9E8D2D813E814F81D4
:104BE00058850E94CE7B6B8F7C8F8D8F9E8F6F89B7
:104BF000788D898D9A8D29813A814B815C810E94C3
:104C0000CE7B6F8B788F898F9A8F6B8D7C8D8D8DFE
:104C10009E8D2F89388D498D5A8D0E946B0C6D8722
:104C20007E878F87988B6B8D7C8D8D8D9E8D2F8948
:104C3000388D498D5A8D0E94340C1B012C016984DA
:104C40007A848B849C8489A19AA1ABA1BCA1680EB3
:104C5000791E8A1E9B1E69897A898B899C890E948C
:104C6000D47C5B016C016091F50D7091F60D809123
:104C7000F70D9091F80D20E030E040E850E40E94FC
:104C8000CA7D7B018C01C401B301A60195010E947C
:104C9000940C0E94A17C698B7A8B8B8B9C8B0E94DD
:104CA000D47C7B018C018DE79FE0B801A7010E94B5
:104CB000D54C81EC9FE0B801A7010E94D54C6D85D1
:104CC0007E858F859889A20191010E94921B89851A
:104CD0009A85AB85BC850197A109B10989879A8717
:104CE000AB87BC878D899E89A985BA858A0F9B1F52
:104CF000892B09F06ECF81E08093FA0D8093F90D36
:104D000006C088EB96E169ED79E00E94B6770E94D3
:104D10005A0BAC960FB6F894DEBF0FBECDBFCF9145
:104D2000DF911F910F91FF90EF90DF90CF90BF9098
:104D3000AF909F908F907F906F905F904F903F903B
:104D40002F9008952F923F924F925F926F927F9291
:104D50008F929F92AF92BF92CF92DF92EF92FF928B
:104D60000F931F93DF93CF93CDB7DEB7A6970FB600
:104D7000F894DEBF0FBECDBF8091DA0E882309F410
:104D800001C3CE0101966FE270E10E94B17B8E01FA
:104D9000085F1F4FC801BE016F5F7F4F0E94B17B4C
:104DA000C8010E946212F82EC8010E94C37BFF2036
:104DB00071F488EB96E160EC74E00E94D07688EBA9
:104DC00096E1BE016F5F7F4F0E94F977D6C288EBF4
:104DD00096E16BED74E00E94D07640914C0F5091BB
:104DE0004D0F60914E0F70914F0F88EB96E12AE0C6
:104DF00030E00E94517688EB96E167EE74E00E9405
:104E0000D0764091500F5091510F6091520F709198
:104E1000530F88EB96E12AE030E00E948F7688EB12
:104E200096E16AEE74E00E94D07640910B0E5091AC
:104E30000C0E60910D0E70910E0E88EB96E12AE03B
:104E400030E00E94517688EB96E166EF74E00E94B4
:104E5000B67760910B0E70910C0E80910D0E9091B3
:104E60000E0E20914C0F30914D0F40914E0F5091EE
:104E70004F0F0E94327FCA01B9010E94D47C609317
:104E8000170E7093180E8093190E90931A0E88EBDC
:104E900096E168EF74E00E94D0764091170E509131
:104EA000180E6091190E70911A0E88EB96E122E0AF
:104EB00030E00E94A57788EB96E168E075E00E94FB
:104EC000D07640910B0E50910C0E60910D0E7091AA
:104ED0000E0E88EB96E12AE030E00E948F7688EB98
:104EE00096E165E774E00E94D0766091560F70916C
:104EF000570F88EB96E14AE050E00E94B376E090CD
:104F00000B0EF0900C0E00910D0E10910E0EC801BC
:104F1000B7010E94D47C20911B0E30911C0E409151
:104F20001D0E50911E0E0E94CA7D0E94A17C6093AE
:104F30000F0E7093100E8093110E9093120E20900E
:104F4000030E3090040E4090050E5090060E2E0C6D
:104F50003F1C401E511E2091070E3091080E4091BB
:104F6000090E50910A0E260F371F481F591F2F8711
:104F7000388B498B5A8B88EB96E16FEF79E00E9472
:104F8000D07688EB96E1B201A1012AE030E00E94E0
:104F9000517688EB96E167E07AE00E94D07688EB64
:104FA00096E14F85588969897A892AE030E00E9424
:104FB0008F768DE79FE00E94764A3B014C0181ECA1
:104FC0009FE00E94764A6BA37CA38DA39EA3609171
:104FD000030E7091040E8091050E9091060E0E94B2
:104FE000D47C7B018C016091070E7091080E80913A
:104FF000090E90910A0E0E94D47C9B01AC01C8015D
:10500000B7010E946B0C7B018C016091030E7091C3
:10501000040E8091050E9091060E0E94D47C5B01D7
:105020006C016091070E7091080E8091090E9091AD
:105030000A0E0E94D47C9B01AC01C601B5010E94FE
:10504000340C5B016C01C401B3010E94D47C3B01B0
:105050004C016BA17CA18DA19EA10E94D47C9B01DF
:10506000AC01C401B301E4E18E2E912CC7DB8DE7C6
:105070009FE00E94764A3B014C0181EC9FE00E9438
:10508000764A6F8F78A389A39AA3C201B1010E94C7
:10509000D47C6B8F7C8F8D8F9E8F6091070E70916B
:1050A000080E8091090E90910A0E0E94D47C9B01FB
:1050B000AC016B8D7C8D8D8D9E8D0E946B0C7B0168
:1050C0008C016091070E7091080E8091090E9091ED
:1050D0000A0E0E94D47C9B01AC016B8D7C8D8D8D62
:1050E0009E8D0E94340C5B016C01C401B3010E94CF
:1050F000D47C3B014C016F8D78A189A19AA10E94BB
:10510000D47C9B01AC01C401B301B4E18B2E912C82
:1051100075DB8DE79FE00E94764A3B014C0181ECF4
:105120009FE00E94764A6F8B788F898F9A8F6F8568
:10513000788989899A890E94D47C1B012C016B8D06
:105140007C8D8D8D9E8DA20191010E946B0C7B0147
:105150008C016B8D7C8D8D8D9E8DA20191010E94A5
:10516000340C5B016C01C401B3010E94D47C3B018F
:105170004C016F89788D898D9A8D0E94D47C9B011A
:10518000AC01C401B301A4E18A2E912C37DB8DE779
:105190009FE00E94764A3B014C0181EC9FE00E9417
:1051A000764A6B8B7C8B8D8B9E8B6091030E7091FE
:1051B000040E8091050E9091060E0E94D47CA201EF
:1051C00091010E946B0C7B018C016091030E709128
:1051D000040E8091050E9091060E0E94D47CA201CF
:1051E00091010E94340C5B016C01C401B3010E9467
:1051F000D47C3B014C016B897C898D899E890E94FE
:10520000D47C9B01AC01C401B301F4E18F2E912C3D
:10521000F5DA8DE79FE00E94764A3B014C0181EC74
:105220009FE00E94764A1B012C016091030E709151
:10523000040E8091050E9091060E0E94D47C7B0195
:105240008C016091070E7091080E8091090E90916B
:105250000A0E0E94D47C9B01AC01C801B7010E94D8
:105260006B0C7B018C016091030E7091040E809198
:10527000050E9091060E0E94D47C5B016C0160913A
:10528000070E7091080E8091090E90910A0E0E94EF
:10529000D47C9B01AC01C601B5010E94340C5B01BA
:1052A0006C01C401B3010E94D47C3B014C01C201DA
:1052B000B1010E94D47C9B01AC01C401B301E4E1C3
:1052C0008E2E912C9BDA8DE79FE00E94764A3B015F
:1052D0004C0181EC9FE00E94764A1B012C016091F9
:1052E000030E7091040E8091050E9091060E0E949F
:1052F000D47C7B018C016091070E7091080E809127
:10530000090E90910A0E0E94D47C9B01AC01C80149
:10531000B7010E946B0C7B018C016091030E7091B0
:10532000040E8091050E9091060E0E94D47C5B01C4
:105330006C016091070E7091080E8091090E90919A
:105340000A0E0E94D47C9B01AC01C601B5010E94EB
:10535000340C5B016C01C401B3010E94D47C3B019D
:105360004C01C201B1010E94D47C9B01AC01C4017B
:10537000B301B4E18B2E912C41DACE0101960E944B
:10538000C37B06C088EB96E161EA79E00E94B677BC
:10539000A6960FB6F894DEBF0FBECDBFCF91DF91BA
:1053A0001F910F91FF90EF90DF90CF90BF90AF9043
:1053B0009F908F907F906F905F904F903F902F9035
:1053C00008952F923F924F925F926F927F928F92A9
:1053D0009F92AF92BF92CF92DF92EF92FF920F9384
:1053E0001F93DF93CF93CDB7DEB76E970FB6F894C8
:1053F000DEBF0FBECDBF6B877C878D879E872F87D3
:10540000388B498B5A8BEB8AFC8A0D8B1E8BAF8AAB
:10541000B88EC98EDA8E0F2EF0E06F2EF0E07F2E60
:10542000F0E08F2EF0E09F2EF02D1A8219828CADC5
:105430009DADAA2797FDA095BA2F8B8F9C8FAD8F1E
:10544000BE8F60E070E080E89FE3A40193010E94BA
:10545000CD7B7B018C01A80197010E94CA7DAC0124
:10546000CB01DA018F839887A987BA87C401B3017A
:10547000A40193010E94CE7BA80197010E94CA7DDE
:105480006B837C838D839E83C401B301A40193014C
:105490000E94CA7DAC01CB01DA011C012D01ACAD2B
:1054A000BDADAB2BB1F06B8D7C8D8D8D9E8D0E9433
:1054B000D47C7B018C018DE79FE0B801A7010E949D
:1054C000D54C81EC9FE0B801A7010E94D54C109209
:1054D000F90D1092FA0D6B857C858D859E850E9455
:1054E000D47C9B01AC016F81788589859A850E9467
:1054F000CA7D7B018C016CA97DA98EA99FA90E9400
:10550000D47C9B01AC016B817C818D819E810E944A
:10551000CA7D9B01AC01C801B7010E94CE7B7B0113
:105520008C016B897C898D899E890E94D47C9B012A
:10553000AC01C201B1010E94CA7D9B01AC01C8014E
:10554000B7010E94CE7B5B016C016F8578898989E8
:105550009A890E94D47C9B01AC016F8178858985F2
:105560009A850E94CA7D7B018C0168AD79AD8AADB8
:105570009BAD0E94D47C9B01AC016B817C818D81B1
:105580009E810E94CA7D9B01AC01C801B7010E94A7
:10559000CE7B7B018C016F89788D898D9A8D0E94DD
:1055A000D47C9B01AC01C201B1010E94CA7D9B0168
:1055B000AC01C801B7010E94CE7B9B01AC01C601C2
:1055C000B5010E94921BB1E0B093FA0DB093F90DB2
:1055D000C401B3012AE037ED43E25CE30E94CE7BD5
:1055E0003B014C0189819A8101969A838983853692
:1055F000910509F026CF6E960FB6F894DEBF0FBE68
:10560000CDBFCF91DF911F910F91FF90EF90DF9071
:10561000CF90BF90AF909F908F907F906F905F9052
:105620004F903F902F900895EF92FF920F931F930A
:105630000DE71FE0C8010E944E4FF1ECEF2EFFE096
:10564000FF2EC7010E944E4F81E08093640FC80176
:105650000E94764AAB01BC01405E5F4F6F4F7F4FA7
:10566000C8010E94C550C7010E94764AAB01BC0127
:10567000405E5F4F6F4F7F4FC7010E94C550C8010A
:105680000E94764AAB01BC014052504060407040DD
:10569000C8010E94C550C7010E94764AAB01BC01F7
:1056A0004052504060407040C7010E94C55088EB96
:1056B00096E16FE07AE00E94B6771F910F91FF901C
:1056C000EF900895EF92FF920F931F937C0108EBE8
:1056D00016E1C80162EC73E00E942A75C801B701A7
:1056E0000E94C777C80164EA73E00E9475751F9134
:1056F0000F91FF90EF900895AF92BF92CF92DF92FB
:10570000EF92FF920F931F93DF93CF93CDB7DEB746
:105710002E970FB6F894DEBF0FBECDBFADB6BEB6A6
:105720007E010894E11CF11CC7016FE270E10E9448
:10573000B17B8E01085F1F4FC80166E370E10E94D4
:10574000B17BC70165E072E00E94C979882309F046
:1057500057C088EB96E16FE17AE00E94D07688EB43
:1057600096E1B7010E94F97781E08093DB0E8CED22
:105770009EE0B7010E949C7BC8016CE37AE00E9426
:10578000C979882309F442C0DDB6CEB64D815E8169
:105790004F5F5F4F8DB79EB7841B950B0FB6F89484
:1057A0009EBF0FBE8DBF0DB71EB70F5F1F4FC70146
:1057B000B80120E030E00E947A798DE392E1B801EF
:1057C0000E947F58882399F088EB96E164EC71E0A1
:1057D0000E9475758DE392E1B8010E947558882387
:1057E00031F088EB96E166EB71E00E9475758D2DC6
:1057F0009C2D9C010FB6F8943EBF0FBE2DBF06C076
:1058000088EB96E16EE37AE00E94B677CE010896C7
:105810000E94C37BCE0101960E94C37B0FB6F89411
:10582000BEBE0FBEADBE2E960FB6F894DEBF0FBE45
:10583000CDBFCF91DF911F910F91FF90EF90DF903F
:10584000CF90BF90AF9008950F931F93AB01BC0111
:105850004093F50D5093F60D6093F70D7093F80D8E
:105860008DE79FE00E94A54F4091F50D5091F60DF8
:105870006091F70D7091F80D81EC9FE00E94A54FAB
:1058800008EB16E1C80166E172E00E942A754091BA
:10589000F50D5091F60D6091F70D7091F80DC8015E
:1058A00022E030E00E94A5771F910F910895CF92DA
:1058B000DF92EF92FF920F931F937C018B01AAE37B
:1058C000CA2EA2E1DA2EC601B701F80140810E947A
:1058D000ED530894E11CF11CC601B701F8014181A8
:1058E0000E94ED5382E090E01F910F91FF90EF90A6
:1058F000DF90CF9008950F931F93AB01BC014093AD
:10590000F10D5093F20D6093F30D7093F40D8DE74C
:105910009FE00E94804C4091F10D5091F20D6091FA
:10592000F30D7091F40D81EC9FE00E94804C08EB28
:1059300016E1C80169E272E00E942A754091F10DFA
:105940005091F20D6091F30D7091F40DC80122E0B9
:1059500030E00E94A5771F910F910895CF92DF92BA
:10596000EF92FF920F931F937C018B01BAE3CB2E32
:10597000B2E1DB2EC601B7010E94E653F801808335
:105980000894E11CF11CC601B7010E94E653F8011E
:10599000818382E090E01F910F91FF90EF90DF9064
:1059A000CF90089584E190E06FEE7DE0D7DF8091A5
:1059B000EF0D9091F00D1816190644F080913C0EF1
:1059C00090913D0E9093F00D8093EF0D88EB96E152
:1059D00065EF72E00E942A756091EF0D7091F00DF5
:1059E00088EB96E14AE050E00C94B3768AE290E0CE
:1059F0006AE37EE0B3DF80913A0E90913B0E97FF11
:105A000006C08AE590E090933B0E80933A0E88EBB7
:105A100096E167E373E00E942A7560913A0E7091F7
:105A20003B0E88EB96E14AE050E00E94B3768CE2B0
:105A300090E068E37EE092DF8091380E9091390E1D
:105A400097FF06C084EB90E09093390E8093380E58
:105A500088EB96E168E273E00E942A756091380E47
:105A60007091390E88EB96E14AE050E00C94B376E1
:105A70000F931F93DF93CF93CDB7DEB762970FB627
:105A8000F894DEBF0FBECDBF8E010B5F1F4FC80164
:105A90006FE270E10E94B17BC8010E945F119A839E
:105AA0008983C8010E94C37B8E01045F1F4FC80118
:105AB00066E370E10E94B17BC8010E945F119C8384
:105AC0008B83C8010E94C37B88EB96E16EE372E092
:105AD0000E942A7569817A8188EB96E14AE050E05C
