:10000000CDC20000F8C20000F6C20000F4C2000039
:10001000F2C20000F0C20000EEC20000ECC200001C
:10002000EAC20000E8C20000E6C20000E4C200002C
:10003000E2C20000E0C20000DEC20000DCC200003C
:10004000DAC200000C946C52D6C20000D4C2000088
:10005000D2C20000D0C20000CEC200000C94E16AFF
:10006000CAC200000C94086D0C94306EC4C200002B
:10007000C2C20000C0C20000BEC20000BCC200007C
:100080000C943F52B8C20000B6C20000B4C20000D7
:100090000C94416D0C946F6EAEC20000ACC20000B7
:1000A000AAC20000A8C200000C941252A4C2000010
:1000B000A2C20000A0C200009EC200000C94E55144
:1000C0009AC2000098C2000096C200000C947A6D9B
:1000D0000C94AE6E90C200000C94B36D0C94ED6E57
:1000E0008AC2000005A84CCDB2D44EB93836A90258
:1000F0000C50B9918688083CA6AAAA2ABE00000026
:10010000803F000000006410B71DC8206E3BAC307B
:10011000D9269041DC76F4516B6B5861B24D3C713D
:1001200005502083B8ED44930FF0E8A3D6D68CB3E6
:1001300061CBB0C2649BD4D2D38678E20AA01CF211
:10014000BDBD50424D20696D616765206D7573744A
:10015000206265206174206C6561737420313020E9
:10016000706978656C7320776964652E002C206D4A
:1001700061782064656E736974793A20002C207070
:10018000656E2077696474683A200050656E7769FF
:10019000647468207465737420004368616E6769D5
:1001A0006E67206261636B20746F206C69766520D6
:1001B0006D6F64652E0046696C652072656D6F76A3
:1001C00065642E0046696C6520616C7265616479B6
:1001D000206578697374732E00457865637574695A
:1001E0006E6720636F6D6D616E643A0053746F7259
:1001F000696E6720636F6D6D616E643A006D6D00AE
:100200004368616E6765642050656E207769647429
:100210006820746F20004E657720616363656C65AC
:10022000726174696F6E3A20004E6577206D617857
:100230002073706565643A200055703A2000446F61
:10024000776E3A2000504753504545442C005047A4
:100250004C4946542C005047535445504D554C542E
:1002600049504C4945522C00504753544550535027
:1002700045525245562C0050474D4D50455252451F
:10028000562C00504753495A452C0050474E414D7B
:10029000452C002900526563616C632070616765BD
:1002A00048656967687420696E207374657073208F
:1002B00028002900526563616C632070616765578F
:1002C0006964746820696E207374657073202800F7
:1002D0002900292C2073746570735065724D4D2070
:1002E0002800526563616C63206D6D5065725374B4
:1002F00065702028004C6F61646564206D6F746FB9
:10030000722073746570206D756C7469706C6965AA
:10031000723A004C6F61646564206D616368696E58
:1003200065206E616D653A004C6F6164656420758F
:100330007020706F733A004C6F6164656420646F65
:10034000776E20706F733A004C6F61646564206D46
:100350006F746F7220737465707320706572207291
:1003600065763A004C6F61646564206D6D20706540
:1003700072207265763A005072654C6F61646564F4
:10038000206D6D20706572207265763A004C6F6149
:10039000646564206D616368696E6520686569677E
:1003A00068743A004C6F61646564206D61636869CC
:1003B0006E652077696474683A002069736E2774EB
:1003C000206120636F6D6D616E64204920726563EA
:1003D0006F676E6973652E00536F7272792C2000FF
:1003E00029206E6F74207061727365642E00436FF4
:1003F0006D6D616E64202800436865636B73756D75
:10040000206E6F74206D617463686564213A0049E1
:1004100020676F7420007600504F4C415247524184
:100420005048204F4E21007C3C3E5E2B3D3F2F5BD1
:100430005D3B2C2A225C0000002100240027002ABA
:10044000002D003000330001010000040107010A03
:100450000100002200250028002B002E003100346E
:100460000002010000050108010B0100002000232B
:1004700000260029002C002F00320000010000039C
:100480000106010901050505050705080808080218
:100490000202020A0A08080404040401010101011D
:1004A0000101010303030303030303040707070C0C
:1004B0000C0C0C0C0C0C0C020202020606060606C2
:1004C0000606060B0B0B0B0B0B0B0B01021020206F
:1004D0000808102040102040800201020108040298
:1004E000010102040810204080804020100804020E
:1004F0000180040201804020100804020108040267
:10050000010102040810204080010204081020406C
:10051000800000090A02080B0C0D07060304010005
:1005200000000000000000000000000000000000CB
:100530000000000000000000000000000011100F8B
:1005400000000000000000000000000000000000AB
:1005500000000000000000494E46494E4954594EE3
:10056000414ECDCCCC3D0AD7233C17B7D13877CC00
:100570002B329595E6241FB14F0A00002041000060
:10058000C84200401C4620BCBE4CCA1B0E5AAEC519
:100590009D74D30CAC5248565770CE0C11241FBE1C
:1005A000CFEFD1E2DEBFCDBF00E00CBF1DE0A0E089
:1005B000B2E0E0EDF7EF00E00BBF02C007900D9254
:1005C000A83EB107D9F71BBE16E1A8EEBDE001C0F9
:1005D0001D92AB36B107E1F715E0CAE9D5E004C0DA
:1005E0002297FE010E94967BC239D107C9F70E946B
:1005F00075710C94DC7B04CDCF93DF93BC0182300A
:10060000910510F462E070E0A0916716B091681651
:10061000ED01E0E0F0E040E050E021C08881998108
:100620008617970769F48A819B81309719F0938325
:10063000828304C09093681680936716FE0134C0CD
:100640006817790738F44115510519F08417950793
:1006500008F4AC01FE018A819B819C01E90120978D
:10066000E9F641155105A9F1CA01861B970B0497BC
:1006700008F4BA01E0E0F0E02AC08D919C91119756
:1006800084179507F9F46417750781F412968D9114
:100690009C911397309719F09383828304C09093B1
:1006A000681680936716FD0132964CC0CA01861BFE
:1006B000970BFD01E80FF91F6193719302978D93DA
:1006C0009C9340C0FD01828193819C01D9011097C8
:1006D000A1F68091651690916616892B41F4809160
:1006E000360D9091370D9093661680936516409164
:1006F000380D5091390D4115510541F44DB75EB794
:100700008091340D9091350D481B590B2091651641
:1007100030916616CA01821B930B8617970780F0EB
:10072000AB014E5F5F4F8417950750F0420F531F88
:100730005093661640936516F9016193719302C058
:10074000E0E0F0E0CF01DF91CF910895CF93DF9308
:10075000009709F450C0EC0122971B821A82A091E5
:100760006716B0916816109709F140E050E0AC1799
:10077000BD0708F1BB83AA83FE0121913191E20FED
:10078000F31FAE17BF0779F48D919C911197280F35
:10079000391F2E5F3F4F3983288312968D919C918C
:1007A00013979B838A834115510571F4D093681682
:1007B000C093671620C012968D919C911397AD013E
:1007C000009711F0DC01D3CFFA01D383C2832191CA
:1007D0003191E20FF31FCE17DF0769F48881998109
:1007E000280F391F2E5F3F4FFA01318320838A8102
:1007F0009B8193838283DF91CF910895A0E0B0E045
:10080000E4E0F4E00C94AD7BEC01A880B980CA80F0
:10081000DB80A114B104C104D10441F484E2A82E08
:1008200089EDB82E8BE5C82E87E0D82EC601B5011C
:100830002DE133EF41E050E00E94657B27EA31E48F
:1008400040E050E00E94057B7B018C01C601B501B0
:100850002DE133EF41E050E00E94657BCA01B90110
:100860002CEE34EF4FEF5FEF0E94057B6E0D7F1D86
:10087000801F911F97FF04C06150704080409048D6
:10088000688379838A839B839B01AC015F77B9017D
:10089000CA01CDB7DEB7EAE00C94C97BAFCF8AE3DB
:1008A0009DE0ACCF60933A0D70933B0D80933C0D6F
:1008B00090933D0D0895A0E0B0E0E1E6F4E00C94E3
:1008C000A77B6C01009721F4CB0196DE6C01BDC0C3
:1008D0008EEF882E8FEF982E8C0C9D1C8601060FB4
:1008E000171F0815190508F4AEC0F401A081B181E5
:1008F000A617B707B0F0A530B10508F4A6C0CD0122
:1009000004978617970708F4A0C01297A61BB70B89
:10091000F801A193B193D4016D937C93CF0116DFBD
:1009200094C07B01EA1AFB0AEEEFFFEFEE0EFF1E0A
:1009300036016A0E7B1EC0916716D091681644245A
:100940005524AA24BB244AC0C615D705E1F5488121
:1009500059814E155F05B8F1CA0104978E159F05A0
:10096000B0F41296A40FB51FF401B183A0832A81BD
:100970003B814114510431F0D20113963C932E93E4
:10098000129763C030936816209367165EC08A8101
:100990009B81F80193838283425050404E195F0936
:1009A000518340834114510431F0D20113961C93BA
:1009B0000E93129704C01093681600936716F40103
:1009C0007183608342C088819981A816B90608F4B2
:1009D0005C012E018A819B819C01E901209709F02D
:1009E000B3CF809165169091661686159705E9F448
:1009F000A616B706D0F42091380D3091390D211587
:100A0000310541F42DB73EB78091340D9091350DED
:100A1000281B390B02171307B0F4109366160093C6
:100A20006516D4016D937C9310C0CB01E5DDEC011C
:100A3000009749F0F40140815181B6015FD0C601B1
:100A400085DE6E0102C0CC24DD24C601CDB7DEB741
:100A5000E0E10C94C37B66277727C8C0FC01882798
:100A60009927E89421912032E9F3293010F02E30B3
:100A7000C8F32B3239F02D3231F4689403C0AED074
:100A8000820F911D219120532A30C8F31EF49095B6
:100A900081959F4F08951F93FC0199278827BC01DA
:100AA000E89411911032E9F3193010F01E30C8F3B8
:100AB0001B3249F01D3241F4689405C07AD0610FB1
:100AC000711D811D911D119110531A30B8F33EF420
:100AD00090958095709561957F4F8F4F9F4F1F9197
:100AE0000895FB01DC0104C08D910190801921F46F
:100AF00041505040C8F7881B990B0895FB01DC0159
:100B000002C001900D9241505040D8F70895FC0169
:100B10008191861721F08823D9F799270895319775
:100B2000CF010895FB01DC018D9101908019011026
:100B3000D9F3990B0895FB01DC0101900D9200207F
:100B4000E1F70895FB01DC014150504030F08D91F8
:100B50000190801919F40020B9F7881B990B0895AA
:100B6000FB01DC014150504048F001900D92002003
:100B7000C9F701C01D9241505040E0F70895FB01B4
:100B800051915523A9F0BF01DC014D914517411149
:100B9000E1F759F4CD010190002049F04D91401545
:100BA0004111C9F3FB014111EFCF81E090E00197C2
:100BB0000895592F482F372F262F660F771F881F2C
:100BC000991F660F771F881F991F620F731F841F5D
:100BD000951F660F771F881F991F08957AE0979FCA
:100BE000902D879F802D910D11240895A0E0B0E0F5
:100BF000ECEFF5E00C94AB7BEC015B01611571054A
:100C000019F0FB0191838083F9908F2D90E00E9471
:100C10009A7B892BC9F7FDE2FF1621F4F990EE24A7
:100C2000E39405C02BE2F21609F4F990EE248E014C
:100C300001501040C80167E575E043E050E033D152
:100C4000892BF9F48E010E5F1F4FC8016AE575E02C
:100C500045E050E028D1892B19F48E01095F1F4F20
:100C6000A114B10419F0F50111830083E0FC04C064
:100C700070E090E080E813C070E090E080E86FEFF3
:100C800007C1C8016FE575E043E050E00CD1892B46
:100C900069F4A114B10429F470E090E080EC6FE7EE
:100CA000F7C02296F501D183C083F6CF882499241A
:100CB00040E050E060E070E0EF2DE053EA30A0F556
:100CC000F2E0EF2A8E2D90E09C0128703070E2FE59
:100CD00006C0232B79F50894811C911C2BC0232B73
:100CE00019F0089481089108DB01CA0112E0880F0D
:100CF000991FAA1FBB1F1A95D1F7480F591F6A1FCA
:100D00007B1F440F551F661F771F4E0F511D611D1E
:100D1000711D483929E9520729E9620729E172075B
:100D200048F084E0E82A06C0EE3F31F4E3FC39C025
:100D300098E0E92AF990C0CFE53311F0E53189F563
:100D400029912D3219F4E0E1EE2A05C02B3219F079
:100D500081E090E003C0299182E090E0E22FE0532F
:100D6000EA3018F0C81BD90B1CC020E030E0FCE0D2
:100D700020383F075CF4C901880F991F880F991F1D
:100D8000280F391F220F331F2E0F311DE991E05319
:100D9000EA3068F3E4FE03C0309521953F4F820EA0
:100DA000931ECE2CDD24E1FE07C0A114B10421F076
:100DB0002197F501D183C083CB01BA010E94097943
:100DC0007B018C01F3E0CF22DD2423E0C216D104A5
:100DD00021F417FB109517F9109557016801C80108
:100DE000B70120E030E040E050E00E9469788823BD
:100DF00009F44AC097FE0DC026E7E22E25E0F22E48
:100E00009094819491089394C0E2D0E000E010E0C7
:100E100012C09EE8E92E95E0F92EF6CFF701259154
:100E2000359145915491C601B5010E94017A5B014B
:100E30006C018C1A9D0A8C169D0684F7D595C79572
:100E40000F5F1F4F0630110529F08CEF9FEFE80E62
:100E5000F91EF1CFC501D6017C018D018C2D880FC3
:100E60008D2D881F8F3F51F0C601B50120E030E085
:100E700040E050E00E946978882331F482E290E0FB
:100E800090936A16809369167E2D9F2D802F612F77
:100E9000272F392F482F562FB901CA01CDB7DEB7FA
:100EA000ECE00C94C77BFB01DC014150504088F022
:100EB0008D9181341CF08B350CF4805E659161342A
:100EC0001CF06B350CF4605E861B611171F3990B9D
:100ED0000895881BFCCFAF92BF92CF92DF92EF9222
:100EE000FF920F931F936E157F058007910734F4CF
:100EF0002E153F054007510764F42CC0E616F7068F
:100F00000807190794F4A216B306C406D5063CF4E4
:100F100023C0A216B306C406D506BCF41FC02A150A
:100F20003B054C055D05C4F41BC06E157F058007AD
:100F3000910791F42A153B054C055D058CF0A2162E
:100F4000B306C406D50644F409C02A153B054C0572
:100F50005D0511F484E005C082E003C083E001C0B8
:100F600081E01F910F91FF90EF90DF90CF90BF90A5
:100F7000AF900895EF92FF920F931F937B018C0126
:100F8000662757FD6095762FCB01BA010E940B7939
:100F90002091F40D3091F50D4091F60D5091F70D23
:100FA0000E94017AA80197010E9470787B018C0150
:100FB00020E030E040E050E40E94FD7987FF03C06C
:100FC00061E070E004C0C801B7010E94D878CB018D
:100FD0001F910F91FF90EF9008956F927F928F92E3
:100FE0009F92AF92BF92CF92DF92EF92FF920F93B8
:100FF0001F93CF93DF937C015B01662757FD6095BC
:10100000762FCB01BA010E940B793B014C010027DE
:10101000F7FC0095102FC801B7010E940B797B01E6
:101020008C01CC24B7FCC094DC2CC601B5010E9415
:101030000B799B01AC01C801B7010E947078A40133
:1010400093010E94017A9B01AC01C401B3010E948B
:1010500004787B018C010E94D878EB01BE018827BF
:1010600077FD8095982F0E940B799B01AC01C801F8
:10107000B7010E94047820E030E040E05FE30E9486
:10108000FD7918160CF42196CE01DF91CF911F91B6
:101090000F91FF90EF90DF90CF90BF90AF909F9017
:1010A0008F907F906F900895CF92DF92EF92FF9292
:1010B0000F931F93CF93DF93EC016B0168817981CC
:1010C0008A819B812091780D3091790D40917A0D24
:1010D00050917B0D0E94017A688379838A839B8378
:1010E000F601608171818281938120917C0D309124
:1010F0007D0D40917E0D50917F0D0E94017A7B0104
:101100008C01F60160837183828393832091C910DF
:101110003091CA10C9018E978A35910580F42881D3
:1011200039814A815B81D801C701B058888399838E
:10113000AA83BB83208331834283538329C0C9019F
:10114000885890408A35910580F488819981AA81D8
:10115000BB81B05888839983AA83BB83F6018081C1
:101160009181A281B381B0580FC0225E30402A35F0
:10117000310570F488819981AA81BB81E882F98266
:101180000A831B83B058F60180839183A283B383C3
:10119000688179818A819B812091CB103091CC101C
:1011A0004091CD105091CE100E94057868837983CC
:1011B0008A839B83F6016081718182819381209172
:1011C000CF103091D0104091D1105091D2100E9488
:1011D0000578F6016083718382839383DF91CF91D9
:1011E0001F910F91FF90EF90DF90CF9008952F9275
:1011F0003F924F925F926F927F928F929F92AF92A7
:10120000BF92CF92DF92EF92FF920F931F931B0139
:101210002C0139014A01E090FC0DF090FD0D009188
:10122000FE0D1091FF0DC801B701A80197010E94A2
:10123000057B0E940B795B016C01C401B301A40121
:1012400093010E94017A9B01AC01C601B5010E9485
:1012500004785B016C01C201B101A20191010E94FD
:10126000017A9B01AC01C601B5010E9405785B01C2
:101270006C01EE0CFF1C001F111FC801B7010E947A
:101280000B799B01AC01C601B5010E9470781F91DA
:101290000F91FF90EF90DF90CF90BF90AF909F9015
:1012A0008F907F906F905F904F903F902F90089518
:1012B0000F931F93CF93DF93242F2627A22FB0E005
:1012C000AF70B070AA0FBB1FAA0FBB1FC2E0D1E066
:1012D000AC0FBD1FFD010591159125913491E4E0FE
:1012E0009695879577956795EA95D1F706271727FD
:1012F0002827392742954F70402750E04F70507093
:10130000440F551F440F551F4C0F5D1FFA01859167
:101310009591A591B49144E0369527951795079539
:101320004A95D1F7082719272A273B27B801C90171
:10133000DF91CF911F910F910895EF92FF920F933C
:101340001F938130910509F029C26F5F7F4F09F02B
:1013500020C381E49FE060E072E00E94537789EE51
:101360009DE00E94814F8DEE9DE064E072E00E945E
:10137000537788E49FE065E072E00E9453776091C4
:10138000440D7091450D882777FD8095982F209109
:101390003E0D30913F0D442737FD4095542F0E945C
:1013A000057B0E940B797B018C016091400D70914F
:1013B000410D8091420D9091430DA80197010E942B
:1013C00070786093F40D7093F50D8093F60D909303
:1013D000F70DC801B7012091400D3091410D4091AA
:1013E000420D5091430D0E9470787B018C016093F7
:1013F000F80D7093F90D8093FA0D9093FB0D6091A9
:10140000740D7091750D882777FD8095982F0E9437
:101410000B79A80197010E94017A0E94D878609305
:10142000FC0D7093FD0D8093FE0D9093FF0D609168
:10143000760D7091770D882777FD8095982F0E9403
:101440000B79A80197010E94017A0E94D8786093D5
:10145000000E7093010E8093020E9093030E8FE4A2
:101460009FE06EE072E00E94537786E59FE060E1C6
:1014700072E00E9453778DE59FE064E172E00E9484
:10148000537784E69FE06CE172E00E9453778BE62D
:101490009FE06FE472E00E94537782E79FE06FE481
:1014A00072E00E94537789E79FE06FE472E00E9448
:1014B000537780E89FE06FE472E00E94537787E8FB
:1014C0009FE06EE572E00E9453778EE89FE068E649
:1014D00072E00E94537785E99FE06FE672E00E9418
:1014E00053778CE99FE067E772E00E94537783EAC5
:1014F0009FE062E872E00E9453778AEA9FE067E823
:101500007FE00E94E87784E19EE064E072E00E9460
:10151000537781EB9FE068E872E00E94537788EB95
:101520009FE06AE872E00E9453778FEB9FE06FE8DC
:1015300072E00E94537786EC9FE063E972E00E94BC
:1015400053778DEC9FE067E972E00E94537784ED5A
:101550009FE06BE972E00E9453778BED9FE06FE9AB
:1015600072E00E94537782EE9FE063EA72E00E948D
:10157000537789EE9FE067EA72E00E94537780EF2D
:101580009FE06BEA72E00E94537787EF9FE06FEA7B
:1015900072E00E9453778EEF9FE063EB72E00E944F
:1015A000537785E090E167EB72E00E9453778CE01F
:1015B00090E16BEB72E00E94537783E190E16FEB77
:1015C00072E00E9453778AE190E163EC72E00E943E
:1015D000537781E290E167EC72E00E94537788E2F2
:1015E00090E16BEC72E00E9453778FE290E16FEC38
:1015F00072E00E94537786E390E163ED72E00E940F
:1016000053778DE390E167ED72E00E94537784E4B5
:1016100090E16BED72E00E9453778BE490E16FED07
:1016200072E00E94537782E590E163EE72E00E94DF
:10163000537789E590E167EE72E00E94537780E688
:1016400090E16BEE72E00E94537787E690E16FEED7
:1016500072E00E9453778EE690E163EF72E00E94A1
:10166000537785E790E167EF72E00E9453778CE74C
:1016700090E16BEF72E00E94537783E890E16FEFA7
:1016800072E00E9453778AE890E163E073E00E9481
:10169000537781E990E167E073E00E94537788E92E
:1016A00090E16BE073E00E9453778FE990E16FE087
:1016B00073E00E94537786EA90E163E173E00E9451
:1016C00053778DEA90E167E173E00E94537784EBF2
:1016D00090E16BE173E00E9453778BEB90E16FE157
:1016E00073E00E94537782EC90E163E273E00E9422
:1016F00053778DE19EE064E072E00E94537786E2CA
:101700009EE064E072E00E9453771092320E1092D5
:10171000330E1092360E1092380E82E090E0A0E068
:10172000B0E08093390E90933A0EA0933B0EB093A5
:101730003C0E1092500E10925A0E1092590E84EDDB
:101740009DE09093580E8093570E10925C0E84E7A4
:101750009EE00E94B25460913E0D70913F0D81EA6F
:101760009EE041E00E94495460913E0D70913F0D12
:101770008DEA9EE042E00E94495489EB9EE066E5D6
:1017800074E340E554E30E94CC4A8DEF9EE06AE4A6
:1017900074E344E454E30E94CC4AFBC0892B09F073
:1017A000F8C06F5F7F4F09F0F4C084E79EE00E94AD
:1017B000C55486E29EE00E94FA778DE19EE00E9489
:1017C000FA7782EC90E10E94FA778BEB90E10E942D
:1017D000FA7784EB90E10E94FA778DEA90E10E941B
:1017E000FA7786EA90E10E94FA778FE990E10E9409
:1017F000FA7788E990E10E94FA7781E990E10E9406
:10180000FA778AE890E10E94FA7783E890E10E94F3
:10181000FA778CE790E10E94FA7785E790E10E94E1
:10182000FA778EE690E10E94FA7787E690E10E94CF
:10183000FA7780E690E10E94FA7789E590E10E94CC
:10184000FA7782E590E10E94FA778BE490E10E94BA
:10185000FA7784E490E10E94FA778DE390E10E94A8
:10186000FA7786E390E10E94FA778FE290E10E9496
:10187000FA7788E290E10E94FA7781E290E10E9493
:10188000FA778AE190E10E94FA7783E190E10E9481
:10189000FA778CE090E10E94FA7785E090E10E946F
:1018A000FA778EEF9FE00E94FA7787EF9FE00E9421
:1018B000FA7780EF9FE00E94FA7789EE9FE00E941E
:1018C000FA7782EE9FE00E94FA778BED9FE00E940C
:1018D000FA7784ED9FE00E94FA778DEC9FE00E94FA
:1018E000FA7786EC9FE00E94FA778FEB9FE00E94E8
:1018F000FA7788EB9FE00E94FA7781EB9FE00E94E5
:10190000FA7784E19EE00E94FA778AEA9FE00E94DB
:10191000FA7783EA9FE00E94FA778CE99FE00E94C1
:10192000FA7785E99FE00E94FA778EE89FE00E94AF
:10193000FA7787E89FE00E94FA7780E89FE00E94AC
:10194000FA7789E79FE00E94FA7782E79FE00E949A
:10195000FA778BE69FE00E94FA7784E69FE00E9488
:10196000FA778DE59FE00E94FA7786E59FE00E9476
:10197000FA778FE49FE00E94FA7788E49FE00E9464
:10198000FA778DEE9DE00E94FA7781E49FE00E9455
:10199000FA771F910F91FF90EF90089580E090E00B
:1019A0006FEF7FEFCACC81E090E06FEF7FEFC5CCA7
:1019B000CF92DF92EF92FF920F931F93CF93DF931B
:1019C0006C01EE24EA94FE2C8701C0E0D0E00BC04D
:1019D000C601BE010E94C774482FC801B70168DC68
:1019E0007B018C012196F60184819581C817D90766
:1019F00078F3A80197012095309540955095B9014D
:101A0000CA01DF91CF911F910F91FF90EF90DF906E
:101A1000CF9008950F931F9384E090E00E94FC0202
:101A20008C010E94A6032DB73EB7201B310BC901C4
:101A30001F910F910895EEDF9C018091080E909107
:101A4000090E28173907D1F03093090E2093080E9C
:101A500088EE95E16DE57FE00E94FE736091080ECF
:101A60007091090E88EE95E14AE050E00E941B73E8
:101A700088EE95E168EB7FE00C943074089588EE71
:101A800095E16EE87FE00C94307488EE95E167E8AC
:101A90007FE00C943074AF92BF92CF92DF92EF92BE
:101AA000FF920F931F937B018C01CA01B9010E9421
:101AB000017A5B016C01C801B701A80197010E947E
:101AC000017A9B01AC01C601B5010E9404780E9415
:101AD0006E7A1F910F91FF90EF90DF90CF90BF90A3
:101AE000AF9008956F927F928F929F92AF92BF9224
:101AF000CF92DF92EF92FF920F931F937B018C01A5
:101B000076DB5B016C01A8019701C5DF3B014C014D
:101B1000E090580DF090590D00915A0D10915B0D09
:101B2000C801B7010E940B799B01AC01C601B50148
:101B30000E94697887FD4AC08091600D9091610D87
:101B4000A091620DB091630DE80EF91E0A1F1B1FD4
:101B5000C801B7010E940B799B01AC01C601B50118
:101B60000E94FD79181694F1E0905C0DF0905D0DE7
:101B700000915E0D10915F0DC801B7010E940B79B5
:101B80009B01AC01C401B3010E94697887FD1EC0AE
:101B9000DD248091640D9091650DA091660DB0914A
:101BA000670DE80EF91E0A1F1B1FC801B7010E942E
:101BB0000B799B01AC01C401B3010E94FD79181699
:101BC00014F4DD24D39481E0D82601C0DD248D2DCA
:101BD0001F910F91FF90EF90DF90CF90BF90AF904B
:101BE0009F908F907F906F900895AF92BF92CF9209
:101BF000DF92EF92FF920F931F937B018C015901AB
:101C00006A016091FC0D7091FD0D8091FE0D909127
:101C1000FF0D0E940B79A80197010E9404789B0197
:101C2000AC010E94017A7B018C01C601B501A601BD
:101C300095010E94017A9B01AC01C801B7010E9485
:101C400005780E946E7A1F910F91FF90EF90DF90C0
:101C5000CF90BF90AF900895AF92BF92CF92DF9296
:101C6000EF92FF920F931F937B018C0159016A0140
:101C7000A80197010E94017A7B018C01C601B50180
:101C8000A60195010E94017A9B01AC01C801B70130
:101C90000E9405780E946E7A1F910F91FF90EF903D
:101CA000DF90CF90BF90AF9008952F923F924F92C8
:101CB0005F926F927F928F929F92AF92BF92CF92DC
:101CC000DF92EF92FF920F931F93DF93CF9300D099
:101CD0000F92CDB7DEB769837A838B839C835901DA
:101CE0006A0117012801611571058105910559F4F3
:101CF0000F2EF0E0EF2EF0E0FF2EF0E00F2FF0E0DF
:101D00001F2FF02DA4C0CA01B9010E94017A7B01E6
:101D10008C01C601B50120E030E040E050E00E94B7
:101D20006978882324F417FB109517F91095C201E0
:101D3000B101A20191010E9405783B014C01C8014B
:101D4000B701A40193010E9470787B018C01698125
:101D50007A818B819C810E940B799B01AC01C80127
:101D6000B7010E9469788823B4F5C601B50120E067
:101D700030E040E050E00E946978882329F4C401F3
:101D8000B3010E946E7A0DC0C201B101A601950196
:101D90000E9470789B01AC015F77C601B5010E947B
:101DA00005787B018C01D090460DC090470DB09016
:101DB000480DA090490D2D2D3C2D4B2D5A2D0E94E4
:101DC000FD7918160CF043C08D2D9C2DAB2DBA2D2E
:101DD0007C018D013CC0C601B50120E030E040E04F
:101DE00050E00E946978882359F4C401B3010E942D
:101DF0006E7A7B018C0117FB109517F910950FC0B7
:101E0000C201B101A60195010E9470789B01AC014D
:101E10005F77C601B5010E9404787B018C01809137
:101E2000460D9091470DA091480DB091490D5C0170
:101E30006D01D7FAD094D7F8D094C801B701A601A4
:101E400095010E946978882314F486017501B70111
:101E5000C8010F900F900F900F90CF91DF911F91BD
:101E60000F91FF90EF90DF90CF90BF90AF909F9039
:101E70008F907F906F905F904F903F902F9008953C
:101E800080914F0D8823F1F188EE95E163EA7FE0C0
:101E90000E94FE7389EB9EE00E9429492091440D27
:101EA0003091450D442737FD4095542F0E94657BA6
:101EB00088EE95E1BA01A9012AE030E00E94CB72D8
:101EC00088EE95E161EB7FE00E94FE738DEF9EE06E
:101ED0000E9429492091440D3091450D442737FD3A
:101EE0004095542F0E94657B88EE95E1BA01A901C7
:101EF0002AE030E00E94CB7288EE95E168EB7FE04B
:101F00000C9430740895EF92FF920F931F93809179
:101F1000040E9091050EA091060EB091070E009749
:101F2000A105B10509F03FC06091FC0D7091FD0D58
:101F30008091FE0D9091FF0D0E940B797B018C0129
:101F40006091000E7091010E8091020E9091030E2F
:101F50000E940B799B01AC01C801B7017DDE20E036
:101F600030E040E05FE30E9405780E94D8786093FB
:101F7000040E7093050E8093060E9093070E88EE64
:101F800095E167E273E00E944A734091040E50911C
:101F9000050E6091060E7091070E88EE95E12AE01D
:101FA00030E00E9409736091040E7091050E8091DB
:101FB000060E9091070E1F910F91FF90EF900895DC
:101FC00088EE95E16EE373E00C94ED7388EE95E195
:101FD0006AE971E00E94F7711092250E08958F92C0
:101FE0009F92AF92BF92CF92DF92EF92FF920F93A8
:101FF0001F936C017B0188EE95E165E573E00E941B
:102000004A7388EE95E1B6014AE050E00E941B73E6
:1020100088EE95E16EE573E00E944A7388EE95E1E3
:10202000B7014AE050E00E942D7388EE95E163E627
:1020300073E00E944A736091990E70919A0E88EE37
:1020400095E14AE050E00E942D7388EE95E163E748
:1020500073E00E944A7340918F0E5091900E6091F0
:10206000910E7091920E88EE95E12AE030E00E9488
:1020700009734601AA2497FCA094BA2C8091990E6A
:1020800090919A0EAA2797FDA095BA2F880E991EB7
:10209000AA1EBB1E0027F7FC0095102F20918F0E63
:1020A0003091900E4091910E5091920EC801B7015F
:1020B0000E94057B860E971EA81EB91E88EE95E12C
:1020C0006DE773E00E944A7388EE95E1B501A401C3
:1020D0002AE030E00E94CB7280919B0E90919C0E82
:1020E000A0919D0EB0919E0E88159905AA05BB057D
:1020F00014F41FEF18C084E79EE0B501A4010E940C
:102100004C5584E79EE00E945C55182F88EE95E1BF
:1021100066E873E00E944A7388EE95E1612F4AE019
:1021200050E00E94AF72812F1F910F91FF90EF90AE
:10213000DF90CF90BF90AF909F908F9008956F9257
:102140007F928F929F92AF92BF92CF92DF92EF9247
:10215000FF920F931F93DF93CF93CDB7DEB7A39773
:102160000FB6F894DEBF0FBECDBF6DB67EB684E766
:102170009EE040E050E060E070E00E944C557E013F
:102180000894E11CF11CC70165E973E00E945377D4
:1021900084E79EE00E945C55182FC70160E070E064
:1021A0000E94D874FC01108384E79EE00E945C5575
:1021B000182FC70161E070E00E94D874FC01108301
:1021C000C70168E973E00E940076882399F488EEDD
:1021D00095E16BE973E00E944A7388EE95E1B701DF
:1021E0000E94FE7388EE95E169EB73E00E94ED7347
:1021F00010E083C188EE95E164ED73E00E94ED7319
:1022000084E79EE00E945C558E01085F1F4FC80165
:1022100064E072E00E94537784E79EE00E945C5580
:10222000E82E9FE0C92ED12CCC0EDD1EF02E012F02
:1022300021C083E2E81641F484E79EE00E945C55E9
:10224000E82E9AE0E916C1F7C6016F2D702F0E94A3
:10225000F177C6016E2D0E942577BC018F2D902F3E
:102260000E94D377C6010E94FF7784E79EE00E9418
:102270005C55E82E8AE0E81619F090E2E916C9F6F6
:1022800088EE95E16AEF73E00E944A7388E0E82ED9
:10229000F12CEC0EFD1E88EE95E1B7010E94307422
:1022A0004C855D854F5F5F4F8DB79EB7841B950B47
:1022B0000FB6F8949EBF0FBE8DBF0DB71EB70F5F50
:1022C0001F4F902E812EB02EA12EC701B80120E005
:1022D00030E00E94B175C8010E942E05AA2797FD23
:1022E000A095BA2F80938F0E9093900EA093910E8D
:1022F000B093920E0A97A105B10544F488EE95E1DA
:1023000062E471E00E94F77110E0F3C0C70164E07D
:1023100072E00E946C7784E79EE00E945C55182F63
:1023200006E1C02ED12CCC0EDD1EC701FE2C092FDC
:102330001FC0133239F484E79EE00E945C55182FC9
:102340008A30C9F7C6016F2D702F0E94F177C60140
:10235000612F0E942577BC018F2D902F0E94D3778B
:10236000C6010E94FF7784E79EE00E945C55182F0B
:102370001A30F9F688EE95E165E074E00E944A7340
:1023800018E0C12ED12CCC0EDD1E88EE95E1B601F1
:102390000E9430744C855D854F5F5F4FC6016B2D89
:1023A0007A2D20E030E00E94B175892D982D0E9491
:1023B0002E05AA2797FDA095BA2F8093930E909390
:1023C000940EA093950EB093960EBC01CD010E9481
:1023D0000B797B018C0160918F0E7091900E809132
:1023E000910E9091920E0E940B799B01AC01C80155
:1023F000B7010E9470786093700D7093710D809397
:10240000720D9093730D88EE95E161E174E00E9486
:102410004A734091700D5091710D6091720D7091E1
:10242000730D88EE95E122E030E00E94DC73C60176
:1024300064E072E00E946C7784E79EE00E945C5545
:10244000182F0D2DBDE1EB2EF12CEC0EFD1E16C04C
:10245000C7016C2D702F0E94F177C701612F0E9478
:102460002577BC018C2D902F0E94D377C7010E9445
:10247000FF7784E79EE00E945C55182F1A3041F7E1
:1024800088EE95E163E274E00E944A7388EE95E17C
:102490006C2D702F0E9430744C855D854F5F5F4FAF
:1024A0008C2D902F6B2D7A2D20E030E00E94B1759D
:1024B000892D982D0E942E059093980E8093970E4B
:1024C00084E79EE00E94075570939A0E6093990EE0
:1024D00088EE95E167E374E00E944A736091990E7B
:1024E00070919A0E88EE95E14AE050E00E942D73BB
:1024F00011E0CE0108960E94FA77CE0101960E9463
:10250000FA77812F0FB6F8947EBE0FBE6DBEA396EC
:102510000FB6F894DEBF0FBECDBFCF91DF911F91F4
:102520000F91FF90EF90DF90CF90BF90AF909F9072
:102530008F907F906F900895EF92FF920F931F936B
:10254000DF93CF93CDB7DEB7FC01EDB6FEB6448185
:1025500055814F5F5F4F8DB79EB7841B950B0FB6AC
:10256000F8949EBF0FBE8DBF0DB71EB70F5F1F4FF4
:10257000CF01B80120E030E00E94B175C8010E948F
:102580002E050FB6F894FEBE0FBEEDBECF91DF91C3
:102590001F910F91FF90EF900895EF92FF920F938C
:1025A0001F93DF93CF93CDB7DEB727970FB6F8947D
:1025B000DEBF0FBECDBF8E010F5F1F4FC8016BE6A0
:1025C0007FE00E94E877C801B7DF7C01C8010E9464
:1025D000FA77EF2819F410921C0E0EC08091240E89
:1025E000882321F081E080931C0E06C088EE95E1DF
:1025F00065E474E00E94ED7327960FB6F894DEBF91
:102600000FBECDBFCF91DF911F910F91FF90EF9043
:1026100008950F931F93DF93CF93CDB7DEB72E9717
:102620000FB6F894DEBF0FBECDBF8E010F5F1F4FF8
:10263000C8016BE67FE00E94E877C8017DDF9093D8
:10264000830D8093820DC8010E94FA778E01085F86
:102650001F4FC80162E77FE00E94E877C8016CDF86
:102660009093810D8093800DC8010E94FA772E9679
:102670000FB6F894DEBF0FBECDBFCF91DF911F9193
:102680000F910895EF92FF920F931F93DF93CF93D3
:10269000CDB7DEB76B970FB6F894DEBF0FBECDBFD8
:1026A000FC01EDB6FEB6448155814F5F5F4F8DB79B
:1026B0009EB7841B950B0FB6F8949EBF0FBE8DBFBF
:1026C0000DB71EB70F5F1F4FCF01B80120E030E0FC
:1026D0000E94B175CE0101966DE671E1A80121E07D
:1026E0000E9455588B819C819093770E8093760E33
:1026F0008D819E81AF81B8858093780E9093790EFD
:10270000A0937A0EB0937B0E89859A85AB85BC85A4
:1027100080937C0E90937D0EA0937E0EB0937F0EDF
:10272000A0E8BEE0FE013D968DE001900D92815043
:10273000E1F78A8D9B8D90938E0E80938D0ECE0146
:1027400001960E94C55484E79EE00E942D5588237F
:1027500029F488EE95E169E674E007C0F0DC88238F
:1027600041F488EE95E16AE774E00E94ED7380E041
:102770000DC084E79EE00E941A5560939B0E7093F3
:102780009C0E80939D0E90939E0E81E00FB6F89460
:10279000FEBE0FBEEDBE6B960FB6F894DEBF0FBE49
:1027A000CDBFCF91DF911F910F91FF90EF900895D2
:1027B000AF92BF92CF92DF92EF92FF920F931F934F
:1027C000DF93CF93CDB7DEB76B970FB6F894DEBF2C
:1027D0000FBECDBF6C01ADB6BEB640912A0E509172
:1027E0002B0E4F5F5F4F8DB79EB7841B950B0FB6B7
:1027F000F8949EBF0FBE8DBF0DB71EB70F5F1F4F62
:1028000086E29EE0B80120E030E00E94B1757E01D2
:102810000894E11CF11CC7016DE671E1A80123E1F8
:102820000E945558C7010E942D558823D1F088EE8B
:1028300095E162E874E00E944A7388EE95E166E2F1
:102840007EE00E943074C701B6010E943074C70157
:102850000E943A5588EE95E163E974E00E94ED73B9
:102860000CC088EE95E169E974E00E944A7388EE35
:1028700095E166E27EE00E943074CE0101960E94EE
:10288000C5540FB6F894BEBE0FBEADBE6B960FB664
:10289000F894DEBF0FBECDBFCF91DF911F910F9196
:1028A000FF90EF90DF90CF90BF90AF900895EF92A0
:1028B000FF920F931F9385E361E00E94226C8DE6E7
:1028C00091E165E30E947559882329F488EE95E12A
:1028D00068EA74E06AC088EE95E164EC74E00E94F6
:1028E000ED7388EE95E166ED74E00E94ED738DE284
:1028F0009EE061E045E30E94CB5B8823B9F488EE5B
:1029000095E16EEE74E00E94ED7388EE95E166E16C
:1029100075E00E94ED7388EE95E16FE275E00E942C
:10292000ED7388EE95E169E475E03FC088EE95E1CE
:102930006DE875E00E94ED7388EE95E166EB75E059
:102940000E944A738091380E823049F0833061F0E2
:10295000813079F488EE95E163EC75E00EC088EE85
:1029600095E167EC75E009C088EE95E16BEC75E0E8
:1029700004C088EE95E160ED75E00E94ED7389E397
:102980009EE06DE27EE041E00E94C166882381F412
:1029900089E39EE06DE27EE040E00E94C16688230C
:1029A00039F488EE95E168ED75E00E94ED7374C02E
:1029B00088EE95E162E276E00E944A7388EE95E146
:1029C0006091500E4AE050E00E94AF7288EE95E1AF
:1029D0000E94D77120913D0E30E040E050E06091C0
:1029E000420E7091430E8091440E9091450EE9E0A5
:1029F000660F771F881F991FEA95D1F70E94057B04
:102A00007B018C0188EE95E166E376E00E944A73D3
:102A100088EE95E1B801A7012AE030E00E948D72AE
:102A200088EE95E16CE476E00E944A733AE01695F0
:102A30000795F794E7943A95D1F788EE95E1B801B8
:102A4000A7012AE030E00E948D7288EE95E163E6EE
:102A500076E00E944A732AE016950795F794E7946A
:102A60002A95D1F788EE95E1B801A7012AE030E078
:102A70000E948D7288EE95E16AE776E00E94ED7320
:102A800087E59EE069E37EE00E94D66087E59EE0F0
:102A900067E040E00E94D0611F910F91FF90EF909E
:102AA0000895AF92BF92CF92DF92EF92FF920F9371
:102AB0001F9389EB9EE00E944A4F8DEF9EE00E949B
:102AC0004A4F89EB9EE00E94194961157105810505
:102AD000910509F047C06091580D7091590D809192
:102AE0005A0D90915B0D2091600D3091610D4091D8
:102AF000620D5091630D260F371F481F591F0E940A
:102B0000AA745B016C0160915C0D70915D0D809108
:102B10005E0D90915F0D2091640D3091650D409197
:102B2000660D5091670D260F371F481F591F0E94D1
:102B3000AA747B018C01C601B5010E940B795B016F
:102B40006C01C801B7010E940B799B01AC01C60161
:102B5000B50182D80E94D878AB01BC0189EB9EE018
:102B60000E94AE4A8DEF9EE00E94194961157105E1
:102B70008105910509F048C06091580D7091590D7B
:102B800080915A0D90915B0D2091600D3091610DF7
:102B90004091620D5091630D260F371F481F591F3A
:102BA0000E94AA745B016C0160915C0D70915D0DD7
:102BB00080915E0D90915F0D2091640D3091650DB7
:102BC0004091660D5091670D260F371F481F591F02
:102BD0000E94AA747B018C01C601B5010E940B7989
:102BE0005B016C01C801B7010E940B799B01AC012C
:102BF000C601B5010E94F50D0E94D878AB01BC0159
:102C00008DEF9EE00E94AE4A1F910F91FF90EF90D2
:102C1000DF90CF90BF90AF900895EF92FF920F9307
:102C20001F93CF93DF93C0E0D0E088EE95E164EB93
:102C300076E00E944A7388EE95E1BE014AE050E0DA
:102C40000E942D7389EB9EE00E9419496115710560
:102C50008105910509F468C08DEF9EE00E94194935
:102C6000611571058105910509F45EC089EB9EE04F
:102C70000E944A4F8DEF9EE00E944A4FE3CF6EEFD5
:102C80007FEF8FEF9FEF23E030E040E050E00E94C5
:102C9000AA747B018C01A701662757FD6095762FEA
:102CA00089EB9EE00E94BF4A88EE95E16DEB76E0ED
:102CB0000E944A7388EE95E1B7014AE050E00E9415
:102CC0002D738DEF9EE00E941949611571058105F4
:102CD000910511F56EEF7FEF8FEF9FEF23E030E06E
:102CE00040E050E00E94AA747B018C01A701662796
:102CF00057FD6095762F8DEF9EE00E94BF4A88EECB
:102D000095E163ED76E00E944A7388EE95E1B701A4
:102D10004AE050E00E942D73B3D8219683E0C83E6C
:102D2000D80709F082CF0AC089EB9EE00E941949BA
:102D3000611571058105910521F6A1CFDF91CF9134
:102D40001F910F91FF90EF9008958AE892E0909381
:102D5000920D8093910D9093940D8093930D8FE538
:102D600090E090938E0D80938D0D80E991E090938B
:102D7000900D80938F0D81E090E090938C0D809367
:102D80008B0D95DD64EF71E080E090E00C945D6B5D
:102D9000AF92BF92CF92DF92EF92FF920F931F9369
:102DA000CF93DF93EC015B016A0189EE9DE069E05E
:102DB00070E00E941E51CA15DB059CF476010027C5
:102DC000F7FC0095102F89EE9DE0BE010E94075090
:102DD000C801B7010E945D6B2196AC16BD069CF739
:102DE00012C076010027F7FC0095102F89EE9DE0B8
:102DF000BE010E940750C801B7010E945D6B219778
:102E0000CA15DB059CF789EE9DE00E949B4FDF9180
:102E1000CF911F910F91FF90EF90DF90CF90BF90D7
:102E2000AF900895EF92FF920F931F93DF93CF938C
:102E3000CDB7DEB727970FB6F894DEBF0FBECDBF74
:102E400080910A0E90910B0E2091EC0D029714F1D7
:102E5000222329F0E090D310F090D41004C0E09029
:102E6000890DF0908A0D8E010F5F1F4FC8016BE630
:102E70007FE00E94E877C8015FDB90938A0D809322
:102E8000890DC8010E94FA776091890D70918A0DB1
:102E9000C7010AC0213059F46091890D70918A0DE3
:102EA0008091D3109091D41043E050E071DF1092E4
:102EB000EC0D27960FB6F894DEBF0FBECDBFCF91B5
:102EC000DF911F910F91FF90EF900895EF92FF9285
:102ED0000F931F93DF93CF93CDB7DEB727970FB62E
:102EE000F894DEBF0FBECDBF80910A0E90910B0EFD
:102EF0002091EC0D029714F1222329F0E090D310D9
:102F0000F090D41004C0E090890DF0908A0D8E01ED
:102F10000F5F1F4FC8016BE67FE00E94E877C80192
:102F20000BDB9093D4108093D310C8010E94FA77E2
:102F30006091D3107091D410C7010AC0222359F4B4
:102F40006091D3107091D4108091890D90918A0D69
:102F500043E050E01DDF81E08093EC0D27960FB633
:102F6000F894DEBF0FBECDBFCF91DF911F910F91BF
:102F7000FF90EF90089589EB9EE00E94B34D8DEF96
:102F80009EE00E94B34D1092A00E88EE95E169EE8E
:102F900076E00C94ED73EF92FF920F931F930E94D3
:102FA000296B9B01AC01E0900C0EF0900D0E00918E
:102FB0000E0E10910F0E8091570D8823E1F0809135
:102FC000A00E8823C1F02E193F09400B510B8091B0
:102FD000530D9091540DA091550DB091560D82173F
:102FE0009307A407B5073CF488EE95E169EF76E016
:102FF0000E94ED73C0DF80911C0E882309F051DD23
:103000001F910F91FF90EF900895AC01662757FD37
:103010006095762F8DEF9EE00E94BF4A09C0BBDF0E
:103020008091500D882321F08DEF9EE00E944A4F41
:103030008DEF9EE00E94194961157105810591058A
:1030400071F70E94296B60930C0E70930D0E8093A4
:103050000E0E90930F0E0895AC01662757FD6095F4
:10306000762F89EB9EE00E94BF4A09C094DF8091D1
:10307000500D882321F089EB9EE00E944A4F89EB96
:103080009EE00E941949611571058105910571F74E
:103090000E94296B60930C0E70930D0E80930E0EA0
:1030A00090930F0E0895CF93DF93FC01EB01211550
:1030B0003105A9F48091880D882339F0CF0162E0B1
:1030C00070E00E94307BCB012BC0CF0162E070E04A
:1030D0000E94307BCB01909581959F4F21C08091BC
:1030E000880D24173507A1F4882339F0CF0162E059
:1030F00070E00E94307BCB0109C0CF0162E070E03C
:103100000E94307BCB01909581959F4FA5DF15C024
:10311000882311F0CF0104C0882799278E1B9F0BAD
:103120009BDFCE0172DF8091880D882319F0109209
:10313000880D03C081E08093880DDF91CF910895C1
:103140000F931F93CF93DF93EC018B012115310572
:10315000D9F488EE95E16EE177E00E94ED738091FD
:10316000880D882339F0CE0162E070E00E94307B48
:10317000CB012BC0CE0162E070E00E94307BCB011E
:10318000909581959F4F21C08091880D2417350718
:10319000A1F4882339F0CE0162E070E00E94307B18
:1031A000CB0109C0CE0162E070E00E94307BCB0110
:1031B000909581959F4F29DF15C0882311F0CE018E
:1031C00004C0882799278C1B9D0B1FDFC80144DF93
:1031D0008091880D882319F01092880D03C081E03A
:1031E0008093880DDF91CF911F910F9108953F92A9
:1031F0004F925F926F927F928F929F92AF92BF9207
:10320000CF92DF92EF92FF920F931F93DF93CF93B2
:1032100000D00F92CDB7DEB7FC014B016A01322E10
:10322000141615060CF07FC0BA010E94307B5B01BA
:10323000CF01B6010E94307BAA2797FDA095BA2F37
:10324000BC01CD010E940B797B018C01B60188275E
:1032500077FD8095982F0E940B799B01AC01C801E6
:10326000B7010E9470782B013C010F2EF0E0EF2E89
:10327000F0E0FF2EF0E00F2FF0E01F2FF02D1C826A
:103280001B82C50101969A838983C801B701A301F6
:1032900092010E9405787B018C0120E030E040E83B
:1032A0005FE30E94FD7987FF02C095010CC0C80151
:1032B000B70120E030E040E85FE30E9404787B0142
:1032C0008C0129813A8192E0391619F4C401B901BF
:1032D0000EC0E3E03E1619F4C401B90115C0F4E0D4
:1032E0003F1651F466277727621B730BC401A601B2
:1032F0002B813C8125DF0CC081E0381649F466271C
:103300007727621B730BC401A6012B813C81CBDEA6
:103310000E94400FEB81FC813196FC83EB83CE163B
:10332000DF060CF0B2CF0F900F900F900F90CF915F
:10333000DF911F910F91FF90EF90DF90CF90BF90A2
:10334000AF909F908F907F906F905F904F903F9045
:1033500008958F929F92AF92BF92CF92DF92EF9299
:10336000FF920F931F93DF93CF93CDB7DEB72E97C6
:103370000FB6F894DEBF0FBECDBF6E010894C11C1E
:10338000D11CC6016BE67FE00E94E877C601D4D865
:10339000AA2797FDA095BA2F2091440D3091450D95
:1033A000442737FD4095542FBC01CD010E94057B79
:1033B0007B018C015B01C6010E94FA77A8E0CA2E4E
:1033C000D12CCC0EDD1EC60162E77FE00E94E877BB
:1033D000C601B2D84C01C6010E94FA77C701B701F5
:1033E000A40122E004DFAA0CBB1CC50135DEC70125
:1033F000B701A40123E0FBDEC50107DEC701B70169
:10340000A40124E0F4DEB094A194B108B394C50102
:1034100023DEC701B701A40121E0E9DEC501F5DD26
:103420002E960FB6F894DEBF0FBECDBFCF91DF91C1
:103430001F910F91FF90EF90DF90CF90BF90AF90D2
:103440009F908F900895AF92BF92CF92DF92EF92AC
:10345000FF920F931F93DF93CF93CDB7DEB72897DB
:103460000FB6F894DEBF0FBECDBF69837A838B831E
:103470009C832D833E834F8358870E94296B6093E2
:103480000C0E70930D0E80930E0E90930F0ECE01C6
:103490000196BE016B5F7F4F0E94540889EB9EE04E
:1034A0000E940D4C5B016C018DEF9EE00E940D4C63
:1034B0007B018C0189EB9EE040E050E060E070E031
:1034C0000E94884B8DEF9EE040E050E060E070E0AD
:1034D0000E94884B69817A818B819C810E94D87877
:1034E000AB01BC0189EB9EE00E94AE4A6D817E81FA
:1034F0008F8198850E94D878AB01BC018DEF9EE04A
:103500000E94AE4A80914E0D882309F042C089EB9B
:103510009EE00E940D4C20E030E040E050E00E9430
:103520006978882324F4D7FAD094D7F8D0948DEF13
:103530009EE00E940D4C20E030E040E050E00E9410
:103540006978882324F417FB109517F9109589EBF7
:103550009EE0B601A5010E94884B8DEF9EE0B80168
:10356000A7010E94884B15C080914E0D882349F019
:1035700089EB9EE00E944A4F8DEF9EE00E944A4FE9
:1035800008C089EB9EE00E94274F8DEF9EE00E94CD
:10359000274F89EB9EE00E9419496115710581054D
:1035A000910549F48DEF9EE00E941949611571055E
:1035B0008105910531F0EFDC8091500D882349F3AE
:1035C000D3CF0E94400F28960FB6F894DEBF0FBEEF
:1035D000CDBFCF91DF911F910F91FF90EF90DF90C2
:1035E000CF90BF90AF900895AF92BF92CF92DF92ED
:1035F000EF92FF920F931F9379018A010E940B793A
:103600005B016C01C801B7010E940B799B01AC0101
:10361000C601B50118DF1F910F91FF90EF90DF9069
:10362000CF90BF90AF9008952F923F924F925F92AC
:103630006F927F928F929F92AF92BF92CF92DF92C2
:10364000EF92FF920F931F93DF93CF93CDB7DEB727
:1036500060970FB6F894DEBF0FBECDBF88EE95E140
:103660006EE277E00E94ED7388EE95E16EE477E01C
:103670000E944A736091800D7091810D88EE95E1F2
:103680004AE050E00E942D738091800D9091810D51
:10369000029709F0A6C08DEF9EE00E9429491B0108
:1036A0002C018091680D9091690DAA2797FDA09536
:1036B000BA2F280E391E4A1E5B1E88EE95E168E679
:1036C00077E00E944A7388EE95E1B201A1012AE0F9
:1036D00030E00E940973C201B101A20191010E9470
:1036E000057B3B014C01A0905C0DB0905D0DC0903E
:1036F0005E0DD0905F0DE090640DF090650D00912F
:10370000660D1091670DEA0CFB1C0C1D1D1D209110
:10371000FC0D3091FD0D4091FE0D5091FF0D2D8758
:103720003E874F87588B8091580D9091590DA091ED
:103730005A0DB0915B0D89879A87AB87BC87281B90
:10374000390B4A0B5B0BCA01B9010E94057B6D83E3
:103750007E838F839887C801B701A80197010E94D3
:10376000057BED80FE800F8118856E0D7F1D801F0B
:10377000911F66157705880599056CF1C601B5019D
:10378000A60195010E94057B5B016C018091600D93
:103790009091610DA091620DB091630D2D853E85D4
:1037A0004F855889E984FA840B851C852E193F09B9
:1037B000400B510B281B390B4A0B5B0BCA01B9019B
:1037C0000E94057B6A0D7B1D8C1D9D1D661677066C
:1037D0008806990644F488EE95E163E777E00E9455
:1037E000ED7380E005C18D819E81AF81B8858A0D22
:1037F0009B1DAC1DBD1D86159705A805B9050CF4CC
:1038000099C088EE95E167E877E00E94ED7300913A
:103810005C0D10915D0D20915E0D30915F0D09835F
:103820001A832B833C83C901B801A90198010E9426
:10383000057B9B01AC01C401B301621B730B840BBC
:10384000950B0E940B790E946E7A7B018C0160912E
:10385000FC0D7091FD0D8091FE0D9091FF0D0E9469
:103860000B79A80197010E9404780E94D8785B0127
:103870006C0188EE95E168E977E00E944A73C20125
:10388000B1010E940B792091F40D3091F50D40911A
:10389000F60D5091F70D0E94017AAB01BC0188EE44
:1038A00095E122E030E00E94DA7388EE95E162EA69
:1038B00077E00E944A736091580D7091590D809184
:1038C0005A0D90915B0D0E940B792091F40D30916F
:1038D000F50D4091F60D5091F70D0E94017AAB0164
:1038E000BC0188EE95E122E030E00E94DA7388EEB8
:1038F00095E16BEA77E00E944A7360915C0D7091EC
:103900005D0D80915E0D90915F0D0E940B7920916D
:10391000F40D3091F50D4091F60D5091F70D0E9488
:10392000017AAB01BC0188EE95E122E030E00E9413
:10393000DC7330C088EE95E164EB77E00E94ED73B4
:10394000A090580DB090590DC0905A0DD0905B0DBD
:103950002091FC0D3091FD0D4091FE0D5091FF0D19
:10396000C601B501621B730B840B950B2A193B0929
:103970004C095D090E94057B660D771D881D991D08
:103980000E940B790E946E7A0E94D87869837A83AC
:103990008B839C83C601B5010E940B793B014C01CE
:1039A00069817A818B819C810E940B797B018C01DA
:1039B000C401B301A80197010E942C0E5B016C01A8
:1039C000C401B301A80197010E94F50D7B018C0190
:1039D000C601B5010E94D8785B016C01C801B7012E
:1039E0000E94D8789B01AC01C601B501FDDD81E0E4
:1039F00060960FB6F894DEBF0FBECDBFCF91DF91BA
:103A00001F910F91FF90EF90DF90CF90BF90AF90FC
:103A10009F908F907F906F905F904F903F902F90EE
:103A200008952F923F924F925F926F927F928F9262
:103A30009F92AF92BF92CF92DF92EF92FF920F933D
:103A40001F93DF93CF9300D00F92CDB7DEB73B012A
:103A50004C0159016A01FA82E982C80162E070E012
:103A60000E94307B882777FD8095982F661A770A09
:103A7000880A990AA61AB70AC80AD90A1C821B82A0
:103A80001801442437FC4094542C2DC060E070E0B1
:103A900080E090E0A20191010E94AA747B018C0158
:103AA00060E070E080E090E0A20191010E94AA74C1
:103AB0009B01AC010027F7FC0095102FE60CF71CCA
:103AC000081D191D442737FD4095542F2A0D3B1D15
:103AD0004C1D5D1DC801B70187DD2B813C812F5F27
:103AE0003F4F3C832B838B819C81E981FA81E817CE
:103AF000F90764F60F900F900F900F90CF91DF9120
:103B00001F910F91FF90EF90DF90CF90BF90AF90FB
:103B10009F908F907F906F905F904F903F902F90ED
:103B200008952F923F924F925F926F927F928F9261
:103B30009F92AF92BF92CF92DF92EF92FF920F933C
:103B40001F93DF93CF93CDB7DEB7EA970FB6F89404
:103B5000DEBF0FBECDBF8091240E882309F4BCC404
:103B60006E010894C11CD11CC6016BE67FE00E9467
:103B7000E8778E01085F1F4FC80162E77FE00E946F
:103B8000E877C8010E949C124C01A090440DB090AF
:103B9000450DC8010E94FA778E01015F1F4FC801D1
:103BA00069E77FE00E94E877C8010E949C12AA277B
:103BB00097FDA095BA2F2091440D3091450D4427D3
:103BC00037FD4095542FBC01CD010E94057B7CA799
:103BD0006BA7C8010E94FA778E010A5E1F4FC801C9
:103BE000B6010E94E877C8010E944213F82EC8016E
:103BF0000E94FA77FF2069F488EE95E166EC77E0A1
:103C00000E944A7388EE95E1B6010E943074C601A5
:103C10006AC4B401882777FD8095982F95014427C1
:103C200037FD4095542F0E94057B1B012C017EA778
:103C30006DA788EE95E161EE77E00E944A734091AE
:103C40008F0E5091900E6091910E7091920E88EEB1
:103C500095E12AE030E00E94CB7288EE95E16DEEAE
:103C600077E00E944A734091930E5091940E6091B8
:103C7000950E7091960E88EE95E12AE030E00E9454
:103C8000097388EE95E160EF77E00E944A734091F6
:103C9000600D5091610D6091620D7091630D88EE21
:103CA00095E12AE030E00E94CB7288EE95E16CEF5E
:103CB00077E00E94ED736091600D7091610D8091CD
:103CC000620D9091630D0E940B797B018C016091D4
:103CD0008F0E7091900E8091910E9091920E0E9495
:103CE0000B799B01AC01C801B7010E947078609309
:103CF0006C0D70936D0D80936E0D90936F0D88EE2B
:103D000095E16EEF77E00E944A7340916C0D5091FF
:103D10006D0D60916E0D70916F0D88EE95E122E052
:103D200030E00E94DC7388EE95E16EE078E00E945E
:103D30004A734091600D5091610D6091620D7091D8
:103D4000630D88EE95E12AE030E00E94097388EE69
:103D500095E167E374E00E944A736091990E709157
:103D60009A0E88EE95E14AE050E00E942D73AED89D
:103D70006091600D7091610D8091620D9091630D65
:103D80000E940B792091700D3091710D4091720D50
:103D90005091730D0E94017A0E94D8785B016C01EA
:103DA0006093640D7093650D8093660D9093670D1D
:103DB0002091600D3091610D4091620D5091630D25
:103DC0008091580D9091590DA0915A0DB0915B0DB5
:103DD000280F391F4A1F5B1F2FA338A749A75AA7CF
:103DE000E0905C0DF0905D0D00915E0D10915F0D07
:103DF000AE0CBF1CC01ED11ECA01B9010E940B79B6
:103E00003B014C01C801B7010E940B799B01AC0139
:103E1000C401B3010E94F50D7B018C01C10162E078
:103E200070E00E94307B882777FD8095982F0E9454
:103E30000B799B01AC01C801B7010E9405786D8F19
:103E40007E8F8F8F98A360915C0D70915D0D809136
:103E50005E0D90915F0D0E940B799B01AC01C40136
:103E6000B3010E942C0E2D8D3E8D4F8D58A1EBDAA3
:103E70000E94121789EB9EE00E9429490E940B794B
:103E80006BA37CA38DA39EA38DEF9EE00E94294986
:103E90000E940B791B012C01C601B501A6019501F9
:103EA0000E94057B6FA778AB89AB9AAB1AA219A2C7
:103EB0008DA59EA5AA2797FDA095BA2F8BAB9CAB8D
:103EC000ADABBEAB2BA53CA5442737FD4095542F89
:103ED0002FAB38AF49AF5AAF6BA17CA18DA19EA18A
:103EE000A20191010E94720D882309F0ADC188EEF4
:103EF00095E16AE178E00E94ED730E9466176BA974
:103F00007CA98DA99EA90E940B799B01AC016D8DA6
:103F10007E8D8F8D98A10E9405786D8F7E8F8F8FFB
:103F200098A39B01AC010E94017A5B016C01609037
:103F3000FC0D7090FD0D8090FE0D9090FF0D809116
:103F4000580D9091590DA0915A0DB0915B0DA4019F
:103F50009301281B390B4A0B5B0BCA01B9010E9464
:103F6000057B1B012C016FA578A989A99AA9620D6F
:103F7000731D841D951D0E940B799B01AC01C60128
:103F8000B5010E94FD79181654F120915C0D309115
:103F90005D0D40915E0D50915F0DCA01B9010E9407
:103FA000057B7B018C01A40193018FA198A5A9A594
:103FB000BAA5281B390B4A0B5B0BCA01B9010E9439
:103FC000057B6E0D7F1D801F911F0E940B799B0149
:103FD000AC01C601B5010E946978882364F488EEBB
:103FE00095E16EE378E00E94ED732D8C3E8C4F8C52
:103FF00058A011E01FC1C201B1016E0D7F1D801FCD
:10400000911F0E940B799B01AC01C601B5010E9472
:10401000697818160CF47FC088EE95E167E877E0C0
:104020000E94ED7360905C0D70905D0D80905E0D50
:1040300090905F0DC401B301A40193010E94057B20
:104040000E940B799B01AC01C601B5010E94047866
:104050000E946E7A7B018C016091FC0D7091FD0DC8
:104060008091FE0D9091FF0D0E940B79A8019701A0
:104070000E9404780E94D8787B018C0188EE95E13B
:1040800061E578E00E944A736091580D7091590D76
:1040900080915A0D90915B0D0E940B792091F40D47
:1040A0003091F50D4091F60D5091F70D0E94017A77
:1040B000AB01BC0188EE95E122E030E00E94DA73AA
:1040C00088EE95E16BE678E00E944A7360915C0DA2
:1040D00070915D0D80915E0D90915F0D0E940B7946
:1040E0002091F40D3091F50D4091F60D5091F70DA2
:1040F0000E94017AAB01BC0188EE95E122E030E03C
:104100000E94DA73C801B7010E940B795B016C0150
:10411000C401B30178C088EE95E164EB77E00E94BA
:10412000ED73E090580DF090590D00915A0D1091DB
:104130005B0D2091FC0D3091FD0D4091FE0D5091D5
:10414000FF0D2E193F09400B510BCA01B9010E9406
:10415000057B0E940B799B01AC01C601B5010E9451
:1041600004780E946E7A3B014C0188EE95E161E58E
:1041700078E00E944A736091580D7091590D8091BA
:104180005A0D90915B0D0E940B792091F40D3091A6
:10419000F50D4091F60D5091F70D0E94017AAB019B
:1041A000BC0188EE95E122E030E00E94DA7388EEEF
:1041B00095E16BE678E00E944A7360915C0D709126
:1041C0005D0D80915E0D90915F0D0E940B792091A5
:1041D000F40D3091F50D4091F60D5091F70D0E94C0
:1041E000017AAB01BC0188EE95E122E030E00E944B
:1041F000DA73C801B7010E940B795B016C01C4013D
:10420000B3010E94D8780E940B797B018C01C60112
:10421000B501A80197010E942C0E6BA37CA38DA36E
:104220009EA3C601B501A80197010E94F50D1B01CF
:104230002C0110E068EE73E080E090E00E945D6B7E
:10424000112309F03EC106C088EE95E16FE678E0E3
:104250000E94ED736BA17CA18DA19EA1A201910191
:10426000F2D80E941217A9A1BAA11196BAA3A9A3C4
:1042700088EE95E168E778E00E944A7388EE95E160
:1042800069A17AA14AE050E00E942D736BA17CA144
:104290008DA19EA1A20191010E94F7087B018C01D2
:1042A0002BA13CA14DA15EA10E944B0D5B016C01B5
:1042B0006091580D7091590D80915A0D90915B0D40
:1042C0000E940B799B01AC01C801B7010E940478E0
:1042D0003B014C0160915C0D70915D0D80915E0D14
:1042E00090915F0D0E940B799B01AC01C601B50155
:1042F0000E9404785B016C0188EE95E16FE778E03D
:104300000E944A7388EE95E1B401A30122E030E0F7
:104310000E94DA7388EE95E16EE573E00E944A73BD
:1043200088EE95E1B601A50122E030E00E94DC7341
:10433000E0906C0DF0906D0D00916E0D10916F0D71
:10434000C401B301A80197010E9470783B014C01A0
:10435000C601B501A80197010E9470787B018C010C
:1043600088EE95E16BE978E00E944A7388EE95E16A
:10437000B401A30122E030E00E94DA7388EE95E1F7
:104380006EE573E00E944A7388EE95E1B801A701DB
:1043900022E030E00E94DC73C801B7010E94D878A7
:1043A0005B016C019B01442737FD4095542F8091A0
:1043B000930E9091940EA091950EB091960E821747
:1043C0009307A407B507C4F0C401B3010E94D878CD
:1043D0007B018C019B01442737FD4095542F809130
:1043E0008F0E9091900EA091910EB091920E821727
:1043F0009307A407B5072CF488EE95E16FEB78E0FE
:1044000064C0C701B5010E94EF0F6091970E7091D3
:10441000980E90E04DA55EA50E94ED07E82E6FA9CD
:1044200078AD89AD9AAD0E940B793B014C01FF2418
:1044300000E010E0C801B7010E94097920E030E0F7
:1044400040E05FE30E94017A5B016C01C401B301AB
:1044500020E030E040E05FE30E94017A9B01AC0184
:104460006BA17CA18DA19EA10E9405787B018C018E
:10447000C201B101A60195010E9404789B01AC0123
:10448000B701C8010E94231AC201B101A60195011A
:104490000E9405789B01AC01B701C8010E94231A54
:1044A0006BA17CA18DA19EA1A40193010E9405781E
:1044B0006BA37CA38DA39EA3A20191010E94231A4A
:1044C0000BCD88EE95E169ED78E00E94ED730E94D6
:1044D0006617CE01019607C088EE95E164EE78E09C
:1044E0000E94ED7302C00E94FA77EA960FB6F89424
:1044F000DEBF0FBECDBFCF91DF911F910F91FF9017
:10450000EF90DF90CF90BF90AF909F908F907F9073
:104510006F905F904F903F902F9008952F923F9211
:104520004F925F926F927F928F929F92AF92BF92C3
:10453000CF92DF92EF92FF920F931F93DF93CF936F
:10454000CDB7DEB7E8970FB6F894DEBF0FBECDBF8C
:104550002B013C01EBA2FCA20DA31EA3AFA2B8A6A7
:10456000C9A6DAA69CA68BA60E94F7086B8F7C8F43
:104570008D8F9E8FA30192010E944B0D6F8B788FC0
:10458000898F9A8F6BA17CA18DA19EA12FA138A5A7
:1045900049A55AA50E94F7087B018C012BA13CA1DB
:1045A0004DA15EA10E944B0D5B016C01C801B701DA
:1045B00020E030E040EA51E40E94FD7918160CF04A
:1045C00012C26091FC0D7091FD0D8091FE0D9091D5
:1045D000FF0D64517040804090400E940B796F8FB6
:1045E00078A389A39AA3C801B7012F8D38A149A147
:1045F0005AA10E94697888230CF0F5C1C601B50163
:1046000020E030E040EA51E40E94FD7918160CF0F9
:10461000EAC16091000E7091010E8091020E90919E
:10462000030E64517040804090400E940B792B0132
:104630003C01C601B501A30192010E94697888235B
:104640000CF0D1C16B8D7C8D8D8D9E8D20E030E086
:1046500040EA51E40E94FD7918160CF0C4C16B8D3C
:104660007C8D8D8D9E8D2F8D38A149A15AA10E94E0
:10467000697888230CF0B7C16F89788D898D9A8D00
:1046800020E030E040EA51E40E94FD7918160CF079
:10469000AAC16F89788D898D9A8DA30192010E949C
:1046A000697888230CF09FC110924F0DC801B701A3
:1046B0002B8D3C8D4D8D5E8D0E9404781B012C014D
:1046C000C601B5012F89388D498D5A8D0E94047815
:1046D0003B014C01C201B10120E030E040E050E07C
:1046E0000E94FD7918161CF48201710106C0820136
:1046F000710117FB109517F91095C401B30120E063
:1047000030E040E050E00E94FD7918161CF4A4014E
:10471000930103C0A40193015058C801B7010E943E
:10472000FD7918169CF021E030E03E8B2D8BD401F2
:10473000C301B0588DAB9EABAFABB8AFABA5BCA5BA
:104740005D01CC24B7FCC094DC2C4EC021E030E0ED
:104750003E8B2D8BD201C101B05889AB9AABABAB6C
:10476000BCABABA5BCA55D01CC24B7FCC094DC2CD4
:1047700006C02D893E892F5F3F4F3E8B2D8BC20196
:10478000B10120E030E040E050E00E94FD791816D1
:104790001CF48201710104C0E9A8FAA80BA91CA9A4
:1047A000AD89BE89BD01882777FD8095982F0E942D
:1047B0000B799B01AC01C801B7010E9470787B01A5
:1047C0008C01C601B5010E940B799B01AC01C801A7
:1047D000B7010E94FD79181664F234C02D893E8914
:1047E0002F5F3F4F3E8B2D8BC401B30120E030E0A3
:1047F00040E050E00E94FD7918161CF4840173011A
:1048000004C0EDA8FEA80FA918ADAD89BE89BD01F1
:10481000882777FD8095982F0E940B799B01AC012A
:10482000C801B7010E9470787B018C01C601B501F7
:104830000E940B799B01AC01C801B7010E94FD7970
:10484000181664F22D893E895901CC24B7FCC09416
:10485000DC2CC601B5010E940B797B018C01C201E1
:10486000B101A80197010E9470786D837E838F83C8
:104870009887C401B301A80197010E9470786983E9
:104880007A838B839C8310924E0D198A1A8A1B8A15
:104890001C8A19861A861B861C86ADA6BEA6CFA6C4
:1048A000D8AA6B8D7C8D8D8D9E8D2D813E814F8103
:1048B00058850E9405786B8F7C8F8D8F9E8F6F89B6
:1048C000788D898D9A8D29813A814B815C810E94F6
:1048D00005786F8B788F898F9A8F6B8D7C8D8D8DFE
:1048E0009E8D2F89388D498D5A8D0E942C0E6D8793
:1048F0007E878F87988B6B8D7C8D8D8D9E8D2F897C
:10490000388D498D5A8D0E94F50D1B012C0169844B
:104910007A848B849C848DA59EA5AFA5B8A9680ECA
:10492000791E8A1E9B1E69897A898B899C890E94BF
:104930000B795B016C0160914A0D70914B0D809178
:104940004C0D90914D0D20E030E040E850E40E9485
:10495000017A7B018C01C401B301A60195010E947B
:10496000550E0E94D878698B7A8B8B8B9C8B0E941A
:104970000B797B018C0189EB9EE0B801A7010E94B5
:10498000884B8DEF9EE0B801A7010E94884B6D8592
:104990007E858F859889A20191010E94231A8985BD
:1049A0009A85AB85BC850197A109B10989879A874A
:1049B000AB87BC878D899E89A985BA858A0F9B1F85
:1049C000892B09F06ECF11E010934F0D6BA17CA1E4
:1049D0008DA19EA12FA138A549A55AA50E94231AF1
:1049E00010934E0D06C088EE95E161E179E00E94DA
:1049F000ED730E941B0DE8960FB6F894DEBF0FBE54
:104A0000CDBFCF91DF911F910F91FF90EF90DF907D
:104A1000CF90BF90AF909F908F907F906F905F905E
:104A20004F903F902F9008952F923F924F925F9218
:104A30006F927F928F929F92AF92BF92CF92DF92AE
:104A4000EF92FF920F931F93DF93CF93CDB7DEB713
:104A5000A6970FB6F894DEBF0FBECDBF8091240E8F
:104A6000882309F401C3CE0101966BE67FE00E9422
:104A7000E8778E01085F1F4FC801BE016F5F7F4F4F
:104A80000E94E877C8010E944213F82EC8010E94D4
:104A9000FA77FF2071F488EE95E166EC77E00E94EA
:104AA0004A7388EE95E1BE016F5F7F4F0E943074BC
:104AB000D6C288EE95E161EE77E00E944A7340919C
:104AC0008F0E5091900E6091910E7091920E88EE23
:104AD00095E12AE030E00E94CB7288EE95E16DEE20
:104AE00077E00E944A734091930E5091940E60912A
:104AF000950E7091960E88EE95E12AE030E00E94C6
:104B0000097388EE95E160EF77E00E944A73409167
:104B1000600D5091610D6091620D7091630D88EE92
:104B200095E12AE030E00E94CB7288EE95E16CEFCF
:104B300077E00E94ED736091600D7091610D80913E
:104B4000620D9091630D20918F0E3091900E4091E7
:104B5000910E5091920E0E94657BCA01B9010E948C
:104B60000B7960936C0D70936D0D80936E0D909327
:104B70006F0D88EE95E16EEF77E00E944A734091E9
:104B80006C0D50916D0D60916E0D70916F0D88EEF2
:104B900095E122E030E00E94DC7388EE95E16EE062
:104BA00078E00E944A734091600D5091610D6091D0
:104BB000620D7091630D88EE95E12AE030E00E946D
:104BC000097388EE95E167E374E00E944A7360918F
:104BD000990E70919A0E88EE95E14AE050E00E949D
:104BE0002D73E090600DF090610D0091620D1091B9
:104BF000630DC801B7010E940B792091700D3091AF
:104C0000710D4091720D5091730D0E94017A0E94B6
:104C1000D8786093640D7093650D8093660D9093C2
:104C2000670D2090580D3090590D40905A0D5090BE
:104C30005B0D2E0C3F1C401E511E20915C0D3091CF
:104C40005D0D40915E0D50915F0D260F371F481F7F
:104C5000591F2F87388B498B5A8B88EE95E167E374
:104C600079E00E944A7388EE95E1B201A1012AE041
:104C700030E00E94CB7288EE95E16FE379E00E940C
:104C80004A7388EE95E14F85588969897A892AE0C7
:104C900030E00E94097389EB9EE00E9429493B01A4
:104CA0004C018DEF9EE00E9429496BA37CA38DA34C
:104CB0009EA36091580D7091590D80915A0D90915D
:104CC0005B0D0E940B797B018C0160915C0D7091F2
:104CD0005D0D80915E0D90915F0D0E940B799B019F
:104CE000AC01C801B7010E942C0E7B018C016091C0
:104CF000580D7091590D80915A0D90915B0D0E9445
:104D00000B795B016C0160915C0D70915D0D809180
:104D10005E0D90915F0D0E940B799B01AC01C60165
:104D2000B5010E94F50D5B016C01C401B3010E9445
:104D30000B793B014C016BA17CA18DA19EA10E942E
:104D40000B799B01AC01C401B301E4E18E2E912CDF
:104D5000E5DB89EB9EE00E9429493B014C018DEF88
:104D60009EE00E9429496F8F78A389A39AA3C2016C
:104D7000B1010E940B796B8F7C8F8D8F9E8F60911C
:104D80005C0D70915D0D80915E0D90915F0D0E94A4
:104D90000B799B01AC016B8D7C8D8D8D9E8D0E945E
:104DA0002C0E7B018C0160915C0D70915D0D8091EA
:104DB0005E0D90915F0D0E940B799B01AC016B8D94
:104DC0007C8D8D8D9E8D0E94F50D5B016C01C40163
:104DD000B3010E940B793B014C016F8D78A189A131
:104DE0009AA10E940B799B01AC01C401B301B4E10B
:104DF0008B2E912C93DB89EB9EE00E9429493B018D
:104E00004C018DEF9EE00E9429496F8B788F898F2E
:104E10009A8F6F85788989899A890E940B791B01FD
:104E20002C016B8D7C8D8D8D9E8DA20191010E9438
:104E30002C0E7B018C016B8D7C8D8D8D9E8DA20146
:104E400091010E94F50D5B016C01C401B3010E9448
:104E50000B793B014C016F89788D898D9A8D0E9469
:104E60000B799B01AC01C401B301A4E18A2E912C02
:104E700055DB89EB9EE00E9429493B014C018DEFF7
:104E80009EE00E9429496B8B7C8B8D8B9E8B609161
:104E9000580D7091590D80915A0D90915B0D0E94A3
:104EA0000B79A20191010E942C0E7B018C01609173
:104EB000580D7091590D80915A0D90915B0D0E9483
:104EC0000B79A20191010E94F50D5B016C01C401F7
:104ED000B3010E940B793B014C016B897C898D8960
:104EE0009E890E940B799B01AC01C401B301F4E1DE
:104EF0008F2E912C13DB89EB9EE00E9429493B0108
:104F00004C018DEF9EE00E9429491B012C0160910C
:104F1000580D7091590D80915A0D90915B0D0E9422
:104F20000B797B018C0160915C0D70915D0D80911E
:104F30005E0D90915F0D0E940B799B01AC01C80141
:104F4000B7010E942C0E7B018C016091580D70916D
:104F5000590D80915A0D90915B0D0E940B795B0168
:104F60006C0160915C0D70915D0D80915E0D909172
:104F70005F0D0E940B799B01AC01C601B5010E9437
:104F8000F50D5B016C01C401B3010E940B793B017B
:104F90004C01C201B1010E940B799B01AC01C4011B
:104FA000B301E4E18E2E912CB9DA89EB9EE00E94E8
:104FB00029493B014C018DEF9EE00E9429491B01CC
:104FC0002C016091580D7091590D80915A0D90915E
:104FD0005B0D0E940B797B018C0160915C0D7091DF
:104FE0005D0D80915E0D90915F0D0E940B799B018C
:104FF000AC01C801B7010E942C0E7B018C016091AD
:10500000580D7091590D80915A0D90915B0D0E9431
:105010000B795B016C0160915C0D70915D0D80916D
:105020005E0D90915F0D0E940B799B01AC01C60152
:10503000B5010E94F50D5B016C01C401B3010E9432
:105040000B793B014C01C201B1010E940B799B011C
:10505000AC01C401B301B4E18B2E912C5FDACE0117
:1050600001960E94FA7706C088EE95E164EE78E03A
:105070000E94ED73A6960FB6F894DEBF0FBECDBFAB
:10508000CF91DF911F910F91FF90EF90DF90CF9024
:10509000BF90AF909F908F907F906F905F904F9058
:1050A0003F902F9008952F923F924F925F926F9270
:1050B0007F928F929F92AF92BF92CF92DF92EF92A8
:1050C000FF920F931F93DF93CF93CDB7DEB76E9709
:1050D0000FB6F894DEBF0FBECDBF6B877C878D8780
:1050E0009E872F87388B498B5A8BEB8AFC8A0D8BD6
:1050F0001E8BAF8AB88EC98EDA8E0F2EF0E06F2E1F
:10510000F0E07F2EF0E08F2EF0E09F2EF02D1A823F
:1051100019828CAD9DADAA2797FDA095BA2F8B8FD4
:105120009C8FAD8FBE8F60E070E080E89FE3A401AC
:1051300093010E9404787B018C01A80197010E94D1
:10514000017AAC01CB01DA018F839887A987BA87EE
:10515000C401B301A40193010E940578A80197013D
:105160000E94017A6B837C838D839E83C401B3018B
:10517000A40193010E94017AAC01CB01DA011C0168
:105180002D01ACADBDADAB2BB1F06B8D7C8D8D8D9C
:105190009E8D0E940B797B018C0189EB9EE0B8010A
:1051A000A7010E94884B8DEF9EE0B801A7010E94E5
:1051B000884B10924E0D10924F0D6B857C858D851E
:1051C0009E850E940B799B01AC016F817885898552
:1051D0009A850E94017A7B018C016CA97DA98EA918
:1051E0009FA90E940B799B01AC016B817C818D8111
:1051F0009E810E94017A9B01AC01C801B7010E9407
:1052000005787B018C016B897C898D899E890E9440
:105210000B799B01AC01C201B1010E94017A9B0193
:10522000AC01C801B7010E9405785B016C016F8574
:10523000788989899A890E940B799B01AC016F81D9
:10524000788589859A850E94017A7B018C0168ADF9
:1052500079AD8AAD9BAD0E940B799B01AC016B814E
:105260007C818D819E810E94017A9B01AC01C801E5
:10527000B7010E9405787B018C016F89788D898D3B
:105280009A8D0E940B799B01AC01C201B1010E9471
:10529000017A9B01AC01C801B7010E9405789B010E
:1052A000AC01C601B5010E94231AB1E0B0934F0DC5
:1052B000B0934E0DC401B3012AE037ED43E25CE345
:1052C0000E9405783B014C0189819A8101969A835D
:1052D00089838536910509F026CF6E960FB6F8942E
:1052E000DEBF0FBECDBFCF91DF911F910F91FF9019
:1052F000EF90DF90CF90BF90AF909F908F907F9076
:105300006F905F904F903F902F900895EF92FF9293
:105310000F931F9309EB1EE0C8010E94014EFDEFA1
:10532000EF2EFEE0FF2EC7010E94014E81E0809328
:10533000A00EC8010E942949AB01BC01405E5F4F2D
:105340006F4F7F4FC8010E94784FC7010E942949C3
:10535000AB01BC01405E5F4F6F4F7F4FC7010E94A2
:10536000784FC8010E942949AB01BC01405250400E
:1053700060407040C8010E94784FC7010E942949CF
:10538000AB01BC014052504060407040C7010E94D8
:10539000784F88EE95E167E479E00E94ED731F9104
:1053A0000F91FF90EF900895EF92FF920F931F934C
:1053B0007C0108EE15E1C80168ED73E00E94AC7154
:1053C000C801B7010E94FE73C8016AEB73E00E9436
:1053D000F7711F910F91FF90EF900895AF92BF92D8
:1053E000CF92DF92EF92FF920F931F93DF93CF93B1
:1053F000CDB7DEB72E970FB6F894DEBF0FBECDBF88
:10540000ADB6BEB67E010894E11CF11CC7016BE687
:105410007FE00E94E8778E01085F1F4FC80162E7B6
:105420007FE00E94E877C70164E072E00E940076A6
:10543000882309F057C088EE95E167E579E00E947E
:105440004A7388EE95E1B7010E94307481E0809341
:10545000250E86E29EE0B7010E94D377C80164E77B
:1054600079E00E940076882309F442C0DDB6CEB60A
:105470004D815E814F5F5F4F8DB79EB7841B950B4B
:105480000FB6F8949EBF0FBE8DBF0DB71EB70F5F4E
:105490001F4FC701B80120E030E00E94B1758DE6D2
:1054A00091E1B8010E943057882399F088EE95E188
:1054B00064EC71E00E94F7718DE691E1B8010E9401
:1054C0002657882331F088EE95E166EB71E00E9463
:1054D000F7718D2D9C2D9C010FB6F8943EBF0FBE29
:1054E0002DBF06C088EE95E166E779E00E94ED7376
:1054F000CE0108960E94FA77CE0101960E94FA77B3
:105500000FB6F894BEBE0FBEADBE2E960FB6F89481
:10551000DEBF0FBECDBFCF91DF911F910F91FF90E6
:10552000EF90DF90CF90BF90AF9008950F931F93AF
:10553000AB01BC0140934A0D50934B0D60934C0D51
:1055400070934D0D89EB9EE00E94584E40914A0D9C
:1055500050914B0D60914C0D70914D0D8DEF9EE073
:105560000E94584E08EE15E1C80166E172E00E9403
:10557000AC7140914A0D50914B0D60914C0D709162
:105580004D0DC80122E030E00E94DC731F910F91A5
:105590000895CF92DF92EF92FF920F931F937C01B9
:1055A0008B01AAE6CA2EA1E1DA2EC601B701F801E5
:1055B00040810E94A0520894E11CF11CC601B70171
:1055C000F80141810E94A05282E090E01F910F916A
:1055D000FF90EF90DF90CF9008950F931F93AB0152
:1055E000BC014093460D5093470D6093480D709356
:1055F000490D89EB9EE00E94334B4091460D50913E
:10560000470D6091480D7091490D8DEF9EE00E940D
:10561000334B08EE15E1C80169E272E00E94AC71FB
:105620004091460D5091470D6091480D7091490D84
:10563000C80122E030E00E94DC731F910F910895B1
:10564000CF92DF92EF92FF920F931F937C018B0119
:10565000BAE6CB2EB1E1DB2EC601B7010E9499520A
:10566000F80180830894E11CF11CC601B7010E9477
:105670009952F801818382E090E01F910F91FF9091
:10568000EF90DF90CF90089584E190E064E47DE0B6
:10569000D7DF8091440D9091450D1816190644F0FE
:1056A00080918B0D90918C0D9093450D8093440DBE
:1056B00088EE95E165EF72E00E94AC716091440D57
:1056C0007091450D88EE95E14AE050E00C942D7301
:1056D0008AE290E069E87DE0B3DF8091890D9091E6
:1056E0008A0D97FF06C08AE590E090938A0D80931B
:1056F000890D88EE95E167E373E00E94AC716091DB
:10570000890D70918A0D88EE95E14AE050E00E9483
:105710002D738CE290E063ED70E192DF8091D31005
:105720009091D41097FF04C01092D4101092D3100F
:1057300088EE95E168E273E00E94AC716091D3104D
:105740007091D41088EE95E14AE050E00C942D73EE
:105750000F931F93DF93CF93CDB7DEB762970FB64A
:10576000F894DEBF0FBECDBF8E010B5F1F4FC80187
:105770006BE67FE00E94E877C8010E949C129A8342
:105780008983C8010E94FA778E01045F1F4FC80108
:1057900062E77FE00E94E877C8010E949C129C8328
:1057A0008B83C8010E94FA7788EE95E16EE372E080
:1057B0000E94AC7169817A8188EE95E14AE050E0FF
:1057C0000E942D7388EE95E169E372E00E94AC714E
:1057D0006B817C8188EE95E14AE050E00E942D7358
:1057E00080910A0E90910B0E8430910571F48AE23B
:1057F00090E0BE016F5F7F4FCCDE8CE290E0BE0197
:105800006D5F7F4FC6DE64DF3AC00397C1F56B81E1
:105810007C8189819A8143E050E00E94C81668EC3F
:1058200070E080E090E00E945D6B69817A818B81FD
:105830009C8143E050E00E94C81668EC70E080E074
:1058400090E00E945D6B6B817C8189819A8143E04D
:1058500050E00E94C81668EC70E080E090E00E9482
:105860005D6B69817A818B819C8143E050E00E946D
:10587000C81668EC70E080E090E00E945D6B629674
:105880000FB6F894DEBF0FBECDBFCF91DF911F9151
:105890000F91089580E090E064E77DE0D1DE809193
:1058A000740D9091750D1816190644F08091910DA4
:1058B0009091920D9093750D8093740D88EE95E103
:1058C00064EA73E00E94AC716091740D7091750D83
:1058D00088EE95E14AE050E00E942D7382E090E06E
:1058E00066E77DE0ADDE8091760D9091770D18161C
:1058F000190644F08091930D9091940D9093770D3B
:105900008093760D88EE95E16DE873E00E94AC71AE
:105910006091760D7091770D88EE95E14AE050E048
:105920000C942D730F931F93DF93CF93CDB7DEB7F6
:1059300064970FB6F894DEBF0FBECDBF8E01095F2E
:105940001F4FC8016BE67FE00E94E877C8010E9404
:105950009C129A838983C8010E94FA778E01025FA4
:105960001F4FC80162E77FE00E94E877C8010E94EC
:105970009C129C838B83C8010E94FA7789819A814B
:105980009E838D8380E090E0BE016B5F7F4F58DE89
:1059900029813A818D819E818217930749F02B30AE
:1059A000310534F080E090E0BE016F5F7F4FF1DDA4
:1059B00082E090E0BE016B5F7F4F42DE2B813C8135
:1059C0008D819E818217930749F02B30310534F089
:1059D00082E090E0BE016D5F7F4FDBDD5BDF6496B0
:1059E0000FB6F894DEBF0FBECDBFCF91DF911F91F0
:1059F0000F910895EF92FF920F931F93CF93DF9330
:105A0000AC01EB0114E0E12EF12CE60EF71E8A0149
:105A10000F5F1F4F8AE691E1BA010E949952899364
:105A2000A801CE15DF0599F784E090E0DF91CF91D2
:105A30001F910F91FF90EF90089586E190E066E44A
:105A40007DE0D8DF6091460D7091470D8091480D43
:105A50009091490D0E94D8781616170664F080E0E0
:105A600090E0A8E4B4E48093460D9093470DA09392
:105A7000480DB093490D8AE190E06AE47DE0BADF19
:105A800060914A0D70914B0D80914C0D90914D0D90
:105A90000E94D8781616170664F080E090E0A8E41B
:105AA000B4E480934A0D90934B0DA0934C0DB093AA
:105AB0004D0D08958EE090E060E47DE09BDF88EE80
:105AC00095E167E773E00E94AC714091400D509101
:105AD000410D6091420D7091430D88EE95E122E0F9
